{
  "contractName": "BMoonCatsReader",
  "abi": [
    {
      "inputs": [],
      "stateMutability": "nonpayable",
      "type": "constructor"
    },
    {
      "inputs": [
        {
          "internalType": "uint256",
          "name": "from",
          "type": "uint256"
        },
        {
          "internalType": "uint256",
          "name": "size",
          "type": "uint256"
        }
      ],
      "name": "getCatOwners",
      "outputs": [
        {
          "internalType": "address[]",
          "name": "",
          "type": "address[]"
        }
      ],
      "stateMutability": "view",
      "type": "function"
    }
  ],
  "bytecode": "0x608060405234801561001057600080fd5b506102e4806100206000396000f3fe608060405234801561001057600080fd5b506004361061002b5760003560e01c8063f392307614610030575b600080fd5b6100536004803603604081101561004657600080fd5b50803590602001356100a3565b60408051602080825283518183015283519192839290830191858101910280838360005b8381101561008f578181015183820152602001610077565b505050509050019250505060405180910390f35b6060616400831080156100b65750600082115b156102a8578161640084820111156100d057836164000390505b60608167ffffffffffffffff811180156100e957600080fd5b50604051908082528060200260200182016040528015610113578160200160208202803683370190505b50905060005b8281101561029e57604080517f434b120800000000000000000000000000000000000000000000000000000000815282880160048201529051737a00b19edc00fa5fb65f32b4d263ce753df8f65191633894ca5791839163434b1208916024808301926020929190829003018186803b15801561019557600080fd5b505afa1580156101a9573d6000803e3d6000fd5b505050506040513d60208110156101bf57600080fd5b5051604080517fffffffff0000000000000000000000000000000000000000000000000000000060e085901b1681527fffffffffff0000000000000000000000000000000000000000000000000000009092166004830152516024808301926020929190829003018186803b15801561023757600080fd5b505afa15801561024b573d6000803e3d6000fd5b505050506040513d602081101561026157600080fd5b5051825183908390811061027157fe5b73ffffffffffffffffffffffffffffffffffffffff90921660209283029190910190910152600101610119565b5091506102a89050565b9291505056fea2646970667358221220753d8ab4759ff5b5f60a273e69134ecaa1a4679887a163a7640e66b4ed1e769964736f6c634300060c0033",
  "immutableReferences": {},
  "source": "// SPDX-License-Identifier: AGPL-3.0-or-later\n\npragma solidity =0.6.12;\n\ncontract MoonCatRescue {\n    enum Modes {Inactive, Disabled, Test, Live}\n\n    Modes public mode = Modes.Inactive;\n\n    address owner = 0xaF826434ac09C398654670f78E7024AC276ff22B;\n\n    bytes16 public imageGenerationCodeMD5 = 0xdbad5c08ec98bec48490e3c196eec683; // use this to verify mooncatparser.js the cat image data generation javascript file.\n\n    string public name = \"MoonCats\";\n    string public symbol = \"ðŸ±\"; // unicode cat symbol\n    uint8 public decimals = 0;\n\n    uint256 public totalSupply = 25600;\n    uint16 public remainingCats = 25600 - 64; // there will only ever be 25,000 cats\n    uint16 public remainingGenesisCats = 64; // there can only be a maximum of 64 genesis cats\n    uint16 public rescueIndex = 0;\n\n    bytes5[25600] public rescueOrder;\n\n    bytes32 public searchSeed = 0x0; // gets set with the immediately preceding blockhash when the contract is activated to prevent \"premining\"\n\n    struct AdoptionOffer {\n        bool exists;\n        bytes5 catId;\n        address seller;\n        uint256 price;\n        address onlyOfferTo;\n    }\n\n    struct AdoptionRequest {\n        bool exists;\n        bytes5 catId;\n        address requester;\n        uint256 price;\n    }\n\n    mapping(bytes5 => AdoptionOffer) public adoptionOffers;\n    mapping(bytes5 => AdoptionRequest) public adoptionRequests;\n\n    mapping(bytes5 => bytes32) public catNames;\n    mapping(bytes5 => address) public catOwners;\n    mapping(address => uint256) public balanceOf; //number of cats owned by a given address\n    mapping(address => uint256) public pendingWithdrawals;\n}\n\ncontract BMoonCatsReader {\n    constructor() public {}\n\n    MoonCatRescue private constant bMoonCats =\n        MoonCatRescue(0x7A00B19eDc00fa5fB65F32B4D263CE753Df8f651);\n\n    function getCatOwners(uint256 from, uint256 size) external view returns (address[] memory) {\n        if (from < 25600 && size > 0) {\n            uint256 querySize = size;\n            if ((from + size) > 25600) {\n                querySize = 25600 - from;\n            }\n            address[] memory owners = new address[](querySize);\n            for (uint256 i = 0; i < querySize; i++) {\n                owners[i] = bMoonCats.catOwners(bMoonCats.rescueOrder(i + from));\n            }\n            return owners;\n        }\n    }\n}\n",
  "sourcePath": "/Users/fayexue/projects/nftkey-marketplace/contracts/readers/BMoonCatsReader.sol",
  "compiler": {
    "name": "solc",
    "version": "0.6.12+commit.27d51765.Emscripten.clang"
  },
  "schemaVersion": "3.3.4",
  "updatedAt": "2021-06-12T22:57:17.899Z",
  "devdoc": {
    "kind": "dev",
    "methods": {},
    "version": 1
  },
  "userdoc": {
    "kind": "user",
    "methods": {},
    "version": 1
  }
}