{
  "contractName": "MarketPlaceReader",
  "abi": [
    {
      "inputs": [],
      "stateMutability": "nonpayable",
      "type": "constructor"
    },
    {
      "inputs": [
        {
          "internalType": "address",
          "name": "marketplace",
          "type": "address"
        },
        {
          "internalType": "uint256",
          "name": "tokenId",
          "type": "uint256"
        },
        {
          "internalType": "address",
          "name": "bidder",
          "type": "address"
        }
      ],
      "name": "getBidderTokenBid",
      "outputs": [
        {
          "components": [
            {
              "internalType": "uint256",
              "name": "tokenId",
              "type": "uint256"
            },
            {
              "internalType": "uint256",
              "name": "bidPrice",
              "type": "uint256"
            },
            {
              "internalType": "address",
              "name": "bidder",
              "type": "address"
            },
            {
              "internalType": "uint256",
              "name": "expireTimestamp",
              "type": "uint256"
            }
          ],
          "internalType": "struct INFTKEYMarketPlaceV1.Bid",
          "name": "",
          "type": "tuple"
        }
      ],
      "stateMutability": "view",
      "type": "function",
      "constant": true
    },
    {
      "inputs": [
        {
          "internalType": "address",
          "name": "marketplace",
          "type": "address"
        },
        {
          "internalType": "uint256",
          "name": "tokenId",
          "type": "uint256"
        }
      ],
      "name": "getTokenBids",
      "outputs": [
        {
          "components": [
            {
              "internalType": "uint256",
              "name": "tokenId",
              "type": "uint256"
            },
            {
              "internalType": "uint256",
              "name": "bidPrice",
              "type": "uint256"
            },
            {
              "internalType": "address",
              "name": "bidder",
              "type": "address"
            },
            {
              "internalType": "uint256",
              "name": "expireTimestamp",
              "type": "uint256"
            }
          ],
          "internalType": "struct INFTKEYMarketPlaceV1.Bid[]",
          "name": "",
          "type": "tuple[]"
        }
      ],
      "stateMutability": "view",
      "type": "function",
      "constant": true
    },
    {
      "inputs": [
        {
          "internalType": "address",
          "name": "marketplace",
          "type": "address"
        },
        {
          "internalType": "uint256",
          "name": "tokenId",
          "type": "uint256"
        }
      ],
      "name": "getTokenHighestBid",
      "outputs": [
        {
          "components": [
            {
              "internalType": "uint256",
              "name": "tokenId",
              "type": "uint256"
            },
            {
              "internalType": "uint256",
              "name": "bidPrice",
              "type": "uint256"
            },
            {
              "internalType": "address",
              "name": "bidder",
              "type": "address"
            },
            {
              "internalType": "uint256",
              "name": "expireTimestamp",
              "type": "uint256"
            }
          ],
          "internalType": "struct INFTKEYMarketPlaceV1.Bid",
          "name": "",
          "type": "tuple"
        }
      ],
      "stateMutability": "view",
      "type": "function",
      "constant": true
    },
    {
      "inputs": [
        {
          "internalType": "address",
          "name": "marketplace",
          "type": "address"
        },
        {
          "internalType": "uint256",
          "name": "from",
          "type": "uint256"
        },
        {
          "internalType": "uint256",
          "name": "size",
          "type": "uint256"
        }
      ],
      "name": "getTokenHighestBids",
      "outputs": [
        {
          "components": [
            {
              "internalType": "uint256",
              "name": "tokenId",
              "type": "uint256"
            },
            {
              "internalType": "uint256",
              "name": "bidPrice",
              "type": "uint256"
            },
            {
              "internalType": "address",
              "name": "bidder",
              "type": "address"
            },
            {
              "internalType": "uint256",
              "name": "expireTimestamp",
              "type": "uint256"
            }
          ],
          "internalType": "struct INFTKEYMarketPlaceV1.Bid[]",
          "name": "",
          "type": "tuple[]"
        }
      ],
      "stateMutability": "view",
      "type": "function",
      "constant": true
    },
    {
      "inputs": [
        {
          "internalType": "address",
          "name": "marketplace",
          "type": "address"
        }
      ],
      "name": "getAllTokenHighestBids",
      "outputs": [
        {
          "components": [
            {
              "internalType": "uint256",
              "name": "tokenId",
              "type": "uint256"
            },
            {
              "internalType": "uint256",
              "name": "bidPrice",
              "type": "uint256"
            },
            {
              "internalType": "address",
              "name": "bidder",
              "type": "address"
            },
            {
              "internalType": "uint256",
              "name": "expireTimestamp",
              "type": "uint256"
            }
          ],
          "internalType": "struct INFTKEYMarketPlaceV1.Bid[]",
          "name": "",
          "type": "tuple[]"
        }
      ],
      "stateMutability": "view",
      "type": "function",
      "constant": true
    },
    {
      "inputs": [
        {
          "internalType": "address",
          "name": "marketplace",
          "type": "address"
        },
        {
          "internalType": "address",
          "name": "bidder",
          "type": "address"
        }
      ],
      "name": "getBidderBids",
      "outputs": [
        {
          "components": [
            {
              "internalType": "uint256",
              "name": "tokenId",
              "type": "uint256"
            },
            {
              "internalType": "uint256",
              "name": "bidPrice",
              "type": "uint256"
            },
            {
              "internalType": "address",
              "name": "bidder",
              "type": "address"
            },
            {
              "internalType": "uint256",
              "name": "expireTimestamp",
              "type": "uint256"
            }
          ],
          "internalType": "struct INFTKEYMarketPlaceV1.Bid[]",
          "name": "",
          "type": "tuple[]"
        }
      ],
      "stateMutability": "view",
      "type": "function",
      "constant": true
    }
  ],
  "bytecode": "0x608060405234801561001057600080fd5b50610f11806100206000396000f3fe608060405234801561001057600080fd5b50600436106100725760003560e01c806390bc4e371161005057806390bc4e37146100d3578063db1f7a7d146100e6578063e001a7aa146100f957610072565b80631f77a820146100775780632c20d1b4146100a057806366c1e8bf146100c0575b600080fd5b61008a610085366004610bf1565b61010c565b6040516100979190610e46565b60405180910390f35b6100b36100ae366004610c5d565b6101c0565b6040516100979190610df8565b6100b36100ce366004610bf1565b6102c9565b61008a6100e1366004610c1c565b610408565b6100b36100f4366004610b81565b610567565b6100b3610107366004610bb9565b61064e565b610114610af3565b61011c610af3565b604051806080016040528084815260200160008152602001600073ffffffffffffffffffffffffffffffffffffffff16815260200160008152509050606061016485856102c9565b905060005b81518110156101b457826020015182828151811061018357fe5b60200260200101516020015111156101ac578181815181106101a157fe5b602002602001015192505b600101610169565b50909150505b92915050565b6060808473ffffffffffffffffffffffffffffffffffffffff16635cc2c66b85856040518363ffffffff1660e01b81526004016101fe929190610e81565b60006040518083038186803b15801561021657600080fd5b505afa15801561022a573d6000803e3d6000fd5b505050506040513d6000823e601f3d9081017fffffffffffffffffffffffffffffffffffffffffffffffffffffffffffffffe01682016040526102709190810190610c91565b905060005b81518110156102be5761029f8683838151811061028e57fe5b60200260200101516000015161010c565b8282815181106102ab57fe5b6020908102919091010152600101610275565b5090505b9392505050565b6060808373ffffffffffffffffffffffffffffffffffffffff1663e7d585a8846040518263ffffffff1660e01b81526004016103059190610e54565b60006040518083038186803b15801561031d57600080fd5b505afa158015610331573d6000803e3d6000fd5b505050506040513d6000823e601f3d9081017fffffffffffffffffffffffffffffffffffffffffffffffffffffffffffffffe01682016040526103779190810190610c91565b905060005b8151811015610400576103a28583838151811061039557fe5b6020026020010151610740565b6103f857604051806080016040528085815260200160008152602001600073ffffffffffffffffffffffffffffffffffffffff16815260200160008152508282815181106103ec57fe5b60200260200101819052505b60010161037c565b509392505050565b610410610af3565b6040517f70a3b39000000000000000000000000000000000000000000000000000000000815273ffffffffffffffffffffffffffffffffffffffff8516906370a3b390906104649086908690600401610e5d565b60806040518083038186803b15801561047c57600080fd5b505afa9250505080156104ca575060408051601f3d9081017fffffffffffffffffffffffffffffffffffffffffffffffffffffffffffffffe01682019092526104c791810190610d41565b60015b61050f57604051806080016040528084815260200160008152602001600073ffffffffffffffffffffffffffffffffffffffff168152602001600081525090506102c2565b6105198582610740565b156105255790506102c2565b604051806080016040528085815260200160008152602001600073ffffffffffffffffffffffffffffffffffffffff16815260200160008152509150506102c2565b6060808273ffffffffffffffffffffffffffffffffffffffff166354b0de6a6040518163ffffffff1660e01b815260040160006040518083038186803b1580156105b057600080fd5b505afa1580156105c4573d6000803e3d6000fd5b505050506040513d6000823e601f3d9081017fffffffffffffffffffffffffffffffffffffffffffffffffffffffffffffffe016820160405261060a9190810190610c91565b905060005b8151811015610647576106288483838151811061028e57fe5b82828151811061063457fe5b602090810291909101015260010161060f565b5092915050565b6060808373ffffffffffffffffffffffffffffffffffffffff166354b0de6a6040518163ffffffff1660e01b815260040160006040518083038186803b15801561069757600080fd5b505afa1580156106ab573d6000803e3d6000fd5b505050506040513d6000823e601f3d9081017fffffffffffffffffffffffffffffffffffffffffffffffffffffffffffffffe01682016040526106f19190810190610c91565b905060005b8151811015610400576107218583838151811061070f57fe5b60200260200101516000015186610408565b82828151811061072d57fe5b60209081029190910101526001016106f6565b6000808373ffffffffffffffffffffffffffffffffffffffff1663afb18fe76040518163ffffffff1660e01b815260040160206040518083038186803b15801561078957600080fd5b505afa15801561079d573d6000803e3d6000fd5b505050506040513d601f19601f820116820180604052508101906107c19190610b9d565b90506107d68484600001518560400151610971565b15801561088e5750602083015160408085015190517fdd62ed3e00000000000000000000000000000000000000000000000000000000815273ffffffffffffffffffffffffffffffffffffffff84169163dd62ed3e9161083b91908990600401610dd1565b60206040518083038186803b15801561085357600080fd5b505afa158015610867573d6000803e3d6000fd5b505050506040513d601f19601f8201168201806040525081019061088b9190610d5c565b10155b80156109435750602083015160408085015190517f70a0823100000000000000000000000000000000000000000000000000000000815273ffffffffffffffffffffffffffffffffffffffff8416916370a08231916108f09190600401610db0565b60206040518083038186803b15801561090857600080fd5b505afa15801561091c573d6000803e3d6000fd5b505050506040513d601f19601f820116820180604052508101906109409190610d5c565b10155b8015610953575060008360200151115b80156109625750428360600151115b156106475760019150506101ba565b6000808473ffffffffffffffffffffffffffffffffffffffff16639d76ea586040518163ffffffff1660e01b815260040160206040518083038186803b1580156109ba57600080fd5b505afa1580156109ce573d6000803e3d6000fd5b505050506040513d601f19601f820116820180604052508101906109f29190610b9d565b6040517f6352211e00000000000000000000000000000000000000000000000000000000815290915073ffffffffffffffffffffffffffffffffffffffff821690636352211e90610a47908790600401610e54565b60206040518083038186803b158015610a5f57600080fd5b505afa925050508015610aad575060408051601f3d9081017fffffffffffffffffffffffffffffffffffffffffffffffffffffffffffffffe0168201909252610aaa91810190610b9d565b60015b610abb5760009150506102c2565b8373ffffffffffffffffffffffffffffffffffffffff168173ffffffffffffffffffffffffffffffffffffffff1614925050506102c2565b60405180608001604052806000815260200160008152602001600073ffffffffffffffffffffffffffffffffffffffff168152602001600081525090565b600060808284031215610b42578081fd5b610b4c6080610e8f565b905081518152602082015160208201526040820151610b6a81610eb6565b806040830152506060820151606082015292915050565b600060208284031215610b92578081fd5b81356102c281610eb6565b600060208284031215610bae578081fd5b81516102c281610eb6565b60008060408385031215610bcb578081fd5b8235610bd681610eb6565b91506020830135610be681610eb6565b809150509250929050565b60008060408385031215610c03578182fd5b8235610c0e81610eb6565b946020939093013593505050565b600080600060608486031215610c30578081fd5b8335610c3b81610eb6565b9250602084013591506040840135610c5281610eb6565b809150509250925092565b600080600060608486031215610c71578283fd5b8335610c7c81610eb6565b95602085013595506040909401359392505050565b60006020808385031215610ca3578182fd5b825167ffffffffffffffff80821115610cba578384fd5b818501915085601f830112610ccd578384fd5b815181811115610cdb578485fd5b610ce88485830201610e8f565b81815284810192508385016080808402860187018a1015610d07578788fd5b8795505b83861015610d3357610d1d8a83610b31565b8552600195909501949386019390810190610d0b565b509098975050505050505050565b600060808284031215610d52578081fd5b6102c28383610b31565b600060208284031215610d6d578081fd5b5051919050565b805182526020810151602083015273ffffffffffffffffffffffffffffffffffffffff6040820151166040830152606081015160608301525050565b73ffffffffffffffffffffffffffffffffffffffff91909116815260200190565b73ffffffffffffffffffffffffffffffffffffffff92831681529116602082015260400190565b6020808252825182820181905260009190848201906040850190845b81811015610e3a57610e27838551610d74565b9284019260809290920191600101610e14565b50909695505050505050565b608081016101ba8284610d74565b90815260200190565b91825273ffffffffffffffffffffffffffffffffffffffff16602082015260400190565b918252602082015260400190565b60405181810167ffffffffffffffff81118282101715610eae57600080fd5b604052919050565b73ffffffffffffffffffffffffffffffffffffffff81168114610ed857600080fd5b5056fea2646970667358221220d77cc625d13b938744a5695ecf773851c655de56cfd47f399784ae1b0e6bd90564736f6c634300060c0033",
  "immutableReferences": {},
  "source": "// SPDX-License-Identifier: AGPL-3.0-or-later\n\npragma solidity =0.6.12;\npragma experimental ABIEncoderV2;\n\nimport \"@openzeppelin/contracts/token/ERC721/IERC721.sol\";\nimport \"@openzeppelin/contracts/token/ERC20/IERC20.sol\";\nimport \"../interface/INFTKEYMarketPlaceV1.sol\";\n\ncontract MarketPlaceReader {\n    constructor() public {}\n\n    function _isTokenOwner(\n        address marketplace,\n        uint256 tokenId,\n        address account\n    ) private view returns (bool) {\n        address tokenAddress = INFTKEYMarketPlaceV1(marketplace).tokenAddress();\n\n        try IERC721(tokenAddress).ownerOf(tokenId) returns (address tokenOwner) {\n            return tokenOwner == account;\n        } catch {\n            return false;\n        }\n    }\n\n    function _isBidValid(address marketplace, INFTKEYMarketPlaceV1.Bid memory bid)\n        private\n        view\n        returns (bool)\n    {\n        address paymentTokenAddress = INFTKEYMarketPlaceV1(marketplace).paymentTokenAddress();\n        if (\n            !_isTokenOwner(marketplace, bid.tokenId, bid.bidder) &&\n            IERC20(paymentTokenAddress).allowance(bid.bidder, marketplace) >= bid.bidPrice &&\n            IERC20(paymentTokenAddress).balanceOf(bid.bidder) >= bid.bidPrice &&\n            bid.bidPrice > 0 &&\n            bid.expireTimestamp > block.timestamp\n        ) {\n            return true;\n        }\n    }\n\n    function getBidderTokenBid(\n        address marketplace,\n        uint256 tokenId,\n        address bidder\n    ) public view returns (INFTKEYMarketPlaceV1.Bid memory) {\n        try INFTKEYMarketPlaceV1(marketplace).getBidderTokenBid(tokenId, bidder) returns (\n            INFTKEYMarketPlaceV1.Bid memory bid\n        ) {\n            if (_isBidValid(marketplace, bid)) {\n                return bid;\n            } else {\n                return INFTKEYMarketPlaceV1.Bid(tokenId, 0, address(0), 0);\n            }\n        } catch {\n            return INFTKEYMarketPlaceV1.Bid(tokenId, 0, address(0), 0);\n        }\n    }\n\n    function getTokenBids(address marketplace, uint256 tokenId)\n        public\n        view\n        returns (INFTKEYMarketPlaceV1.Bid[] memory)\n    {\n        INFTKEYMarketPlaceV1.Bid[] memory bids =\n            INFTKEYMarketPlaceV1(marketplace).getTokenBids(tokenId);\n        for (uint256 i; i < bids.length; i++) {\n            if (!_isBidValid(marketplace, bids[i])) {\n                bids[i] = INFTKEYMarketPlaceV1.Bid(tokenId, 0, address(0), 0);\n            }\n        }\n        return bids;\n    }\n\n    function getTokenHighestBid(address marketplace, uint256 tokenId)\n        public\n        view\n        returns (INFTKEYMarketPlaceV1.Bid memory)\n    {\n        INFTKEYMarketPlaceV1.Bid memory highestBid =\n            INFTKEYMarketPlaceV1.Bid(tokenId, 0, address(0), 0);\n        INFTKEYMarketPlaceV1.Bid[] memory bids = getTokenBids(marketplace, tokenId);\n\n        for (uint256 i; i < bids.length; i++) {\n            if (bids[i].bidPrice > highestBid.bidPrice) {\n                highestBid = bids[i];\n            }\n        }\n        return highestBid;\n    }\n\n    function getTokenHighestBids(\n        address marketplace,\n        uint256 from,\n        uint256 size\n    ) external view returns (INFTKEYMarketPlaceV1.Bid[] memory) {\n        INFTKEYMarketPlaceV1.Bid[] memory highestBids =\n            INFTKEYMarketPlaceV1(marketplace).getTokenHighestBids(from, size);\n\n        for (uint256 i; i < highestBids.length; i++) {\n            highestBids[i] = getTokenHighestBid(marketplace, highestBids[i].tokenId);\n        }\n\n        return highestBids;\n    }\n\n    function getAllTokenHighestBids(address marketplace)\n        external\n        view\n        returns (INFTKEYMarketPlaceV1.Bid[] memory)\n    {\n        INFTKEYMarketPlaceV1.Bid[] memory allHighestBids =\n            INFTKEYMarketPlaceV1(marketplace).getAllTokenHighestBids();\n\n        for (uint256 i; i < allHighestBids.length; i++) {\n            allHighestBids[i] = getTokenHighestBid(marketplace, allHighestBids[i].tokenId);\n        }\n\n        return allHighestBids;\n    }\n\n    function getBidderBids(address marketplace, address bidder)\n        public\n        view\n        returns (INFTKEYMarketPlaceV1.Bid[] memory)\n    {\n        INFTKEYMarketPlaceV1.Bid[] memory allBids =\n            INFTKEYMarketPlaceV1(marketplace).getAllTokenHighestBids();\n\n        for (uint256 i; i < allBids.length; i++) {\n            allBids[i] = getBidderTokenBid(marketplace, allBids[i].tokenId, bidder);\n        }\n\n        return allBids;\n    }\n}\n",
  "sourcePath": "/Users/fayexue/projects/nftkey-marketplace/contracts/readers/MarketPlaceReader.sol",
  "compiler": {
    "name": "solc",
    "version": "0.6.12+commit.27d51765.Emscripten.clang"
  },
  "schemaVersion": "3.3.4",
  "updatedAt": "2021-06-12T23:01:10.160Z",
  "networkType": "ethereum",
  "devdoc": {
    "kind": "dev",
    "methods": {},
    "version": 1
  },
  "userdoc": {
    "kind": "user",
    "methods": {},
    "version": 1
  }
}