{
  "contractName": "MarketPlaceReader",
  "abi": [
    {
      "inputs": [],
      "stateMutability": "nonpayable",
      "type": "constructor"
    },
    {
      "inputs": [
        {
          "internalType": "address",
          "name": "marketplace",
          "type": "address"
        },
        {
          "internalType": "uint256",
          "name": "tokenId",
          "type": "uint256"
        },
        {
          "internalType": "address",
          "name": "bidder",
          "type": "address"
        }
      ],
      "name": "getBidderTokenBid",
      "outputs": [
        {
          "components": [
            {
              "internalType": "uint256",
              "name": "tokenId",
              "type": "uint256"
            },
            {
              "internalType": "uint256",
              "name": "bidPrice",
              "type": "uint256"
            },
            {
              "internalType": "address",
              "name": "bidder",
              "type": "address"
            },
            {
              "internalType": "uint256",
              "name": "expireTimestamp",
              "type": "uint256"
            }
          ],
          "internalType": "struct INFTKEYMarketPlaceV1.Bid",
          "name": "",
          "type": "tuple"
        }
      ],
      "stateMutability": "view",
      "type": "function",
      "constant": true
    },
    {
      "inputs": [
        {
          "internalType": "address",
          "name": "marketplace",
          "type": "address"
        },
        {
          "internalType": "uint256",
          "name": "tokenId",
          "type": "uint256"
        }
      ],
      "name": "getTokenBids",
      "outputs": [
        {
          "components": [
            {
              "internalType": "uint256",
              "name": "tokenId",
              "type": "uint256"
            },
            {
              "internalType": "uint256",
              "name": "bidPrice",
              "type": "uint256"
            },
            {
              "internalType": "address",
              "name": "bidder",
              "type": "address"
            },
            {
              "internalType": "uint256",
              "name": "expireTimestamp",
              "type": "uint256"
            }
          ],
          "internalType": "struct INFTKEYMarketPlaceV1.Bid[]",
          "name": "",
          "type": "tuple[]"
        }
      ],
      "stateMutability": "view",
      "type": "function",
      "constant": true
    },
    {
      "inputs": [
        {
          "internalType": "address",
          "name": "marketplace",
          "type": "address"
        },
        {
          "internalType": "uint256",
          "name": "tokenId",
          "type": "uint256"
        }
      ],
      "name": "getTokenHighestBid",
      "outputs": [
        {
          "components": [
            {
              "internalType": "uint256",
              "name": "tokenId",
              "type": "uint256"
            },
            {
              "internalType": "uint256",
              "name": "bidPrice",
              "type": "uint256"
            },
            {
              "internalType": "address",
              "name": "bidder",
              "type": "address"
            },
            {
              "internalType": "uint256",
              "name": "expireTimestamp",
              "type": "uint256"
            }
          ],
          "internalType": "struct INFTKEYMarketPlaceV1.Bid",
          "name": "",
          "type": "tuple"
        }
      ],
      "stateMutability": "view",
      "type": "function",
      "constant": true
    },
    {
      "inputs": [
        {
          "internalType": "address",
          "name": "marketplace",
          "type": "address"
        }
      ],
      "name": "getAllTokenHighestBids",
      "outputs": [
        {
          "components": [
            {
              "internalType": "uint256",
              "name": "tokenId",
              "type": "uint256"
            },
            {
              "internalType": "uint256",
              "name": "bidPrice",
              "type": "uint256"
            },
            {
              "internalType": "address",
              "name": "bidder",
              "type": "address"
            },
            {
              "internalType": "uint256",
              "name": "expireTimestamp",
              "type": "uint256"
            }
          ],
          "internalType": "struct INFTKEYMarketPlaceV1.Bid[]",
          "name": "",
          "type": "tuple[]"
        }
      ],
      "stateMutability": "view",
      "type": "function",
      "constant": true
    },
    {
      "inputs": [
        {
          "internalType": "address",
          "name": "marketplace",
          "type": "address"
        },
        {
          "internalType": "address",
          "name": "bidder",
          "type": "address"
        }
      ],
      "name": "getBidderBids",
      "outputs": [
        {
          "components": [
            {
              "internalType": "uint256",
              "name": "tokenId",
              "type": "uint256"
            },
            {
              "internalType": "uint256",
              "name": "bidPrice",
              "type": "uint256"
            },
            {
              "internalType": "address",
              "name": "bidder",
              "type": "address"
            },
            {
              "internalType": "uint256",
              "name": "expireTimestamp",
              "type": "uint256"
            }
          ],
          "internalType": "struct INFTKEYMarketPlaceV1.Bid[]",
          "name": "",
          "type": "tuple[]"
        }
      ],
      "stateMutability": "view",
      "type": "function",
      "constant": true
    }
  ],
  "bytecode": "0x608060405234801561001057600080fd5b50610dbc806100206000396000f3fe608060405234801561001057600080fd5b50600436106100675760003560e01c806390bc4e371161005057806390bc4e37146100b5578063db1f7a7d146100c8578063e001a7aa146100db57610067565b80631f77a8201461006c57806366c1e8bf14610095575b600080fd5b61007f61007a366004610ade565b6100ee565b60405161008c9190610cff565b60405180910390f35b6100a86100a3366004610ade565b6101a2565b60405161008c9190610cb1565b61007f6100c3366004610b09565b6102e1565b6100a86100d6366004610a6e565b610443565b6100a86100e9366004610aa6565b61053b565b6100f66109e0565b6100fe6109e0565b604051806080016040528084815260200160008152602001600073ffffffffffffffffffffffffffffffffffffffff16815260200160008152509050606061014685856101a2565b905060005b815181101561019657826020015182828151811061016557fe5b602002602001015160200151111561018e5781818151811061018357fe5b602002602001015192505b60010161014b565b50909150505b92915050565b6060808373ffffffffffffffffffffffffffffffffffffffff1663e7d585a8846040518263ffffffff1660e01b81526004016101de9190610d0d565b60006040518083038186803b1580156101f657600080fd5b505afa15801561020a573d6000803e3d6000fd5b505050506040513d6000823e601f3d9081017fffffffffffffffffffffffffffffffffffffffffffffffffffffffffffffffe01682016040526102509190810190610b4a565b905060005b81518110156102d95761027b8583838151811061026e57fe5b602002602001015161062d565b6102d157604051806080016040528085815260200160008152602001600073ffffffffffffffffffffffffffffffffffffffff16815260200160008152508282815181106102c557fe5b60200260200101819052505b600101610255565b509392505050565b6102e96109e0565b6040517f70a3b39000000000000000000000000000000000000000000000000000000000815273ffffffffffffffffffffffffffffffffffffffff8516906370a3b3909061033d9086908690600401610d16565b60806040518083038186803b15801561035557600080fd5b505afa9250505080156103a3575060408051601f3d9081017fffffffffffffffffffffffffffffffffffffffffffffffffffffffffffffffe01682019092526103a091810190610bfa565b60015b6103e857604051806080016040528084815260200160008152602001600073ffffffffffffffffffffffffffffffffffffffff1681526020016000815250905061043c565b6103f2858261062d565b156103fe57905061043c565b604051806080016040528085815260200160008152602001600073ffffffffffffffffffffffffffffffffffffffff16815260200160008152509150505b9392505050565b6060808273ffffffffffffffffffffffffffffffffffffffff166354b0de6a6040518163ffffffff1660e01b815260040160006040518083038186803b15801561048c57600080fd5b505afa1580156104a0573d6000803e3d6000fd5b505050506040513d6000823e601f3d9081017fffffffffffffffffffffffffffffffffffffffffffffffffffffffffffffffe01682016040526104e69190810190610b4a565b905060005b8151811015610534576105158483838151811061050457fe5b6020026020010151600001516100ee565b82828151811061052157fe5b60209081029190910101526001016104eb565b5092915050565b6060808373ffffffffffffffffffffffffffffffffffffffff166354b0de6a6040518163ffffffff1660e01b815260040160006040518083038186803b15801561058457600080fd5b505afa158015610598573d6000803e3d6000fd5b505050506040513d6000823e601f3d9081017fffffffffffffffffffffffffffffffffffffffffffffffffffffffffffffffe01682016040526105de9190810190610b4a565b905060005b81518110156102d95761060e858383815181106105fc57fe5b602002602001015160000151866102e1565b82828151811061061a57fe5b60209081029190910101526001016105e3565b6000808373ffffffffffffffffffffffffffffffffffffffff1663afb18fe76040518163ffffffff1660e01b815260040160206040518083038186803b15801561067657600080fd5b505afa15801561068a573d6000803e3d6000fd5b505050506040513d601f19601f820116820180604052508101906106ae9190610a8a565b90506106c3848460000151856040015161085e565b15801561077b5750602083015160408085015190517fdd62ed3e00000000000000000000000000000000000000000000000000000000815273ffffffffffffffffffffffffffffffffffffffff84169163dd62ed3e9161072891908990600401610c8a565b60206040518083038186803b15801561074057600080fd5b505afa158015610754573d6000803e3d6000fd5b505050506040513d601f19601f820116820180604052508101906107789190610c15565b10155b80156108305750602083015160408085015190517f70a0823100000000000000000000000000000000000000000000000000000000815273ffffffffffffffffffffffffffffffffffffffff8416916370a08231916107dd9190600401610c69565b60206040518083038186803b1580156107f557600080fd5b505afa158015610809573d6000803e3d6000fd5b505050506040513d601f19601f8201168201806040525081019061082d9190610c15565b10155b8015610840575060008360200151115b801561084f5750428360600151115b1561053457600191505061019c565b6000808473ffffffffffffffffffffffffffffffffffffffff16639d76ea586040518163ffffffff1660e01b815260040160206040518083038186803b1580156108a757600080fd5b505afa1580156108bb573d6000803e3d6000fd5b505050506040513d601f19601f820116820180604052508101906108df9190610a8a565b6040517f6352211e00000000000000000000000000000000000000000000000000000000815290915073ffffffffffffffffffffffffffffffffffffffff821690636352211e90610934908790600401610d0d565b60206040518083038186803b15801561094c57600080fd5b505afa92505050801561099a575060408051601f3d9081017fffffffffffffffffffffffffffffffffffffffffffffffffffffffffffffffe016820190925261099791810190610a8a565b60015b6109a857600091505061043c565b8373ffffffffffffffffffffffffffffffffffffffff168173ffffffffffffffffffffffffffffffffffffffff16149250505061043c565b60405180608001604052806000815260200160008152602001600073ffffffffffffffffffffffffffffffffffffffff168152602001600081525090565b600060808284031215610a2f578081fd5b610a396080610d3a565b905081518152602082015160208201526040820151610a5781610d61565b806040830152506060820151606082015292915050565b600060208284031215610a7f578081fd5b813561043c81610d61565b600060208284031215610a9b578081fd5b815161043c81610d61565b60008060408385031215610ab8578081fd5b8235610ac381610d61565b91506020830135610ad381610d61565b809150509250929050565b60008060408385031215610af0578182fd5b8235610afb81610d61565b946020939093013593505050565b600080600060608486031215610b1d578081fd5b8335610b2881610d61565b9250602084013591506040840135610b3f81610d61565b809150509250925092565b60006020808385031215610b5c578182fd5b825167ffffffffffffffff80821115610b73578384fd5b818501915085601f830112610b86578384fd5b815181811115610b94578485fd5b610ba18485830201610d3a565b81815284810192508385016080808402860187018a1015610bc0578788fd5b8795505b83861015610bec57610bd68a83610a1e565b8552600195909501949386019390810190610bc4565b509098975050505050505050565b600060808284031215610c0b578081fd5b61043c8383610a1e565b600060208284031215610c26578081fd5b5051919050565b805182526020810151602083015273ffffffffffffffffffffffffffffffffffffffff6040820151166040830152606081015160608301525050565b73ffffffffffffffffffffffffffffffffffffffff91909116815260200190565b73ffffffffffffffffffffffffffffffffffffffff92831681529116602082015260400190565b6020808252825182820181905260009190848201906040850190845b81811015610cf357610ce0838551610c2d565b9284019260809290920191600101610ccd565b50909695505050505050565b6080810161019c8284610c2d565b90815260200190565b91825273ffffffffffffffffffffffffffffffffffffffff16602082015260400190565b60405181810167ffffffffffffffff81118282101715610d5957600080fd5b604052919050565b73ffffffffffffffffffffffffffffffffffffffff81168114610d8357600080fd5b5056fea2646970667358221220b5e909ede1674f440f1dddb41f21ae13fbfb168d2ac8c45727816f7f3a0bc21f64736f6c634300060c0033",
  "immutableReferences": {},
  "source": "// SPDX-License-Identifier: AGPL-3.0-or-later\n\npragma solidity =0.6.12;\npragma experimental ABIEncoderV2;\n\nimport \"@openzeppelin/contracts/token/ERC721/IERC721.sol\";\nimport \"@openzeppelin/contracts/token/ERC20/IERC20.sol\";\nimport \"../interface/INFTKEYMarketPlaceV1.sol\";\n\ncontract MarketPlaceReader {\n    constructor() public {}\n\n    function _isTokenOwner(\n        address marketplace,\n        uint256 tokenId,\n        address account\n    ) private view returns (bool) {\n        address tokenAddress = INFTKEYMarketPlaceV1(marketplace).tokenAddress();\n\n        try IERC721(tokenAddress).ownerOf(tokenId) returns (address tokenOwner) {\n            return tokenOwner == account;\n        } catch {\n            return false;\n        }\n    }\n\n    function _isBidValid(address marketplace, INFTKEYMarketPlaceV1.Bid memory bid)\n        private\n        view\n        returns (bool)\n    {\n        address paymentTokenAddress = INFTKEYMarketPlaceV1(marketplace).paymentTokenAddress();\n        if (\n            !_isTokenOwner(marketplace, bid.tokenId, bid.bidder) &&\n            IERC20(paymentTokenAddress).allowance(bid.bidder, marketplace) >= bid.bidPrice &&\n            IERC20(paymentTokenAddress).balanceOf(bid.bidder) >= bid.bidPrice &&\n            bid.bidPrice > 0 &&\n            bid.expireTimestamp > block.timestamp\n        ) {\n            return true;\n        }\n    }\n\n    function getBidderTokenBid(\n        address marketplace,\n        uint256 tokenId,\n        address bidder\n    ) public view returns (INFTKEYMarketPlaceV1.Bid memory) {\n        try INFTKEYMarketPlaceV1(marketplace).getBidderTokenBid(tokenId, bidder) returns (\n            INFTKEYMarketPlaceV1.Bid memory bid\n        ) {\n            if (_isBidValid(marketplace, bid)) {\n                return bid;\n            } else {\n                return INFTKEYMarketPlaceV1.Bid(tokenId, 0, address(0), 0);\n            }\n        } catch {\n            return INFTKEYMarketPlaceV1.Bid(tokenId, 0, address(0), 0);\n        }\n    }\n\n    function getTokenBids(address marketplace, uint256 tokenId)\n        public\n        view\n        returns (INFTKEYMarketPlaceV1.Bid[] memory)\n    {\n        INFTKEYMarketPlaceV1.Bid[] memory bids =\n            INFTKEYMarketPlaceV1(marketplace).getTokenBids(tokenId);\n        for (uint256 i; i < bids.length; i++) {\n            if (!_isBidValid(marketplace, bids[i])) {\n                bids[i] = INFTKEYMarketPlaceV1.Bid(tokenId, 0, address(0), 0);\n            }\n        }\n        return bids;\n    }\n\n    function getTokenHighestBid(address marketplace, uint256 tokenId)\n        public\n        view\n        returns (INFTKEYMarketPlaceV1.Bid memory)\n    {\n        INFTKEYMarketPlaceV1.Bid memory highestBid =\n            INFTKEYMarketPlaceV1.Bid(tokenId, 0, address(0), 0);\n        INFTKEYMarketPlaceV1.Bid[] memory bids = getTokenBids(marketplace, tokenId);\n\n        for (uint256 i; i < bids.length; i++) {\n            if (bids[i].bidPrice > highestBid.bidPrice) {\n                highestBid = bids[i];\n            }\n        }\n        return highestBid;\n    }\n\n    function getAllTokenHighestBids(address marketplace)\n        external\n        view\n        returns (INFTKEYMarketPlaceV1.Bid[] memory)\n    {\n        INFTKEYMarketPlaceV1.Bid[] memory allHighestBids =\n            INFTKEYMarketPlaceV1(marketplace).getAllTokenHighestBids();\n\n        for (uint256 i; i < allHighestBids.length; i++) {\n            allHighestBids[i] = getTokenHighestBid(marketplace, allHighestBids[i].tokenId);\n        }\n\n        return allHighestBids;\n    }\n\n    function getBidderBids(address marketplace, address bidder)\n        public\n        view\n        returns (INFTKEYMarketPlaceV1.Bid[] memory)\n    {\n        INFTKEYMarketPlaceV1.Bid[] memory allBids =\n            INFTKEYMarketPlaceV1(marketplace).getAllTokenHighestBids();\n\n        for (uint256 i; i < allBids.length; i++) {\n            allBids[i] = getBidderTokenBid(marketplace, allBids[i].tokenId, bidder);\n        }\n\n        return allBids;\n    }\n}\n",
  "sourcePath": "/Users/fayexue/projects/nftkey-marketplace/contracts/readers/MarketPlaceReader.sol",
  "compiler": {
    "name": "solc",
    "version": "0.6.12+commit.27d51765.Emscripten.clang"
  },
  "schemaVersion": "3.3.4",
  "updatedAt": "2021-05-10T06:29:34.435Z",
  "networkType": "ethereum",
  "devdoc": {
    "kind": "dev",
    "methods": {},
    "version": 1
  },
  "userdoc": {
    "kind": "user",
    "methods": {},
    "version": 1
  }
}