{
  "contractName": "MoonCatRescue",
  "abi": [
    {
      "inputs": [
        {
          "internalType": "bytes5",
          "name": "",
          "type": "bytes5"
        }
      ],
      "name": "adoptionOffers",
      "outputs": [
        {
          "internalType": "bool",
          "name": "exists",
          "type": "bool"
        },
        {
          "internalType": "bytes5",
          "name": "catId",
          "type": "bytes5"
        },
        {
          "internalType": "address",
          "name": "seller",
          "type": "address"
        },
        {
          "internalType": "uint256",
          "name": "price",
          "type": "uint256"
        },
        {
          "internalType": "address",
          "name": "onlyOfferTo",
          "type": "address"
        }
      ],
      "stateMutability": "view",
      "type": "function"
    },
    {
      "inputs": [
        {
          "internalType": "bytes5",
          "name": "",
          "type": "bytes5"
        }
      ],
      "name": "adoptionRequests",
      "outputs": [
        {
          "internalType": "bool",
          "name": "exists",
          "type": "bool"
        },
        {
          "internalType": "bytes5",
          "name": "catId",
          "type": "bytes5"
        },
        {
          "internalType": "address",
          "name": "requester",
          "type": "address"
        },
        {
          "internalType": "uint256",
          "name": "price",
          "type": "uint256"
        }
      ],
      "stateMutability": "view",
      "type": "function"
    },
    {
      "inputs": [
        {
          "internalType": "address",
          "name": "",
          "type": "address"
        }
      ],
      "name": "balanceOf",
      "outputs": [
        {
          "internalType": "uint256",
          "name": "",
          "type": "uint256"
        }
      ],
      "stateMutability": "view",
      "type": "function"
    },
    {
      "inputs": [
        {
          "internalType": "bytes5",
          "name": "",
          "type": "bytes5"
        }
      ],
      "name": "catNames",
      "outputs": [
        {
          "internalType": "bytes32",
          "name": "",
          "type": "bytes32"
        }
      ],
      "stateMutability": "view",
      "type": "function"
    },
    {
      "inputs": [
        {
          "internalType": "bytes5",
          "name": "",
          "type": "bytes5"
        }
      ],
      "name": "catOwners",
      "outputs": [
        {
          "internalType": "address",
          "name": "",
          "type": "address"
        }
      ],
      "stateMutability": "view",
      "type": "function"
    },
    {
      "inputs": [],
      "name": "decimals",
      "outputs": [
        {
          "internalType": "uint8",
          "name": "",
          "type": "uint8"
        }
      ],
      "stateMutability": "view",
      "type": "function"
    },
    {
      "inputs": [],
      "name": "imageGenerationCodeMD5",
      "outputs": [
        {
          "internalType": "bytes16",
          "name": "",
          "type": "bytes16"
        }
      ],
      "stateMutability": "view",
      "type": "function"
    },
    {
      "inputs": [],
      "name": "mode",
      "outputs": [
        {
          "internalType": "enum MoonCatRescue.Modes",
          "name": "",
          "type": "uint8"
        }
      ],
      "stateMutability": "view",
      "type": "function"
    },
    {
      "inputs": [],
      "name": "name",
      "outputs": [
        {
          "internalType": "string",
          "name": "",
          "type": "string"
        }
      ],
      "stateMutability": "view",
      "type": "function"
    },
    {
      "inputs": [
        {
          "internalType": "address",
          "name": "",
          "type": "address"
        }
      ],
      "name": "pendingWithdrawals",
      "outputs": [
        {
          "internalType": "uint256",
          "name": "",
          "type": "uint256"
        }
      ],
      "stateMutability": "view",
      "type": "function"
    },
    {
      "inputs": [],
      "name": "remainingCats",
      "outputs": [
        {
          "internalType": "uint16",
          "name": "",
          "type": "uint16"
        }
      ],
      "stateMutability": "view",
      "type": "function"
    },
    {
      "inputs": [],
      "name": "remainingGenesisCats",
      "outputs": [
        {
          "internalType": "uint16",
          "name": "",
          "type": "uint16"
        }
      ],
      "stateMutability": "view",
      "type": "function"
    },
    {
      "inputs": [],
      "name": "rescueIndex",
      "outputs": [
        {
          "internalType": "uint16",
          "name": "",
          "type": "uint16"
        }
      ],
      "stateMutability": "view",
      "type": "function"
    },
    {
      "inputs": [
        {
          "internalType": "uint256",
          "name": "",
          "type": "uint256"
        }
      ],
      "name": "rescueOrder",
      "outputs": [
        {
          "internalType": "bytes5",
          "name": "",
          "type": "bytes5"
        }
      ],
      "stateMutability": "view",
      "type": "function"
    },
    {
      "inputs": [],
      "name": "searchSeed",
      "outputs": [
        {
          "internalType": "bytes32",
          "name": "",
          "type": "bytes32"
        }
      ],
      "stateMutability": "view",
      "type": "function"
    },
    {
      "inputs": [],
      "name": "symbol",
      "outputs": [
        {
          "internalType": "string",
          "name": "",
          "type": "string"
        }
      ],
      "stateMutability": "view",
      "type": "function"
    },
    {
      "inputs": [],
      "name": "totalSupply",
      "outputs": [
        {
          "internalType": "uint256",
          "name": "",
          "type": "uint256"
        }
      ],
      "stateMutability": "view",
      "type": "function"
    }
  ],
  "bytecode": "0x600080546001600160a81b03191674af826434ac09c398654670f78e7024ac276ff22b00179055600180546fdbad5c08ec98bec48490e3c196eec6836001600160801b031990911617905560c060405260086080819052674d6f6f6e4361747360c01b60a090815261007491600291906100ee565b5060408051808201909152600480825263f09f90b160e01b60209092019182526100a0916003916100ee565b506004805460ff19169055616400600555600680546163c061ffff199091161763ffff00001916624000001761ffff60201b1916905560006110b2553480156100e857600080fd5b50610181565b828054600181600116156101000203166002900490600052602060002090601f016020900481019282601f1061012f57805160ff191683800117855561015c565b8280016001018555821561015c579182015b8281111561015c578251825591602001919060010190610141565b5061016892915061016c565b5090565b5b80821115610168576000815560010161016d565b6107f0806101906000396000f3fe608060405234801561001057600080fd5b506004361061011b5760003560e01c806370a08231116100b2578063ae4f147611610081578063bec6bc6711610066578063bec6bc6714610444578063ee04b4b9146104e1578063f3f43703146104e95761011b565b8063ae4f1476146103ff578063b269eaff146104075761011b565b806370a08231146102df5780638edc707b146103125780638ff95fa8146103b857806395d89b41146103f75761011b565b8063295a5212116100ee578063295a5212146101de578063313ce567146102075780633894ca5714610225578063434b12081461028d5761011b565b806306fdde03146101205780630ff3687b1461019d57806318160ddd146101bc578063196ee9c7146101d6575b600080fd5b61012861051c565b6040805160208082528351818301528351919283929083019185019080838360005b8381101561016257818101518382015260200161014a565b50505050905090810190601f16801561018f5780820380516001836020036101000a031916815260200191505b509250505060405180910390f35b6101a56105c5565b6040805161ffff9092168252519081900360200190f35b6101c46105d5565b60408051918252519081900360200190f35b6101a56105db565b6101e66105e5565b604051808260038111156101f657fe5b815260200191505060405180910390f35b61020f6105ee565b6040805160ff9092168252519081900360200190f35b6102646004803603602081101561023b57600080fd5b50357fffffffffff000000000000000000000000000000000000000000000000000000166105f7565b6040805173ffffffffffffffffffffffffffffffffffffffff9092168252519081900360200190f35b6102aa600480360360208110156102a357600080fd5b5035610620565b604080517fffffffffff0000000000000000000000000000000000000000000000000000009092168252519081900360200190f35b6101c4600480360360208110156102f557600080fd5b503573ffffffffffffffffffffffffffffffffffffffff1661064b565b6103516004803603602081101561032857600080fd5b50357fffffffffff0000000000000000000000000000000000000000000000000000001661065e565b6040805195151586527fffffffffff000000000000000000000000000000000000000000000000000000909416602086015273ffffffffffffffffffffffffffffffffffffffff928316858501526060850191909152166080830152519081900360a00190f35b6101c4600480360360208110156103ce57600080fd5b50357fffffffffff000000000000000000000000000000000000000000000000000000166106af565b6101286106c2565b6101c461073b565b61040f610742565b604080517fffffffffffffffffffffffffffffffff000000000000000000000000000000009092168252519081900360200190f35b6104836004803603602081101561045a57600080fd5b50357fffffffffff0000000000000000000000000000000000000000000000000000001661074b565b6040805194151585527fffffffffff000000000000000000000000000000000000000000000000000000909316602085015273ffffffffffffffffffffffffffffffffffffffff909116838301526060830152519081900360800190f35b6101a5610795565b6101c4600480360360208110156104ff57600080fd5b503573ffffffffffffffffffffffffffffffffffffffff166107a7565b600280546040805160206001841615610100027fffffffffffffffffffffffffffffffffffffffffffffffffffffffffffffffff01909316849004601f810184900484028201840190925281815292918301828280156105bd5780601f10610592576101008083540402835291602001916105bd565b820191906000526020600020905b8154815290600101906020018083116105a057829003601f168201915b505050505081565b60065462010000900461ffff1681565b60055481565b60065461ffff1681565b60005460ff1681565b60045460ff1681565b6110b66020526000908152604090205473ffffffffffffffffffffffffffffffffffffffff1681565b600781616400811061062e57fe5b60069182820401919006600502915054906101000a900460d81b81565b6110b76020526000908152604090205481565b6110b36020526000908152604090208054600182015460029092015460ff821692610100830460d81b9273ffffffffffffffffffffffffffffffffffffffff66010000000000009091048116921685565b6110b56020526000908152604090205481565b6003805460408051602060026001851615610100027fffffffffffffffffffffffffffffffffffffffffffffffffffffffffffffffff0190941693909304601f810184900484028201840190925281815292918301828280156105bd5780601f10610592576101008083540402835291602001916105bd565b6110b25481565b60015460801b81565b6110b4602052600090815260409020805460019091015460ff821691610100810460d81b91660100000000000090910473ffffffffffffffffffffffffffffffffffffffff169084565b600654640100000000900461ffff1681565b6110b8602052600090815260409020548156fea26469706673582212208f53904bd6fdfc4f7c64038da5b78e5dcff3eb9a780a683d8085a01bdc0bf1bd64736f6c634300060c0033",
  "immutableReferences": {},
  "source": "// SPDX-License-Identifier: AGPL-3.0-or-later\n\npragma solidity =0.6.12;\n\ncontract MoonCatRescue {\n    enum Modes {Inactive, Disabled, Test, Live}\n\n    Modes public mode = Modes.Inactive;\n\n    address owner = 0xaF826434ac09C398654670f78E7024AC276ff22B;\n\n    bytes16 public imageGenerationCodeMD5 = 0xdbad5c08ec98bec48490e3c196eec683; // use this to verify mooncatparser.js the cat image data generation javascript file.\n\n    string public name = \"MoonCats\";\n    string public symbol = \"ðŸ±\"; // unicode cat symbol\n    uint8 public decimals = 0;\n\n    uint256 public totalSupply = 25600;\n    uint16 public remainingCats = 25600 - 64; // there will only ever be 25,000 cats\n    uint16 public remainingGenesisCats = 64; // there can only be a maximum of 64 genesis cats\n    uint16 public rescueIndex = 0;\n\n    bytes5[25600] public rescueOrder;\n\n    bytes32 public searchSeed = 0x0; // gets set with the immediately preceding blockhash when the contract is activated to prevent \"premining\"\n\n    struct AdoptionOffer {\n        bool exists;\n        bytes5 catId;\n        address seller;\n        uint256 price;\n        address onlyOfferTo;\n    }\n\n    struct AdoptionRequest {\n        bool exists;\n        bytes5 catId;\n        address requester;\n        uint256 price;\n    }\n\n    mapping(bytes5 => AdoptionOffer) public adoptionOffers;\n    mapping(bytes5 => AdoptionRequest) public adoptionRequests;\n\n    mapping(bytes5 => bytes32) public catNames;\n    mapping(bytes5 => address) public catOwners;\n    mapping(address => uint256) public balanceOf; //number of cats owned by a given address\n    mapping(address => uint256) public pendingWithdrawals;\n}\n\ncontract BMoonCatsReader {\n    constructor() public {}\n\n    MoonCatRescue private constant bMoonCats =\n        MoonCatRescue(0x7A00B19eDc00fa5fB65F32B4D263CE753Df8f651);\n\n    function getCatOwners(uint256 from, uint256 size) external view returns (address[] memory) {\n        if (from < 25600 && size > 0) {\n            uint256 querySize = size;\n            if ((from + size) > 25600) {\n                querySize = 25600 - from;\n            }\n            address[] memory owners = new address[](querySize);\n            for (uint256 i = 0; i < querySize; i++) {\n                owners[i] = bMoonCats.catOwners(bMoonCats.rescueOrder(i + from));\n            }\n            return owners;\n        }\n    }\n}\n",
  "sourcePath": "/Users/fayexue/projects/nftkey-marketplace/contracts/readers/BMoonCatsReader.sol",
  "compiler": {
    "name": "solc",
    "version": "0.6.12+commit.27d51765.Emscripten.clang"
  },
  "schemaVersion": "3.3.4",
  "updatedAt": "2021-06-21T03:04:31.146Z",
  "devdoc": {
    "kind": "dev",
    "methods": {},
    "version": 1
  },
  "userdoc": {
    "kind": "user",
    "methods": {},
    "version": 1
  }
}