{
  "contractName": "NFTKEYMarketPlaceV1",
  "abi": [
    {
      "inputs": [
        {
          "internalType": "address",
          "name": "_erc721Address",
          "type": "address"
        },
        {
          "internalType": "address",
          "name": "_paymentTokenAddress",
          "type": "address"
        }
      ],
      "stateMutability": "nonpayable",
      "type": "constructor"
    },
    {
      "anonymous": false,
      "inputs": [
        {
          "indexed": true,
          "internalType": "address",
          "name": "previousOwner",
          "type": "address"
        },
        {
          "indexed": true,
          "internalType": "address",
          "name": "newOwner",
          "type": "address"
        }
      ],
      "name": "OwnershipTransferred",
      "type": "event"
    },
    {
      "anonymous": false,
      "inputs": [
        {
          "indexed": true,
          "internalType": "uint256",
          "name": "tokenId",
          "type": "uint256"
        },
        {
          "indexed": true,
          "internalType": "address",
          "name": "fromAddress",
          "type": "address"
        },
        {
          "indexed": true,
          "internalType": "address",
          "name": "toAddress",
          "type": "address"
        },
        {
          "indexed": false,
          "internalType": "uint256",
          "name": "total",
          "type": "uint256"
        },
        {
          "indexed": false,
          "internalType": "uint256",
          "name": "value",
          "type": "uint256"
        },
        {
          "indexed": false,
          "internalType": "uint256",
          "name": "fees",
          "type": "uint256"
        }
      ],
      "name": "TokenBidAccepted",
      "type": "event"
    },
    {
      "anonymous": false,
      "inputs": [
        {
          "indexed": true,
          "internalType": "uint256",
          "name": "tokenId",
          "type": "uint256"
        },
        {
          "indexed": true,
          "internalType": "address",
          "name": "fromAddress",
          "type": "address"
        },
        {
          "indexed": false,
          "internalType": "uint256",
          "name": "value",
          "type": "uint256"
        }
      ],
      "name": "TokenBidEntered",
      "type": "event"
    },
    {
      "anonymous": false,
      "inputs": [
        {
          "indexed": true,
          "internalType": "uint256",
          "name": "tokenId",
          "type": "uint256"
        },
        {
          "indexed": true,
          "internalType": "address",
          "name": "fromAddress",
          "type": "address"
        },
        {
          "indexed": false,
          "internalType": "uint256",
          "name": "value",
          "type": "uint256"
        }
      ],
      "name": "TokenBidWithdrawn",
      "type": "event"
    },
    {
      "anonymous": false,
      "inputs": [
        {
          "indexed": true,
          "internalType": "uint256",
          "name": "tokenId",
          "type": "uint256"
        },
        {
          "indexed": true,
          "internalType": "address",
          "name": "fromAddress",
          "type": "address"
        },
        {
          "indexed": true,
          "internalType": "address",
          "name": "toAddress",
          "type": "address"
        },
        {
          "indexed": false,
          "internalType": "uint256",
          "name": "total",
          "type": "uint256"
        },
        {
          "indexed": false,
          "internalType": "uint256",
          "name": "value",
          "type": "uint256"
        },
        {
          "indexed": false,
          "internalType": "uint256",
          "name": "fees",
          "type": "uint256"
        }
      ],
      "name": "TokenBought",
      "type": "event"
    },
    {
      "anonymous": false,
      "inputs": [
        {
          "indexed": true,
          "internalType": "uint256",
          "name": "tokenId",
          "type": "uint256"
        },
        {
          "indexed": true,
          "internalType": "address",
          "name": "fromAddress",
          "type": "address"
        }
      ],
      "name": "TokenDelisted",
      "type": "event"
    },
    {
      "anonymous": false,
      "inputs": [
        {
          "indexed": true,
          "internalType": "uint256",
          "name": "tokenId",
          "type": "uint256"
        },
        {
          "indexed": true,
          "internalType": "address",
          "name": "fromAddress",
          "type": "address"
        },
        {
          "indexed": false,
          "internalType": "uint256",
          "name": "minValue",
          "type": "uint256"
        }
      ],
      "name": "TokenListed",
      "type": "event"
    },
    {
      "inputs": [],
      "name": "owner",
      "outputs": [
        {
          "internalType": "address",
          "name": "",
          "type": "address"
        }
      ],
      "stateMutability": "view",
      "type": "function"
    },
    {
      "inputs": [],
      "name": "renounceOwnership",
      "outputs": [],
      "stateMutability": "nonpayable",
      "type": "function"
    },
    {
      "inputs": [
        {
          "internalType": "address",
          "name": "newOwner",
          "type": "address"
        }
      ],
      "name": "transferOwnership",
      "outputs": [],
      "stateMutability": "nonpayable",
      "type": "function"
    },
    {
      "inputs": [],
      "name": "tokenAddress",
      "outputs": [
        {
          "internalType": "address",
          "name": "",
          "type": "address"
        }
      ],
      "stateMutability": "view",
      "type": "function"
    },
    {
      "inputs": [],
      "name": "paymentTokenAddress",
      "outputs": [
        {
          "internalType": "address",
          "name": "",
          "type": "address"
        }
      ],
      "stateMutability": "view",
      "type": "function"
    },
    {
      "inputs": [
        {
          "internalType": "uint256",
          "name": "tokenId",
          "type": "uint256"
        }
      ],
      "name": "getTokenListing",
      "outputs": [
        {
          "components": [
            {
              "internalType": "uint256",
              "name": "tokenId",
              "type": "uint256"
            },
            {
              "internalType": "uint256",
              "name": "listingPrice",
              "type": "uint256"
            },
            {
              "internalType": "address",
              "name": "seller",
              "type": "address"
            },
            {
              "internalType": "uint256",
              "name": "expireTimestamp",
              "type": "uint256"
            }
          ],
          "internalType": "struct INFTKEYMarketPlaceV1.Listing",
          "name": "",
          "type": "tuple"
        }
      ],
      "stateMutability": "view",
      "type": "function"
    },
    {
      "inputs": [],
      "name": "getTokenListings",
      "outputs": [
        {
          "components": [
            {
              "internalType": "uint256",
              "name": "tokenId",
              "type": "uint256"
            },
            {
              "internalType": "uint256",
              "name": "listingPrice",
              "type": "uint256"
            },
            {
              "internalType": "address",
              "name": "seller",
              "type": "address"
            },
            {
              "internalType": "uint256",
              "name": "expireTimestamp",
              "type": "uint256"
            }
          ],
          "internalType": "struct INFTKEYMarketPlaceV1.Listing[]",
          "name": "",
          "type": "tuple[]"
        }
      ],
      "stateMutability": "view",
      "type": "function"
    },
    {
      "inputs": [
        {
          "internalType": "uint256",
          "name": "tokenId",
          "type": "uint256"
        },
        {
          "internalType": "address",
          "name": "bidder",
          "type": "address"
        }
      ],
      "name": "getBidderTokenBid",
      "outputs": [
        {
          "components": [
            {
              "internalType": "uint256",
              "name": "tokenId",
              "type": "uint256"
            },
            {
              "internalType": "uint256",
              "name": "bidPrice",
              "type": "uint256"
            },
            {
              "internalType": "address",
              "name": "bidder",
              "type": "address"
            },
            {
              "internalType": "uint256",
              "name": "expireTimestamp",
              "type": "uint256"
            }
          ],
          "internalType": "struct INFTKEYMarketPlaceV1.Bid",
          "name": "",
          "type": "tuple"
        }
      ],
      "stateMutability": "view",
      "type": "function"
    },
    {
      "inputs": [
        {
          "internalType": "uint256",
          "name": "tokenId",
          "type": "uint256"
        }
      ],
      "name": "getTokenBids",
      "outputs": [
        {
          "components": [
            {
              "internalType": "uint256",
              "name": "tokenId",
              "type": "uint256"
            },
            {
              "internalType": "uint256",
              "name": "bidPrice",
              "type": "uint256"
            },
            {
              "internalType": "address",
              "name": "bidder",
              "type": "address"
            },
            {
              "internalType": "uint256",
              "name": "expireTimestamp",
              "type": "uint256"
            }
          ],
          "internalType": "struct INFTKEYMarketPlaceV1.Bid[]",
          "name": "",
          "type": "tuple[]"
        }
      ],
      "stateMutability": "view",
      "type": "function"
    },
    {
      "inputs": [
        {
          "internalType": "uint256",
          "name": "tokenId",
          "type": "uint256"
        }
      ],
      "name": "getTokenHighestBid",
      "outputs": [
        {
          "components": [
            {
              "internalType": "uint256",
              "name": "tokenId",
              "type": "uint256"
            },
            {
              "internalType": "uint256",
              "name": "bidPrice",
              "type": "uint256"
            },
            {
              "internalType": "address",
              "name": "bidder",
              "type": "address"
            },
            {
              "internalType": "uint256",
              "name": "expireTimestamp",
              "type": "uint256"
            }
          ],
          "internalType": "struct INFTKEYMarketPlaceV1.Bid",
          "name": "",
          "type": "tuple"
        }
      ],
      "stateMutability": "view",
      "type": "function"
    },
    {
      "inputs": [],
      "name": "getAllTokenHighestBids",
      "outputs": [
        {
          "components": [
            {
              "internalType": "uint256",
              "name": "tokenId",
              "type": "uint256"
            },
            {
              "internalType": "uint256",
              "name": "bidPrice",
              "type": "uint256"
            },
            {
              "internalType": "address",
              "name": "bidder",
              "type": "address"
            },
            {
              "internalType": "uint256",
              "name": "expireTimestamp",
              "type": "uint256"
            }
          ],
          "internalType": "struct INFTKEYMarketPlaceV1.Bid[]",
          "name": "",
          "type": "tuple[]"
        }
      ],
      "stateMutability": "view",
      "type": "function"
    },
    {
      "inputs": [
        {
          "internalType": "uint256",
          "name": "tokenId",
          "type": "uint256"
        },
        {
          "internalType": "uint256",
          "name": "value",
          "type": "uint256"
        },
        {
          "internalType": "uint256",
          "name": "expireTimestamp",
          "type": "uint256"
        }
      ],
      "name": "listToken",
      "outputs": [],
      "stateMutability": "nonpayable",
      "type": "function"
    },
    {
      "inputs": [
        {
          "internalType": "uint256",
          "name": "tokenId",
          "type": "uint256"
        }
      ],
      "name": "delistToken",
      "outputs": [],
      "stateMutability": "nonpayable",
      "type": "function"
    },
    {
      "inputs": [
        {
          "internalType": "uint256",
          "name": "tokenId",
          "type": "uint256"
        }
      ],
      "name": "buyToken",
      "outputs": [],
      "stateMutability": "payable",
      "type": "function"
    },
    {
      "inputs": [
        {
          "internalType": "uint256",
          "name": "tokenId",
          "type": "uint256"
        },
        {
          "internalType": "uint256",
          "name": "bidPrice",
          "type": "uint256"
        },
        {
          "internalType": "uint256",
          "name": "expireTimestamp",
          "type": "uint256"
        }
      ],
      "name": "enterBidForToken",
      "outputs": [],
      "stateMutability": "nonpayable",
      "type": "function"
    },
    {
      "inputs": [
        {
          "internalType": "uint256",
          "name": "tokenId",
          "type": "uint256"
        }
      ],
      "name": "withdrawBidForToken",
      "outputs": [],
      "stateMutability": "nonpayable",
      "type": "function"
    },
    {
      "inputs": [
        {
          "internalType": "uint256",
          "name": "tokenId",
          "type": "uint256"
        },
        {
          "internalType": "address",
          "name": "bidder",
          "type": "address"
        }
      ],
      "name": "acceptBidForToken",
      "outputs": [],
      "stateMutability": "nonpayable",
      "type": "function"
    },
    {
      "inputs": [],
      "name": "getInvalidListingCount",
      "outputs": [
        {
          "internalType": "uint256",
          "name": "",
          "type": "uint256"
        }
      ],
      "stateMutability": "view",
      "type": "function"
    },
    {
      "inputs": [],
      "name": "getInvalidBidCount",
      "outputs": [
        {
          "internalType": "uint256",
          "name": "",
          "type": "uint256"
        }
      ],
      "stateMutability": "view",
      "type": "function"
    },
    {
      "inputs": [],
      "name": "cleanAllInvalidListings",
      "outputs": [],
      "stateMutability": "nonpayable",
      "type": "function"
    },
    {
      "inputs": [],
      "name": "cleanAllInvalidBids",
      "outputs": [],
      "stateMutability": "nonpayable",
      "type": "function"
    },
    {
      "inputs": [],
      "name": "isListingAndBidEnabled",
      "outputs": [
        {
          "internalType": "bool",
          "name": "",
          "type": "bool"
        }
      ],
      "stateMutability": "view",
      "type": "function"
    },
    {
      "inputs": [
        {
          "internalType": "bool",
          "name": "enabled",
          "type": "bool"
        }
      ],
      "name": "changeMarketplaceStatus",
      "outputs": [],
      "stateMutability": "nonpayable",
      "type": "function"
    },
    {
      "inputs": [],
      "name": "actionTimeOutRangeMin",
      "outputs": [
        {
          "internalType": "uint256",
          "name": "",
          "type": "uint256"
        }
      ],
      "stateMutability": "view",
      "type": "function"
    },
    {
      "inputs": [],
      "name": "actionTimeOutRangeMax",
      "outputs": [
        {
          "internalType": "uint256",
          "name": "",
          "type": "uint256"
        }
      ],
      "stateMutability": "view",
      "type": "function"
    },
    {
      "inputs": [
        {
          "internalType": "uint256",
          "name": "timeInSec",
          "type": "uint256"
        }
      ],
      "name": "changeMinActionTimeLimit",
      "outputs": [],
      "stateMutability": "nonpayable",
      "type": "function"
    },
    {
      "inputs": [
        {
          "internalType": "uint256",
          "name": "timeInSec",
          "type": "uint256"
        }
      ],
      "name": "changeMaxActionTimeLimit",
      "outputs": [],
      "stateMutability": "nonpayable",
      "type": "function"
    },
    {
      "inputs": [],
      "name": "serviceFee",
      "outputs": [
        {
          "internalType": "uint8",
          "name": "",
          "type": "uint8"
        },
        {
          "internalType": "uint8",
          "name": "",
          "type": "uint8"
        }
      ],
      "stateMutability": "view",
      "type": "function"
    },
    {
      "inputs": [
        {
          "internalType": "uint8",
          "name": "feeFraction_",
          "type": "uint8"
        },
        {
          "internalType": "uint8",
          "name": "feeBase_",
          "type": "uint8"
        }
      ],
      "name": "changeSeriveFee",
      "outputs": [],
      "stateMutability": "nonpayable",
      "type": "function"
    }
  ],
  "bytecode": "0x60c060405260028054610100600160ff199092169190911761ff0019161762ff0000191662640000179055620151806003556301e133806004553480156200004657600080fd5b5060405162003e5338038062003e538339810160408190526200006991620000e6565b600062000075620000e2565b600080546001600160a01b0319166001600160a01b0383169081178255604051929350917f8be0079c531659141344cd1fd0a4f28419497f9722a3daafe3b4186f6b6457e0908290a350600180556001600160601b0319606092831b8116608052911b1660a0526200013d565b3390565b60008060408385031215620000f9578182fd5b8251620001068162000124565b6020840151909250620001198162000124565b809150509250929050565b6001600160a01b03811681146200013a57600080fd5b50565b60805160601c60a05160601c613cc46200018f60003980610b385280610b68528061147e5280611b67528061217652508061090c5280610bdc5280611345528061224a528061261a5250613cc46000f3fe6080604052600436106101c25760003560e01c80638abdf5aa116100f7578063b6be53ba11610095578063e724488111610064578063e7244881146104a5578063e7d585a8146104c5578063f0e6dcab146104e5578063f2fde38b14610507576101c2565b8063b6be53ba14610423578063bce64a7d14610443578063bed659bc14610463578063d4eb5ded14610483576101c2565b80639d76ea58116100d15780639d76ea58146103c4578063a3c0b5f0146103d9578063a6a27f3a146103f9578063afb18fe71461040e576101c2565b80638abdf5aa1461035f5780638da5cb5b1461038257806398792eec146103a4576101c2565b8063453dfc501161016457806370a3b3901161013e57806370a3b390146102f5578063715018a6146103155780637d7660e01461032a57806385f5a92a1461033f576101c2565b8063453dfc501461029e57806354b0de6a146102b35780635eef51ee146102d5576101c2565b806333549d3d116101a057806333549d3d14610232578063336c16c614610254578063383fba251461027457806340a9791914610289576101c2565b80631e56afe9146101c75780632426fc24146101fd5780632d296bf11461021f575b600080fd5b3480156101d357600080fd5b506101e76101e2366004612f9d565b610527565b6040516101f49190613bf1565b60405180910390f35b34801561020957600080fd5b5061021d610218366004612f9d565b610653565b005b61021d61022d366004612f9d565b6106d4565b34801561023e57600080fd5b50610247610992565b6040516101f49190613bff565b34801561026057600080fd5b5061021d61026f366004612fcd565b610998565b34801561028057600080fd5b5061021d610cd4565b34801561029557600080fd5b50610247610d06565b3480156102aa57600080fd5b50610247610d49565b3480156102bf57600080fd5b506102c8610d4f565b6040516101f4919061312f565b3480156102e157600080fd5b5061021d6102f0366004613027565b610e6d565b34801561030157600080fd5b506101e7610310366004612fcd565b610fe1565b34801561032157600080fd5b5061021d611073565b34801561033657600080fd5b5061021d611155565b34801561034b57600080fd5b5061021d61035a366004612f9d565b611184565b34801561036b57600080fd5b5061037461128c565b6040516101f4929190613c1e565b34801561038e57600080fd5b506103976112a4565b6040516101f491906130b6565b3480156103b057600080fd5b506101e76103bf366004612f9d565b6112c0565b3480156103d057600080fd5b50610397611343565b3480156103e557600080fd5b5061021d6103f4366004612f9d565b611367565b34801561040557600080fd5b506102476113df565b34801561041a57600080fd5b5061039761147c565b34801561042f57600080fd5b5061021d61043e366004612f65565b6114a0565b34801561044f57600080fd5b5061021d61045e366004612ffc565b611544565b34801561046f57600080fd5b5061021d61047e366004612f9d565b6117b1565b34801561048f57600080fd5b5061049861186e565b6040516101f4919061317d565b3480156104b157600080fd5b5061021d6104c0366004612ffc565b6119e4565b3480156104d157600080fd5b506102c86104e0366004612f9d565b611df1565b3480156104f157600080fd5b506104fa611f9f565b6040516101f491906131bf565b34801561051357600080fd5b5061021d610522366004612f2d565b611fa8565b61052f612e64565b610537612e64565b604051806080016040528084815260200160008152602001600073ffffffffffffffffffffffffffffffffffffffff1681526020016000815250905060005b600084815260086020526040902061058d906120f5565b81101561064a5760008481526008602052604081206105ac9083612100565b90506105b6612e64565b50600085815260086020908152604080832073ffffffffffffffffffffffffffffffffffffffff808616855260029182018452938290208251608081018452815481526001820154948101949094529081015490931690820152600390910154606082015261062481612113565b8015610637575083602001518160200151115b15610640578093505b5050600101610576565b5090505b919050565b61065b61222b565b73ffffffffffffffffffffffffffffffffffffffff166106796112a4565b73ffffffffffffffffffffffffffffffffffffffff16146106cf576040517f08c379a00000000000000000000000000000000000000000000000000000000081526004016106c6906138b2565b60405180910390fd5b600355565b60026001541415610711576040517f08c379a00000000000000000000000000000000000000000000000000000000081526004016106c690613a6c565b600260015561071e612e64565b610727826112c0565b604081015190915073ffffffffffffffffffffffffffffffffffffffff1661077b576040517f08c379a00000000000000000000000000000000000000000000000000000000081526004016106c69061387b565b610785823361222f565b156107bc576040517f08c379a00000000000000000000000000000000000000000000000000000000081526004016106c69061338f565b60025460208201516000916107ed9160ff6201000083048116926107e792916101009091041661230f565b90612363565b90508082602001510134101561082f576040517f08c379a00000000000000000000000000000000000000000000000000000000081526004016106c690613525565b600061083b34836123af565b905061084b8360400151826123f1565b61085c6108566112a4565b836123f1565b3373ffffffffffffffffffffffffffffffffffffffff16836040015173ffffffffffffffffffffffffffffffffffffffff16857f1d83c44501b48d5dc85fea9b94506cda160418d62c65b481199bdbec265df1573485876040516108c293929190613c08565b60405180910390a460408084015190517f42842e0e00000000000000000000000000000000000000000000000000000000815273ffffffffffffffffffffffffffffffffffffffff7f000000000000000000000000000000000000000000000000000000000000000016916342842e0e916109449190339089906004016130fe565b600060405180830381600087803b15801561095e57600080fd5b505af1158015610972573d6000803e3d6000fd5b5050505061097f846124d3565b61098884612524565b5050600180555050565b60035490565b600260015414156109d5576040517f08c379a00000000000000000000000000000000000000000000000000000000081526004016106c690613a6c565b60026001556109e4823361222f565b610a1a576040517f08c379a00000000000000000000000000000000000000000000000000000000081526004016106c690613b37565b610a23826125ed565b610a59576040517f08c379a00000000000000000000000000000000000000000000000000000000081526004016106c69061321b565b610a61612e64565b610a6b8383610fe1565b905060008160200151118015610ab057508173ffffffffffffffffffffffffffffffffffffffff16816040015173ffffffffffffffffffffffffffffffffffffffff16145b610ae6576040517f08c379a00000000000000000000000000000000000000000000000000000000081526004016106c6906132d5565b6002546020820151600091610b1691610100820460ff908116620100009093048116830116916107e7919061230f565b90506000610b318284602001516123af90919063ffffffff16565b9050610b637f0000000000000000000000000000000000000000000000000000000000000000846040015133846126d1565b610b9a7f00000000000000000000000000000000000000000000000000000000000000008460400151610b946112a4565b856126d1565b60408084015190517f42842e0e00000000000000000000000000000000000000000000000000000000815273ffffffffffffffffffffffffffffffffffffffff7f000000000000000000000000000000000000000000000000000000000000000016916342842e0e91610c139133918a906004016130fe565b600060405180830381600087803b158015610c2d57600080fd5b505af1158015610c41573d6000803e3d6000fd5b50505050826040015173ffffffffffffffffffffffffffffffffffffffff163373ffffffffffffffffffffffffffffffffffffffff16867f2c907f0c6ace0ad59e44f69f6873314bb2b85cca7eeffb05ca93fa65326bfbb486602001518587604051610caf93929190613c08565b60405180910390a4610cc08561277a565b610cc985612524565b505060018055505050565b60005b610ce160066120f5565b811015610d0357610cfb610cf6600683612100565b61277a565b600101610cd7565b50565b600080805b610d1560096120f5565b811015610d4357610d39610d32610d2d600984612100565b6127e7565b83906128b6565b9150600101610d0b565b50905090565b60045490565b606080610d5c60096120f5565b67ffffffffffffffff81118015610d7257600080fd5b50604051908082528060200260200182016040528015610dac57816020015b610d99612e64565b815260200190600190039081610d915790505b5090506000805b610dbd60096120f5565b811015610e0f57610dcc612e64565b610dda6101e2600984612100565b602081015190915015610e065780848481518110610df457fe5b60209081029190910101526001909201915b50600101610db3565b5060608167ffffffffffffffff81118015610e2957600080fd5b50604051908082528060200260200182016040528015610e6357816020015b610e50612e64565b815260200190600190039081610e485790505b5092935050505090565b610e7561222b565b73ffffffffffffffffffffffffffffffffffffffff16610e936112a4565b73ffffffffffffffffffffffffffffffffffffffff1614610ee0576040517f08c379a00000000000000000000000000000000000000000000000000000000081526004016106c6906138b2565b8060ff168260ff161115610f20576040517f08c379a00000000000000000000000000000000000000000000000000000000081526004016106c6906139d8565b60008160ff168360ff166103e80261ffff1681610f3957fe5b0461ffff1690506019811115610f7b576040517f08c379a00000000000000000000000000000000000000000000000000000000081526004016106c690613707565b506002805460ff92831662010000027fffffffffffffffffffffffffffffffffffffffffffffffffffffffffff00ffff94909316610100027fffffffffffffffffffffffffffffffffffffffffffffffffffffffffffff00ff9091161792909216179055565b610fe9612e64565b610ff1612e64565b50600083815260086020908152604080832073ffffffffffffffffffffffffffffffffffffffff808716855260029182018452938290208251608081018452815481526001820154948101949094529081015490931690820152600390910154606082015261105f81612113565b1561106b57905061106d565b505b92915050565b61107b61222b565b73ffffffffffffffffffffffffffffffffffffffff166110996112a4565b73ffffffffffffffffffffffffffffffffffffffff16146110e6576040517f08c379a00000000000000000000000000000000000000000000000000000000081526004016106c6906138b2565b6000805460405173ffffffffffffffffffffffffffffffffffffffff909116907f8be0079c531659141344cd1fd0a4f28419497f9722a3daafe3b4186f6b6457e0908390a3600080547fffffffffffffffffffffffff0000000000000000000000000000000000000000169055565b60005b61116260096120f5565b811015610d035761117c611177600983612100565b612524565b600101611158565b61118c612e64565b5060008181526008602090815260408083203380855260029182018452938290208251608081018452815481526001820154948101949094529081015473ffffffffffffffffffffffffffffffffffffffff16918301829052600301546060830152909114611227576040517f08c379a00000000000000000000000000000000000000000000000000000000081526004016106c690613944565b806040015173ffffffffffffffffffffffffffffffffffffffff16827f4afa471ce7ab7fa67258e3afb1adf7e899e0495602eeb26d90d41e1b64dea5a683602001516040516112769190613bff565b60405180910390a361128882336128f5565b5050565b60025460ff6101008204811691620100009004169091565b60005473ffffffffffffffffffffffffffffffffffffffff1690565b6112c8612e64565b6112d0612e64565b50600082815260056020908152604091829020825160808101845281548152600182015492810192909252600281015473ffffffffffffffffffffffffffffffffffffffff16928201929092526003909101546060820152611331816129e3565b1561133d57905061064e565b50919050565b7f000000000000000000000000000000000000000000000000000000000000000090565b61136f61222b565b73ffffffffffffffffffffffffffffffffffffffff1661138d6112a4565b73ffffffffffffffffffffffffffffffffffffffff16146113da576040517f08c379a00000000000000000000000000000000000000000000000000000000081526004016106c6906138b2565b600455565b600080805b6113ee60066120f5565b811015610d435761146260056000611407600685612100565b81526020808201929092526040908101600020815160808101835281548152600182015493810193909352600281015473ffffffffffffffffffffffffffffffffffffffff16918301919091526003015460608201526129e3565b611474576114718260016128b6565b91505b6001016113e4565b7f000000000000000000000000000000000000000000000000000000000000000090565b6114a861222b565b73ffffffffffffffffffffffffffffffffffffffff166114c66112a4565b73ffffffffffffffffffffffffffffffffffffffff1614611513576040517f08c379a00000000000000000000000000000000000000000000000000000000081526004016106c6906138b2565b600280547fffffffffffffffffffffffffffffffffffffffffffffffffffffffffffffff0016911515919091179055565b60025460ff1615611581576040517f08c379a00000000000000000000000000000000000000000000000000000000081526004016106c690613423565b600354819061159082426123af565b10156115c8576040517f08c379a00000000000000000000000000000000000000000000000000000000081526004016106c690613b94565b6004546115d582426123af565b111561160d576040517f08c379a00000000000000000000000000000000000000000000000000000000081526004016106c690613616565b60008311611647576040517f08c379a00000000000000000000000000000000000000000000000000000000081526004016106c690613764565b611651843361222f565b611687576040517f08c379a00000000000000000000000000000000000000000000000000000000081526004016106c690613b00565b611690846125ed565b6116c6576040517f08c379a00000000000000000000000000000000000000000000000000000000081526004016106c6906138e7565b604080516080810182528581526020808201868152338385019081526060840187815260008a815260059094529490922092518355516001830155516002820180547fffffffffffffffffffffffff00000000000000000000000000000000000000001673ffffffffffffffffffffffffffffffffffffffff909216919091179055905160039091015561175b600685612a09565b503373ffffffffffffffffffffffffffffffffffffffff16847f7765a1c07bdce3390c521eaeb86030b188b77cbaba2d76bd7c9c32d906bfbcba856040516117a39190613bff565b60405180910390a350505050565b60008181526005602052604090206002015473ffffffffffffffffffffffffffffffffffffffff163314611811576040517f08c379a00000000000000000000000000000000000000000000000000000000081526004016106c690613aa3565b60008181526005602052604080822060020154905173ffffffffffffffffffffffffffffffffffffffff9091169183917f70a382c18b6e794d86997f6e1f1efca577925cfa85c476a6ff7031f0a3dd6ed09190a3610d03816124d3565b60608061187b60066120f5565b67ffffffffffffffff8111801561189157600080fd5b506040519080825280602002602001820160405280156118cb57816020015b6118b8612e64565b8152602001906001900390816118b05790505b5090506000805b6118dc60066120f5565b811015611988576118eb612e64565b600560006118fa600685612100565b81526020808201929092526040908101600020815160808101835281548152600182015493810193909352600281015473ffffffffffffffffffffffffffffffffffffffff1691830191909152600301546060820152905061195b816129e3565b1561197f578084848151811061196d57fe5b60209081029190910101526001909201915b506001016118d2565b5060608167ffffffffffffffff811180156119a257600080fd5b50604051908082528060200260200182016040528015610e6357816020015b6119c9612e64565b8152602001906001900390816119c157509395945050505050565b60025460ff1615611a21576040517f08c379a00000000000000000000000000000000000000000000000000000000081526004016106c690613423565b6003548190611a3082426123af565b1015611a68576040517f08c379a00000000000000000000000000000000000000000000000000000000081526004016106c690613b94565b600454611a7582426123af565b1115611aad576040517f08c379a00000000000000000000000000000000000000000000000000000000081526004016106c690613616565b60008311611ae7576040517f08c379a00000000000000000000000000000000000000000000000000000000081526004016106c69061345a565b611af1843361222f565b15611b28576040517f08c379a00000000000000000000000000000000000000000000000000000000081526004016106c6906136aa565b6040517fdd62ed3e000000000000000000000000000000000000000000000000000000008152839073ffffffffffffffffffffffffffffffffffffffff7f0000000000000000000000000000000000000000000000000000000000000000169063dd62ed3e90611b9e90339030906004016130d7565b60206040518083038186803b158015611bb657600080fd5b505afa158015611bca573d6000803e3d6000fd5b505050506040513d601f19601f82011682018060405250810190611bee9190612fb5565b1015611c26576040517f08c379a00000000000000000000000000000000000000000000000000000000081526004016106c6906137c1565b611c2e612e64565b506040805160808101825285815260208101859052339181019190915260608101839052611c5d600986612a15565b611d1557611c6c600986612a09565b5060408051600b805460806020828102850182018652606085018381529495869591860194938593918701928592849284918a0182828015611ccd57602002820191906000526020600020905b815481526020019060010190808311611cb9575b505050919092525050509052509052600086815260086020908152604090912082518051805180519394929385938492611d0d9284929190910190612ea2565b505050505050505b6000858152600860205260409020611d2d9033612a21565b506000858152600860209081526040808320338085526002918201845293829020855181559285015160018401558482015190830180547fffffffffffffffffffffffff00000000000000000000000000000000000000001673ffffffffffffffffffffffffffffffffffffffff90921691909117905560608401516003909201919091555186907f0ea16c10401e9d7c547471845914c4a904af6a01b9fa1e195eeecae9f78bcca190611de2908890613bff565b60405180910390a35050505050565b60008181526008602052604090206060908190611e0d906120f5565b67ffffffffffffffff81118015611e2357600080fd5b50604051908082528060200260200182016040528015611e5d57816020015b611e4a612e64565b815260200190600190039081611e425790505b5090506000805b6000858152600860205260409020611e7b906120f5565b811015611f40576000858152600860205260408120611e9a9083612100565b9050611ea4612e64565b50600086815260086020908152604080832073ffffffffffffffffffffffffffffffffffffffff8086168552600291820184529382902082516080810184528154815260018201549481019490945290810154909316908201526003909101546060820152611f1281612113565b15611f365780858581518110611f2457fe5b60209081029190910101526001909301925b5050600101611e64565b5060608167ffffffffffffffff81118015611f5a57600080fd5b50604051908082528060200260200182016040528015611f9457816020015b611f81612e64565b815260200190600190039081611f795790505b509295945050505050565b60025460ff1690565b611fb061222b565b73ffffffffffffffffffffffffffffffffffffffff16611fce6112a4565b73ffffffffffffffffffffffffffffffffffffffff161461201b576040517f08c379a00000000000000000000000000000000000000000000000000000000081526004016106c6906138b2565b73ffffffffffffffffffffffffffffffffffffffff8116612068576040517f08c379a00000000000000000000000000000000000000000000000000000000081526004016106c690613332565b6000805460405173ffffffffffffffffffffffffffffffffffffffff808516939216917f8be0079c531659141344cd1fd0a4f28419497f9722a3daafe3b4186f6b6457e091a3600080547fffffffffffffffffffffffff00000000000000000000000000000000000000001673ffffffffffffffffffffffffffffffffffffffff92909216919091179055565b600061106d82612a43565b600061210c8383612a47565b9392505050565b60006121278260000151836040015161222f565b1580156121ff5750602082015160408084015190517fdd62ed3e00000000000000000000000000000000000000000000000000000000815273ffffffffffffffffffffffffffffffffffffffff7f0000000000000000000000000000000000000000000000000000000000000000169163dd62ed3e916121ac919030906004016130d7565b60206040518083038186803b1580156121c457600080fd5b505afa1580156121d8573d6000803e3d6000fd5b505050506040513d601f19601f820116820180604052508101906121fc9190612fb5565b10155b801561220f575060008260200151115b801561221e5750428260600151115b1561064e5750600161064e565b3390565b60008173ffffffffffffffffffffffffffffffffffffffff167f000000000000000000000000000000000000000000000000000000000000000073ffffffffffffffffffffffffffffffffffffffff16636352211e856040518263ffffffff1660e01b81526004016122a19190613bff565b60206040518083038186803b1580156122b957600080fd5b505afa1580156122cd573d6000803e3d6000fd5b505050506040513d601f19601f820116820180604052508101906122f19190612f49565b73ffffffffffffffffffffffffffffffffffffffff16149392505050565b60008261231e5750600061106d565b8282028284828161232b57fe5b041461210c576040517f08c379a00000000000000000000000000000000000000000000000000000000081526004016106c69061381e565b600080821161239e576040517f08c379a00000000000000000000000000000000000000000000000000000000081526004016106c690613673565b8183816123a757fe5b049392505050565b6000828211156123eb576040517f08c379a00000000000000000000000000000000000000000000000000000000081526004016106c690613491565b50900390565b8047101561242b576040517f08c379a00000000000000000000000000000000000000000000000000000000081526004016106c690613582565b60008273ffffffffffffffffffffffffffffffffffffffff1682604051612451906130b3565b60006040518083038185875af1925050503d806000811461248e576040519150601f19603f3d011682016040523d82523d6000602084013e612493565b606091505b50509050806124ce576040517f08c379a00000000000000000000000000000000000000000000000000000000081526004016106c6906134c8565b505050565b6000818152600560205260408120818155600181018290556002810180547fffffffffffffffffffffffff000000000000000000000000000000000000000016905560030155611288600682612aa6565b60005b600082815260086020526040902061253e906120f5565b81101561128857600082815260086020526040812061255d9083612100565b9050612567612e64565b50600083815260086020908152604080832073ffffffffffffffffffffffffffffffffffffffff80861685526002918201845293829020825160808101845281548152600182015494810194909452908101549093169082015260039091015460608201526125d581612113565b6125e3576125e384836128f5565b5050600101612527565b6040517f081812fc00000000000000000000000000000000000000000000000000000000815260009030907f000000000000000000000000000000000000000000000000000000000000000073ffffffffffffffffffffffffffffffffffffffff169063081812fc90612664908690600401613bff565b60206040518083038186803b15801561267c57600080fd5b505afa158015612690573d6000803e3d6000fd5b505050506040513d601f19601f820116820180604052508101906126b49190612f49565b73ffffffffffffffffffffffffffffffffffffffff161492915050565b612774846323b872dd60e01b8585856040516024016126f2939291906130fe565b604080517fffffffffffffffffffffffffffffffffffffffffffffffffffffffffffffffe08184030181529190526020810180517bffffffffffffffffffffffffffffffffffffffffffffffffffffffff167fffffffff0000000000000000000000000000000000000000000000000000000090931692909217909152612ab2565b50505050565b600081815260056020908152604091829020825160808101845281548152600182015492810192909252600281015473ffffffffffffffffffffffffffffffffffffffff169282019290925260039091015460608201526127da906129e3565b610d0357610d03816124d3565b600080805b6000848152600860205260409020612803906120f5565b81101561064a5760008481526008602052604081206128229083612100565b905061282c612e64565b50600085815260086020908152604080832073ffffffffffffffffffffffffffffffffffffffff808616855260029182018452938290208251608081018452815481526001820154948101949094529081015490931690820152600390910154606082015261289a81612113565b6128ac576128a98460016128b6565b93505b50506001016127ec565b60008282018381101561210c576040517f08c379a00000000000000000000000000000000000000000000000000000000081526004016106c6906133ec565b600082815260086020526040902061290d9082612b68565b1561128857600082815260086020818152604080842073ffffffffffffffffffffffffffffffffffffffff86168552600280820184529185208581556001810186905591820180547fffffffffffffffffffffffff0000000000000000000000000000000000000000169055600390910184905592859052526129909082612b8a565b5060008281526008602052604090206129a8906120f5565b61128857600082815260086020526040812090818181816129c98282612eed565b5050505050506124ce826009612aa690919063ffffffff16565b60006129f78260000151836040015161222f565b80156121ff575081516121ff906125ed565b600061210c8383612bac565b600061210c8383612bf6565b600061210c8373ffffffffffffffffffffffffffffffffffffffff8416612bac565b5490565b81546000908210612a84576040517f08c379a00000000000000000000000000000000000000000000000000000000081526004016106c690613278565b826000018281548110612a9357fe5b9060005260206000200154905092915050565b600061210c8383612c0e565b6060612b14826040518060400160405280602081526020017f5361666545524332303a206c6f772d6c6576656c2063616c6c206661696c65648152508573ffffffffffffffffffffffffffffffffffffffff16612cf29092919063ffffffff16565b8051909150156124ce5780806020019051810190612b329190612f81565b6124ce576040517f08c379a00000000000000000000000000000000000000000000000000000000081526004016106c690613a0f565b600061210c8373ffffffffffffffffffffffffffffffffffffffff8416612bf6565b600061210c8373ffffffffffffffffffffffffffffffffffffffff8416612c0e565b6000612bb88383612bf6565b612bee5750815460018181018455600084815260208082209093018490558454848252828601909352604090209190915561106d565b50600061106d565b60009081526001919091016020526040902054151590565b60008181526001830160205260408120548015612ce85783547fffffffffffffffffffffffffffffffffffffffffffffffffffffffffffffffff8083019190810190600090879083908110612c5f57fe5b9060005260206000200154905080876000018481548110612c7c57fe5b600091825260208083209091019290925582815260018981019092526040902090840190558654879080612cac57fe5b6001900381819060005260206000200160009055905586600101600087815260200190815260200160002060009055600194505050505061106d565b600091505061106d565b6060612d018484600085612d09565b949350505050565b606082471015612d45576040517f08c379a00000000000000000000000000000000000000000000000000000000081526004016106c6906135b9565b612d4e85612e0b565b612d84576040517f08c379a00000000000000000000000000000000000000000000000000000000081526004016106c6906139a1565b600060608673ffffffffffffffffffffffffffffffffffffffff168587604051612dae9190613097565b60006040518083038185875af1925050503d8060008114612deb576040519150601f19603f3d011682016040523d82523d6000602084013e612df0565b606091505b5091509150612e00828286612e11565b979650505050505050565b3b151590565b60608315612e2057508161210c565b825115612e305782518084602001fd5b816040517f08c379a00000000000000000000000000000000000000000000000000000000081526004016106c691906131ca565b60405180608001604052806000815260200160008152602001600073ffffffffffffffffffffffffffffffffffffffff168152602001600081525090565b828054828255906000526020600020908101928215612edd579160200282015b82811115612edd578251825591602001919060010190612ec2565b50612ee9929150612f07565b5090565b5080546000825590600052602060002090810190610d0391905b5b80821115612ee95760008155600101612f08565b803560ff8116811461106d57600080fd5b600060208284031215612f3e578081fd5b813561210c81613c5e565b600060208284031215612f5a578081fd5b815161210c81613c5e565b600060208284031215612f76578081fd5b813561210c81613c80565b600060208284031215612f92578081fd5b815161210c81613c80565b600060208284031215612fae578081fd5b5035919050565b600060208284031215612fc6578081fd5b5051919050565b60008060408385031215612fdf578081fd5b823591506020830135612ff181613c5e565b809150509250929050565b600080600060608486031215613010578081fd5b505081359360208301359350604090920135919050565b60008060408385031215613039578182fd5b6130438484612f1c565b91506130528460208501612f1c565b90509250929050565b805182526020810151602083015273ffffffffffffffffffffffffffffffffffffffff6040820151166040830152606081015160608301525050565b600082516130a9818460208701613c32565b9190910192915050565b90565b73ffffffffffffffffffffffffffffffffffffffff91909116815260200190565b73ffffffffffffffffffffffffffffffffffffffff92831681529116602082015260400190565b73ffffffffffffffffffffffffffffffffffffffff9384168152919092166020820152604081019190915260600190565b6020808252825182820181905260009190848201906040850190845b818110156131715761315e83855161305b565b928401926080929092019160010161314b565b50909695505050505050565b6020808252825182820181905260009190848201906040850190845b81811015613171576131ac83855161305b565b9284019260809290920191600101613199565b901515815260200190565b60006020825282518060208401526131e9816040850160208701613c32565b601f017fffffffffffffffffffffffffffffffffffffffffffffffffffffffffffffffe0169190910160400192915050565b60208082526035908201527f54686520746f6b656e206973206e6f7420617070726f76656420746f2074726160408201527f6e736665722062792074686520636f6e74726163740000000000000000000000606082015260800190565b60208082526022908201527f456e756d657261626c655365743a20696e646578206f7574206f6620626f756e60408201527f6473000000000000000000000000000000000000000000000000000000000000606082015260800190565b60208082526024908201527f546869732042696f20646f65736e277420686176652061206d61746368696e6760408201527f2062696400000000000000000000000000000000000000000000000000000000606082015260800190565b60208082526026908201527f4f776e61626c653a206e6577206f776e657220697320746865207a65726f206160408201527f6464726573730000000000000000000000000000000000000000000000000000606082015260800190565b60208082526025908201527f546f6b656e206f776e65722063616e277420627579207468656972206f776e2060408201527f746f6b656e000000000000000000000000000000000000000000000000000000606082015260800190565b6020808252601b908201527f536166654d6174683a206164646974696f6e206f766572666c6f770000000000604082015260600190565b6020808252601f908201527f4c697374696e6720616e642062696420617265206e6f7420656e61626c656400604082015260600190565b6020808252601a908201527f506c656173652062696420666f72206d6f7265207468616e2030000000000000604082015260600190565b6020808252601e908201527f536166654d6174683a207375627472616374696f6e206f766572666c6f770000604082015260600190565b6020808252603a908201527f416464726573733a20756e61626c6520746f2073656e642076616c75652c207260408201527f6563697069656e74206d61792068617665207265766572746564000000000000606082015260800190565b6020808252602c908201527f5468652076616c75652073656e642069732062656c6f772073616c652070726960408201527f636520706c757320666565730000000000000000000000000000000000000000606082015260800190565b6020808252601d908201527f416464726573733a20696e73756666696369656e742062616c616e6365000000604082015260600190565b60208082526026908201527f416464726573733a20696e73756666696369656e742062616c616e636520666f60408201527f722063616c6c0000000000000000000000000000000000000000000000000000606082015260800190565b60208082526025908201527f506c6561736520656e74657220612073686f7274657220706572696f64206f6660408201527f2074696d65000000000000000000000000000000000000000000000000000000606082015260800190565b6020808252601a908201527f536166654d6174683a206469766973696f6e206279207a65726f000000000000604082015260600190565b60208082526022908201527f5468697320546f6b656e2062656c6f6e677320746f207468697320616464726560408201527f7373000000000000000000000000000000000000000000000000000000000000606082015260800190565b6020808252602b908201527f417474656d707420746f207365742070657263656e746167652068696768657260408201527f207468616e20322e35252e000000000000000000000000000000000000000000606082015260800190565b60208082526038908201527f506c65617365206c69737420666f72206d6f7265207468616e2030206f72207560408201527f736520746865207472616e736665722066756e6374696f6e0000000000000000606082015260800190565b60208082526036908201527f4e65656420746f206861766520656e6f75676820746f6b656e20686f6c64696e60408201527f6720746f20626964206f6e207468697320746f6b656e00000000000000000000606082015260800190565b60208082526021908201527f536166654d6174683a206d756c7469706c69636174696f6e206f766572666c6f60408201527f7700000000000000000000000000000000000000000000000000000000000000606082015260800190565b60208082526015908201527f546f6b656e206973206e6f7420666f722073616c650000000000000000000000604082015260600190565b6020808252818101527f4f776e61626c653a2063616c6c6572206973206e6f7420746865206f776e6572604082015260600190565b60208082526036908201527f5468697320746f6b656e206973206e6f7420616c6c6f77656420746f2074726160408201527f6e73666572206279207468697320636f6e747261637400000000000000000000606082015260800190565b6020808252602b908201527f54686973206164647265737320646f65736e2774206861766520626964206f6e60408201527f207468697320746f6b656e000000000000000000000000000000000000000000606082015260800190565b6020808252601d908201527f416464726573733a2063616c6c20746f206e6f6e2d636f6e7472616374000000604082015260600190565b6020808252601b908201527f466565206672616374696f6e20657863656564656420626173652e0000000000604082015260600190565b6020808252602a908201527f5361666545524332303a204552433230206f7065726174696f6e20646964206e60408201527f6f74207375636365656400000000000000000000000000000000000000000000606082015260800190565b6020808252601f908201527f5265656e7472616e637947756172643a207265656e7472616e742063616c6c00604082015260600190565b60208082526022908201527f4f6e6c7920746f6b656e2073656c6c65722063616e2064656c69737420746f6b60408201527f656e000000000000000000000000000000000000000000000000000000000000606082015260800190565b6020808252601f908201527f4f6e6c7920746f6b656e206f776e65722063616e206c69737420746f6b656e00604082015260600190565b60208082526028908201527f4f6e6c7920746f6b656e206f776e65722063616e20616363657074206269642060408201527f6f6620746f6b656e000000000000000000000000000000000000000000000000606082015260800190565b60208082526024908201527f506c6561736520656e7465722061206c6f6e67657220706572696f64206f662060408201527f74696d6500000000000000000000000000000000000000000000000000000000606082015260800190565b6080810161106d828461305b565b90815260200190565b9283526020830191909152604082015260600190565b60ff92831681529116602082015260400190565b60005b83811015613c4d578181015183820152602001613c35565b838111156127745750506000910152565b73ffffffffffffffffffffffffffffffffffffffff81168114610d0357600080fd5b8015158114610d0357600080fdfea2646970667358221220bc6298c5d247f5e496417ae836423ff2e8c5555df028a609757ff3e1bd9de36064736f6c634300060c0033",
  "immutableReferences": {
    "59": [
      {
        "length": 32,
        "start": 2316
      },
      {
        "length": 32,
        "start": 3036
      },
      {
        "length": 32,
        "start": 4933
      },
      {
        "length": 32,
        "start": 8778
      },
      {
        "length": 32,
        "start": 9754
      }
    ],
    "61": [
      {
        "length": 32,
        "start": 2872
      },
      {
        "length": 32,
        "start": 2920
      },
      {
        "length": 32,
        "start": 5246
      },
      {
        "length": 32,
        "start": 7015
      },
      {
        "length": 32,
        "start": 8566
      }
    ]
  },
  "source": "// SPDX-License-Identifier: AGPL-3.0-or-later\n\npragma solidity =0.6.12;\npragma experimental ABIEncoderV2;\n\nimport \"@openzeppelin/contracts/access/Ownable.sol\";\nimport \"@openzeppelin/contracts/math/SafeMath.sol\";\nimport \"@openzeppelin/contracts/utils/Address.sol\";\nimport \"@openzeppelin/contracts/utils/EnumerableSet.sol\";\nimport \"@openzeppelin/contracts/utils/ReentrancyGuard.sol\";\nimport \"@openzeppelin/contracts/token/ERC721/IERC721.sol\";\nimport \"@openzeppelin/contracts/token/ERC20/SafeERC20.sol\";\nimport \"@openzeppelin/contracts/token/ERC20/IERC20.sol\";\nimport \"./interface/INFTKEYMarketPlaceV1.sol\";\n\n/**\n * @title NFTKEY MarketPlace contract V1\n * Note: This marketplace contract is collection based. It serves one ERC721 contract only\n * Payment tokens usually is the chain native coin's wrapped token, e.g. WETH, WBNB\n */\ncontract NFTKEYMarketPlaceV1 is INFTKEYMarketPlaceV1, Ownable, ReentrancyGuard {\n    using SafeMath for uint256;\n    using Address for address;\n    using EnumerableSet for EnumerableSet.UintSet;\n    using EnumerableSet for EnumerableSet.AddressSet;\n\n    struct TokenBid {\n        EnumerableSet.AddressSet bidders;\n        mapping(address => Bid) bids;\n    }\n\n    constructor(address _erc721Address, address _paymentTokenAddress) public {\n        _erc721 = IERC721(_erc721Address);\n        _paymentToken = IERC20(_paymentTokenAddress);\n    }\n\n    IERC721 private immutable _erc721;\n    IERC20 private immutable _paymentToken;\n\n    bool private _isListingAndBidEnabled = true;\n    uint8 private _feeFraction = 1;\n    uint8 private _feeBase = 100;\n    uint256 private _actionTimeOutRangeMin = 86400; // 24 hours\n    uint256 private _actionTimeOutRangeMax = 31536000; // One year - This can extend by owner is contract is working smoothly\n\n    mapping(uint256 => Listing) private _tokenListings;\n    EnumerableSet.UintSet private _tokenIdWithListing;\n\n    mapping(uint256 => TokenBid) private _tokenBids;\n    EnumerableSet.UintSet private _tokenIdWithBid;\n\n    EnumerableSet.AddressSet private _emptyBidders; // Help initiate TokenBid struct\n\n    /**\n     * @dev only if listing and bid is enabled\n     * This is to help contract migration in case of upgrade or bug\n     */\n    modifier onlyMarketplaceOpen() {\n        require(!_isListingAndBidEnabled, \"Listing and bid are not enabled\");\n        _;\n    }\n\n    /**\n     * @dev only if the entered timestamp is within the allowed range\n     * This helps to not list or bid for too short or too long period of time\n     */\n    modifier onlyAllowedExpireTimestamp(uint256 expireTimestamp) {\n        require(\n            expireTimestamp.sub(block.timestamp) >= _actionTimeOutRangeMin,\n            \"Please enter a longer period of time\"\n        );\n        require(\n            expireTimestamp.sub(block.timestamp) <= _actionTimeOutRangeMax,\n            \"Please enter a shorter period of time\"\n        );\n        _;\n    }\n\n    /**\n     * @dev check if the account is the owner of this erc721 token\n     */\n    function _isTokenOwner(uint256 tokenId, address account) private view returns (bool) {\n        return _erc721.ownerOf(tokenId) == account;\n    }\n\n    /**\n     * @dev check if this contract has approved to transfer this erc721 token\n     */\n    function _isTokenApproved(uint256 tokenId) private view returns (bool) {\n        return _erc721.getApproved(tokenId) == address(this);\n    }\n\n    /**\n     * @dev See {INFTKEYMarketPlaceV1-tokenAddress}.\n     */\n    function tokenAddress() external view override returns (address) {\n        return address(_erc721);\n    }\n\n    /**\n     * @dev See {INFTKEYMarketPlaceV1-paymentTokenAddress}.\n     */\n    function paymentTokenAddress() external view override returns (address) {\n        return address(_paymentToken);\n    }\n\n    /**\n     * @dev Check if a listing is valid or not\n     * The seller must be the owner\n     * The seller must have give this contract allowance\n     * The sell price must be more than 0\n     * The listing mustn't be expired\n     */\n    function _isListingValid(Listing memory listing) private view returns (bool) {\n        if (\n            _isTokenOwner(listing.tokenId, listing.seller) &&\n            _isTokenApproved(listing.tokenId) &&\n            listing.listingPrice > 0 &&\n            listing.expireTimestamp > block.timestamp\n        ) {\n            return true;\n        }\n    }\n\n    /**\n     * @dev See {INFTKEYMarketPlaceV1-getTokenListing}.\n     */\n    function getTokenListing(uint256 tokenId) public view override returns (Listing memory) {\n        Listing memory listing = _tokenListings[tokenId];\n        if (_isListingValid(listing)) {\n            return listing;\n        }\n    }\n\n    /**\n     * @dev See {INFTKEYMarketPlaceV1-getTokenListings}.\n     */\n    function getTokenListings() external view override returns (Listing[] memory) {\n        Listing[] memory listings = new Listing[](_tokenIdWithListing.length());\n        uint256 listingCount = 0;\n        for (uint256 i; i < _tokenIdWithListing.length(); i++) {\n            Listing memory listing = _tokenListings[_tokenIdWithListing.at(i)];\n            if (_isListingValid(listing)) {\n                listings[listingCount] = listing;\n                listingCount++;\n            }\n        }\n        Listing[] memory validListings = new Listing[](listingCount);\n        validListings = listings;\n        return validListings;\n    }\n\n    /**\n     * @dev Check if an bid is valid or not\n     * Bidder must not be the owner\n     * Bidder must give the contract allowance same or more than bid price\n     * Bid price must > 0\n     * Bid mustn't been expired\n     */\n    function _isBidValid(Bid memory bid) private view returns (bool) {\n        if (\n            !_isTokenOwner(bid.tokenId, bid.bidder) &&\n            _paymentToken.allowance(bid.bidder, address(this)) >= bid.bidPrice &&\n            bid.bidPrice > 0 &&\n            bid.expireTimestamp > block.timestamp\n        ) {\n            return true;\n        }\n    }\n\n    /**\n     * @dev See {INFTKEYMarketPlaceV1-getBidderTokenBid}.\n     */\n    function getBidderTokenBid(uint256 tokenId, address bidder)\n        public\n        view\n        override\n        returns (Bid memory)\n    {\n        Bid memory bid = _tokenBids[tokenId].bids[bidder];\n        if (_isBidValid(bid)) {\n            return bid;\n        }\n    }\n\n    /**\n     * @dev See {INFTKEYMarketPlaceV1-getTokenBids}.\n     */\n    function getTokenBids(uint256 tokenId) external view override returns (Bid[] memory) {\n        Bid[] memory bids = new Bid[](_tokenBids[tokenId].bidders.length());\n        uint256 bidsCount = 0;\n        for (uint256 i; i < _tokenBids[tokenId].bidders.length(); i++) {\n            address bidder = _tokenBids[tokenId].bidders.at(i);\n            Bid memory bid = _tokenBids[tokenId].bids[bidder];\n            if (_isBidValid(bid)) {\n                bids[bidsCount] = bid;\n                bidsCount++;\n            }\n        }\n\n        Bid[] memory validBids = new Bid[](bidsCount);\n        validBids = bids;\n        return validBids;\n    }\n\n    /**\n     * @dev See {INFTKEYMarketPlaceV1-getTokenHighestBid}.\n     */\n    function getTokenHighestBid(uint256 tokenId) public view override returns (Bid memory) {\n        Bid memory highestBid = Bid(tokenId, 0, address(0), 0);\n        for (uint256 i; i < _tokenBids[tokenId].bidders.length(); i++) {\n            address bidder = _tokenBids[tokenId].bidders.at(i);\n            Bid memory bid = _tokenBids[tokenId].bids[bidder];\n            if (_isBidValid(bid) && bid.bidPrice > highestBid.bidPrice) {\n                highestBid = bid;\n            }\n        }\n        return highestBid;\n    }\n\n    /**\n     * @dev See {INFTKEYMarketPlaceV1-getAllTokenHighestBids}.\n     */\n    function getAllTokenHighestBids() external view override returns (Bid[] memory) {\n        Bid[] memory allHighestBids = new Bid[](_tokenIdWithBid.length());\n        uint256 bidsCount = 0;\n        for (uint256 i; i < _tokenIdWithBid.length(); i++) {\n            Bid memory highestBid = getTokenHighestBid(_tokenIdWithBid.at(i));\n            if (highestBid.bidPrice > 0) {\n                allHighestBids[bidsCount] = highestBid;\n                bidsCount++;\n            }\n        }\n        Bid[] memory allValidHighestBids = new Bid[](bidsCount);\n        allValidHighestBids = allHighestBids;\n        return allValidHighestBids;\n    }\n\n    /**\n     * @dev delist a token - remove token id record and remove listing from mapping\n     * @param tokenId erc721 token Id\n     */\n    function _delistToken(uint256 tokenId) private {\n        delete _tokenListings[tokenId];\n        _tokenIdWithListing.remove(tokenId);\n    }\n\n    /**\n     * @dev remove invalid listing of a token\n     * @param tokenId erc721 token Id\n     */\n    function _cleanInvalidListingOfToken(uint256 tokenId) private {\n        if (!_isListingValid(_tokenListings[tokenId])) {\n            _delistToken(tokenId);\n        }\n    }\n\n    /**\n     * @dev remove a bid of a bidder\n     * @param tokenId erc721 token Id\n     * @param bidder bidder address\n     */\n    function _removeBidOfBidder(uint256 tokenId, address bidder) private {\n        if (_tokenBids[tokenId].bidders.contains(bidder)) {\n            // Step 1: delete the bid and the address\n            delete _tokenBids[tokenId].bids[bidder];\n            _tokenBids[tokenId].bidders.remove(bidder);\n\n            // Step 2: if no bid left\n            if (_tokenBids[tokenId].bidders.length() == 0) {\n                delete _tokenBids[tokenId];\n                _tokenIdWithBid.remove(tokenId);\n            }\n        }\n    }\n\n    /**\n     * @dev remove invalid bids of a token\n     * @param tokenId erc721 token Id\n     */\n    function _cleanInvalidBidsOfToken(uint256 tokenId) private {\n        for (uint256 i = 0; i < _tokenBids[tokenId].bidders.length(); i++) {\n            address bidder = _tokenBids[tokenId].bidders.at(i);\n            Bid memory bid = _tokenBids[tokenId].bids[bidder];\n            if (!_isBidValid(bid)) {\n                _removeBidOfBidder(tokenId, bidder);\n            }\n        }\n    }\n\n    /**\n     * @dev See {INFTKEYMarketPlaceV1-listToken}.\n     * People can only list if listing is allowed\n     * The timestamp set needs to be in the allowed range\n     * Only token owner can list token\n     * Price must be higher than 0\n     * This contract must be approved to transfer this token\n     */\n    function listToken(\n        uint256 tokenId,\n        uint256 value,\n        uint256 expireTimestamp\n    ) external override onlyMarketplaceOpen onlyAllowedExpireTimestamp(expireTimestamp) {\n        require(value > 0, \"Please list for more than 0 or use the transfer function\");\n        require(_isTokenOwner(tokenId, msg.sender), \"Only token owner can list token\");\n        require(\n            _isTokenApproved(tokenId),\n            \"This token is not allowed to transfer by this contract\"\n        );\n\n        _tokenListings[tokenId] = Listing(tokenId, value, msg.sender, expireTimestamp);\n        _tokenIdWithListing.add(tokenId);\n\n        emit TokenListed(tokenId, msg.sender, value);\n    }\n\n    /**\n     * @dev See {INFTKEYMarketPlaceV1-delistToken}.\n     * msg.sender must be the seller of the listing record\n     */\n    function delistToken(uint256 tokenId) external override {\n        require(_tokenListings[tokenId].seller == msg.sender, \"Only token seller can delist token\");\n        emit TokenDelisted(tokenId, _tokenListings[tokenId].seller);\n        _delistToken(tokenId);\n    }\n\n    /**\n     * @dev See {INFTKEYMarketPlaceV1-buyToken}.\n     * Must have a valid listing\n     * msg.sender must not the owner of token\n     * msg.value must be at least sell price plus fees\n     */\n    function buyToken(uint256 tokenId) external payable override nonReentrant {\n        Listing memory listing = getTokenListing(tokenId); // Get valid listing\n        require(listing.seller != address(0), \"Token is not for sale\"); // Listing not valid\n        require(!_isTokenOwner(tokenId, msg.sender), \"Token owner can't buy their own token\");\n\n        uint256 fees = listing.listingPrice.mul(_feeFraction).div(_feeBase);\n        require(\n            msg.value >= listing.listingPrice + fees,\n            \"The value send is below sale price plus fees\"\n        );\n\n        // Send value to token seller and fees to contract owner\n        uint256 valueWithoutFees = msg.value.sub(fees);\n        Address.sendValue(payable(listing.seller), valueWithoutFees);\n        Address.sendValue(payable(owner()), fees);\n\n        // Send token to buyer\n        emit TokenBought(tokenId, listing.seller, msg.sender, msg.value, valueWithoutFees, fees);\n        _erc721.safeTransferFrom(listing.seller, msg.sender, tokenId);\n\n        // Remove token listing\n        _delistToken(tokenId);\n        _cleanInvalidBidsOfToken(tokenId);\n    }\n\n    /**\n     * @dev See {INFTKEYMarketPlaceV1-enterBidForToken}.\n     * People can only enter bid if bid is allowed\n     * The timestamp set needs to be in the allowed range\n     * bid price > 0\n     * must not be token owner\n     * must allow this contract to spend enough payment token\n     */\n    function enterBidForToken(\n        uint256 tokenId,\n        uint256 bidPrice,\n        uint256 expireTimestamp\n    ) external override onlyMarketplaceOpen onlyAllowedExpireTimestamp(expireTimestamp) {\n        require(bidPrice > 0, \"Please bid for more than 0\");\n        require(!_isTokenOwner(tokenId, msg.sender), \"This Token belongs to this address\");\n        require(\n            _paymentToken.allowance(msg.sender, address(this)) >= bidPrice,\n            \"Need to have enough token holding to bid on this token\"\n        );\n\n        Bid memory bid = Bid(tokenId, bidPrice, msg.sender, expireTimestamp);\n\n        // if no bids of this token add a entry to both records _tokenIdWithBid and _tokenBids\n        if (!_tokenIdWithBid.contains(tokenId)) {\n            _tokenIdWithBid.add(tokenId);\n            _tokenBids[tokenId] = TokenBid(_emptyBidders);\n        }\n\n        _tokenBids[tokenId].bidders.add(msg.sender);\n        _tokenBids[tokenId].bids[msg.sender] = bid;\n\n        emit TokenBidEntered(tokenId, msg.sender, bidPrice);\n    }\n\n    /**\n     * @dev See {INFTKEYMarketPlaceV1-withdrawBidForToken}.\n     * There must be a bid exists\n     * remove this bid record\n     */\n    function withdrawBidForToken(uint256 tokenId) external override {\n        Bid memory bid = _tokenBids[tokenId].bids[msg.sender];\n        require(bid.bidder == msg.sender, \"This address doesn't have bid on this token\");\n\n        emit TokenBidWithdrawn(tokenId, bid.bidder, bid.bidPrice);\n        _removeBidOfBidder(tokenId, msg.sender);\n    }\n\n    /**\n     * @dev See {INFTKEYMarketPlaceV1-acceptBidForToken}.\n     * Must be owner of this token\n     * Must have approved this contract to transfer token\n     * Must have a valid existing bid that matches the bidder address\n     */\n    function acceptBidForToken(uint256 tokenId, address bidder) external override nonReentrant {\n        require(_isTokenOwner(tokenId, msg.sender), \"Only token owner can accept bid of token\");\n        require(_isTokenApproved(tokenId), \"The token is not approved to transfer by the contract\");\n\n        Bid memory existingBid = getBidderTokenBid(tokenId, bidder);\n        require(\n            existingBid.bidPrice > 0 && existingBid.bidder == bidder,\n            \"This Bio doesn't have a matching bid\"\n        );\n\n        uint256 fees = existingBid.bidPrice.mul(_feeFraction).div(_feeBase + _feeFraction);\n        uint256 tokenValue = existingBid.bidPrice.sub(fees);\n\n        SafeERC20.safeTransferFrom(_paymentToken, existingBid.bidder, msg.sender, tokenValue);\n        SafeERC20.safeTransferFrom(_paymentToken, existingBid.bidder, owner(), fees);\n\n        _erc721.safeTransferFrom(msg.sender, existingBid.bidder, tokenId);\n\n        emit TokenBidAccepted(\n            tokenId,\n            msg.sender,\n            existingBid.bidder,\n            existingBid.bidPrice,\n            tokenValue,\n            fees\n        );\n\n        _cleanInvalidListingOfToken(tokenId);\n        _cleanInvalidBidsOfToken(tokenId);\n    }\n\n    /**\n     * @dev See {INFTKEYMarketPlaceV1-getInvalidListingCount}.\n     */\n    function getInvalidListingCount() external view override returns (uint256) {\n        uint256 count = 0;\n        for (uint256 i = 0; i < _tokenIdWithListing.length(); i++) {\n            if (!_isListingValid(_tokenListings[_tokenIdWithListing.at(i)])) {\n                count = count.add(1);\n            }\n        }\n        return count;\n    }\n\n    /**\n     * @dev Count how many bid records of a token are invalid now\n     */\n    function _getInvalidBidOfTokenCount(uint256 tokenId) private view returns (uint256) {\n        uint256 count = 0;\n        for (uint256 i = 0; i < _tokenBids[tokenId].bidders.length(); i++) {\n            address bidder = _tokenBids[tokenId].bidders.at(i);\n            Bid memory bid = _tokenBids[tokenId].bids[bidder];\n            if (!_isBidValid(bid)) {\n                count = count.add(1);\n            }\n        }\n        return count;\n    }\n\n    /**\n     * @dev See {INFTKEYMarketPlaceV1-getInvalidBidCount}.\n     */\n    function getInvalidBidCount() external view override returns (uint256) {\n        uint256 count = 0;\n        for (uint256 i = 0; i < _tokenIdWithBid.length(); i++) {\n            count = count.add(_getInvalidBidOfTokenCount(_tokenIdWithBid.at(i)));\n        }\n        return count;\n    }\n\n    /**\n     * @dev See {INFTKEYMarketPlaceV1-cleanAllInvalidListings}.\n     */\n    function cleanAllInvalidListings() external override {\n        for (uint256 i = 0; i < _tokenIdWithListing.length(); i++) {\n            _cleanInvalidListingOfToken(_tokenIdWithListing.at(i));\n        }\n    }\n\n    /**\n     * @dev See {INFTKEYMarketPlaceV1-cleanAllInvalidBids}.\n     */\n    function cleanAllInvalidBids() external override {\n        for (uint256 i = 0; i < _tokenIdWithBid.length(); i++) {\n            _cleanInvalidBidsOfToken(_tokenIdWithBid.at(i));\n        }\n    }\n\n    /**\n     * @dev See {INFTKEYMarketPlaceV1-isListingAndBidEnabled}.\n     */\n    function isListingAndBidEnabled() external view override returns (bool) {\n        return _isListingAndBidEnabled;\n    }\n\n    /**\n     * @dev Enable to disable Bids and Listing\n     */\n    function changeMarketplaceStatus(bool enabled) external onlyOwner {\n        _isListingAndBidEnabled = enabled;\n    }\n\n    /**\n     * @dev See {INFTKEYMarketPlaceV1-actionTimeOutRangeMin}.\n     */\n    function actionTimeOutRangeMin() external view override returns (uint256) {\n        return _actionTimeOutRangeMin;\n    }\n\n    /**\n     * @dev See {INFTKEYMarketPlaceV1-actionTimeOutRangeMax}.\n     */\n    function actionTimeOutRangeMax() external view override returns (uint256) {\n        return _actionTimeOutRangeMax;\n    }\n\n    /**\n     * @dev Change minimum listing and bid time range\n     */\n    function changeMinActionTimeLimit(uint256 timeInSec) external onlyOwner {\n        _actionTimeOutRangeMin = timeInSec;\n    }\n\n    /**\n     * @dev Change maximum listing and bid time range\n     */\n    function changeMaxActionTimeLimit(uint256 timeInSec) external onlyOwner {\n        _actionTimeOutRangeMax = timeInSec;\n    }\n\n    /**\n     * @dev See {INFTKEYMarketPlaceV1-serviceFee}.\n     */\n    function serviceFee() external view override returns (uint8, uint8) {\n        return (_feeFraction, _feeBase);\n    }\n\n    /**\n     * @dev Change withdrawal fee percentage.\n     * If 1%, then input (1,100)\n     * If 0.5%, then input (5,1000)\n     * @param feeFraction_ Fraction of withdrawal fee based on feeBase_\n     * @param feeBase_ Fraction of withdrawal fee base\n     */\n    function changeSeriveFee(uint8 feeFraction_, uint8 feeBase_) external onlyOwner {\n        require(feeFraction_ <= feeBase_, \"Fee fraction exceeded base.\");\n        uint256 percentage = (feeFraction_ * 1000) / feeBase_;\n        require(percentage <= 25, \"Attempt to set percentage higher than 2.5%.\");\n\n        _feeFraction = feeFraction_;\n        _feeBase = feeBase_;\n    }\n}\n",
  "sourcePath": "/Users/fayexue/projects/nftkey-marketplace/contracts/NFTKEYMarketPlaceV1.sol",
  "compiler": {
    "name": "solc",
    "version": "0.6.12+commit.27d51765.Emscripten.clang"
  },
  "schemaVersion": "3.3.4",
  "updatedAt": "2021-03-28T02:36:12.171Z",
  "devdoc": {
    "kind": "dev",
    "methods": {
      "acceptBidForToken(uint256,address)": {
        "details": "See {INFTKEYMarketPlaceV1-acceptBidForToken}. Must be owner of this token Must have approved this contract to transfer token Must have a valid existing bid that matches the bidder address"
      },
      "actionTimeOutRangeMax()": {
        "details": "See {INFTKEYMarketPlaceV1-actionTimeOutRangeMax}."
      },
      "actionTimeOutRangeMin()": {
        "details": "See {INFTKEYMarketPlaceV1-actionTimeOutRangeMin}."
      },
      "buyToken(uint256)": {
        "details": "See {INFTKEYMarketPlaceV1-buyToken}. Must have a valid listing msg.sender must not the owner of token msg.value must be at least sell price plus fees"
      },
      "changeMarketplaceStatus(bool)": {
        "details": "Enable to disable Bids and Listing"
      },
      "changeMaxActionTimeLimit(uint256)": {
        "details": "Change maximum listing and bid time range"
      },
      "changeMinActionTimeLimit(uint256)": {
        "details": "Change minimum listing and bid time range"
      },
      "changeSeriveFee(uint8,uint8)": {
        "details": "Change withdrawal fee percentage. If 1%, then input (1,100) If 0.5%, then input (5,1000)",
        "params": {
          "feeBase_": "Fraction of withdrawal fee base",
          "feeFraction_": "Fraction of withdrawal fee based on feeBase_"
        }
      },
      "cleanAllInvalidBids()": {
        "details": "See {INFTKEYMarketPlaceV1-cleanAllInvalidBids}."
      },
      "cleanAllInvalidListings()": {
        "details": "See {INFTKEYMarketPlaceV1-cleanAllInvalidListings}."
      },
      "delistToken(uint256)": {
        "details": "See {INFTKEYMarketPlaceV1-delistToken}. msg.sender must be the seller of the listing record"
      },
      "enterBidForToken(uint256,uint256,uint256)": {
        "details": "See {INFTKEYMarketPlaceV1-enterBidForToken}. People can only enter bid if bid is allowed The timestamp set needs to be in the allowed range bid price > 0 must not be token owner must allow this contract to spend enough payment token"
      },
      "getAllTokenHighestBids()": {
        "details": "See {INFTKEYMarketPlaceV1-getAllTokenHighestBids}."
      },
      "getBidderTokenBid(uint256,address)": {
        "details": "See {INFTKEYMarketPlaceV1-getBidderTokenBid}."
      },
      "getInvalidBidCount()": {
        "details": "See {INFTKEYMarketPlaceV1-getInvalidBidCount}."
      },
      "getInvalidListingCount()": {
        "details": "See {INFTKEYMarketPlaceV1-getInvalidListingCount}."
      },
      "getTokenBids(uint256)": {
        "details": "See {INFTKEYMarketPlaceV1-getTokenBids}."
      },
      "getTokenHighestBid(uint256)": {
        "details": "See {INFTKEYMarketPlaceV1-getTokenHighestBid}."
      },
      "getTokenListing(uint256)": {
        "details": "See {INFTKEYMarketPlaceV1-getTokenListing}."
      },
      "getTokenListings()": {
        "details": "See {INFTKEYMarketPlaceV1-getTokenListings}."
      },
      "isListingAndBidEnabled()": {
        "details": "See {INFTKEYMarketPlaceV1-isListingAndBidEnabled}."
      },
      "listToken(uint256,uint256,uint256)": {
        "details": "See {INFTKEYMarketPlaceV1-listToken}. People can only list if listing is allowed The timestamp set needs to be in the allowed range Only token owner can list token Price must be higher than 0 This contract must be approved to transfer this token"
      },
      "owner()": {
        "details": "Returns the address of the current owner."
      },
      "paymentTokenAddress()": {
        "details": "See {INFTKEYMarketPlaceV1-paymentTokenAddress}."
      },
      "renounceOwnership()": {
        "details": "Leaves the contract without owner. It will not be possible to call `onlyOwner` functions anymore. Can only be called by the current owner. NOTE: Renouncing ownership will leave the contract without an owner, thereby removing any functionality that is only available to the owner."
      },
      "serviceFee()": {
        "details": "See {INFTKEYMarketPlaceV1-serviceFee}."
      },
      "tokenAddress()": {
        "details": "See {INFTKEYMarketPlaceV1-tokenAddress}."
      },
      "transferOwnership(address)": {
        "details": "Transfers ownership of the contract to a new account (`newOwner`). Can only be called by the current owner."
      },
      "withdrawBidForToken(uint256)": {
        "details": "See {INFTKEYMarketPlaceV1-withdrawBidForToken}. There must be a bid exists remove this bid record"
      }
    },
    "title": "NFTKEY MarketPlace contract V1 Note: This marketplace contract is collection based. It serves one ERC721 contract only Payment tokens usually is the chain native coin's wrapped token, e.g. WETH, WBNB",
    "version": 1
  },
  "userdoc": {
    "kind": "user",
    "methods": {},
    "version": 1
  }
}