{
  "contractName": "NFTKEYMarketPlaceV1_1",
  "abi": [
    {
      "inputs": [
        {
          "internalType": "string",
          "name": "erc721Name_",
          "type": "string"
        },
        {
          "internalType": "address",
          "name": "_erc721Address",
          "type": "address"
        },
        {
          "internalType": "address",
          "name": "_paymentTokenAddress",
          "type": "address"
        }
      ],
      "stateMutability": "nonpayable",
      "type": "constructor"
    },
    {
      "anonymous": false,
      "inputs": [
        {
          "indexed": true,
          "internalType": "address",
          "name": "previousOwner",
          "type": "address"
        },
        {
          "indexed": true,
          "internalType": "address",
          "name": "newOwner",
          "type": "address"
        }
      ],
      "name": "OwnershipTransferred",
      "type": "event"
    },
    {
      "anonymous": false,
      "inputs": [
        {
          "indexed": true,
          "internalType": "uint256",
          "name": "tokenId",
          "type": "uint256"
        },
        {
          "indexed": true,
          "internalType": "address",
          "name": "owner",
          "type": "address"
        },
        {
          "indexed": true,
          "internalType": "address",
          "name": "bidder",
          "type": "address"
        },
        {
          "indexed": false,
          "internalType": "uint256",
          "name": "total",
          "type": "uint256"
        },
        {
          "indexed": false,
          "internalType": "uint256",
          "name": "value",
          "type": "uint256"
        },
        {
          "indexed": false,
          "internalType": "uint256",
          "name": "fees",
          "type": "uint256"
        }
      ],
      "name": "TokenBidAccepted",
      "type": "event"
    },
    {
      "anonymous": false,
      "inputs": [
        {
          "indexed": true,
          "internalType": "uint256",
          "name": "tokenId",
          "type": "uint256"
        },
        {
          "indexed": true,
          "internalType": "address",
          "name": "fromAddress",
          "type": "address"
        },
        {
          "indexed": false,
          "internalType": "uint256",
          "name": "value",
          "type": "uint256"
        }
      ],
      "name": "TokenBidEntered",
      "type": "event"
    },
    {
      "anonymous": false,
      "inputs": [
        {
          "indexed": true,
          "internalType": "uint256",
          "name": "tokenId",
          "type": "uint256"
        },
        {
          "indexed": true,
          "internalType": "address",
          "name": "fromAddress",
          "type": "address"
        },
        {
          "indexed": false,
          "internalType": "uint256",
          "name": "value",
          "type": "uint256"
        }
      ],
      "name": "TokenBidWithdrawn",
      "type": "event"
    },
    {
      "anonymous": false,
      "inputs": [
        {
          "indexed": true,
          "internalType": "uint256",
          "name": "tokenId",
          "type": "uint256"
        },
        {
          "indexed": true,
          "internalType": "address",
          "name": "fromAddress",
          "type": "address"
        },
        {
          "indexed": true,
          "internalType": "address",
          "name": "toAddress",
          "type": "address"
        },
        {
          "indexed": false,
          "internalType": "uint256",
          "name": "total",
          "type": "uint256"
        },
        {
          "indexed": false,
          "internalType": "uint256",
          "name": "value",
          "type": "uint256"
        },
        {
          "indexed": false,
          "internalType": "uint256",
          "name": "fees",
          "type": "uint256"
        }
      ],
      "name": "TokenBought",
      "type": "event"
    },
    {
      "anonymous": false,
      "inputs": [
        {
          "indexed": true,
          "internalType": "uint256",
          "name": "tokenId",
          "type": "uint256"
        },
        {
          "indexed": true,
          "internalType": "address",
          "name": "fromAddress",
          "type": "address"
        }
      ],
      "name": "TokenDelisted",
      "type": "event"
    },
    {
      "anonymous": false,
      "inputs": [
        {
          "indexed": true,
          "internalType": "uint256",
          "name": "tokenId",
          "type": "uint256"
        },
        {
          "indexed": true,
          "internalType": "address",
          "name": "fromAddress",
          "type": "address"
        },
        {
          "indexed": false,
          "internalType": "uint256",
          "name": "minValue",
          "type": "uint256"
        }
      ],
      "name": "TokenListed",
      "type": "event"
    },
    {
      "inputs": [],
      "name": "hasSharePercentageProposal",
      "outputs": [
        {
          "internalType": "bool",
          "name": "",
          "type": "bool"
        }
      ],
      "stateMutability": "view",
      "type": "function",
      "constant": true
    },
    {
      "inputs": [],
      "name": "owner",
      "outputs": [
        {
          "internalType": "address",
          "name": "",
          "type": "address"
        }
      ],
      "stateMutability": "view",
      "type": "function",
      "constant": true
    },
    {
      "inputs": [],
      "name": "partnerAddress",
      "outputs": [
        {
          "internalType": "address",
          "name": "",
          "type": "address"
        }
      ],
      "stateMutability": "view",
      "type": "function",
      "constant": true
    },
    {
      "inputs": [],
      "name": "partnerSharePercentage",
      "outputs": [
        {
          "internalType": "uint8",
          "name": "",
          "type": "uint8"
        }
      ],
      "stateMutability": "view",
      "type": "function",
      "constant": true
    },
    {
      "inputs": [],
      "name": "partnerSharePercentageProposal",
      "outputs": [
        {
          "internalType": "uint8",
          "name": "",
          "type": "uint8"
        }
      ],
      "stateMutability": "view",
      "type": "function",
      "constant": true
    },
    {
      "inputs": [],
      "name": "renounceOwnership",
      "outputs": [],
      "stateMutability": "nonpayable",
      "type": "function"
    },
    {
      "inputs": [
        {
          "internalType": "address",
          "name": "newOwner",
          "type": "address"
        }
      ],
      "name": "transferOwnership",
      "outputs": [],
      "stateMutability": "nonpayable",
      "type": "function"
    },
    {
      "inputs": [],
      "name": "tokenAddress",
      "outputs": [
        {
          "internalType": "address",
          "name": "",
          "type": "address"
        }
      ],
      "stateMutability": "view",
      "type": "function",
      "constant": true
    },
    {
      "inputs": [],
      "name": "paymentTokenAddress",
      "outputs": [
        {
          "internalType": "address",
          "name": "",
          "type": "address"
        }
      ],
      "stateMutability": "view",
      "type": "function",
      "constant": true
    },
    {
      "inputs": [
        {
          "internalType": "uint256",
          "name": "tokenId",
          "type": "uint256"
        }
      ],
      "name": "getTokenListing",
      "outputs": [
        {
          "components": [
            {
              "internalType": "uint256",
              "name": "tokenId",
              "type": "uint256"
            },
            {
              "internalType": "uint256",
              "name": "listingPrice",
              "type": "uint256"
            },
            {
              "internalType": "address",
              "name": "seller",
              "type": "address"
            },
            {
              "internalType": "uint256",
              "name": "expireTimestamp",
              "type": "uint256"
            }
          ],
          "internalType": "struct INFTKEYMarketPlaceV1.Listing",
          "name": "",
          "type": "tuple"
        }
      ],
      "stateMutability": "view",
      "type": "function",
      "constant": true
    },
    {
      "inputs": [
        {
          "internalType": "uint256",
          "name": "from",
          "type": "uint256"
        },
        {
          "internalType": "uint256",
          "name": "size",
          "type": "uint256"
        }
      ],
      "name": "getTokenListings",
      "outputs": [
        {
          "components": [
            {
              "internalType": "uint256",
              "name": "tokenId",
              "type": "uint256"
            },
            {
              "internalType": "uint256",
              "name": "listingPrice",
              "type": "uint256"
            },
            {
              "internalType": "address",
              "name": "seller",
              "type": "address"
            },
            {
              "internalType": "uint256",
              "name": "expireTimestamp",
              "type": "uint256"
            }
          ],
          "internalType": "struct INFTKEYMarketPlaceV1.Listing[]",
          "name": "",
          "type": "tuple[]"
        }
      ],
      "stateMutability": "view",
      "type": "function",
      "constant": true
    },
    {
      "inputs": [],
      "name": "getAllTokenListings",
      "outputs": [
        {
          "components": [
            {
              "internalType": "uint256",
              "name": "tokenId",
              "type": "uint256"
            },
            {
              "internalType": "uint256",
              "name": "listingPrice",
              "type": "uint256"
            },
            {
              "internalType": "address",
              "name": "seller",
              "type": "address"
            },
            {
              "internalType": "uint256",
              "name": "expireTimestamp",
              "type": "uint256"
            }
          ],
          "internalType": "struct INFTKEYMarketPlaceV1.Listing[]",
          "name": "",
          "type": "tuple[]"
        }
      ],
      "stateMutability": "view",
      "type": "function",
      "constant": true
    },
    {
      "inputs": [
        {
          "internalType": "uint256",
          "name": "tokenId",
          "type": "uint256"
        },
        {
          "internalType": "address",
          "name": "bidder",
          "type": "address"
        }
      ],
      "name": "getBidderTokenBid",
      "outputs": [
        {
          "components": [
            {
              "internalType": "uint256",
              "name": "tokenId",
              "type": "uint256"
            },
            {
              "internalType": "uint256",
              "name": "bidPrice",
              "type": "uint256"
            },
            {
              "internalType": "address",
              "name": "bidder",
              "type": "address"
            },
            {
              "internalType": "uint256",
              "name": "expireTimestamp",
              "type": "uint256"
            }
          ],
          "internalType": "struct INFTKEYMarketPlaceV1.Bid",
          "name": "",
          "type": "tuple"
        }
      ],
      "stateMutability": "view",
      "type": "function",
      "constant": true
    },
    {
      "inputs": [
        {
          "internalType": "uint256",
          "name": "tokenId",
          "type": "uint256"
        }
      ],
      "name": "getTokenBids",
      "outputs": [
        {
          "components": [
            {
              "internalType": "uint256",
              "name": "tokenId",
              "type": "uint256"
            },
            {
              "internalType": "uint256",
              "name": "bidPrice",
              "type": "uint256"
            },
            {
              "internalType": "address",
              "name": "bidder",
              "type": "address"
            },
            {
              "internalType": "uint256",
              "name": "expireTimestamp",
              "type": "uint256"
            }
          ],
          "internalType": "struct INFTKEYMarketPlaceV1.Bid[]",
          "name": "",
          "type": "tuple[]"
        }
      ],
      "stateMutability": "view",
      "type": "function",
      "constant": true
    },
    {
      "inputs": [
        {
          "internalType": "uint256",
          "name": "tokenId",
          "type": "uint256"
        }
      ],
      "name": "getTokenHighestBid",
      "outputs": [
        {
          "components": [
            {
              "internalType": "uint256",
              "name": "tokenId",
              "type": "uint256"
            },
            {
              "internalType": "uint256",
              "name": "bidPrice",
              "type": "uint256"
            },
            {
              "internalType": "address",
              "name": "bidder",
              "type": "address"
            },
            {
              "internalType": "uint256",
              "name": "expireTimestamp",
              "type": "uint256"
            }
          ],
          "internalType": "struct INFTKEYMarketPlaceV1.Bid",
          "name": "",
          "type": "tuple"
        }
      ],
      "stateMutability": "view",
      "type": "function",
      "constant": true
    },
    {
      "inputs": [
        {
          "internalType": "uint256",
          "name": "from",
          "type": "uint256"
        },
        {
          "internalType": "uint256",
          "name": "size",
          "type": "uint256"
        }
      ],
      "name": "getTokenHighestBids",
      "outputs": [
        {
          "components": [
            {
              "internalType": "uint256",
              "name": "tokenId",
              "type": "uint256"
            },
            {
              "internalType": "uint256",
              "name": "bidPrice",
              "type": "uint256"
            },
            {
              "internalType": "address",
              "name": "bidder",
              "type": "address"
            },
            {
              "internalType": "uint256",
              "name": "expireTimestamp",
              "type": "uint256"
            }
          ],
          "internalType": "struct INFTKEYMarketPlaceV1.Bid[]",
          "name": "",
          "type": "tuple[]"
        }
      ],
      "stateMutability": "view",
      "type": "function",
      "constant": true
    },
    {
      "inputs": [],
      "name": "getAllTokenHighestBids",
      "outputs": [
        {
          "components": [
            {
              "internalType": "uint256",
              "name": "tokenId",
              "type": "uint256"
            },
            {
              "internalType": "uint256",
              "name": "bidPrice",
              "type": "uint256"
            },
            {
              "internalType": "address",
              "name": "bidder",
              "type": "address"
            },
            {
              "internalType": "uint256",
              "name": "expireTimestamp",
              "type": "uint256"
            }
          ],
          "internalType": "struct INFTKEYMarketPlaceV1.Bid[]",
          "name": "",
          "type": "tuple[]"
        }
      ],
      "stateMutability": "view",
      "type": "function",
      "constant": true
    },
    {
      "inputs": [
        {
          "internalType": "uint256",
          "name": "tokenId",
          "type": "uint256"
        },
        {
          "internalType": "uint256",
          "name": "value",
          "type": "uint256"
        },
        {
          "internalType": "uint256",
          "name": "expireTimestamp",
          "type": "uint256"
        }
      ],
      "name": "listToken",
      "outputs": [],
      "stateMutability": "nonpayable",
      "type": "function"
    },
    {
      "inputs": [
        {
          "internalType": "uint256",
          "name": "tokenId",
          "type": "uint256"
        }
      ],
      "name": "delistToken",
      "outputs": [],
      "stateMutability": "nonpayable",
      "type": "function"
    },
    {
      "inputs": [
        {
          "internalType": "uint256",
          "name": "tokenId",
          "type": "uint256"
        }
      ],
      "name": "buyToken",
      "outputs": [],
      "stateMutability": "payable",
      "type": "function",
      "payable": true
    },
    {
      "inputs": [
        {
          "internalType": "uint256",
          "name": "tokenId",
          "type": "uint256"
        },
        {
          "internalType": "uint256",
          "name": "bidPrice",
          "type": "uint256"
        },
        {
          "internalType": "uint256",
          "name": "expireTimestamp",
          "type": "uint256"
        }
      ],
      "name": "enterBidForToken",
      "outputs": [],
      "stateMutability": "nonpayable",
      "type": "function"
    },
    {
      "inputs": [
        {
          "internalType": "uint256",
          "name": "tokenId",
          "type": "uint256"
        }
      ],
      "name": "withdrawBidForToken",
      "outputs": [],
      "stateMutability": "nonpayable",
      "type": "function"
    },
    {
      "inputs": [
        {
          "internalType": "uint256",
          "name": "tokenId",
          "type": "uint256"
        },
        {
          "internalType": "address",
          "name": "bidder",
          "type": "address"
        }
      ],
      "name": "acceptBidForToken",
      "outputs": [],
      "stateMutability": "nonpayable",
      "type": "function"
    },
    {
      "inputs": [],
      "name": "getInvalidListingCount",
      "outputs": [
        {
          "internalType": "uint256",
          "name": "",
          "type": "uint256"
        }
      ],
      "stateMutability": "view",
      "type": "function",
      "constant": true
    },
    {
      "inputs": [],
      "name": "getInvalidBidCount",
      "outputs": [
        {
          "internalType": "uint256",
          "name": "",
          "type": "uint256"
        }
      ],
      "stateMutability": "view",
      "type": "function",
      "constant": true
    },
    {
      "inputs": [],
      "name": "cleanAllInvalidListings",
      "outputs": [],
      "stateMutability": "nonpayable",
      "type": "function"
    },
    {
      "inputs": [],
      "name": "cleanAllInvalidBids",
      "outputs": [],
      "stateMutability": "nonpayable",
      "type": "function"
    },
    {
      "inputs": [],
      "name": "erc721Name",
      "outputs": [
        {
          "internalType": "string",
          "name": "",
          "type": "string"
        }
      ],
      "stateMutability": "view",
      "type": "function",
      "constant": true
    },
    {
      "inputs": [],
      "name": "isListingAndBidEnabled",
      "outputs": [
        {
          "internalType": "bool",
          "name": "",
          "type": "bool"
        }
      ],
      "stateMutability": "view",
      "type": "function",
      "constant": true
    },
    {
      "inputs": [
        {
          "internalType": "bool",
          "name": "enabled",
          "type": "bool"
        }
      ],
      "name": "changeMarketplaceStatus",
      "outputs": [],
      "stateMutability": "nonpayable",
      "type": "function"
    },
    {
      "inputs": [],
      "name": "actionTimeOutRangeMin",
      "outputs": [
        {
          "internalType": "uint256",
          "name": "",
          "type": "uint256"
        }
      ],
      "stateMutability": "view",
      "type": "function",
      "constant": true
    },
    {
      "inputs": [],
      "name": "actionTimeOutRangeMax",
      "outputs": [
        {
          "internalType": "uint256",
          "name": "",
          "type": "uint256"
        }
      ],
      "stateMutability": "view",
      "type": "function",
      "constant": true
    },
    {
      "inputs": [
        {
          "internalType": "uint256",
          "name": "timeInSec",
          "type": "uint256"
        }
      ],
      "name": "changeMinActionTimeLimit",
      "outputs": [],
      "stateMutability": "nonpayable",
      "type": "function"
    },
    {
      "inputs": [
        {
          "internalType": "uint256",
          "name": "timeInSec",
          "type": "uint256"
        }
      ],
      "name": "changeMaxActionTimeLimit",
      "outputs": [],
      "stateMutability": "nonpayable",
      "type": "function"
    },
    {
      "inputs": [],
      "name": "serviceFee",
      "outputs": [
        {
          "internalType": "uint8",
          "name": "",
          "type": "uint8"
        },
        {
          "internalType": "uint8",
          "name": "",
          "type": "uint8"
        }
      ],
      "stateMutability": "view",
      "type": "function",
      "constant": true
    },
    {
      "inputs": [
        {
          "internalType": "uint8",
          "name": "feeFraction_",
          "type": "uint8"
        },
        {
          "internalType": "uint8",
          "name": "feeBase_",
          "type": "uint8"
        }
      ],
      "name": "changeSeriveFee",
      "outputs": [],
      "stateMutability": "nonpayable",
      "type": "function"
    },
    {
      "inputs": [
        {
          "internalType": "address",
          "name": "_partnerAddress",
          "type": "address"
        },
        {
          "internalType": "uint8",
          "name": "_partnerSharePercentage",
          "type": "uint8"
        }
      ],
      "name": "setPartnerAddressAndProfitShare",
      "outputs": [],
      "stateMutability": "nonpayable",
      "type": "function"
    },
    {
      "inputs": [
        {
          "internalType": "address",
          "name": "_partnerAddress",
          "type": "address"
        }
      ],
      "name": "changePartnerAddress",
      "outputs": [],
      "stateMutability": "nonpayable",
      "type": "function"
    },
    {
      "inputs": [
        {
          "internalType": "uint8",
          "name": "_partnerSharePercentage",
          "type": "uint8"
        }
      ],
      "name": "proposePartnerShareChange",
      "outputs": [],
      "stateMutability": "nonpayable",
      "type": "function"
    },
    {
      "inputs": [],
      "name": "acceptPartnerShareChange",
      "outputs": [],
      "stateMutability": "nonpayable",
      "type": "function"
    },
    {
      "inputs": [],
      "name": "rejectPartnerShareChange",
      "outputs": [],
      "stateMutability": "nonpayable",
      "type": "function"
    }
  ],
  "bytecode": "0x60c060405260038054610100600160ff199092169190911761ff0019161762ff0000191662640000179055620151806004556301e13380600555600c805460ff60a01b191690553480156200005357600080fd5b5060405162005094380380620050948339810160408190526200007691620001a6565b60006200008262000106565b600080546001600160a01b0319166001600160a01b0383169081178255604051929350917f8be0079c531659141344cd1fd0a4f28419497f9722a3daafe3b4186f6b6457e0908290a350600180558251620000e59060029060208601906200010a565b506001600160601b0319606092831b8116608052911b1660a05250620002db565b3390565b828054600181600116156101000203166002900490600052602060002090601f016020900481019282601f106200014d57805160ff19168380011785556200017d565b828001600101855582156200017d579182015b828111156200017d57825182559160200191906001019062000160565b506200018b9291506200018f565b5090565b5b808211156200018b576000815560010162000190565b600080600060608486031215620001bb578283fd5b83516001600160401b0380821115620001d2578485fd5b818601915086601f830112620001e6578485fd5b815181811115620001f5578586fd5b6200020a601f8201601f191660200162000268565b915080825287602082850101111562000221578586fd5b620002348160208401602086016200028f565b50809450505060208401516200024a81620002c2565b60408501519092506200025d81620002c2565b809150509250925092565b6040518181016001600160401b03811182821017156200028757600080fd5b604052919050565b60005b83811015620002ac57818101518382015260200162000292565b83811115620002bc576000848401525b50505050565b6001600160a01b0381168114620002d857600080fd5b50565b60805160601c60a05160601c614d5d6200033760003980610e815280610eb15280610f265280611f4b52806124fe5280612d67525080610c0e5280610fa45280611e125280612e605280613265528061336b5250614d5d6000f3fe6080604052600436106102c65760003560e01c80637d7660e011610179578063b6be53ba116100d6578063e72448811161008a578063f2fde38b11610064578063f2fde38b14610723578063f7d7198f14610743578063f973e75514610758576102c6565b8063e7244881146106ce578063e7d585a8146106ee578063f0e6dcab1461070e576102c6565b8063bed659bc116100bb578063bed659bc14610677578063dc4094e114610697578063e1548702146106b9576102c6565b8063b6be53ba14610637578063bce64a7d14610657576102c6565b806398792eec1161012d578063a3c0b5f011610112578063a3c0b5f0146105ed578063a6a27f3a1461060d578063afb18fe714610622576102c6565b806398792eec146105b85780639d76ea58146105d8576102c6565b806385f5a92a1161015e57806385f5a92a146105605780638abdf5aa146105805780638da5cb5b146105a3576102c6565b80637d7660e0146105365780637f8baff81461054b576102c6565b8063576168fc116102275780636fcbb324116101db578063715018a6116101c0578063715018a6146104d257806373885b70146104e757806375ccb1f214610509576102c6565b80636fcbb3241461049257806370a3b390146104b2576102c6565b80635eef51ee1161020c5780635eef51ee1461043d57806365e4785f1461045d5780636adb83141461047d576102c6565b8063576168fc146103fb5780635cc2c66b1461041d576102c6565b8063336c16c61161027e57806340a979191161026357806340a97919146103af578063453dfc50146103c457806354b0de6a146103d9576102c6565b8063336c16c61461037a578063383fba251461039a576102c6565b80632426fc24116102af5780632426fc24146103235780632d296bf11461034557806333549d3d14610358576102c6565b80631e172891146102cb5780631e56afe9146102f6575b600080fd5b3480156102d757600080fd5b506102e0610778565b6040516102ed9190614ca9565b60405180910390f35b34801561030257600080fd5b50610316610311366004613d42565b61079b565b6040516102ed9190614c7c565b34801561032f57600080fd5b5061034361033e366004613d42565b6108c7565b005b610343610353366004613d42565b610948565b34801561036457600080fd5b5061036d610c96565b6040516102ed9190614c8a565b34801561038657600080fd5b50610343610395366004613d72565b610c9c565b3480156103a657600080fd5b506103436110a2565b3480156103bb57600080fd5b5061036d6111ae565b3480156103d057600080fd5b5061036d6111f1565b3480156103e557600080fd5b506103ee6111f7565b6040516102ed9190613ef8565b34801561040757600080fd5b5061041061120d565b6040516102ed9190613e7f565b34801561042957600080fd5b506103ee610438366004613da1565b611229565b34801561044957600080fd5b50610343610458366004613e08565b61130b565b34801561046957600080fd5b50610343610478366004613cd5565b61147f565b34801561048957600080fd5b506102e0611666565b34801561049e57600080fd5b506103436104ad366004613c9d565b611687565b3480156104be57600080fd5b506103166104cd366004613d72565b61174b565b3480156104de57600080fd5b506103436117dc565b3480156104f357600080fd5b506104fc6118be565b6040516102ed9190613f93565b34801561051557600080fd5b50610529610524366004613da1565b61196f565b6040516102ed9190613f46565b34801561054257600080fd5b50610343611ab3565b34801561055757600080fd5b50610343611b5f565b34801561056c57600080fd5b5061034361057b366004613d42565b611c51565b34801561058c57600080fd5b50610595611d59565b6040516102ed929190614cb7565b3480156105af57600080fd5b50610410611d71565b3480156105c457600080fd5b506103166105d3366004613d42565b611d8d565b3480156105e457600080fd5b50610410611e10565b3480156105f957600080fd5b50610343610608366004613d42565b611e34565b34801561061957600080fd5b5061036d611eac565b34801561062e57600080fd5b50610410611f49565b34801561064357600080fd5b50610343610652366004613d0a565b611f6d565b34801561066357600080fd5b50610343610672366004613dc2565b612011565b34801561068357600080fd5b50610343610692366004613d42565b61228c565b3480156106a357600080fd5b506106ac612349565b6040516102ed9190613f88565b3480156106c557600080fd5b5061052961236b565b3480156106da57600080fd5b506103436106e9366004613dc2565b61237c565b3480156106fa57600080fd5b506103ee610709366004613d42565b612788565b34801561071a57600080fd5b506106ac6128d0565b34801561072f57600080fd5b5061034361073e366004613c9d565b6128d9565b34801561074f57600080fd5b50610343612a26565b34801561076457600080fd5b50610343610773366004613ded565b612b71565b600c54760100000000000000000000000000000000000000000000900460ff1681565b6107a3613bd0565b6107ab613bd0565b604051806080016040528084815260200160008152602001600073ffffffffffffffffffffffffffffffffffffffff1681526020016000815250905060005b600084815260096020526040902061080190612ce6565b8110156108be5760008481526009602052604081206108209083612cf1565b905061082a613bd0565b50600085815260096020908152604080832073ffffffffffffffffffffffffffffffffffffffff808616855260029182018452938290208251608081018452815481526001820154948101949094529081015490931690820152600390910154606082015261089881612d04565b80156108ab575083602001518160200151115b156108b4578093505b50506001016107ea565b5090505b919050565b6108cf612e1c565b73ffffffffffffffffffffffffffffffffffffffff166108ed611d71565b73ffffffffffffffffffffffffffffffffffffffff1614610943576040517f08c379a000000000000000000000000000000000000000000000000000000000815260040161093a90614826565b60405180910390fd5b600455565b60026001541415610985576040517f08c379a000000000000000000000000000000000000000000000000000000000815260040161093a90614af7565b6002600155610992613bd0565b61099b82611d8d565b604081015190915073ffffffffffffffffffffffffffffffffffffffff166109ef576040517f08c379a000000000000000000000000000000000000000000000000000000000815260040161093a906147ef565b6109f98233612e20565b15610a30576040517f08c379a000000000000000000000000000000000000000000000000000000000815260040161093a9061418f565b6003546020820151600091610a619160ff620100008304811692610a5b929161010090910416612f3e565b90612f92565b905080826020015101341015610aa3576040517f08c379a000000000000000000000000000000000000000000000000000000000815260040161093a90614499565b6000610aaf3483612fde565b600c54909150600090610ae590606490610a5b90869074010000000000000000000000000000000000000000900460ff16612f3e565b9050610af5846040015183613020565b610b0f610b00611d71565b610b0a8584612fde565b613020565b600c5473ffffffffffffffffffffffffffffffffffffffff1615801590610b365750600081115b15610b5e57600c54610b5e9073ffffffffffffffffffffffffffffffffffffffff1682613020565b3373ffffffffffffffffffffffffffffffffffffffff16846040015173ffffffffffffffffffffffffffffffffffffffff16867f1d83c44501b48d5dc85fea9b94506cda160418d62c65b481199bdbec265df157348688604051610bc493929190614c93565b60405180910390a460408085015190517f42842e0e00000000000000000000000000000000000000000000000000000000815273ffffffffffffffffffffffffffffffffffffffff7f000000000000000000000000000000000000000000000000000000000000000016916342842e0e91610c46919033908a90600401613ec7565b600060405180830381600087803b158015610c6057600080fd5b505af1158015610c74573d6000803e3d6000fd5b50505050610c8185613102565b610c8b8533613163565b505060018055505050565b60045490565b60026001541415610cd9576040517f08c379a000000000000000000000000000000000000000000000000000000000815260040161093a90614af7565b6002600155610ce88233612e20565b610d1e576040517f08c379a000000000000000000000000000000000000000000000000000000000815260040161093a90614bc2565b610d2782613225565b80610d365750610d363361332b565b610d6c576040517f08c379a000000000000000000000000000000000000000000000000000000000815260040161093a90613fe4565b610d74613bd0565b610d7e838361174b565b905060008160200151118015610dc357508173ffffffffffffffffffffffffffffffffffffffff16816040015173ffffffffffffffffffffffffffffffffffffffff16145b610df9576040517f08c379a000000000000000000000000000000000000000000000000000000000815260040161093a90614915565b6003546020820151600091610e2991610100820460ff90811662010000909304811683011691610a5b9190612f3e565b90506000610e44828460200151612fde90919063ffffffff16565b600c54909150600090610e7a90606490610a5b90869074010000000000000000000000000000000000000000900460ff16612f3e565b9050610eac7f0000000000000000000000000000000000000000000000000000000000000000856040015133856133f2565b610eec7f00000000000000000000000000000000000000000000000000000000000000008560400151610edd611d71565b610ee78786612fde565b6133f2565b600c5473ffffffffffffffffffffffffffffffffffffffff1615801590610f135750600081115b15610f62576040840151600c54610f62917f00000000000000000000000000000000000000000000000000000000000000009173ffffffffffffffffffffffffffffffffffffffff16846133f2565b60408085015190517f42842e0e00000000000000000000000000000000000000000000000000000000815273ffffffffffffffffffffffffffffffffffffffff7f000000000000000000000000000000000000000000000000000000000000000016916342842e0e91610fdb9133918b90600401613ec7565b600060405180830381600087803b158015610ff557600080fd5b505af1158015611009573d6000803e3d6000fd5b50505050836040015173ffffffffffffffffffffffffffffffffffffffff163373ffffffffffffffffffffffffffffffffffffffff16877f2c907f0c6ace0ad59e44f69f6873314bb2b85cca7eeffb05ca93fa65326bfbb48760200151868860405161107793929190614c93565b60405180910390a461108886613102565b611096868560400151613163565b50506001805550505050565b60005b6110af6007612ce6565b8110156111695760006110c3600783612cf1565b600081815260066020908152604091829020825160808101845281548152600182015492810192909252600281015473ffffffffffffffffffffffffffffffffffffffff169282019290925260039091015460608201529091506111269061349b565b61116057600f80546001810182556000919091527f8d1108e10bcb7c27dddfc02ed9d693a074039d026cf4ea4240b40f7d581ac802018190555b506001016110a5565b5060005b600f5481101561119f57611197600f828154811061118757fe5b9060005260206000200154613102565b60010161116d565b506111ac600f6000613c0e565b565b600080805b6111bd600a612ce6565b8110156111eb576111e16111da6111d5600a84612cf1565b6134d4565b83906135a3565b91506001016111b3565b50905090565b60055490565b60606112086000610438600a612ce6565b905090565b600c5473ffffffffffffffffffffffffffffffffffffffff1681565b6060611235600a612ce6565b831080156112435750600082115b156113055781611253600a612ce6565b838501111561126b5783611267600a612ce6565b0390505b60608167ffffffffffffffff8111801561128457600080fd5b506040519080825280602002602001820160405280156112be57816020015b6112ab613bd0565b8152602001906001900390816112a35790505b50905060005b828110156112fb576112dc610311600a838901612cf1565b8282815181106112e857fe5b60209081029190910101526001016112c4565b5091506113059050565b92915050565b611313612e1c565b73ffffffffffffffffffffffffffffffffffffffff16611331611d71565b73ffffffffffffffffffffffffffffffffffffffff161461137e576040517f08c379a000000000000000000000000000000000000000000000000000000000815260040161093a90614826565b8060ff168260ff1611156113be576040517f08c379a000000000000000000000000000000000000000000000000000000000815260040161093a90614a63565b60008160ff168360ff166103e80261ffff16816113d757fe5b0461ffff1690506019811115611419576040517f08c379a000000000000000000000000000000000000000000000000000000000815260040161093a9061467b565b506003805460ff92831662010000027fffffffffffffffffffffffffffffffffffffffffffffffffffffffffff00ffff94909316610100027fffffffffffffffffffffffffffffffffffffffffffffffffffffffffffff00ff9091161792909216179055565b611487612e1c565b73ffffffffffffffffffffffffffffffffffffffff166114a5611d71565b73ffffffffffffffffffffffffffffffffffffffff16146114f2576040517f08c379a000000000000000000000000000000000000000000000000000000000815260040161093a90614826565b600c5473ffffffffffffffffffffffffffffffffffffffff1615611542576040517f08c379a000000000000000000000000000000000000000000000000000000000815260040161093a9061485b565b73ffffffffffffffffffffffffffffffffffffffff821661158f576040517f08c379a000000000000000000000000000000000000000000000000000000000815260040161093a906140fb565b60008160ff161180156115a6575060648160ff1611155b6115dc576040517f08c379a000000000000000000000000000000000000000000000000000000000815260040161093a90614314565b600c805460ff90921674010000000000000000000000000000000000000000027fffffffffffffffffffffff00ffffffffffffffffffffffffffffffffffffffff73ffffffffffffffffffffffffffffffffffffffff9094167fffffffffffffffffffffffff00000000000000000000000000000000000000009093169290921792909216179055565b600c5474010000000000000000000000000000000000000000900460ff1681565b600c5473ffffffffffffffffffffffffffffffffffffffff1633146116d8576040517f08c379a000000000000000000000000000000000000000000000000000000000815260040161093a90614371565b600c80547fffffffffffffffffffffffff00000000000000000000000000000000000000001673ffffffffffffffffffffffffffffffffffffffff831690811790915561174857600c80547fffffffffffffffffffffff00ffffffffffffffffffffffffffffffffffffffff1690555b50565b611753613bd0565b61175b613bd0565b50600083815260096020908152604080832073ffffffffffffffffffffffffffffffffffffffff80871685526002918201845293829020825160808101845281548152600182015494810194909452908101549093169082015260039091015460608201526117c981612d04565b156117d5579050611305565b5092915050565b6117e4612e1c565b73ffffffffffffffffffffffffffffffffffffffff16611802611d71565b73ffffffffffffffffffffffffffffffffffffffff161461184f576040517f08c379a000000000000000000000000000000000000000000000000000000000815260040161093a90614826565b6000805460405173ffffffffffffffffffffffffffffffffffffffff909116907f8be0079c531659141344cd1fd0a4f28419497f9722a3daafe3b4186f6b6457e0908390a3600080547fffffffffffffffffffffffff0000000000000000000000000000000000000000169055565b60028054604080516020601f7fffffffffffffffffffffffffffffffffffffffffffffffffffffffffffffffff61010060018716150201909416859004938401819004810282018101909252828152606093909290918301828280156119655780601f1061193a57610100808354040283529160200191611965565b820191906000526020600020905b81548152906001019060200180831161194857829003601f168201915b5050505050905090565b606061197b6007612ce6565b831080156119895750600082115b1561130557816119996007612ce6565b83850111156119b157836119ad6007612ce6565b0390505b60608167ffffffffffffffff811180156119ca57600080fd5b50604051908082528060200260200182016040528015611a0457816020015b6119f1613bd0565b8152602001906001900390816119e95790505b50905060005b828110156112fb57611a1a613bd0565b60066000611a2b6007858b01612cf1565b81526020808201929092526040908101600020815160808101835281548152600182015493810193909352600281015473ffffffffffffffffffffffffffffffffffffffff16918301919091526003015460608201529050611a8c8161349b565b15611aaa5780838381518110611a9e57fe5b60200260200101819052505b50600101611a0a565b60005b611ac0600a612ce6565b811015611b29576000611ad4600a83612cf1565b90506000611ae1826134d4565b90508015611b1f57600f80546001810182556000919091527f8d1108e10bcb7c27dddfc02ed9d693a074039d026cf4ea4240b40f7d581ac802018290555b5050600101611ab6565b5060005b600f5481101561119f57611b57600f8281548110611b4757fe5b90600052602060002001546135e2565b600101611b2d565b611b67612e1c565b73ffffffffffffffffffffffffffffffffffffffff16611b85611d71565b73ffffffffffffffffffffffffffffffffffffffff1614611bd2576040517f08c379a000000000000000000000000000000000000000000000000000000000815260040161093a90614826565b600c547501000000000000000000000000000000000000000000900460ff16611c27576040517f08c379a000000000000000000000000000000000000000000000000000000000815260040161093a90614280565b600c80547fffffffffffffffffff0000ffffffffffffffffffffffffffffffffffffffffff169055565b611c59613bd0565b5060008181526009602090815260408083203380855260029182018452938290208251608081018452815481526001820154948101949094529081015473ffffffffffffffffffffffffffffffffffffffff16918301829052600301546060830152909114611cf4576040517f08c379a000000000000000000000000000000000000000000000000000000000815260040161093a906149cf565b806040015173ffffffffffffffffffffffffffffffffffffffff16827f4afa471ce7ab7fa67258e3afb1adf7e899e0495602eeb26d90d41e1b64dea5a68360200151604051611d439190614c8a565b60405180910390a3611d558233613163565b5050565b60035460ff6101008204811691620100009004169091565b60005473ffffffffffffffffffffffffffffffffffffffff1690565b611d95613bd0565b611d9d613bd0565b50600082815260066020908152604091829020825160808101845281548152600182015492810192909252600281015473ffffffffffffffffffffffffffffffffffffffff16928201929092526003909101546060820152611dfe8161349b565b15611e0a5790506108c2565b50919050565b7f000000000000000000000000000000000000000000000000000000000000000090565b611e3c612e1c565b73ffffffffffffffffffffffffffffffffffffffff16611e5a611d71565b73ffffffffffffffffffffffffffffffffffffffff1614611ea7576040517f08c379a000000000000000000000000000000000000000000000000000000000815260040161093a90614826565b600555565b600080805b611ebb6007612ce6565b8110156111eb57611f2f60066000611ed4600785612cf1565b81526020808201929092526040908101600020815160808101835281548152600182015493810193909352600281015473ffffffffffffffffffffffffffffffffffffffff169183019190915260030154606082015261349b565b611f4157611f3e8260016135a3565b91505b600101611eb1565b7f000000000000000000000000000000000000000000000000000000000000000090565b611f75612e1c565b73ffffffffffffffffffffffffffffffffffffffff16611f93611d71565b73ffffffffffffffffffffffffffffffffffffffff1614611fe0576040517f08c379a000000000000000000000000000000000000000000000000000000000815260040161093a90614826565b600380547fffffffffffffffffffffffffffffffffffffffffffffffffffffffffffffff0016911515919091179055565b60035460ff1661204d576040517f08c379a000000000000000000000000000000000000000000000000000000000815260040161093a906142dd565b600454819061205c8242612fde565b1015612094576040517f08c379a000000000000000000000000000000000000000000000000000000000815260040161093a90614c1f565b6005546120a18242612fde565b11156120d9576040517f08c379a000000000000000000000000000000000000000000000000000000000815260040161093a9061458a565b60008311612113576040517f08c379a000000000000000000000000000000000000000000000000000000000815260040161093a906146d8565b61211d8433612e20565b612153576040517f08c379a000000000000000000000000000000000000000000000000000000000815260040161093a90614b8b565b61215c84613225565b8061216b575061216b3361332b565b6121a1576040517f08c379a000000000000000000000000000000000000000000000000000000000815260040161093a906148b8565b604080516080810182528581526020808201868152338385019081526060840187815260008a815260069094529490922092518355516001830155516002820180547fffffffffffffffffffffffff00000000000000000000000000000000000000001673ffffffffffffffffffffffffffffffffffffffff9092169190911790559051600390910155612236600785613775565b503373ffffffffffffffffffffffffffffffffffffffff16847f7765a1c07bdce3390c521eaeb86030b188b77cbaba2d76bd7c9c32d906bfbcba8560405161227e9190614c8a565b60405180910390a350505050565b60008181526006602052604090206002015473ffffffffffffffffffffffffffffffffffffffff1633146122ec576040517f08c379a000000000000000000000000000000000000000000000000000000000815260040161093a90614b2e565b60008181526006602052604080822060020154905173ffffffffffffffffffffffffffffffffffffffff9091169183917f70a382c18b6e794d86997f6e1f1efca577925cfa85c476a6ff7031f0a3dd6ed09190a361174881613102565b600c547501000000000000000000000000000000000000000000900460ff1681565b606061120860006105246007612ce6565b60035460ff166123b8576040517f08c379a000000000000000000000000000000000000000000000000000000000815260040161093a906142dd565b60045481906123c78242612fde565b10156123ff576040517f08c379a000000000000000000000000000000000000000000000000000000000815260040161093a90614c1f565b60055461240c8242612fde565b1115612444576040517f08c379a000000000000000000000000000000000000000000000000000000000815260040161093a9061458a565b6000831161247e576040517f08c379a000000000000000000000000000000000000000000000000000000000815260040161093a906143ce565b6124888433612e20565b156124bf576040517f08c379a000000000000000000000000000000000000000000000000000000000815260040161093a9061461e565b6040517fdd62ed3e000000000000000000000000000000000000000000000000000000008152839073ffffffffffffffffffffffffffffffffffffffff7f0000000000000000000000000000000000000000000000000000000000000000169063dd62ed3e906125359033903090600401613ea0565b60206040518083038186803b15801561254d57600080fd5b505afa158015612561573d6000803e3d6000fd5b505050506040513d601f19601f820116820180604052508101906125859190613d5a565b10156125bd576040517f08c379a000000000000000000000000000000000000000000000000000000000815260040161093a90614735565b6125c5613bd0565b5060408051608081018252858152602081018590523391810191909152606081018390526125f4600a86613781565b6126ac57612603600a86613775565b5060408051600d805460806020828102850182018652606085018381529495869591860194938593918701928592849284918a018282801561266457602002820191906000526020600020905b815481526020019060010190808311612650575b5050509190925250505090525090526000868152600960209081526040909120825180518051805193949293859384926126a49284929190910190613c2c565b505050505050505b60008581526009602052604090206126c4903361378d565b506000858152600960209081526040808320338085526002918201845293829020855181559285015160018401558482015190830180547fffffffffffffffffffffffff00000000000000000000000000000000000000001673ffffffffffffffffffffffffffffffffffffffff90921691909117905560608401516003909201919091555186907f0ea16c10401e9d7c547471845914c4a904af6a01b9fa1e195eeecae9f78bcca190612779908890614c8a565b60405180910390a35050505050565b600081815260096020526040902060609081906127a490612ce6565b67ffffffffffffffff811180156127ba57600080fd5b506040519080825280602002602001820160405280156127f457816020015b6127e1613bd0565b8152602001906001900390816127d95790505b50905060005b600084815260096020526040902061281190612ce6565b8110156108be5760008481526009602052604081206128309083612cf1565b905061283a613bd0565b50600085815260096020908152604080832073ffffffffffffffffffffffffffffffffffffffff80861685526002918201845293829020825160808101845281548152600182015494810194909452908101549093169082015260039091015460608201526128a881612d04565b156128c657808484815181106128ba57fe5b60200260200101819052505b50506001016127fa565b60035460ff1690565b6128e1612e1c565b73ffffffffffffffffffffffffffffffffffffffff166128ff611d71565b73ffffffffffffffffffffffffffffffffffffffff161461294c576040517f08c379a000000000000000000000000000000000000000000000000000000000815260040161093a90614826565b73ffffffffffffffffffffffffffffffffffffffff8116612999576040517f08c379a000000000000000000000000000000000000000000000000000000000815260040161093a90614132565b6000805460405173ffffffffffffffffffffffffffffffffffffffff808516939216917f8be0079c531659141344cd1fd0a4f28419497f9722a3daafe3b4186f6b6457e091a3600080547fffffffffffffffffffffffff00000000000000000000000000000000000000001673ffffffffffffffffffffffffffffffffffffffff92909216919091179055565b612a2e612e1c565b73ffffffffffffffffffffffffffffffffffffffff16612a4c611d71565b73ffffffffffffffffffffffffffffffffffffffff1614612a99576040517f08c379a000000000000000000000000000000000000000000000000000000000815260040161093a90614826565b600c547501000000000000000000000000000000000000000000900460ff16612aee576040517f08c379a000000000000000000000000000000000000000000000000000000000815260040161093a90614280565b600c80547fffffffffffffffffffffff00ffffffffffffffffffffffffffffffffffffffff811676010000000000000000000000000000000000000000000090910460ff167401000000000000000000000000000000000000000002177fffffffffffffffffff0000ffffffffffffffffffffffffffffffffffffffffff169055565b600c5473ffffffffffffffffffffffffffffffffffffffff163314612bc2576040517f08c379a000000000000000000000000000000000000000000000000000000000815260040161093a9061409e565b60648160ff161115612c00576040517f08c379a000000000000000000000000000000000000000000000000000000000815260040161093a90614972565b600c5460ff82811674010000000000000000000000000000000000000000909204161415612c5a576040517f08c379a000000000000000000000000000000000000000000000000000000000815260040161093a90614223565b600c805460ff92909216760100000000000000000000000000000000000000000000027fffffffffffffffffff00ffffffffffffffffffffffffffffffffffffffffffff7fffffffffffffffffffff00ffffffffffffffffffffffffffffffffffffffffff90931675010000000000000000000000000000000000000000001792909216919091179055565b6000611305826137af565b6000612cfd83836137b3565b9392505050565b6000612d1882600001518360400151612e20565b158015612df05750602082015160408084015190517fdd62ed3e00000000000000000000000000000000000000000000000000000000815273ffffffffffffffffffffffffffffffffffffffff7f0000000000000000000000000000000000000000000000000000000000000000169163dd62ed3e91612d9d91903090600401613ea0565b60206040518083038186803b158015612db557600080fd5b505afa158015612dc9573d6000803e3d6000fd5b505050506040513d601f19601f82011682018060405250810190612ded9190613d5a565b10155b8015612e00575060008260200151115b8015612e0f5750428260600151115b156108c2575060016108c2565b3390565b6040517f6352211e00000000000000000000000000000000000000000000000000000000815260009073ffffffffffffffffffffffffffffffffffffffff7f00000000000000000000000000000000000000000000000000000000000000001690636352211e90612e95908690600401614c8a565b60206040518083038186803b158015612ead57600080fd5b505afa925050508015612efb575060408051601f3d9081017fffffffffffffffffffffffffffffffffffffffffffffffffffffffffffffffe0168201909252612ef891810190613cb9565b60015b612f0757506000611305565b8273ffffffffffffffffffffffffffffffffffffffff168173ffffffffffffffffffffffffffffffffffffffff1614915050611305565b600082612f4d57506000611305565b82820282848281612f5a57fe5b0414612cfd576040517f08c379a000000000000000000000000000000000000000000000000000000000815260040161093a90614792565b6000808211612fcd576040517f08c379a000000000000000000000000000000000000000000000000000000000815260040161093a906145e7565b818381612fd657fe5b049392505050565b60008282111561301a576040517f08c379a000000000000000000000000000000000000000000000000000000000815260040161093a90614405565b50900390565b8047101561305a576040517f08c379a000000000000000000000000000000000000000000000000000000000815260040161093a906144f6565b60008273ffffffffffffffffffffffffffffffffffffffff168260405161308090613e7c565b60006040518083038185875af1925050503d80600081146130bd576040519150601f19603f3d011682016040523d82523d6000602084013e6130c2565b606091505b50509050806130fd576040517f08c379a000000000000000000000000000000000000000000000000000000000815260040161093a9061443c565b505050565b61310d600782613781565b15611748576000818152600660205260408120818155600181018290556002810180547fffffffffffffffffffffffff000000000000000000000000000000000000000016905560030155611d55600782613812565b600082815260096020526040902061317b908261381e565b15611d5557600082815260096020818152604080842073ffffffffffffffffffffffffffffffffffffffff86168552600280820184529185208581556001810186905591820180547fffffffffffffffffffffffff0000000000000000000000000000000000000000169055600390910184905592859052526131fe9082613840565b50600082815260096020526040902061321690612ce6565b611d55576130fd600a83613812565b6040517f081812fc00000000000000000000000000000000000000000000000000000000815260009073ffffffffffffffffffffffffffffffffffffffff7f0000000000000000000000000000000000000000000000000000000000000000169063081812fc9061329a908590600401614c8a565b60206040518083038186803b1580156132b257600080fd5b505afa925050508015613300575060408051601f3d9081017fffffffffffffffffffffffffffffffffffffffffffffffffffffffffffffffe01682019092526132fd91810190613cb9565b60015b61330c575060006108c2565b73ffffffffffffffffffffffffffffffffffffffff16301490506108c2565b6040517fe985e9c500000000000000000000000000000000000000000000000000000000815260009073ffffffffffffffffffffffffffffffffffffffff7f0000000000000000000000000000000000000000000000000000000000000000169063e985e9c5906133a29085903090600401613ea0565b60206040518083038186803b1580156133ba57600080fd5b505afa1580156133ce573d6000803e3d6000fd5b505050506040513d601f19601f820116820180604052508101906113059190613d26565b613495846323b872dd60e01b85858560405160240161341393929190613ec7565b604080517fffffffffffffffffffffffffffffffffffffffffffffffffffffffffffffffe08184030181529190526020810180517bffffffffffffffffffffffffffffffffffffffffffffffffffffffff167fffffffff0000000000000000000000000000000000000000000000000000000090931692909217909152613862565b50505050565b60006134af82600001518360400151612e20565b8015612df0575081516134c190613225565b80612df05750612df0826040015161332b565b600080805b60008481526009602052604090206134f090612ce6565b8110156108be57600084815260096020526040812061350f9083612cf1565b9050613519613bd0565b50600085815260096020908152604080832073ffffffffffffffffffffffffffffffffffffffff808616855260029182018452938290208251608081018452815481526001820154948101949094529081015490931690820152600390910154606082015261358781612d04565b613599576135968460016135a3565b93505b50506001016134d9565b600082820183811015612cfd576040517f08c379a000000000000000000000000000000000000000000000000000000000815260040161093a906141ec565b60005b60008281526009602052604090206135fc90612ce6565b81101561371457600082815260096020526040812061361b9083612cf1565b9050613625613bd0565b50600083815260096020908152604080832073ffffffffffffffffffffffffffffffffffffffff808616855260029182018452938290208251608081018452815481526001820154948101949094529081015490931690820152600390910154606082015261369381612d04565b61370a5760008481526009602052604090206010906136b29085612cf1565b81546001810183556000928352602090922090910180547fffffffffffffffffffffffff00000000000000000000000000000000000000001673ffffffffffffffffffffffffffffffffffffffff9092169190911790555b50506001016135e5565b5060005b6010548110156137685760006010828154811061373157fe5b60009182526020909120015473ffffffffffffffffffffffffffffffffffffffff16905061375f8382613163565b50600101613718565b5061174860106000613c0e565b6000612cfd8383613918565b6000612cfd8383613962565b6000612cfd8373ffffffffffffffffffffffffffffffffffffffff8416613918565b5490565b815460009082106137f0576040517f08c379a000000000000000000000000000000000000000000000000000000000815260040161093a90614041565b8260000182815481106137ff57fe5b9060005260206000200154905092915050565b6000612cfd838361397a565b6000612cfd8373ffffffffffffffffffffffffffffffffffffffff8416613962565b6000612cfd8373ffffffffffffffffffffffffffffffffffffffff841661397a565b60606138c4826040518060400160405280602081526020017f5361666545524332303a206c6f772d6c6576656c2063616c6c206661696c65648152508573ffffffffffffffffffffffffffffffffffffffff16613a5e9092919063ffffffff16565b8051909150156130fd57808060200190518101906138e29190613d26565b6130fd576040517f08c379a000000000000000000000000000000000000000000000000000000000815260040161093a90614a9a565b60006139248383613962565b61395a57508154600181810184556000848152602080822090930184905584548482528286019093526040902091909155611305565b506000611305565b60009081526001919091016020526040902054151590565b60008181526001830160205260408120548015613a545783547fffffffffffffffffffffffffffffffffffffffffffffffffffffffffffffffff80830191908101906000908790839081106139cb57fe5b90600052602060002001549050808760000184815481106139e857fe5b600091825260208083209091019290925582815260018981019092526040902090840190558654879080613a1857fe5b60019003818190600052602060002001600090559055866001016000878152602001908152602001600020600090556001945050505050611305565b6000915050611305565b6060613a6d8484600085613a75565b949350505050565b606082471015613ab1576040517f08c379a000000000000000000000000000000000000000000000000000000000815260040161093a9061452d565b613aba85613b77565b613af0576040517f08c379a000000000000000000000000000000000000000000000000000000000815260040161093a90614a2c565b600060608673ffffffffffffffffffffffffffffffffffffffff168587604051613b1a9190613e60565b60006040518083038185875af1925050503d8060008114613b57576040519150601f19603f3d011682016040523d82523d6000602084013e613b5c565b606091505b5091509150613b6c828286613b7d565b979650505050505050565b3b151590565b60608315613b8c575081612cfd565b825115613b9c5782518084602001fd5b816040517f08c379a000000000000000000000000000000000000000000000000000000000815260040161093a9190613f93565b60405180608001604052806000815260200160008152602001600073ffffffffffffffffffffffffffffffffffffffff168152602001600081525090565b50805460008255906000526020600020908101906117489190613c77565b828054828255906000526020600020908101928215613c67579160200282015b82811115613c67578251825591602001919060010190613c4c565b50613c73929150613c77565b5090565b5b80821115613c735760008155600101613c78565b803560ff8116811461130557600080fd5b600060208284031215613cae578081fd5b8135612cfd81614cf7565b600060208284031215613cca578081fd5b8151612cfd81614cf7565b60008060408385031215613ce7578081fd5b8235613cf281614cf7565b9150613d018460208501613c8c565b90509250929050565b600060208284031215613d1b578081fd5b8135612cfd81614d19565b600060208284031215613d37578081fd5b8151612cfd81614d19565b600060208284031215613d53578081fd5b5035919050565b600060208284031215613d6b578081fd5b5051919050565b60008060408385031215613d84578182fd5b823591506020830135613d9681614cf7565b809150509250929050565b60008060408385031215613db3578182fd5b50508035926020909101359150565b600080600060608486031215613dd6578081fd5b505081359360208301359350604090920135919050565b600060208284031215613dfe578081fd5b612cfd8383613c8c565b60008060408385031215613e1a578182fd5b613cf28484613c8c565b805182526020810151602083015273ffffffffffffffffffffffffffffffffffffffff6040820151166040830152606081015160608301525050565b60008251613e72818460208701614ccb565b9190910192915050565b90565b73ffffffffffffffffffffffffffffffffffffffff91909116815260200190565b73ffffffffffffffffffffffffffffffffffffffff92831681529116602082015260400190565b73ffffffffffffffffffffffffffffffffffffffff9384168152919092166020820152604081019190915260600190565b6020808252825182820181905260009190848201906040850190845b81811015613f3a57613f27838551613e24565b9284019260809290920191600101613f14565b50909695505050505050565b6020808252825182820181905260009190848201906040850190845b81811015613f3a57613f75838551613e24565b9284019260809290920191600101613f62565b901515815260200190565b6000602082528251806020840152613fb2816040850160208701614ccb565b601f017fffffffffffffffffffffffffffffffffffffffffffffffffffffffffffffffe0169190910160400192915050565b60208082526035908201527f54686520746f6b656e206973206e6f7420617070726f76656420746f2074726160408201527f6e736665722062792074686520636f6e74726163740000000000000000000000606082015260800190565b60208082526022908201527f456e756d657261626c655365743a20696e646578206f7574206f6620626f756e60408201527f6473000000000000000000000000000000000000000000000000000000000000606082015260800190565b60208082526025908201527f4f6e6c7920706172746e65722063616e2070726f706f7365207368617265206360408201527f68616e6765000000000000000000000000000000000000000000000000000000606082015260800190565b60208082526018908201527f43616e27742073657420746f2061646472657373203078300000000000000000604082015260600190565b60208082526026908201527f4f776e61626c653a206e6577206f776e657220697320746865207a65726f206160408201527f6464726573730000000000000000000000000000000000000000000000000000606082015260800190565b60208082526025908201527f546f6b656e206f776e65722063616e277420627579207468656972206f776e2060408201527f746f6b656e000000000000000000000000000000000000000000000000000000606082015260800190565b6020808252601b908201527f536166654d6174683a206164646974696f6e206f766572666c6f770000000000604082015260600190565b6020808252602a908201527f417474656d7074696e6720746f207365742070726f706f73652073616d65207660408201527f616c756520616761696e00000000000000000000000000000000000000000000606082015260800190565b60208082526021908201527f5468657265206973206e6f206368616e67652073686172652070726f706f736160408201527f6c00000000000000000000000000000000000000000000000000000000000000606082015260800190565b6020808252601f908201527f4c697374696e6720616e642062696420617265206e6f7420656e61626c656400604082015260600190565b60208082526024908201527f416c6c6f7765642070657263656e746167652072616e6765206973203120746f60408201527f2031303000000000000000000000000000000000000000000000000000000000606082015260800190565b60208082526027908201527f4f6e6c7920706172746e65722063616e206368616e676520706172746e65722060408201527f6164647265737300000000000000000000000000000000000000000000000000606082015260800190565b6020808252601a908201527f506c656173652062696420666f72206d6f7265207468616e2030000000000000604082015260600190565b6020808252601e908201527f536166654d6174683a207375627472616374696f6e206f766572666c6f770000604082015260600190565b6020808252603a908201527f416464726573733a20756e61626c6520746f2073656e642076616c75652c207260408201527f6563697069656e74206d61792068617665207265766572746564000000000000606082015260800190565b6020808252602c908201527f5468652076616c75652073656e642069732062656c6f772073616c652070726960408201527f636520706c757320666565730000000000000000000000000000000000000000606082015260800190565b6020808252601d908201527f416464726573733a20696e73756666696369656e742062616c616e6365000000604082015260600190565b60208082526026908201527f416464726573733a20696e73756666696369656e742062616c616e636520666f60408201527f722063616c6c0000000000000000000000000000000000000000000000000000606082015260800190565b60208082526025908201527f506c6561736520656e74657220612073686f7274657220706572696f64206f6660408201527f2074696d65000000000000000000000000000000000000000000000000000000606082015260800190565b6020808252601a908201527f536166654d6174683a206469766973696f6e206279207a65726f000000000000604082015260600190565b60208082526022908201527f5468697320546f6b656e2062656c6f6e677320746f207468697320616464726560408201527f7373000000000000000000000000000000000000000000000000000000000000606082015260800190565b6020808252602b908201527f417474656d707420746f207365742070657263656e746167652068696768657260408201527f207468616e20322e35252e000000000000000000000000000000000000000000606082015260800190565b60208082526038908201527f506c65617365206c69737420666f72206d6f7265207468616e2030206f72207560408201527f736520746865207472616e736665722066756e6374696f6e0000000000000000606082015260800190565b60208082526036908201527f4e65656420746f206861766520656e6f75676820746f6b656e20686f6c64696e60408201527f6720746f20626964206f6e207468697320746f6b656e00000000000000000000606082015260800190565b60208082526021908201527f536166654d6174683a206d756c7469706c69636174696f6e206f766572666c6f60408201527f7700000000000000000000000000000000000000000000000000000000000000606082015260800190565b60208082526015908201527f546f6b656e206973206e6f7420666f722073616c650000000000000000000000604082015260600190565b6020808252818101527f4f776e61626c653a2063616c6c6572206973206e6f7420746865206f776e6572604082015260600190565b60208082526030908201527f4f776e65722063616e2774206368616e676520706172746e657220616464726560408201527f7373206f6e636520697427732073657400000000000000000000000000000000606082015260800190565b60208082526036908201527f5468697320746f6b656e206973206e6f7420616c6c6f77656420746f2074726160408201527f6e73666572206279207468697320636f6e747261637400000000000000000000606082015260800190565b60208082526026908201527f5468697320746f6b656e20646f65736e277420686176652061206d617463686960408201527f6e67206269640000000000000000000000000000000000000000000000000000606082015260800190565b60208082526024908201527f416c6c6f7765642070657263656e746167652072616e6765206973203020746f60408201527f2031303000000000000000000000000000000000000000000000000000000000606082015260800190565b6020808252602b908201527f54686973206164647265737320646f65736e2774206861766520626964206f6e60408201527f207468697320746f6b656e000000000000000000000000000000000000000000606082015260800190565b6020808252601d908201527f416464726573733a2063616c6c20746f206e6f6e2d636f6e7472616374000000604082015260600190565b6020808252601b908201527f466565206672616374696f6e20657863656564656420626173652e0000000000604082015260600190565b6020808252602a908201527f5361666545524332303a204552433230206f7065726174696f6e20646964206e60408201527f6f74207375636365656400000000000000000000000000000000000000000000606082015260800190565b6020808252601f908201527f5265656e7472616e637947756172643a207265656e7472616e742063616c6c00604082015260600190565b60208082526022908201527f4f6e6c7920746f6b656e2073656c6c65722063616e2064656c69737420746f6b60408201527f656e000000000000000000000000000000000000000000000000000000000000606082015260800190565b6020808252601f908201527f4f6e6c7920746f6b656e206f776e65722063616e206c69737420746f6b656e00604082015260600190565b60208082526028908201527f4f6e6c7920746f6b656e206f776e65722063616e20616363657074206269642060408201527f6f6620746f6b656e000000000000000000000000000000000000000000000000606082015260800190565b60208082526024908201527f506c6561736520656e7465722061206c6f6e67657220706572696f64206f662060408201527f74696d6500000000000000000000000000000000000000000000000000000000606082015260800190565b608081016113058284613e24565b90815260200190565b9283526020830191909152604082015260600190565b60ff91909116815260200190565b60ff92831681529116602082015260400190565b60005b83811015614ce6578181015183820152602001614cce565b838111156134955750506000910152565b73ffffffffffffffffffffffffffffffffffffffff8116811461174857600080fd5b801515811461174857600080fdfea26469706673582212207bbd43295544c48078204fcd3b53ca567bd6efa183566cd332368e6df126e38964736f6c634300060c0033",
  "immutableReferences": {
    "1879": [
      {
        "length": 32,
        "start": 3086
      },
      {
        "length": 32,
        "start": 4004
      },
      {
        "length": 32,
        "start": 7698
      },
      {
        "length": 32,
        "start": 11872
      },
      {
        "length": 32,
        "start": 12901
      },
      {
        "length": 32,
        "start": 13163
      }
    ],
    "1881": [
      {
        "length": 32,
        "start": 3713
      },
      {
        "length": 32,
        "start": 3761
      },
      {
        "length": 32,
        "start": 3878
      },
      {
        "length": 32,
        "start": 8011
      },
      {
        "length": 32,
        "start": 9470
      },
      {
        "length": 32,
        "start": 11623
      }
    ]
  },
  "source": "// SPDX-License-Identifier: AGPL-3.0-or-later\n\npragma solidity =0.6.12;\npragma experimental ABIEncoderV2;\n\nimport \"@openzeppelin/contracts/access/Ownable.sol\";\nimport \"@openzeppelin/contracts/math/SafeMath.sol\";\nimport \"@openzeppelin/contracts/utils/Address.sol\";\nimport \"@openzeppelin/contracts/utils/EnumerableSet.sol\";\nimport \"@openzeppelin/contracts/utils/ReentrancyGuard.sol\";\nimport \"@openzeppelin/contracts/token/ERC721/IERC721.sol\";\nimport \"@openzeppelin/contracts/token/ERC20/SafeERC20.sol\";\nimport \"@openzeppelin/contracts/token/ERC20/IERC20.sol\";\nimport \"./interface/INFTKEYMarketPlaceV1.sol\";\n\n/**\n * @title NFTKEY MarketPlace contract V1\n * Note: This marketplace contract is collection based. It serves one ERC721 contract only\n * Payment tokens usually is the chain native coin's wrapped token, e.g. WETH, WBNB\n */\ncontract NFTKEYMarketPlaceV1_1 is INFTKEYMarketPlaceV1, Ownable, ReentrancyGuard {\n    using SafeMath for uint256;\n    using Address for address;\n    using EnumerableSet for EnumerableSet.UintSet;\n    using EnumerableSet for EnumerableSet.AddressSet;\n\n    struct TokenBid {\n        EnumerableSet.AddressSet bidders;\n        mapping(address => Bid) bids;\n    }\n\n    constructor(\n        string memory erc721Name_,\n        address _erc721Address,\n        address _paymentTokenAddress\n    ) public {\n        _erc721Name = erc721Name_;\n        _erc721 = IERC721(_erc721Address);\n        _paymentToken = IERC20(_paymentTokenAddress);\n    }\n\n    string private _erc721Name;\n    IERC721 private immutable _erc721;\n    IERC20 private immutable _paymentToken;\n\n    bool private _isListingAndBidEnabled = true;\n    uint8 private _feeFraction = 1;\n    uint8 private _feeBase = 100;\n    uint256 private _actionTimeOutRangeMin = 86400; // 24 hours\n    uint256 private _actionTimeOutRangeMax = 31536000; // One year - This can extend by owner is contract is working smoothly\n\n    mapping(uint256 => Listing) private _tokenListings;\n    EnumerableSet.UintSet private _tokenIdWithListing;\n\n    mapping(uint256 => TokenBid) private _tokenBids;\n    EnumerableSet.UintSet private _tokenIdWithBid;\n\n    address public partnerAddress;\n    uint8 public partnerSharePercentage = 0;\n    bool public hasSharePercentageProposal;\n    uint8 public partnerSharePercentageProposal;\n\n    EnumerableSet.AddressSet private _emptyBidders; // Help initiate TokenBid struct\n    uint256[] private _tempTokenIdStorage; // Storage to assist cleaning\n    address[] private _tempBidderStorage; // Storage to assist cleaning bids\n\n    /**\n     * @dev only if listing and bid is enabled\n     * This is to help contract migration in case of upgrade or bug\n     */\n    modifier onlyMarketplaceOpen() {\n        require(_isListingAndBidEnabled, \"Listing and bid are not enabled\");\n        _;\n    }\n\n    /**\n     * @dev only if the entered timestamp is within the allowed range\n     * This helps to not list or bid for too short or too long period of time\n     */\n    modifier onlyAllowedExpireTimestamp(uint256 expireTimestamp) {\n        require(\n            expireTimestamp.sub(block.timestamp) >= _actionTimeOutRangeMin,\n            \"Please enter a longer period of time\"\n        );\n        require(\n            expireTimestamp.sub(block.timestamp) <= _actionTimeOutRangeMax,\n            \"Please enter a shorter period of time\"\n        );\n        _;\n    }\n\n    /**\n     * @dev check if the account is the owner of this erc721 token\n     */\n    function _isTokenOwner(uint256 tokenId, address account) private view returns (bool) {\n        try _erc721.ownerOf(tokenId) returns (address tokenOwner) {\n            return tokenOwner == account;\n        } catch {\n            return false;\n        }\n    }\n\n    /**\n     * @dev check if this contract has approved to transfer this erc721 token\n     */\n    function _isTokenApproved(uint256 tokenId) private view returns (bool) {\n        try _erc721.getApproved(tokenId) returns (address tokenOperator) {\n            return tokenOperator == address(this);\n        } catch {\n            return false;\n        }\n    }\n\n    /**\n     * @dev check if this contract has approved to all of this owner's erc721 tokens\n     */\n    function _isAllTokenApproved(address owner) private view returns (bool) {\n        return _erc721.isApprovedForAll(owner, address(this));\n    }\n\n    /**\n     * @dev See {INFTKEYMarketPlaceV1-tokenAddress}.\n     */\n    function tokenAddress() external view override returns (address) {\n        return address(_erc721);\n    }\n\n    /**\n     * @dev See {INFTKEYMarketPlaceV1-paymentTokenAddress}.\n     */\n    function paymentTokenAddress() external view override returns (address) {\n        return address(_paymentToken);\n    }\n\n    /**\n     * @dev Check if a listing is valid or not\n     * The seller must be the owner\n     * The seller must have give this contract allowance\n     * The sell price must be more than 0\n     * The listing mustn't be expired\n     */\n    function _isListingValid(Listing memory listing) private view returns (bool) {\n        if (\n            _isTokenOwner(listing.tokenId, listing.seller) &&\n            (_isTokenApproved(listing.tokenId) || _isAllTokenApproved(listing.seller)) &&\n            listing.listingPrice > 0 &&\n            listing.expireTimestamp > block.timestamp\n        ) {\n            return true;\n        }\n    }\n\n    /**\n     * @dev See {INFTKEYMarketPlaceV1-getTokenListing}.\n     */\n    function getTokenListing(uint256 tokenId) public view override returns (Listing memory) {\n        Listing memory listing = _tokenListings[tokenId];\n        if (_isListingValid(listing)) {\n            return listing;\n        }\n    }\n\n    /**\n     * @dev See {INFTKEYMarketPlaceV1-getTokenListings}.\n     */\n    function getTokenListings(uint256 from, uint256 size)\n        public\n        view\n        override\n        returns (Listing[] memory)\n    {\n        if (from < _tokenIdWithListing.length() && size > 0) {\n            uint256 querySize = size;\n            if ((from + size) > _tokenIdWithListing.length()) {\n                querySize = _tokenIdWithListing.length() - from;\n            }\n            Listing[] memory listings = new Listing[](querySize);\n            for (uint256 i = 0; i < querySize; i++) {\n                Listing memory listing = _tokenListings[_tokenIdWithListing.at(i + from)];\n                if (_isListingValid(listing)) {\n                    listings[i] = listing;\n                }\n            }\n            return listings;\n        }\n    }\n\n    /**\n     * @dev See {INFTKEYMarketPlaceV1-getAllTokenListings}.\n     */\n    function getAllTokenListings() external view override returns (Listing[] memory) {\n        return getTokenListings(0, _tokenIdWithListing.length());\n    }\n\n    /**\n     * @dev Check if an bid is valid or not\n     * Bidder must not be the owner\n     * Bidder must give the contract allowance same or more than bid price\n     * Bid price must > 0\n     * Bid mustn't been expired\n     */\n    function _isBidValid(Bid memory bid) private view returns (bool) {\n        if (\n            !_isTokenOwner(bid.tokenId, bid.bidder) &&\n            _paymentToken.allowance(bid.bidder, address(this)) >= bid.bidPrice &&\n            bid.bidPrice > 0 &&\n            bid.expireTimestamp > block.timestamp\n        ) {\n            return true;\n        }\n    }\n\n    /**\n     * @dev See {INFTKEYMarketPlaceV1-getBidderTokenBid}.\n     */\n    function getBidderTokenBid(uint256 tokenId, address bidder)\n        public\n        view\n        override\n        returns (Bid memory)\n    {\n        Bid memory bid = _tokenBids[tokenId].bids[bidder];\n        if (_isBidValid(bid)) {\n            return bid;\n        }\n    }\n\n    /**\n     * @dev See {INFTKEYMarketPlaceV1-getTokenBids}.\n     */\n    function getTokenBids(uint256 tokenId) external view override returns (Bid[] memory) {\n        Bid[] memory bids = new Bid[](_tokenBids[tokenId].bidders.length());\n        for (uint256 i; i < _tokenBids[tokenId].bidders.length(); i++) {\n            address bidder = _tokenBids[tokenId].bidders.at(i);\n            Bid memory bid = _tokenBids[tokenId].bids[bidder];\n            if (_isBidValid(bid)) {\n                bids[i] = bid;\n            }\n        }\n        return bids;\n    }\n\n    /**\n     * @dev See {INFTKEYMarketPlaceV1-getTokenHighestBid}.\n     */\n    function getTokenHighestBid(uint256 tokenId) public view override returns (Bid memory) {\n        Bid memory highestBid = Bid(tokenId, 0, address(0), 0);\n        for (uint256 i; i < _tokenBids[tokenId].bidders.length(); i++) {\n            address bidder = _tokenBids[tokenId].bidders.at(i);\n            Bid memory bid = _tokenBids[tokenId].bids[bidder];\n            if (_isBidValid(bid) && bid.bidPrice > highestBid.bidPrice) {\n                highestBid = bid;\n            }\n        }\n        return highestBid;\n    }\n\n    /**\n     * @dev See {INFTKEYMarketPlaceV1-getTokenHighestBids}.\n     */\n    function getTokenHighestBids(uint256 from, uint256 size)\n        public\n        view\n        override\n        returns (Bid[] memory)\n    {\n        if (from < _tokenIdWithBid.length() && size > 0) {\n            uint256 querySize = size;\n            if ((from + size) > _tokenIdWithBid.length()) {\n                querySize = _tokenIdWithBid.length() - from;\n            }\n            Bid[] memory highestBids = new Bid[](querySize);\n            for (uint256 i = 0; i < querySize; i++) {\n                highestBids[i] = getTokenHighestBid(_tokenIdWithBid.at(i + from));\n            }\n            return highestBids;\n        }\n    }\n\n    /**\n     * @dev See {INFTKEYMarketPlaceV1-getAllTokenHighestBids}.\n     */\n    function getAllTokenHighestBids() external view override returns (Bid[] memory) {\n        return getTokenHighestBids(0, _tokenIdWithBid.length());\n    }\n\n    /**\n     * @dev delist a token - remove token id record and remove listing from mapping\n     * @param tokenId erc721 token Id\n     */\n    function _delistToken(uint256 tokenId) private {\n        if (_tokenIdWithListing.contains(tokenId)) {\n            delete _tokenListings[tokenId];\n            _tokenIdWithListing.remove(tokenId);\n        }\n    }\n\n    /**\n     * @dev remove a bid of a bidder\n     * @param tokenId erc721 token Id\n     * @param bidder bidder address\n     */\n    function _removeBidOfBidder(uint256 tokenId, address bidder) private {\n        if (_tokenBids[tokenId].bidders.contains(bidder)) {\n            // Step 1: delete the bid and the address\n            delete _tokenBids[tokenId].bids[bidder];\n            _tokenBids[tokenId].bidders.remove(bidder);\n\n            // Step 2: if no bid left\n            if (_tokenBids[tokenId].bidders.length() == 0) {\n                _tokenIdWithBid.remove(tokenId);\n            }\n        }\n    }\n\n    /**\n     * @dev See {INFTKEYMarketPlaceV1-listToken}.\n     * People can only list if listing is allowed\n     * The timestamp set needs to be in the allowed range\n     * Only token owner can list token\n     * Price must be higher than 0\n     * This contract must be approved to transfer this token\n     */\n    function listToken(\n        uint256 tokenId,\n        uint256 value,\n        uint256 expireTimestamp\n    ) external override onlyMarketplaceOpen onlyAllowedExpireTimestamp(expireTimestamp) {\n        require(value > 0, \"Please list for more than 0 or use the transfer function\");\n        require(_isTokenOwner(tokenId, msg.sender), \"Only token owner can list token\");\n        require(\n            _isTokenApproved(tokenId) || _isAllTokenApproved(msg.sender),\n            \"This token is not allowed to transfer by this contract\"\n        );\n\n        _tokenListings[tokenId] = Listing(tokenId, value, msg.sender, expireTimestamp);\n        _tokenIdWithListing.add(tokenId);\n\n        emit TokenListed(tokenId, msg.sender, value);\n    }\n\n    /**\n     * @dev See {INFTKEYMarketPlaceV1-delistToken}.\n     * msg.sender must be the seller of the listing record\n     */\n    function delistToken(uint256 tokenId) external override {\n        require(_tokenListings[tokenId].seller == msg.sender, \"Only token seller can delist token\");\n        emit TokenDelisted(tokenId, _tokenListings[tokenId].seller);\n        _delistToken(tokenId);\n    }\n\n    /**\n     * @dev See {INFTKEYMarketPlaceV1-buyToken}.\n     * Must have a valid listing\n     * msg.sender must not the owner of token\n     * msg.value must be at least sell price plus fees\n     */\n    function buyToken(uint256 tokenId) external payable override nonReentrant {\n        Listing memory listing = getTokenListing(tokenId); // Get valid listing\n        require(listing.seller != address(0), \"Token is not for sale\"); // Listing not valid\n        require(!_isTokenOwner(tokenId, msg.sender), \"Token owner can't buy their own token\");\n\n        uint256 fees = listing.listingPrice.mul(_feeFraction).div(_feeBase);\n        require(\n            msg.value >= listing.listingPrice + fees,\n            \"The value send is below sale price plus fees\"\n        );\n\n        // Send value to token seller and fees to contract owner\n        uint256 valueWithoutFees = msg.value.sub(fees);\n        uint256 partnerFeesShare = fees.mul(partnerSharePercentage).div(100);\n        Address.sendValue(payable(listing.seller), valueWithoutFees);\n        Address.sendValue(payable(owner()), fees.sub(partnerFeesShare));\n        if (partnerAddress != address(0) && partnerFeesShare > 0) {\n            Address.sendValue(payable(partnerAddress), partnerFeesShare);\n        }\n\n        // Send token to buyer\n        emit TokenBought(tokenId, listing.seller, msg.sender, msg.value, valueWithoutFees, fees);\n        _erc721.safeTransferFrom(listing.seller, msg.sender, tokenId);\n\n        // Remove token listing\n        _delistToken(tokenId);\n        _removeBidOfBidder(tokenId, msg.sender);\n    }\n\n    /**\n     * @dev See {INFTKEYMarketPlaceV1-enterBidForToken}.\n     * People can only enter bid if bid is allowed\n     * The timestamp set needs to be in the allowed range\n     * bid price > 0\n     * must not be token owner\n     * must allow this contract to spend enough payment token\n     */\n    function enterBidForToken(\n        uint256 tokenId,\n        uint256 bidPrice,\n        uint256 expireTimestamp\n    ) external override onlyMarketplaceOpen onlyAllowedExpireTimestamp(expireTimestamp) {\n        require(bidPrice > 0, \"Please bid for more than 0\");\n        require(!_isTokenOwner(tokenId, msg.sender), \"This Token belongs to this address\");\n        require(\n            _paymentToken.allowance(msg.sender, address(this)) >= bidPrice,\n            \"Need to have enough token holding to bid on this token\"\n        );\n\n        Bid memory bid = Bid(tokenId, bidPrice, msg.sender, expireTimestamp);\n\n        // if no bids of this token add a entry to both records _tokenIdWithBid and _tokenBids\n        if (!_tokenIdWithBid.contains(tokenId)) {\n            _tokenIdWithBid.add(tokenId);\n            _tokenBids[tokenId] = TokenBid(_emptyBidders);\n        }\n\n        _tokenBids[tokenId].bidders.add(msg.sender);\n        _tokenBids[tokenId].bids[msg.sender] = bid;\n\n        emit TokenBidEntered(tokenId, msg.sender, bidPrice);\n    }\n\n    /**\n     * @dev See {INFTKEYMarketPlaceV1-withdrawBidForToken}.\n     * There must be a bid exists\n     * remove this bid record\n     */\n    function withdrawBidForToken(uint256 tokenId) external override {\n        Bid memory bid = _tokenBids[tokenId].bids[msg.sender];\n        require(bid.bidder == msg.sender, \"This address doesn't have bid on this token\");\n\n        emit TokenBidWithdrawn(tokenId, bid.bidder, bid.bidPrice);\n        _removeBidOfBidder(tokenId, msg.sender);\n    }\n\n    /**\n     * @dev See {INFTKEYMarketPlaceV1-acceptBidForToken}.\n     * Must be owner of this token\n     * Must have approved this contract to transfer token\n     * Must have a valid existing bid that matches the bidder address\n     */\n    function acceptBidForToken(uint256 tokenId, address bidder) external override nonReentrant {\n        require(_isTokenOwner(tokenId, msg.sender), \"Only token owner can accept bid of token\");\n        require(\n            _isTokenApproved(tokenId) || _isAllTokenApproved(msg.sender),\n            \"The token is not approved to transfer by the contract\"\n        );\n\n        Bid memory existingBid = getBidderTokenBid(tokenId, bidder);\n        require(\n            existingBid.bidPrice > 0 && existingBid.bidder == bidder,\n            \"This token doesn't have a matching bid\"\n        );\n\n        uint256 fees = existingBid.bidPrice.mul(_feeFraction).div(_feeBase + _feeFraction);\n        uint256 tokenValue = existingBid.bidPrice.sub(fees);\n        uint256 partnerFeesShare = fees.mul(partnerSharePercentage).div(100);\n\n        SafeERC20.safeTransferFrom(_paymentToken, existingBid.bidder, msg.sender, tokenValue);\n        SafeERC20.safeTransferFrom(\n            _paymentToken,\n            existingBid.bidder,\n            owner(),\n            fees.sub(partnerFeesShare)\n        );\n        if (partnerAddress != address(0) && partnerFeesShare > 0) {\n            SafeERC20.safeTransferFrom(\n                _paymentToken,\n                existingBid.bidder,\n                partnerAddress,\n                partnerFeesShare\n            );\n        }\n\n        _erc721.safeTransferFrom(msg.sender, existingBid.bidder, tokenId);\n\n        emit TokenBidAccepted(\n            tokenId,\n            msg.sender,\n            existingBid.bidder,\n            existingBid.bidPrice,\n            tokenValue,\n            fees\n        );\n\n        // Remove token listing\n        _delistToken(tokenId);\n        _removeBidOfBidder(tokenId, existingBid.bidder);\n    }\n\n    /**\n     * @dev See {INFTKEYMarketPlaceV1-getInvalidListingCount}.\n     */\n    function getInvalidListingCount() external view override returns (uint256) {\n        uint256 count = 0;\n        for (uint256 i = 0; i < _tokenIdWithListing.length(); i++) {\n            if (!_isListingValid(_tokenListings[_tokenIdWithListing.at(i)])) {\n                count = count.add(1);\n            }\n        }\n        return count;\n    }\n\n    /**\n     * @dev Count how many bid records of a token are invalid now\n     */\n    function _getInvalidBidOfTokenCount(uint256 tokenId) private view returns (uint256) {\n        uint256 count = 0;\n        for (uint256 i = 0; i < _tokenBids[tokenId].bidders.length(); i++) {\n            address bidder = _tokenBids[tokenId].bidders.at(i);\n            Bid memory bid = _tokenBids[tokenId].bids[bidder];\n            if (!_isBidValid(bid)) {\n                count = count.add(1);\n            }\n        }\n        return count;\n    }\n\n    /**\n     * @dev See {INFTKEYMarketPlaceV1-getInvalidBidCount}.\n     */\n    function getInvalidBidCount() external view override returns (uint256) {\n        uint256 count = 0;\n        for (uint256 i = 0; i < _tokenIdWithBid.length(); i++) {\n            count = count.add(_getInvalidBidOfTokenCount(_tokenIdWithBid.at(i)));\n        }\n        return count;\n    }\n\n    /**\n     * @dev See {INFTKEYMarketPlaceV1-cleanAllInvalidListings}.\n     */\n    function cleanAllInvalidListings() external override {\n        for (uint256 i = 0; i < _tokenIdWithListing.length(); i++) {\n            uint256 tokenId = _tokenIdWithListing.at(i);\n            if (!_isListingValid(_tokenListings[tokenId])) {\n                _tempTokenIdStorage.push(tokenId);\n            }\n        }\n        for (uint256 i = 0; i < _tempTokenIdStorage.length; i++) {\n            _delistToken(_tempTokenIdStorage[i]);\n        }\n        delete _tempTokenIdStorage;\n    }\n\n    /**\n     * @dev remove invalid bids of a token\n     * @param tokenId erc721 token Id\n     */\n    function _cleanInvalidBidsOfToken(uint256 tokenId) private {\n        for (uint256 i = 0; i < _tokenBids[tokenId].bidders.length(); i++) {\n            address bidder = _tokenBids[tokenId].bidders.at(i);\n            Bid memory bid = _tokenBids[tokenId].bids[bidder];\n            if (!_isBidValid(bid)) {\n                _tempBidderStorage.push(_tokenBids[tokenId].bidders.at(i));\n            }\n        }\n        for (uint256 i = 0; i < _tempBidderStorage.length; i++) {\n            address bidder = _tempBidderStorage[i];\n            _removeBidOfBidder(tokenId, bidder);\n        }\n        delete _tempBidderStorage;\n    }\n\n    /**\n     * @dev See {INFTKEYMarketPlaceV1-cleanAllInvalidBids}.\n     */\n    function cleanAllInvalidBids() external override {\n        for (uint256 i = 0; i < _tokenIdWithBid.length(); i++) {\n            uint256 tokenId = _tokenIdWithBid.at(i);\n            uint256 invalidCount = _getInvalidBidOfTokenCount(tokenId);\n            if (invalidCount > 0) {\n                _tempTokenIdStorage.push(tokenId);\n            }\n        }\n        for (uint256 i = 0; i < _tempTokenIdStorage.length; i++) {\n            _cleanInvalidBidsOfToken(_tempTokenIdStorage[i]);\n        }\n        delete _tempTokenIdStorage;\n    }\n\n    /**\n     * @dev See {INFTKEYMarketPlaceV1-erc721Name}.\n     */\n    function erc721Name() external view override returns (string memory) {\n        return _erc721Name;\n    }\n\n    /**\n     * @dev See {INFTKEYMarketPlaceV1-isListingAndBidEnabled}.\n     */\n    function isListingAndBidEnabled() external view override returns (bool) {\n        return _isListingAndBidEnabled;\n    }\n\n    /**\n     * @dev Enable to disable Bids and Listing\n     */\n    function changeMarketplaceStatus(bool enabled) external onlyOwner {\n        _isListingAndBidEnabled = enabled;\n    }\n\n    /**\n     * @dev See {INFTKEYMarketPlaceV1-actionTimeOutRangeMin}.\n     */\n    function actionTimeOutRangeMin() external view override returns (uint256) {\n        return _actionTimeOutRangeMin;\n    }\n\n    /**\n     * @dev See {INFTKEYMarketPlaceV1-actionTimeOutRangeMax}.\n     */\n    function actionTimeOutRangeMax() external view override returns (uint256) {\n        return _actionTimeOutRangeMax;\n    }\n\n    /**\n     * @dev Change minimum listing and bid time range\n     */\n    function changeMinActionTimeLimit(uint256 timeInSec) external onlyOwner {\n        _actionTimeOutRangeMin = timeInSec;\n    }\n\n    /**\n     * @dev Change maximum listing and bid time range\n     */\n    function changeMaxActionTimeLimit(uint256 timeInSec) external onlyOwner {\n        _actionTimeOutRangeMax = timeInSec;\n    }\n\n    /**\n     * @dev See {INFTKEYMarketPlaceV1-serviceFee}.\n     */\n    function serviceFee() external view override returns (uint8, uint8) {\n        return (_feeFraction, _feeBase);\n    }\n\n    /**\n     * @dev Change withdrawal fee percentage.\n     * If 1%, then input (1,100)\n     * If 0.5%, then input (5,1000)\n     * @param feeFraction_ Fraction of withdrawal fee based on feeBase_\n     * @param feeBase_ Fraction of withdrawal fee base\n     */\n    function changeSeriveFee(uint8 feeFraction_, uint8 feeBase_) external onlyOwner {\n        require(feeFraction_ <= feeBase_, \"Fee fraction exceeded base.\");\n        uint256 percentage = (feeFraction_ * 1000) / feeBase_;\n        require(percentage <= 25, \"Attempt to set percentage higher than 2.5%.\");\n\n        _feeFraction = feeFraction_;\n        _feeBase = feeBase_;\n    }\n\n    /**\n     * @dev Set partner address and profit share\n     * @param _partnerAddress Partner address\n     * @param _partnerSharePercentage Fraction of withdrawal fee base\n     */\n    function setPartnerAddressAndProfitShare(address _partnerAddress, uint8 _partnerSharePercentage)\n        external\n        onlyOwner\n    {\n        require(partnerAddress == address(0), \"Owner can't change partner address once it's set\");\n        require(_partnerAddress != address(0), \"Can't set to address 0x0\");\n        require(\n            _partnerSharePercentage > 0 && _partnerSharePercentage <= 100,\n            \"Allowed percentage range is 1 to 100\"\n        );\n\n        partnerAddress = _partnerAddress;\n        partnerSharePercentage = _partnerSharePercentage;\n    }\n\n    /**\n     * @dev Change partner address\n     * @param _partnerAddress Partner address\n     * Only partner can change their share address\n     */\n    function changePartnerAddress(address _partnerAddress) external {\n        require(msg.sender == partnerAddress, \"Only partner can change partner address\");\n\n        partnerAddress = _partnerAddress;\n\n        if (_partnerAddress == address(0)) {\n            partnerSharePercentage = 0;\n        }\n    }\n\n    /**\n     * @dev Propose partner share percentage\n     * @param _partnerSharePercentage Partner proposed new share percentage\n     */\n    function proposePartnerShareChange(uint8 _partnerSharePercentage) external {\n        require(msg.sender == partnerAddress, \"Only partner can propose share change\");\n        require(_partnerSharePercentage <= 100, \"Allowed percentage range is 0 to 100\");\n        require(\n            _partnerSharePercentage != partnerSharePercentage,\n            \"Attempting to set propose same value again\"\n        );\n\n        hasSharePercentageProposal = true;\n        partnerSharePercentageProposal = _partnerSharePercentage;\n    }\n\n    /**\n     * @dev Accept partner share percentage proposal\n     */\n    function acceptPartnerShareChange() external onlyOwner {\n        require(hasSharePercentageProposal, \"There is no change share proposal\");\n        partnerSharePercentage = partnerSharePercentageProposal;\n        hasSharePercentageProposal = false;\n        partnerSharePercentageProposal = 0;\n    }\n\n    /**\n     * @dev Reject partner share percentage proposal\n     */\n    function rejectPartnerShareChange() external onlyOwner {\n        require(hasSharePercentageProposal, \"There is no change share proposal\");\n        hasSharePercentageProposal = false;\n        partnerSharePercentageProposal = 0;\n    }\n}\n",
  "sourcePath": "/Users/fayexue/projects/nftkey-marketplace/contracts/NFTKEYMarketPlaceV1_1.sol",
  "compiler": {
    "name": "solc",
    "version": "0.6.12+commit.27d51765.Emscripten.clang"
  },
  "schemaVersion": "3.3.4",
  "updatedAt": "2021-04-22T00:18:00.882Z",
  "networkType": "ethereum",
  "devdoc": {
    "kind": "dev",
    "methods": {
      "acceptBidForToken(uint256,address)": {
        "details": "See {INFTKEYMarketPlaceV1-acceptBidForToken}. Must be owner of this token Must have approved this contract to transfer token Must have a valid existing bid that matches the bidder address"
      },
      "acceptPartnerShareChange()": {
        "details": "Accept partner share percentage proposal"
      },
      "actionTimeOutRangeMax()": {
        "details": "See {INFTKEYMarketPlaceV1-actionTimeOutRangeMax}."
      },
      "actionTimeOutRangeMin()": {
        "details": "See {INFTKEYMarketPlaceV1-actionTimeOutRangeMin}."
      },
      "buyToken(uint256)": {
        "details": "See {INFTKEYMarketPlaceV1-buyToken}. Must have a valid listing msg.sender must not the owner of token msg.value must be at least sell price plus fees"
      },
      "changeMarketplaceStatus(bool)": {
        "details": "Enable to disable Bids and Listing"
      },
      "changeMaxActionTimeLimit(uint256)": {
        "details": "Change maximum listing and bid time range"
      },
      "changeMinActionTimeLimit(uint256)": {
        "details": "Change minimum listing and bid time range"
      },
      "changePartnerAddress(address)": {
        "details": "Change partner address",
        "params": {
          "_partnerAddress": "Partner address Only partner can change their share address"
        }
      },
      "changeSeriveFee(uint8,uint8)": {
        "details": "Change withdrawal fee percentage. If 1%, then input (1,100) If 0.5%, then input (5,1000)",
        "params": {
          "feeBase_": "Fraction of withdrawal fee base",
          "feeFraction_": "Fraction of withdrawal fee based on feeBase_"
        }
      },
      "cleanAllInvalidBids()": {
        "details": "See {INFTKEYMarketPlaceV1-cleanAllInvalidBids}."
      },
      "cleanAllInvalidListings()": {
        "details": "See {INFTKEYMarketPlaceV1-cleanAllInvalidListings}."
      },
      "delistToken(uint256)": {
        "details": "See {INFTKEYMarketPlaceV1-delistToken}. msg.sender must be the seller of the listing record"
      },
      "enterBidForToken(uint256,uint256,uint256)": {
        "details": "See {INFTKEYMarketPlaceV1-enterBidForToken}. People can only enter bid if bid is allowed The timestamp set needs to be in the allowed range bid price > 0 must not be token owner must allow this contract to spend enough payment token"
      },
      "erc721Name()": {
        "details": "See {INFTKEYMarketPlaceV1-erc721Name}."
      },
      "getAllTokenHighestBids()": {
        "details": "See {INFTKEYMarketPlaceV1-getAllTokenHighestBids}."
      },
      "getAllTokenListings()": {
        "details": "See {INFTKEYMarketPlaceV1-getAllTokenListings}."
      },
      "getBidderTokenBid(uint256,address)": {
        "details": "See {INFTKEYMarketPlaceV1-getBidderTokenBid}."
      },
      "getInvalidBidCount()": {
        "details": "See {INFTKEYMarketPlaceV1-getInvalidBidCount}."
      },
      "getInvalidListingCount()": {
        "details": "See {INFTKEYMarketPlaceV1-getInvalidListingCount}."
      },
      "getTokenBids(uint256)": {
        "details": "See {INFTKEYMarketPlaceV1-getTokenBids}."
      },
      "getTokenHighestBid(uint256)": {
        "details": "See {INFTKEYMarketPlaceV1-getTokenHighestBid}."
      },
      "getTokenHighestBids(uint256,uint256)": {
        "details": "See {INFTKEYMarketPlaceV1-getTokenHighestBids}."
      },
      "getTokenListing(uint256)": {
        "details": "See {INFTKEYMarketPlaceV1-getTokenListing}."
      },
      "getTokenListings(uint256,uint256)": {
        "details": "See {INFTKEYMarketPlaceV1-getTokenListings}."
      },
      "isListingAndBidEnabled()": {
        "details": "See {INFTKEYMarketPlaceV1-isListingAndBidEnabled}."
      },
      "listToken(uint256,uint256,uint256)": {
        "details": "See {INFTKEYMarketPlaceV1-listToken}. People can only list if listing is allowed The timestamp set needs to be in the allowed range Only token owner can list token Price must be higher than 0 This contract must be approved to transfer this token"
      },
      "owner()": {
        "details": "Returns the address of the current owner."
      },
      "paymentTokenAddress()": {
        "details": "See {INFTKEYMarketPlaceV1-paymentTokenAddress}."
      },
      "proposePartnerShareChange(uint8)": {
        "details": "Propose partner share percentage",
        "params": {
          "_partnerSharePercentage": "Partner proposed new share percentage"
        }
      },
      "rejectPartnerShareChange()": {
        "details": "Reject partner share percentage proposal"
      },
      "renounceOwnership()": {
        "details": "Leaves the contract without owner. It will not be possible to call `onlyOwner` functions anymore. Can only be called by the current owner. NOTE: Renouncing ownership will leave the contract without an owner, thereby removing any functionality that is only available to the owner."
      },
      "serviceFee()": {
        "details": "See {INFTKEYMarketPlaceV1-serviceFee}."
      },
      "setPartnerAddressAndProfitShare(address,uint8)": {
        "details": "Set partner address and profit share",
        "params": {
          "_partnerAddress": "Partner address",
          "_partnerSharePercentage": "Fraction of withdrawal fee base"
        }
      },
      "tokenAddress()": {
        "details": "See {INFTKEYMarketPlaceV1-tokenAddress}."
      },
      "transferOwnership(address)": {
        "details": "Transfers ownership of the contract to a new account (`newOwner`). Can only be called by the current owner."
      },
      "withdrawBidForToken(uint256)": {
        "details": "See {INFTKEYMarketPlaceV1-withdrawBidForToken}. There must be a bid exists remove this bid record"
      }
    },
    "title": "NFTKEY MarketPlace contract V1 Note: This marketplace contract is collection based. It serves one ERC721 contract only Payment tokens usually is the chain native coin's wrapped token, e.g. WETH, WBNB",
    "version": 1
  },
  "userdoc": {
    "kind": "user",
    "methods": {},
    "version": 1
  }
}