{
  "contractName": "NFTKEYMarketPlaceV1",
  "abi": [
    {
      "inputs": [
        {
          "internalType": "string",
          "name": "erc721Name_",
          "type": "string"
        },
        {
          "internalType": "address",
          "name": "_erc721Address",
          "type": "address"
        },
        {
          "internalType": "address",
          "name": "_paymentTokenAddress",
          "type": "address"
        }
      ],
      "stateMutability": "nonpayable",
      "type": "constructor"
    },
    {
      "anonymous": false,
      "inputs": [
        {
          "indexed": true,
          "internalType": "address",
          "name": "previousOwner",
          "type": "address"
        },
        {
          "indexed": true,
          "internalType": "address",
          "name": "newOwner",
          "type": "address"
        }
      ],
      "name": "OwnershipTransferred",
      "type": "event"
    },
    {
      "anonymous": false,
      "inputs": [
        {
          "indexed": true,
          "internalType": "uint256",
          "name": "tokenId",
          "type": "uint256"
        },
        {
          "indexed": true,
          "internalType": "address",
          "name": "owner",
          "type": "address"
        },
        {
          "indexed": true,
          "internalType": "address",
          "name": "bidder",
          "type": "address"
        },
        {
          "indexed": false,
          "internalType": "uint256",
          "name": "total",
          "type": "uint256"
        },
        {
          "indexed": false,
          "internalType": "uint256",
          "name": "value",
          "type": "uint256"
        },
        {
          "indexed": false,
          "internalType": "uint256",
          "name": "fees",
          "type": "uint256"
        }
      ],
      "name": "TokenBidAccepted",
      "type": "event"
    },
    {
      "anonymous": false,
      "inputs": [
        {
          "indexed": true,
          "internalType": "uint256",
          "name": "tokenId",
          "type": "uint256"
        },
        {
          "indexed": true,
          "internalType": "address",
          "name": "fromAddress",
          "type": "address"
        },
        {
          "indexed": false,
          "internalType": "uint256",
          "name": "value",
          "type": "uint256"
        }
      ],
      "name": "TokenBidEntered",
      "type": "event"
    },
    {
      "anonymous": false,
      "inputs": [
        {
          "indexed": true,
          "internalType": "uint256",
          "name": "tokenId",
          "type": "uint256"
        },
        {
          "indexed": true,
          "internalType": "address",
          "name": "fromAddress",
          "type": "address"
        },
        {
          "indexed": false,
          "internalType": "uint256",
          "name": "value",
          "type": "uint256"
        }
      ],
      "name": "TokenBidWithdrawn",
      "type": "event"
    },
    {
      "anonymous": false,
      "inputs": [
        {
          "indexed": true,
          "internalType": "uint256",
          "name": "tokenId",
          "type": "uint256"
        },
        {
          "indexed": true,
          "internalType": "address",
          "name": "fromAddress",
          "type": "address"
        },
        {
          "indexed": true,
          "internalType": "address",
          "name": "toAddress",
          "type": "address"
        },
        {
          "indexed": false,
          "internalType": "uint256",
          "name": "total",
          "type": "uint256"
        },
        {
          "indexed": false,
          "internalType": "uint256",
          "name": "value",
          "type": "uint256"
        },
        {
          "indexed": false,
          "internalType": "uint256",
          "name": "fees",
          "type": "uint256"
        }
      ],
      "name": "TokenBought",
      "type": "event"
    },
    {
      "anonymous": false,
      "inputs": [
        {
          "indexed": true,
          "internalType": "uint256",
          "name": "tokenId",
          "type": "uint256"
        },
        {
          "indexed": true,
          "internalType": "address",
          "name": "fromAddress",
          "type": "address"
        }
      ],
      "name": "TokenDelisted",
      "type": "event"
    },
    {
      "anonymous": false,
      "inputs": [
        {
          "indexed": true,
          "internalType": "uint256",
          "name": "tokenId",
          "type": "uint256"
        },
        {
          "indexed": true,
          "internalType": "address",
          "name": "fromAddress",
          "type": "address"
        },
        {
          "indexed": false,
          "internalType": "uint256",
          "name": "minValue",
          "type": "uint256"
        }
      ],
      "name": "TokenListed",
      "type": "event"
    },
    {
      "inputs": [],
      "name": "owner",
      "outputs": [
        {
          "internalType": "address",
          "name": "",
          "type": "address"
        }
      ],
      "stateMutability": "view",
      "type": "function",
      "constant": true
    },
    {
      "inputs": [],
      "name": "renounceOwnership",
      "outputs": [],
      "stateMutability": "nonpayable",
      "type": "function"
    },
    {
      "inputs": [
        {
          "internalType": "address",
          "name": "newOwner",
          "type": "address"
        }
      ],
      "name": "transferOwnership",
      "outputs": [],
      "stateMutability": "nonpayable",
      "type": "function"
    },
    {
      "inputs": [],
      "name": "tokenAddress",
      "outputs": [
        {
          "internalType": "address",
          "name": "",
          "type": "address"
        }
      ],
      "stateMutability": "view",
      "type": "function",
      "constant": true
    },
    {
      "inputs": [],
      "name": "paymentTokenAddress",
      "outputs": [
        {
          "internalType": "address",
          "name": "",
          "type": "address"
        }
      ],
      "stateMutability": "view",
      "type": "function",
      "constant": true
    },
    {
      "inputs": [
        {
          "internalType": "uint256",
          "name": "tokenId",
          "type": "uint256"
        }
      ],
      "name": "getTokenListing",
      "outputs": [
        {
          "components": [
            {
              "internalType": "uint256",
              "name": "tokenId",
              "type": "uint256"
            },
            {
              "internalType": "uint256",
              "name": "listingPrice",
              "type": "uint256"
            },
            {
              "internalType": "address",
              "name": "seller",
              "type": "address"
            },
            {
              "internalType": "uint256",
              "name": "expireTimestamp",
              "type": "uint256"
            }
          ],
          "internalType": "struct INFTKEYMarketPlaceV1.Listing",
          "name": "",
          "type": "tuple"
        }
      ],
      "stateMutability": "view",
      "type": "function",
      "constant": true
    },
    {
      "inputs": [
        {
          "internalType": "uint256",
          "name": "from",
          "type": "uint256"
        },
        {
          "internalType": "uint256",
          "name": "size",
          "type": "uint256"
        }
      ],
      "name": "getTokenListings",
      "outputs": [
        {
          "components": [
            {
              "internalType": "uint256",
              "name": "tokenId",
              "type": "uint256"
            },
            {
              "internalType": "uint256",
              "name": "listingPrice",
              "type": "uint256"
            },
            {
              "internalType": "address",
              "name": "seller",
              "type": "address"
            },
            {
              "internalType": "uint256",
              "name": "expireTimestamp",
              "type": "uint256"
            }
          ],
          "internalType": "struct INFTKEYMarketPlaceV1.Listing[]",
          "name": "",
          "type": "tuple[]"
        }
      ],
      "stateMutability": "view",
      "type": "function",
      "constant": true
    },
    {
      "inputs": [],
      "name": "getAllTokenListings",
      "outputs": [
        {
          "components": [
            {
              "internalType": "uint256",
              "name": "tokenId",
              "type": "uint256"
            },
            {
              "internalType": "uint256",
              "name": "listingPrice",
              "type": "uint256"
            },
            {
              "internalType": "address",
              "name": "seller",
              "type": "address"
            },
            {
              "internalType": "uint256",
              "name": "expireTimestamp",
              "type": "uint256"
            }
          ],
          "internalType": "struct INFTKEYMarketPlaceV1.Listing[]",
          "name": "",
          "type": "tuple[]"
        }
      ],
      "stateMutability": "view",
      "type": "function",
      "constant": true
    },
    {
      "inputs": [
        {
          "internalType": "uint256",
          "name": "tokenId",
          "type": "uint256"
        },
        {
          "internalType": "address",
          "name": "bidder",
          "type": "address"
        }
      ],
      "name": "getBidderTokenBid",
      "outputs": [
        {
          "components": [
            {
              "internalType": "uint256",
              "name": "tokenId",
              "type": "uint256"
            },
            {
              "internalType": "uint256",
              "name": "bidPrice",
              "type": "uint256"
            },
            {
              "internalType": "address",
              "name": "bidder",
              "type": "address"
            },
            {
              "internalType": "uint256",
              "name": "expireTimestamp",
              "type": "uint256"
            }
          ],
          "internalType": "struct INFTKEYMarketPlaceV1.Bid",
          "name": "",
          "type": "tuple"
        }
      ],
      "stateMutability": "view",
      "type": "function",
      "constant": true
    },
    {
      "inputs": [
        {
          "internalType": "uint256",
          "name": "tokenId",
          "type": "uint256"
        }
      ],
      "name": "getTokenBids",
      "outputs": [
        {
          "components": [
            {
              "internalType": "uint256",
              "name": "tokenId",
              "type": "uint256"
            },
            {
              "internalType": "uint256",
              "name": "bidPrice",
              "type": "uint256"
            },
            {
              "internalType": "address",
              "name": "bidder",
              "type": "address"
            },
            {
              "internalType": "uint256",
              "name": "expireTimestamp",
              "type": "uint256"
            }
          ],
          "internalType": "struct INFTKEYMarketPlaceV1.Bid[]",
          "name": "",
          "type": "tuple[]"
        }
      ],
      "stateMutability": "view",
      "type": "function",
      "constant": true
    },
    {
      "inputs": [
        {
          "internalType": "uint256",
          "name": "tokenId",
          "type": "uint256"
        }
      ],
      "name": "getTokenHighestBid",
      "outputs": [
        {
          "components": [
            {
              "internalType": "uint256",
              "name": "tokenId",
              "type": "uint256"
            },
            {
              "internalType": "uint256",
              "name": "bidPrice",
              "type": "uint256"
            },
            {
              "internalType": "address",
              "name": "bidder",
              "type": "address"
            },
            {
              "internalType": "uint256",
              "name": "expireTimestamp",
              "type": "uint256"
            }
          ],
          "internalType": "struct INFTKEYMarketPlaceV1.Bid",
          "name": "",
          "type": "tuple"
        }
      ],
      "stateMutability": "view",
      "type": "function",
      "constant": true
    },
    {
      "inputs": [
        {
          "internalType": "uint256",
          "name": "from",
          "type": "uint256"
        },
        {
          "internalType": "uint256",
          "name": "size",
          "type": "uint256"
        }
      ],
      "name": "getTokenHighestBids",
      "outputs": [
        {
          "components": [
            {
              "internalType": "uint256",
              "name": "tokenId",
              "type": "uint256"
            },
            {
              "internalType": "uint256",
              "name": "bidPrice",
              "type": "uint256"
            },
            {
              "internalType": "address",
              "name": "bidder",
              "type": "address"
            },
            {
              "internalType": "uint256",
              "name": "expireTimestamp",
              "type": "uint256"
            }
          ],
          "internalType": "struct INFTKEYMarketPlaceV1.Bid[]",
          "name": "",
          "type": "tuple[]"
        }
      ],
      "stateMutability": "view",
      "type": "function",
      "constant": true
    },
    {
      "inputs": [],
      "name": "getAllTokenHighestBids",
      "outputs": [
        {
          "components": [
            {
              "internalType": "uint256",
              "name": "tokenId",
              "type": "uint256"
            },
            {
              "internalType": "uint256",
              "name": "bidPrice",
              "type": "uint256"
            },
            {
              "internalType": "address",
              "name": "bidder",
              "type": "address"
            },
            {
              "internalType": "uint256",
              "name": "expireTimestamp",
              "type": "uint256"
            }
          ],
          "internalType": "struct INFTKEYMarketPlaceV1.Bid[]",
          "name": "",
          "type": "tuple[]"
        }
      ],
      "stateMutability": "view",
      "type": "function",
      "constant": true
    },
    {
      "inputs": [
        {
          "internalType": "uint256",
          "name": "tokenId",
          "type": "uint256"
        },
        {
          "internalType": "uint256",
          "name": "value",
          "type": "uint256"
        },
        {
          "internalType": "uint256",
          "name": "expireTimestamp",
          "type": "uint256"
        }
      ],
      "name": "listToken",
      "outputs": [],
      "stateMutability": "nonpayable",
      "type": "function"
    },
    {
      "inputs": [
        {
          "internalType": "uint256",
          "name": "tokenId",
          "type": "uint256"
        }
      ],
      "name": "delistToken",
      "outputs": [],
      "stateMutability": "nonpayable",
      "type": "function"
    },
    {
      "inputs": [
        {
          "internalType": "uint256",
          "name": "tokenId",
          "type": "uint256"
        }
      ],
      "name": "buyToken",
      "outputs": [],
      "stateMutability": "payable",
      "type": "function",
      "payable": true
    },
    {
      "inputs": [
        {
          "internalType": "uint256",
          "name": "tokenId",
          "type": "uint256"
        },
        {
          "internalType": "uint256",
          "name": "bidPrice",
          "type": "uint256"
        },
        {
          "internalType": "uint256",
          "name": "expireTimestamp",
          "type": "uint256"
        }
      ],
      "name": "enterBidForToken",
      "outputs": [],
      "stateMutability": "nonpayable",
      "type": "function"
    },
    {
      "inputs": [
        {
          "internalType": "uint256",
          "name": "tokenId",
          "type": "uint256"
        }
      ],
      "name": "withdrawBidForToken",
      "outputs": [],
      "stateMutability": "nonpayable",
      "type": "function"
    },
    {
      "inputs": [
        {
          "internalType": "uint256",
          "name": "tokenId",
          "type": "uint256"
        },
        {
          "internalType": "address",
          "name": "bidder",
          "type": "address"
        }
      ],
      "name": "acceptBidForToken",
      "outputs": [],
      "stateMutability": "nonpayable",
      "type": "function"
    },
    {
      "inputs": [],
      "name": "getInvalidListingCount",
      "outputs": [
        {
          "internalType": "uint256",
          "name": "",
          "type": "uint256"
        }
      ],
      "stateMutability": "view",
      "type": "function",
      "constant": true
    },
    {
      "inputs": [],
      "name": "getInvalidBidCount",
      "outputs": [
        {
          "internalType": "uint256",
          "name": "",
          "type": "uint256"
        }
      ],
      "stateMutability": "view",
      "type": "function",
      "constant": true
    },
    {
      "inputs": [],
      "name": "cleanAllInvalidListings",
      "outputs": [],
      "stateMutability": "nonpayable",
      "type": "function"
    },
    {
      "inputs": [],
      "name": "cleanAllInvalidBids",
      "outputs": [],
      "stateMutability": "nonpayable",
      "type": "function"
    },
    {
      "inputs": [],
      "name": "erc721Name",
      "outputs": [
        {
          "internalType": "string",
          "name": "",
          "type": "string"
        }
      ],
      "stateMutability": "view",
      "type": "function",
      "constant": true
    },
    {
      "inputs": [],
      "name": "isListingAndBidEnabled",
      "outputs": [
        {
          "internalType": "bool",
          "name": "",
          "type": "bool"
        }
      ],
      "stateMutability": "view",
      "type": "function",
      "constant": true
    },
    {
      "inputs": [
        {
          "internalType": "bool",
          "name": "enabled",
          "type": "bool"
        }
      ],
      "name": "changeMarketplaceStatus",
      "outputs": [],
      "stateMutability": "nonpayable",
      "type": "function"
    },
    {
      "inputs": [],
      "name": "actionTimeOutRangeMin",
      "outputs": [
        {
          "internalType": "uint256",
          "name": "",
          "type": "uint256"
        }
      ],
      "stateMutability": "view",
      "type": "function",
      "constant": true
    },
    {
      "inputs": [],
      "name": "actionTimeOutRangeMax",
      "outputs": [
        {
          "internalType": "uint256",
          "name": "",
          "type": "uint256"
        }
      ],
      "stateMutability": "view",
      "type": "function",
      "constant": true
    },
    {
      "inputs": [
        {
          "internalType": "uint256",
          "name": "timeInSec",
          "type": "uint256"
        }
      ],
      "name": "changeMinActionTimeLimit",
      "outputs": [],
      "stateMutability": "nonpayable",
      "type": "function"
    },
    {
      "inputs": [
        {
          "internalType": "uint256",
          "name": "timeInSec",
          "type": "uint256"
        }
      ],
      "name": "changeMaxActionTimeLimit",
      "outputs": [],
      "stateMutability": "nonpayable",
      "type": "function"
    },
    {
      "inputs": [],
      "name": "serviceFee",
      "outputs": [
        {
          "internalType": "uint8",
          "name": "",
          "type": "uint8"
        },
        {
          "internalType": "uint8",
          "name": "",
          "type": "uint8"
        }
      ],
      "stateMutability": "view",
      "type": "function",
      "constant": true
    },
    {
      "inputs": [
        {
          "internalType": "uint8",
          "name": "feeFraction_",
          "type": "uint8"
        },
        {
          "internalType": "uint8",
          "name": "feeBase_",
          "type": "uint8"
        }
      ],
      "name": "changeSeriveFee",
      "outputs": [],
      "stateMutability": "nonpayable",
      "type": "function"
    }
  ],
  "bytecode": "0x60c060405260038054610100600160ff199092169190911761ff0019161762ff0000191662640000179055620151806004556301e133806005553480156200004657600080fd5b506040516200432b3803806200432b833981016040819052620000699162000199565b600062000075620000f9565b600080546001600160a01b0319166001600160a01b0383169081178255604051929350917f8be0079c531659141344cd1fd0a4f28419497f9722a3daafe3b4186f6b6457e0908290a350600180558251620000d8906002906020860190620000fd565b506001600160601b0319606092831b8116608052911b1660a05250620002ce565b3390565b828054600181600116156101000203166002900490600052602060002090601f016020900481019282601f106200014057805160ff191683800117855562000170565b8280016001018555821562000170579182015b828111156200017057825182559160200191906001019062000153565b506200017e92915062000182565b5090565b5b808211156200017e576000815560010162000183565b600080600060608486031215620001ae578283fd5b83516001600160401b0380821115620001c5578485fd5b818601915086601f830112620001d9578485fd5b815181811115620001e8578586fd5b620001fd601f8201601f19166020016200025b565b915080825287602082850101111562000214578586fd5b6200022781602084016020860162000282565b50809450505060208401516200023d81620002b5565b60408501519092506200025081620002b5565b809150509250925092565b6040518181016001600160401b03811182821017156200027a57600080fd5b604052919050565b60005b838110156200029f57818101518382015260200162000285565b83811115620002af576000848401525b50505050565b6001600160a01b0381168114620002cb57600080fd5b50565b60805160601c60a05160601c6140066200032560003980610bcb5280610bfb528061183b5280611dcf528061237852508061098f5280610c6f5280611702528061244c5280612825528061291c52506140066000f3fe6080604052600436106101e35760003560e01c806385f5a92a11610102578063b6be53ba11610095578063e724488111610064578063e724488114610528578063e7d585a814610548578063f0e6dcab14610568578063f2fde38b1461058a576101e3565b8063b6be53ba146104b3578063bce64a7d146104d3578063bed659bc146104f3578063e154870214610513576101e3565b80639d76ea58116100d15780639d76ea5814610454578063a3c0b5f014610469578063a6a27f3a14610489578063afb18fe71461049e576101e3565b806385f5a92a146103cf5780638abdf5aa146103ef5780638da5cb5b1461041257806398792eec14610434576101e3565b806354b0de6a1161017a578063715018a611610149578063715018a61461035657806373885b701461036b57806375ccb1f21461038d5780637d7660e0146103ba576101e3565b806354b0de6a146102d45780635cc2c66b146102f65780635eef51ee1461031657806370a3b39014610336576101e3565b8063336c16c6116101b6578063336c16c614610275578063383fba251461029557806340a97919146102aa578063453dfc50146102bf576101e3565b80631e56afe9146101e85780632426fc241461021e5780632d296bf11461024057806333549d3d14610253575b600080fd5b3480156101f457600080fd5b506102086102033660046132be565b6105aa565b6040516102159190613f33565b60405180910390f35b34801561022a57600080fd5b5061023e6102393660046132be565b6106d6565b005b61023e61024e3660046132be565b610757565b34801561025f57600080fd5b50610268610a16565b6040516102159190613f41565b34801561028157600080fd5b5061023e6102903660046132ee565b610a1c565b3480156102a157600080fd5b5061023e610d6c565b3480156102b657600080fd5b50610268610e78565b3480156102cb57600080fd5b50610268610ebb565b3480156102e057600080fd5b506102e9610ec1565b6040516102159190613471565b34801561030257600080fd5b506102e961031136600461331d565b610ed7565b34801561032257600080fd5b5061023e610331366004613369565b610fb9565b34801561034257600080fd5b506102086103513660046132ee565b61112d565b34801561036257600080fd5b5061023e6111be565b34801561037757600080fd5b506103806112a0565b604051610215919061350c565b34801561039957600080fd5b506103ad6103a836600461331d565b611351565b60405161021591906134bf565b3480156103c657600080fd5b5061023e611495565b3480156103db57600080fd5b5061023e6103ea3660046132be565b611541565b3480156103fb57600080fd5b50610404611649565b604051610215929190613f60565b34801561041e57600080fd5b50610427611661565b60405161021591906133f8565b34801561044057600080fd5b5061020861044f3660046132be565b61167d565b34801561046057600080fd5b50610427611700565b34801561047557600080fd5b5061023e6104843660046132be565b611724565b34801561049557600080fd5b5061026861179c565b3480156104aa57600080fd5b50610427611839565b3480156104bf57600080fd5b5061023e6104ce366004613286565b61185d565b3480156104df57600080fd5b5061023e6104ee36600461333e565b611901565b3480156104ff57600080fd5b5061023e61050e3660046132be565b611b7c565b34801561051f57600080fd5b506103ad611c3c565b34801561053457600080fd5b5061023e61054336600461333e565b611c4d565b34801561055457600080fd5b506102e96105633660046132be565b612059565b34801561057457600080fd5b5061057d6121a1565b6040516102159190613501565b34801561059657600080fd5b5061023e6105a536600461324e565b6121aa565b6105b2613181565b6105ba613181565b604051806080016040528084815260200160008152602001600073ffffffffffffffffffffffffffffffffffffffff1681526020016000815250905060005b6000848152600960205260409020610610906122f7565b8110156106cd57600084815260096020526040812061062f9083612302565b9050610639613181565b50600085815260096020908152604080832073ffffffffffffffffffffffffffffffffffffffff80861685526002918201845293829020825160808101845281548152600182015494810194909452908101549093169082015260039091015460608201526106a781612315565b80156106ba575083602001518160200151115b156106c3578093505b50506001016105f9565b5090505b919050565b6106de61242d565b73ffffffffffffffffffffffffffffffffffffffff166106fc611661565b73ffffffffffffffffffffffffffffffffffffffff1614610752576040517f08c379a000000000000000000000000000000000000000000000000000000000815260040161074990613b97565b60405180910390fd5b600455565b60026001541415610794576040517f08c379a000000000000000000000000000000000000000000000000000000000815260040161074990613dae565b60026001556107a1613181565b6107aa8261167d565b604081015190915073ffffffffffffffffffffffffffffffffffffffff166107fe576040517f08c379a000000000000000000000000000000000000000000000000000000000815260040161074990613b60565b6108088233612431565b1561083f576040517f08c379a000000000000000000000000000000000000000000000000000000000815260040161074990613674565b60035460208201516000916108709160ff62010000830481169261086a929161010090910416612511565b90612565565b9050808260200151013410156108b2576040517f08c379a00000000000000000000000000000000000000000000000000000000081526004016107499061380a565b60006108be34836125b1565b90506108ce8360400151826125f3565b6108df6108d9611661565b836125f3565b3373ffffffffffffffffffffffffffffffffffffffff16836040015173ffffffffffffffffffffffffffffffffffffffff16857f1d83c44501b48d5dc85fea9b94506cda160418d62c65b481199bdbec265df15734858760405161094593929190613f4a565b60405180910390a460408084015190517f42842e0e00000000000000000000000000000000000000000000000000000000815273ffffffffffffffffffffffffffffffffffffffff7f000000000000000000000000000000000000000000000000000000000000000016916342842e0e916109c7919033908990600401613440565b600060405180830381600087803b1580156109e157600080fd5b505af11580156109f5573d6000803e3d6000fd5b50505050610a02846126d5565b610a0c8433612736565b5050600180555050565b60045490565b60026001541415610a59576040517f08c379a000000000000000000000000000000000000000000000000000000000815260040161074990613dae565b6002600155610a688233612431565b610a9e576040517f08c379a000000000000000000000000000000000000000000000000000000000815260040161074990613e79565b610aa7826127f8565b80610ab65750610ab6336128dc565b610aec576040517f08c379a00000000000000000000000000000000000000000000000000000000081526004016107499061355d565b610af4613181565b610afe838361112d565b905060008160200151118015610b4357508173ffffffffffffffffffffffffffffffffffffffff16816040015173ffffffffffffffffffffffffffffffffffffffff16145b610b79576040517f08c379a000000000000000000000000000000000000000000000000000000000815260040161074990613c29565b6003546020820151600091610ba991610100820460ff9081166201000090930481168301169161086a9190612511565b90506000610bc48284602001516125b190919063ffffffff16565b9050610bf67f0000000000000000000000000000000000000000000000000000000000000000846040015133846129a3565b610c2d7f00000000000000000000000000000000000000000000000000000000000000008460400151610c27611661565b856129a3565b60408084015190517f42842e0e00000000000000000000000000000000000000000000000000000000815273ffffffffffffffffffffffffffffffffffffffff7f000000000000000000000000000000000000000000000000000000000000000016916342842e0e91610ca69133918a90600401613440565b600060405180830381600087803b158015610cc057600080fd5b505af1158015610cd4573d6000803e3d6000fd5b50505050826040015173ffffffffffffffffffffffffffffffffffffffff163373ffffffffffffffffffffffffffffffffffffffff16867f2c907f0c6ace0ad59e44f69f6873314bb2b85cca7eeffb05ca93fa65326bfbb486602001518587604051610d4293929190613f4a565b60405180910390a4610d53856126d5565b610d61858460400151612736565b505060018055505050565b60005b610d7960076122f7565b811015610e33576000610d8d600783612302565b600081815260066020908152604091829020825160808101845281548152600182015492810192909252600281015473ffffffffffffffffffffffffffffffffffffffff16928201929092526003909101546060820152909150610df090612a4c565b610e2a57600e80546001810182556000919091527fbb7b4a454dc3493923482f07822329ed19e8244eff582cc204f8554c3620c3fd018190555b50600101610d6f565b5060005b600e54811015610e6957610e61600e8281548110610e5157fe5b90600052602060002001546126d5565b600101610e37565b50610e76600e60006131bf565b565b600080805b610e87600a6122f7565b811015610eb557610eab610ea4610e9f600a84612302565b612a85565b8390612b54565b9150600101610e7d565b50905090565b60055490565b6060610ed26000610311600a6122f7565b905090565b6060610ee3600a6122f7565b83108015610ef15750600082115b15610fb35781610f01600a6122f7565b8385011115610f195783610f15600a6122f7565b0390505b60608167ffffffffffffffff81118015610f3257600080fd5b50604051908082528060200260200182016040528015610f6c57816020015b610f59613181565b815260200190600190039081610f515790505b50905060005b82811015610fa957610f8a610203600a838901612302565b828281518110610f9657fe5b6020908102919091010152600101610f72565b509150610fb39050565b92915050565b610fc161242d565b73ffffffffffffffffffffffffffffffffffffffff16610fdf611661565b73ffffffffffffffffffffffffffffffffffffffff161461102c576040517f08c379a000000000000000000000000000000000000000000000000000000000815260040161074990613b97565b8060ff168260ff16111561106c576040517f08c379a000000000000000000000000000000000000000000000000000000000815260040161074990613d1a565b60008160ff168360ff166103e80261ffff168161108557fe5b0461ffff16905060198111156110c7576040517f08c379a0000000000000000000000000000000000000000000000000000000008152600401610749906139ec565b506003805460ff92831662010000027fffffffffffffffffffffffffffffffffffffffffffffffffffffffffff00ffff94909316610100027fffffffffffffffffffffffffffffffffffffffffffffffffffffffffffff00ff9091161792909216179055565b611135613181565b61113d613181565b50600083815260096020908152604080832073ffffffffffffffffffffffffffffffffffffffff80871685526002918201845293829020825160808101845281548152600182015494810194909452908101549093169082015260039091015460608201526111ab81612315565b156111b7579050610fb3565b5092915050565b6111c661242d565b73ffffffffffffffffffffffffffffffffffffffff166111e4611661565b73ffffffffffffffffffffffffffffffffffffffff1614611231576040517f08c379a000000000000000000000000000000000000000000000000000000000815260040161074990613b97565b6000805460405173ffffffffffffffffffffffffffffffffffffffff909116907f8be0079c531659141344cd1fd0a4f28419497f9722a3daafe3b4186f6b6457e0908390a3600080547fffffffffffffffffffffffff0000000000000000000000000000000000000000169055565b60028054604080516020601f7fffffffffffffffffffffffffffffffffffffffffffffffffffffffffffffffff61010060018716150201909416859004938401819004810282018101909252828152606093909290918301828280156113475780601f1061131c57610100808354040283529160200191611347565b820191906000526020600020905b81548152906001019060200180831161132a57829003601f168201915b5050505050905090565b606061135d60076122f7565b8310801561136b5750600082115b15610fb3578161137b60076122f7565b8385011115611393578361138f60076122f7565b0390505b60608167ffffffffffffffff811180156113ac57600080fd5b506040519080825280602002602001820160405280156113e657816020015b6113d3613181565b8152602001906001900390816113cb5790505b50905060005b82811015610fa9576113fc613181565b6006600061140d6007858b01612302565b81526020808201929092526040908101600020815160808101835281548152600182015493810193909352600281015473ffffffffffffffffffffffffffffffffffffffff1691830191909152600301546060820152905061146e81612a4c565b1561148c578083838151811061148057fe5b60200260200101819052505b506001016113ec565b60005b6114a2600a6122f7565b81101561150b5760006114b6600a83612302565b905060006114c382612a85565b9050801561150157600e80546001810182556000919091527fbb7b4a454dc3493923482f07822329ed19e8244eff582cc204f8554c3620c3fd018290555b5050600101611498565b5060005b600e54811015610e6957611539600e828154811061152957fe5b9060005260206000200154612b93565b60010161150f565b611549613181565b5060008181526009602090815260408083203380855260029182018452938290208251608081018452815481526001820154948101949094529081015473ffffffffffffffffffffffffffffffffffffffff169183018290526003015460608301529091146115e4576040517f08c379a000000000000000000000000000000000000000000000000000000000815260040161074990613c86565b806040015173ffffffffffffffffffffffffffffffffffffffff16827f4afa471ce7ab7fa67258e3afb1adf7e899e0495602eeb26d90d41e1b64dea5a683602001516040516116339190613f41565b60405180910390a36116458233612736565b5050565b60035460ff6101008204811691620100009004169091565b60005473ffffffffffffffffffffffffffffffffffffffff1690565b611685613181565b61168d613181565b50600082815260066020908152604091829020825160808101845281548152600182015492810192909252600281015473ffffffffffffffffffffffffffffffffffffffff169282019290925260039091015460608201526116ee81612a4c565b156116fa5790506106d1565b50919050565b7f000000000000000000000000000000000000000000000000000000000000000090565b61172c61242d565b73ffffffffffffffffffffffffffffffffffffffff1661174a611661565b73ffffffffffffffffffffffffffffffffffffffff1614611797576040517f08c379a000000000000000000000000000000000000000000000000000000000815260040161074990613b97565b600555565b600080805b6117ab60076122f7565b811015610eb55761181f600660006117c4600785612302565b81526020808201929092526040908101600020815160808101835281548152600182015493810193909352600281015473ffffffffffffffffffffffffffffffffffffffff1691830191909152600301546060820152612a4c565b6118315761182e826001612b54565b91505b6001016117a1565b7f000000000000000000000000000000000000000000000000000000000000000090565b61186561242d565b73ffffffffffffffffffffffffffffffffffffffff16611883611661565b73ffffffffffffffffffffffffffffffffffffffff16146118d0576040517f08c379a000000000000000000000000000000000000000000000000000000000815260040161074990613b97565b600380547fffffffffffffffffffffffffffffffffffffffffffffffffffffffffffffff0016911515919091179055565b60035460ff1661193d576040517f08c379a000000000000000000000000000000000000000000000000000000000815260040161074990613708565b600454819061194c82426125b1565b1015611984576040517f08c379a000000000000000000000000000000000000000000000000000000000815260040161074990613ed6565b60055461199182426125b1565b11156119c9576040517f08c379a0000000000000000000000000000000000000000000000000000000008152600401610749906138fb565b60008311611a03576040517f08c379a000000000000000000000000000000000000000000000000000000000815260040161074990613a49565b611a0d8433612431565b611a43576040517f08c379a000000000000000000000000000000000000000000000000000000000815260040161074990613e42565b611a4c846127f8565b80611a5b5750611a5b336128dc565b611a91576040517f08c379a000000000000000000000000000000000000000000000000000000000815260040161074990613bcc565b604080516080810182528581526020808201868152338385019081526060840187815260008a815260069094529490922092518355516001830155516002820180547fffffffffffffffffffffffff00000000000000000000000000000000000000001673ffffffffffffffffffffffffffffffffffffffff9092169190911790559051600390910155611b26600785612d26565b503373ffffffffffffffffffffffffffffffffffffffff16847f7765a1c07bdce3390c521eaeb86030b188b77cbaba2d76bd7c9c32d906bfbcba85604051611b6e9190613f41565b60405180910390a350505050565b60008181526006602052604090206002015473ffffffffffffffffffffffffffffffffffffffff163314611bdc576040517f08c379a000000000000000000000000000000000000000000000000000000000815260040161074990613de5565b60008181526006602052604080822060020154905173ffffffffffffffffffffffffffffffffffffffff9091169183917f70a382c18b6e794d86997f6e1f1efca577925cfa85c476a6ff7031f0a3dd6ed09190a3611c39816126d5565b50565b6060610ed260006103a860076122f7565b60035460ff16611c89576040517f08c379a000000000000000000000000000000000000000000000000000000000815260040161074990613708565b6004548190611c9882426125b1565b1015611cd0576040517f08c379a000000000000000000000000000000000000000000000000000000000815260040161074990613ed6565b600554611cdd82426125b1565b1115611d15576040517f08c379a0000000000000000000000000000000000000000000000000000000008152600401610749906138fb565b60008311611d4f576040517f08c379a00000000000000000000000000000000000000000000000000000000081526004016107499061373f565b611d598433612431565b15611d90576040517f08c379a00000000000000000000000000000000000000000000000000000000081526004016107499061398f565b6040517fdd62ed3e000000000000000000000000000000000000000000000000000000008152839073ffffffffffffffffffffffffffffffffffffffff7f0000000000000000000000000000000000000000000000000000000000000000169063dd62ed3e90611e069033903090600401613419565b60206040518083038186803b158015611e1e57600080fd5b505afa158015611e32573d6000803e3d6000fd5b505050506040513d601f19601f82011682018060405250810190611e5691906132d6565b1015611e8e576040517f08c379a000000000000000000000000000000000000000000000000000000000815260040161074990613aa6565b611e96613181565b506040805160808101825285815260208101859052339181019190915260608101839052611ec5600a86612d32565b611f7d57611ed4600a86612d26565b5060408051600c805460806020828102850182018652606085018381529495869591860194938593918701928592849284918a0182828015611f3557602002820191906000526020600020905b815481526020019060010190808311611f21575b505050919092525050509052509052600086815260096020908152604090912082518051805180519394929385938492611f7592849291909101906131dd565b505050505050505b6000858152600960205260409020611f959033612d3e565b506000858152600960209081526040808320338085526002918201845293829020855181559285015160018401558482015190830180547fffffffffffffffffffffffff00000000000000000000000000000000000000001673ffffffffffffffffffffffffffffffffffffffff90921691909117905560608401516003909201919091555186907f0ea16c10401e9d7c547471845914c4a904af6a01b9fa1e195eeecae9f78bcca19061204a908890613f41565b60405180910390a35050505050565b60008181526009602052604090206060908190612075906122f7565b67ffffffffffffffff8111801561208b57600080fd5b506040519080825280602002602001820160405280156120c557816020015b6120b2613181565b8152602001906001900390816120aa5790505b50905060005b60008481526009602052604090206120e2906122f7565b8110156106cd5760008481526009602052604081206121019083612302565b905061210b613181565b50600085815260096020908152604080832073ffffffffffffffffffffffffffffffffffffffff808616855260029182018452938290208251608081018452815481526001820154948101949094529081015490931690820152600390910154606082015261217981612315565b15612197578084848151811061218b57fe5b60200260200101819052505b50506001016120cb565b60035460ff1690565b6121b261242d565b73ffffffffffffffffffffffffffffffffffffffff166121d0611661565b73ffffffffffffffffffffffffffffffffffffffff161461221d576040517f08c379a000000000000000000000000000000000000000000000000000000000815260040161074990613b97565b73ffffffffffffffffffffffffffffffffffffffff811661226a576040517f08c379a000000000000000000000000000000000000000000000000000000000815260040161074990613617565b6000805460405173ffffffffffffffffffffffffffffffffffffffff808516939216917f8be0079c531659141344cd1fd0a4f28419497f9722a3daafe3b4186f6b6457e091a3600080547fffffffffffffffffffffffff00000000000000000000000000000000000000001673ffffffffffffffffffffffffffffffffffffffff92909216919091179055565b6000610fb382612d60565b600061230e8383612d64565b9392505050565b600061232982600001518360400151612431565b1580156124015750602082015160408084015190517fdd62ed3e00000000000000000000000000000000000000000000000000000000815273ffffffffffffffffffffffffffffffffffffffff7f0000000000000000000000000000000000000000000000000000000000000000169163dd62ed3e916123ae91903090600401613419565b60206040518083038186803b1580156123c657600080fd5b505afa1580156123da573d6000803e3d6000fd5b505050506040513d601f19601f820116820180604052508101906123fe91906132d6565b10155b8015612411575060008260200151115b80156124205750428260600151115b156106d1575060016106d1565b3390565b60008173ffffffffffffffffffffffffffffffffffffffff167f000000000000000000000000000000000000000000000000000000000000000073ffffffffffffffffffffffffffffffffffffffff16636352211e856040518263ffffffff1660e01b81526004016124a39190613f41565b60206040518083038186803b1580156124bb57600080fd5b505afa1580156124cf573d6000803e3d6000fd5b505050506040513d601f19601f820116820180604052508101906124f3919061326a565b73ffffffffffffffffffffffffffffffffffffffff16149392505050565b60008261252057506000610fb3565b8282028284828161252d57fe5b041461230e576040517f08c379a000000000000000000000000000000000000000000000000000000000815260040161074990613b03565b60008082116125a0576040517f08c379a000000000000000000000000000000000000000000000000000000000815260040161074990613958565b8183816125a957fe5b049392505050565b6000828211156125ed576040517f08c379a000000000000000000000000000000000000000000000000000000000815260040161074990613776565b50900390565b8047101561262d576040517f08c379a000000000000000000000000000000000000000000000000000000000815260040161074990613867565b60008273ffffffffffffffffffffffffffffffffffffffff1682604051612653906133f5565b60006040518083038185875af1925050503d8060008114612690576040519150601f19603f3d011682016040523d82523d6000602084013e612695565b606091505b50509050806126d0576040517f08c379a0000000000000000000000000000000000000000000000000000000008152600401610749906137ad565b505050565b6126e0600782612d32565b15611c39576000818152600660205260408120818155600181018290556002810180547fffffffffffffffffffffffff000000000000000000000000000000000000000016905560030155611645600782612dc3565b600082815260096020526040902061274e9082612dcf565b1561164557600082815260096020818152604080842073ffffffffffffffffffffffffffffffffffffffff86168552600280820184529185208581556001810186905591820180547fffffffffffffffffffffffff0000000000000000000000000000000000000000169055600390910184905592859052526127d19082612df1565b5060008281526009602052604090206127e9906122f7565b611645576126d0600a83612dc3565b6040517f081812fc00000000000000000000000000000000000000000000000000000000815260009030907f000000000000000000000000000000000000000000000000000000000000000073ffffffffffffffffffffffffffffffffffffffff169063081812fc9061286f908690600401613f41565b60206040518083038186803b15801561288757600080fd5b505afa15801561289b573d6000803e3d6000fd5b505050506040513d601f19601f820116820180604052508101906128bf919061326a565b73ffffffffffffffffffffffffffffffffffffffff161492915050565b6040517fe985e9c500000000000000000000000000000000000000000000000000000000815260009073ffffffffffffffffffffffffffffffffffffffff7f0000000000000000000000000000000000000000000000000000000000000000169063e985e9c5906129539085903090600401613419565b60206040518083038186803b15801561296b57600080fd5b505afa15801561297f573d6000803e3d6000fd5b505050506040513d601f19601f82011682018060405250810190610fb391906132a2565b612a46846323b872dd60e01b8585856040516024016129c493929190613440565b604080517fffffffffffffffffffffffffffffffffffffffffffffffffffffffffffffffe08184030181529190526020810180517bffffffffffffffffffffffffffffffffffffffffffffffffffffffff167fffffffff0000000000000000000000000000000000000000000000000000000090931692909217909152612e13565b50505050565b6000612a6082600001518360400151612431565b801561240157508151612a72906127f8565b80612401575061240182604001516128dc565b600080805b6000848152600960205260409020612aa1906122f7565b8110156106cd576000848152600960205260408120612ac09083612302565b9050612aca613181565b50600085815260096020908152604080832073ffffffffffffffffffffffffffffffffffffffff8086168552600291820184529382902082516080810184528154815260018201549481019490945290810154909316908201526003909101546060820152612b3881612315565b612b4a57612b47846001612b54565b93505b5050600101612a8a565b60008282018381101561230e576040517f08c379a0000000000000000000000000000000000000000000000000000000008152600401610749906136d1565b60005b6000828152600960205260409020612bad906122f7565b811015612cc5576000828152600960205260408120612bcc9083612302565b9050612bd6613181565b50600083815260096020908152604080832073ffffffffffffffffffffffffffffffffffffffff8086168552600291820184529382902082516080810184528154815260018201549481019490945290810154909316908201526003909101546060820152612c4481612315565b612cbb576000848152600960205260409020600f90612c639085612302565b81546001810183556000928352602090922090910180547fffffffffffffffffffffffff00000000000000000000000000000000000000001673ffffffffffffffffffffffffffffffffffffffff9092169190911790555b5050600101612b96565b5060005b600f54811015612d19576000600f8281548110612ce257fe5b60009182526020909120015473ffffffffffffffffffffffffffffffffffffffff169050612d108382612736565b50600101612cc9565b50611c39600f60006131bf565b600061230e8383612ec9565b600061230e8383612f13565b600061230e8373ffffffffffffffffffffffffffffffffffffffff8416612ec9565b5490565b81546000908210612da1576040517f08c379a0000000000000000000000000000000000000000000000000000000008152600401610749906135ba565b826000018281548110612db057fe5b9060005260206000200154905092915050565b600061230e8383612f2b565b600061230e8373ffffffffffffffffffffffffffffffffffffffff8416612f13565b600061230e8373ffffffffffffffffffffffffffffffffffffffff8416612f2b565b6060612e75826040518060400160405280602081526020017f5361666545524332303a206c6f772d6c6576656c2063616c6c206661696c65648152508573ffffffffffffffffffffffffffffffffffffffff1661300f9092919063ffffffff16565b8051909150156126d05780806020019051810190612e9391906132a2565b6126d0576040517f08c379a000000000000000000000000000000000000000000000000000000000815260040161074990613d51565b6000612ed58383612f13565b612f0b57508154600181810184556000848152602080822090930184905584548482528286019093526040902091909155610fb3565b506000610fb3565b60009081526001919091016020526040902054151590565b600081815260018301602052604081205480156130055783547fffffffffffffffffffffffffffffffffffffffffffffffffffffffffffffffff8083019190810190600090879083908110612f7c57fe5b9060005260206000200154905080876000018481548110612f9957fe5b600091825260208083209091019290925582815260018981019092526040902090840190558654879080612fc957fe5b60019003818190600052602060002001600090559055866001016000878152602001908152602001600020600090556001945050505050610fb3565b6000915050610fb3565b606061301e8484600085613026565b949350505050565b606082471015613062576040517f08c379a00000000000000000000000000000000000000000000000000000000081526004016107499061389e565b61306b85613128565b6130a1576040517f08c379a000000000000000000000000000000000000000000000000000000000815260040161074990613ce3565b600060608673ffffffffffffffffffffffffffffffffffffffff1685876040516130cb91906133d9565b60006040518083038185875af1925050503d8060008114613108576040519150601f19603f3d011682016040523d82523d6000602084013e61310d565b606091505b509150915061311d82828661312e565b979650505050505050565b3b151590565b6060831561313d57508161230e565b82511561314d5782518084602001fd5b816040517f08c379a0000000000000000000000000000000000000000000000000000000008152600401610749919061350c565b60405180608001604052806000815260200160008152602001600073ffffffffffffffffffffffffffffffffffffffff168152602001600081525090565b5080546000825590600052602060002090810190611c399190613228565b828054828255906000526020600020908101928215613218579160200282015b828111156132185782518255916020019190600101906131fd565b50613224929150613228565b5090565b5b808211156132245760008155600101613229565b803560ff81168114610fb357600080fd5b60006020828403121561325f578081fd5b813561230e81613fa0565b60006020828403121561327b578081fd5b815161230e81613fa0565b600060208284031215613297578081fd5b813561230e81613fc2565b6000602082840312156132b3578081fd5b815161230e81613fc2565b6000602082840312156132cf578081fd5b5035919050565b6000602082840312156132e7578081fd5b5051919050565b60008060408385031215613300578081fd5b82359150602083013561331281613fa0565b809150509250929050565b6000806040838503121561332f578182fd5b50508035926020909101359150565b600080600060608486031215613352578081fd5b505081359360208301359350604090920135919050565b6000806040838503121561337b578182fd5b613385848461323d565b9150613394846020850161323d565b90509250929050565b805182526020810151602083015273ffffffffffffffffffffffffffffffffffffffff6040820151166040830152606081015160608301525050565b600082516133eb818460208701613f74565b9190910192915050565b90565b73ffffffffffffffffffffffffffffffffffffffff91909116815260200190565b73ffffffffffffffffffffffffffffffffffffffff92831681529116602082015260400190565b73ffffffffffffffffffffffffffffffffffffffff9384168152919092166020820152604081019190915260600190565b6020808252825182820181905260009190848201906040850190845b818110156134b3576134a083855161339d565b928401926080929092019160010161348d565b50909695505050505050565b6020808252825182820181905260009190848201906040850190845b818110156134b3576134ee83855161339d565b92840192608092909201916001016134db565b901515815260200190565b600060208252825180602084015261352b816040850160208701613f74565b601f017fffffffffffffffffffffffffffffffffffffffffffffffffffffffffffffffe0169190910160400192915050565b60208082526035908201527f54686520746f6b656e206973206e6f7420617070726f76656420746f2074726160408201527f6e736665722062792074686520636f6e74726163740000000000000000000000606082015260800190565b60208082526022908201527f456e756d657261626c655365743a20696e646578206f7574206f6620626f756e60408201527f6473000000000000000000000000000000000000000000000000000000000000606082015260800190565b60208082526026908201527f4f776e61626c653a206e6577206f776e657220697320746865207a65726f206160408201527f6464726573730000000000000000000000000000000000000000000000000000606082015260800190565b60208082526025908201527f546f6b656e206f776e65722063616e277420627579207468656972206f776e2060408201527f746f6b656e000000000000000000000000000000000000000000000000000000606082015260800190565b6020808252601b908201527f536166654d6174683a206164646974696f6e206f766572666c6f770000000000604082015260600190565b6020808252601f908201527f4c697374696e6720616e642062696420617265206e6f7420656e61626c656400604082015260600190565b6020808252601a908201527f506c656173652062696420666f72206d6f7265207468616e2030000000000000604082015260600190565b6020808252601e908201527f536166654d6174683a207375627472616374696f6e206f766572666c6f770000604082015260600190565b6020808252603a908201527f416464726573733a20756e61626c6520746f2073656e642076616c75652c207260408201527f6563697069656e74206d61792068617665207265766572746564000000000000606082015260800190565b6020808252602c908201527f5468652076616c75652073656e642069732062656c6f772073616c652070726960408201527f636520706c757320666565730000000000000000000000000000000000000000606082015260800190565b6020808252601d908201527f416464726573733a20696e73756666696369656e742062616c616e6365000000604082015260600190565b60208082526026908201527f416464726573733a20696e73756666696369656e742062616c616e636520666f60408201527f722063616c6c0000000000000000000000000000000000000000000000000000606082015260800190565b60208082526025908201527f506c6561736520656e74657220612073686f7274657220706572696f64206f6660408201527f2074696d65000000000000000000000000000000000000000000000000000000606082015260800190565b6020808252601a908201527f536166654d6174683a206469766973696f6e206279207a65726f000000000000604082015260600190565b60208082526022908201527f5468697320546f6b656e2062656c6f6e677320746f207468697320616464726560408201527f7373000000000000000000000000000000000000000000000000000000000000606082015260800190565b6020808252602b908201527f417474656d707420746f207365742070657263656e746167652068696768657260408201527f207468616e20322e35252e000000000000000000000000000000000000000000606082015260800190565b60208082526038908201527f506c65617365206c69737420666f72206d6f7265207468616e2030206f72207560408201527f736520746865207472616e736665722066756e6374696f6e0000000000000000606082015260800190565b60208082526036908201527f4e65656420746f206861766520656e6f75676820746f6b656e20686f6c64696e60408201527f6720746f20626964206f6e207468697320746f6b656e00000000000000000000606082015260800190565b60208082526021908201527f536166654d6174683a206d756c7469706c69636174696f6e206f766572666c6f60408201527f7700000000000000000000000000000000000000000000000000000000000000606082015260800190565b60208082526015908201527f546f6b656e206973206e6f7420666f722073616c650000000000000000000000604082015260600190565b6020808252818101527f4f776e61626c653a2063616c6c6572206973206e6f7420746865206f776e6572604082015260600190565b60208082526036908201527f5468697320746f6b656e206973206e6f7420616c6c6f77656420746f2074726160408201527f6e73666572206279207468697320636f6e747261637400000000000000000000606082015260800190565b60208082526026908201527f5468697320746f6b656e20646f65736e277420686176652061206d617463686960408201527f6e67206269640000000000000000000000000000000000000000000000000000606082015260800190565b6020808252602b908201527f54686973206164647265737320646f65736e2774206861766520626964206f6e60408201527f207468697320746f6b656e000000000000000000000000000000000000000000606082015260800190565b6020808252601d908201527f416464726573733a2063616c6c20746f206e6f6e2d636f6e7472616374000000604082015260600190565b6020808252601b908201527f466565206672616374696f6e20657863656564656420626173652e0000000000604082015260600190565b6020808252602a908201527f5361666545524332303a204552433230206f7065726174696f6e20646964206e60408201527f6f74207375636365656400000000000000000000000000000000000000000000606082015260800190565b6020808252601f908201527f5265656e7472616e637947756172643a207265656e7472616e742063616c6c00604082015260600190565b60208082526022908201527f4f6e6c7920746f6b656e2073656c6c65722063616e2064656c69737420746f6b60408201527f656e000000000000000000000000000000000000000000000000000000000000606082015260800190565b6020808252601f908201527f4f6e6c7920746f6b656e206f776e65722063616e206c69737420746f6b656e00604082015260600190565b60208082526028908201527f4f6e6c7920746f6b656e206f776e65722063616e20616363657074206269642060408201527f6f6620746f6b656e000000000000000000000000000000000000000000000000606082015260800190565b60208082526024908201527f506c6561736520656e7465722061206c6f6e67657220706572696f64206f662060408201527f74696d6500000000000000000000000000000000000000000000000000000000606082015260800190565b60808101610fb3828461339d565b90815260200190565b9283526020830191909152604082015260600190565b60ff92831681529116602082015260400190565b60005b83811015613f8f578181015183820152602001613f77565b83811115612a465750506000910152565b73ffffffffffffffffffffffffffffffffffffffff81168114611c3957600080fd5b8015158114611c3957600080fdfea264697066735822122098f98e6653e374f262293702c7cf614cf80b60c8608e44ab7e25cdbe5d412b3d64736f6c634300060c0033",
  "immutableReferences": {
    "67": [
      {
        "length": 32,
        "start": 2447
      },
      {
        "length": 32,
        "start": 3183
      },
      {
        "length": 32,
        "start": 5890
      },
      {
        "length": 32,
        "start": 9292
      },
      {
        "length": 32,
        "start": 10277
      },
      {
        "length": 32,
        "start": 10524
      }
    ],
    "69": [
      {
        "length": 32,
        "start": 3019
      },
      {
        "length": 32,
        "start": 3067
      },
      {
        "length": 32,
        "start": 6203
      },
      {
        "length": 32,
        "start": 7631
      },
      {
        "length": 32,
        "start": 9080
      }
    ]
  },
  "source": "// SPDX-License-Identifier: AGPL-3.0-or-later\n\npragma solidity =0.6.12;\npragma experimental ABIEncoderV2;\n\nimport \"@openzeppelin/contracts/access/Ownable.sol\";\nimport \"@openzeppelin/contracts/math/SafeMath.sol\";\nimport \"@openzeppelin/contracts/utils/Address.sol\";\nimport \"@openzeppelin/contracts/utils/EnumerableSet.sol\";\nimport \"@openzeppelin/contracts/utils/ReentrancyGuard.sol\";\nimport \"@openzeppelin/contracts/token/ERC721/IERC721.sol\";\nimport \"@openzeppelin/contracts/token/ERC20/SafeERC20.sol\";\nimport \"@openzeppelin/contracts/token/ERC20/IERC20.sol\";\nimport \"./interface/INFTKEYMarketPlaceV1.sol\";\n\n/**\n * @title NFTKEY MarketPlace contract V1\n * Note: This marketplace contract is collection based. It serves one ERC721 contract only\n * Payment tokens usually is the chain native coin's wrapped token, e.g. WETH, WBNB\n */\ncontract NFTKEYMarketPlaceV1 is INFTKEYMarketPlaceV1, Ownable, ReentrancyGuard {\n    using SafeMath for uint256;\n    using Address for address;\n    using EnumerableSet for EnumerableSet.UintSet;\n    using EnumerableSet for EnumerableSet.AddressSet;\n\n    struct TokenBid {\n        EnumerableSet.AddressSet bidders;\n        mapping(address => Bid) bids;\n    }\n\n    constructor(\n        string memory erc721Name_,\n        address _erc721Address,\n        address _paymentTokenAddress\n    ) public {\n        _erc721Name = erc721Name_;\n        _erc721 = IERC721(_erc721Address);\n        _paymentToken = IERC20(_paymentTokenAddress);\n    }\n\n    string private _erc721Name;\n    IERC721 private immutable _erc721;\n    IERC20 private immutable _paymentToken;\n\n    bool private _isListingAndBidEnabled = true;\n    uint8 private _feeFraction = 1;\n    uint8 private _feeBase = 100;\n    uint256 private _actionTimeOutRangeMin = 86400; // 24 hours\n    uint256 private _actionTimeOutRangeMax = 31536000; // One year - This can extend by owner is contract is working smoothly\n\n    mapping(uint256 => Listing) private _tokenListings;\n    EnumerableSet.UintSet private _tokenIdWithListing;\n\n    mapping(uint256 => TokenBid) private _tokenBids;\n    EnumerableSet.UintSet private _tokenIdWithBid;\n\n    EnumerableSet.AddressSet private _emptyBidders; // Help initiate TokenBid struct\n    uint256[] private _tempTokenIdStorage; // Storage to assist cleaning\n    address[] private _tempBidderStorage; // Storage to assist cleaning bids\n\n    /**\n     * @dev only if listing and bid is enabled\n     * This is to help contract migration in case of upgrade or bug\n     */\n    modifier onlyMarketplaceOpen() {\n        require(_isListingAndBidEnabled, \"Listing and bid are not enabled\");\n        _;\n    }\n\n    /**\n     * @dev only if the entered timestamp is within the allowed range\n     * This helps to not list or bid for too short or too long period of time\n     */\n    modifier onlyAllowedExpireTimestamp(uint256 expireTimestamp) {\n        require(\n            expireTimestamp.sub(block.timestamp) >= _actionTimeOutRangeMin,\n            \"Please enter a longer period of time\"\n        );\n        require(\n            expireTimestamp.sub(block.timestamp) <= _actionTimeOutRangeMax,\n            \"Please enter a shorter period of time\"\n        );\n        _;\n    }\n\n    /**\n     * @dev check if the account is the owner of this erc721 token\n     */\n    function _isTokenOwner(uint256 tokenId, address account) private view returns (bool) {\n        return _erc721.ownerOf(tokenId) == account;\n    }\n\n    /**\n     * @dev check if this contract has approved to transfer this erc721 token\n     */\n    function _isTokenApproved(uint256 tokenId) private view returns (bool) {\n        return _erc721.getApproved(tokenId) == address(this);\n    }\n\n    /**\n     * @dev check if this contract has approved to all of this owner's erc721 tokens\n     */\n    function _isAllTokenApproved(address owner) private view returns (bool) {\n        return _erc721.isApprovedForAll(owner, address(this));\n    }\n\n    /**\n     * @dev See {INFTKEYMarketPlaceV1-tokenAddress}.\n     */\n    function tokenAddress() external view override returns (address) {\n        return address(_erc721);\n    }\n\n    /**\n     * @dev See {INFTKEYMarketPlaceV1-paymentTokenAddress}.\n     */\n    function paymentTokenAddress() external view override returns (address) {\n        return address(_paymentToken);\n    }\n\n    /**\n     * @dev Check if a listing is valid or not\n     * The seller must be the owner\n     * The seller must have give this contract allowance\n     * The sell price must be more than 0\n     * The listing mustn't be expired\n     */\n    function _isListingValid(Listing memory listing) private view returns (bool) {\n        if (\n            _isTokenOwner(listing.tokenId, listing.seller) &&\n            (_isTokenApproved(listing.tokenId) || _isAllTokenApproved(listing.seller)) &&\n            listing.listingPrice > 0 &&\n            listing.expireTimestamp > block.timestamp\n        ) {\n            return true;\n        }\n    }\n\n    /**\n     * @dev See {INFTKEYMarketPlaceV1-getTokenListing}.\n     */\n    function getTokenListing(uint256 tokenId) public view override returns (Listing memory) {\n        Listing memory listing = _tokenListings[tokenId];\n        if (_isListingValid(listing)) {\n            return listing;\n        }\n    }\n\n    /**\n     * @dev See {INFTKEYMarketPlaceV1-getTokenListings}.\n     */\n    function getTokenListings(uint256 from, uint256 size)\n        public\n        view\n        override\n        returns (Listing[] memory)\n    {\n        if (from < _tokenIdWithListing.length() && size > 0) {\n            uint256 querySize = size;\n            if ((from + size) > _tokenIdWithListing.length()) {\n                querySize = _tokenIdWithListing.length() - from;\n            }\n            Listing[] memory listings = new Listing[](querySize);\n            for (uint256 i = 0; i < querySize; i++) {\n                Listing memory listing = _tokenListings[_tokenIdWithListing.at(i + from)];\n                if (_isListingValid(listing)) {\n                    listings[i] = listing;\n                }\n            }\n            return listings;\n        }\n    }\n\n    /**\n     * @dev See {INFTKEYMarketPlaceV1-getAllTokenListings}.\n     */\n    function getAllTokenListings() external view override returns (Listing[] memory) {\n        return getTokenListings(0, _tokenIdWithListing.length());\n    }\n\n    /**\n     * @dev Check if an bid is valid or not\n     * Bidder must not be the owner\n     * Bidder must give the contract allowance same or more than bid price\n     * Bid price must > 0\n     * Bid mustn't been expired\n     */\n    function _isBidValid(Bid memory bid) private view returns (bool) {\n        if (\n            !_isTokenOwner(bid.tokenId, bid.bidder) &&\n            _paymentToken.allowance(bid.bidder, address(this)) >= bid.bidPrice &&\n            bid.bidPrice > 0 &&\n            bid.expireTimestamp > block.timestamp\n        ) {\n            return true;\n        }\n    }\n\n    /**\n     * @dev See {INFTKEYMarketPlaceV1-getBidderTokenBid}.\n     */\n    function getBidderTokenBid(uint256 tokenId, address bidder)\n        public\n        view\n        override\n        returns (Bid memory)\n    {\n        Bid memory bid = _tokenBids[tokenId].bids[bidder];\n        if (_isBidValid(bid)) {\n            return bid;\n        }\n    }\n\n    /**\n     * @dev See {INFTKEYMarketPlaceV1-getTokenBids}.\n     */\n    function getTokenBids(uint256 tokenId) external view override returns (Bid[] memory) {\n        Bid[] memory bids = new Bid[](_tokenBids[tokenId].bidders.length());\n        for (uint256 i; i < _tokenBids[tokenId].bidders.length(); i++) {\n            address bidder = _tokenBids[tokenId].bidders.at(i);\n            Bid memory bid = _tokenBids[tokenId].bids[bidder];\n            if (_isBidValid(bid)) {\n                bids[i] = bid;\n            }\n        }\n        return bids;\n    }\n\n    /**\n     * @dev See {INFTKEYMarketPlaceV1-getTokenHighestBid}.\n     */\n    function getTokenHighestBid(uint256 tokenId) public view override returns (Bid memory) {\n        Bid memory highestBid = Bid(tokenId, 0, address(0), 0);\n        for (uint256 i; i < _tokenBids[tokenId].bidders.length(); i++) {\n            address bidder = _tokenBids[tokenId].bidders.at(i);\n            Bid memory bid = _tokenBids[tokenId].bids[bidder];\n            if (_isBidValid(bid) && bid.bidPrice > highestBid.bidPrice) {\n                highestBid = bid;\n            }\n        }\n        return highestBid;\n    }\n\n    /**\n     * @dev See {INFTKEYMarketPlaceV1-getTokenHighestBids}.\n     */\n    function getTokenHighestBids(uint256 from, uint256 size)\n        public\n        view\n        override\n        returns (Bid[] memory)\n    {\n        if (from < _tokenIdWithBid.length() && size > 0) {\n            uint256 querySize = size;\n            if ((from + size) > _tokenIdWithBid.length()) {\n                querySize = _tokenIdWithBid.length() - from;\n            }\n            Bid[] memory highestBids = new Bid[](querySize);\n            for (uint256 i = 0; i < querySize; i++) {\n                highestBids[i] = getTokenHighestBid(_tokenIdWithBid.at(i + from));\n            }\n            return highestBids;\n        }\n    }\n\n    /**\n     * @dev See {INFTKEYMarketPlaceV1-getAllTokenHighestBids}.\n     */\n    function getAllTokenHighestBids() external view override returns (Bid[] memory) {\n        return getTokenHighestBids(0, _tokenIdWithBid.length());\n    }\n\n    /**\n     * @dev delist a token - remove token id record and remove listing from mapping\n     * @param tokenId erc721 token Id\n     */\n    function _delistToken(uint256 tokenId) private {\n        if (_tokenIdWithListing.contains(tokenId)) {\n            delete _tokenListings[tokenId];\n            _tokenIdWithListing.remove(tokenId);\n        }\n    }\n\n    /**\n     * @dev remove a bid of a bidder\n     * @param tokenId erc721 token Id\n     * @param bidder bidder address\n     */\n    function _removeBidOfBidder(uint256 tokenId, address bidder) private {\n        if (_tokenBids[tokenId].bidders.contains(bidder)) {\n            // Step 1: delete the bid and the address\n            delete _tokenBids[tokenId].bids[bidder];\n            _tokenBids[tokenId].bidders.remove(bidder);\n\n            // Step 2: if no bid left\n            if (_tokenBids[tokenId].bidders.length() == 0) {\n                _tokenIdWithBid.remove(tokenId);\n            }\n        }\n    }\n\n    /**\n     * @dev See {INFTKEYMarketPlaceV1-listToken}.\n     * People can only list if listing is allowed\n     * The timestamp set needs to be in the allowed range\n     * Only token owner can list token\n     * Price must be higher than 0\n     * This contract must be approved to transfer this token\n     */\n    function listToken(\n        uint256 tokenId,\n        uint256 value,\n        uint256 expireTimestamp\n    ) external override onlyMarketplaceOpen onlyAllowedExpireTimestamp(expireTimestamp) {\n        require(value > 0, \"Please list for more than 0 or use the transfer function\");\n        require(_isTokenOwner(tokenId, msg.sender), \"Only token owner can list token\");\n        require(\n            _isTokenApproved(tokenId) || _isAllTokenApproved(msg.sender),\n            \"This token is not allowed to transfer by this contract\"\n        );\n\n        _tokenListings[tokenId] = Listing(tokenId, value, msg.sender, expireTimestamp);\n        _tokenIdWithListing.add(tokenId);\n\n        emit TokenListed(tokenId, msg.sender, value);\n    }\n\n    /**\n     * @dev See {INFTKEYMarketPlaceV1-delistToken}.\n     * msg.sender must be the seller of the listing record\n     */\n    function delistToken(uint256 tokenId) external override {\n        require(_tokenListings[tokenId].seller == msg.sender, \"Only token seller can delist token\");\n        emit TokenDelisted(tokenId, _tokenListings[tokenId].seller);\n        _delistToken(tokenId);\n    }\n\n    /**\n     * @dev See {INFTKEYMarketPlaceV1-buyToken}.\n     * Must have a valid listing\n     * msg.sender must not the owner of token\n     * msg.value must be at least sell price plus fees\n     */\n    function buyToken(uint256 tokenId) external payable override nonReentrant {\n        Listing memory listing = getTokenListing(tokenId); // Get valid listing\n        require(listing.seller != address(0), \"Token is not for sale\"); // Listing not valid\n        require(!_isTokenOwner(tokenId, msg.sender), \"Token owner can't buy their own token\");\n\n        uint256 fees = listing.listingPrice.mul(_feeFraction).div(_feeBase);\n        require(\n            msg.value >= listing.listingPrice + fees,\n            \"The value send is below sale price plus fees\"\n        );\n\n        // Send value to token seller and fees to contract owner\n        uint256 valueWithoutFees = msg.value.sub(fees);\n        Address.sendValue(payable(listing.seller), valueWithoutFees);\n        Address.sendValue(payable(owner()), fees);\n\n        // Send token to buyer\n        emit TokenBought(tokenId, listing.seller, msg.sender, msg.value, valueWithoutFees, fees);\n        _erc721.safeTransferFrom(listing.seller, msg.sender, tokenId);\n\n        // Remove token listing\n        _delistToken(tokenId);\n        _removeBidOfBidder(tokenId, msg.sender);\n    }\n\n    /**\n     * @dev See {INFTKEYMarketPlaceV1-enterBidForToken}.\n     * People can only enter bid if bid is allowed\n     * The timestamp set needs to be in the allowed range\n     * bid price > 0\n     * must not be token owner\n     * must allow this contract to spend enough payment token\n     */\n    function enterBidForToken(\n        uint256 tokenId,\n        uint256 bidPrice,\n        uint256 expireTimestamp\n    ) external override onlyMarketplaceOpen onlyAllowedExpireTimestamp(expireTimestamp) {\n        require(bidPrice > 0, \"Please bid for more than 0\");\n        require(!_isTokenOwner(tokenId, msg.sender), \"This Token belongs to this address\");\n        require(\n            _paymentToken.allowance(msg.sender, address(this)) >= bidPrice,\n            \"Need to have enough token holding to bid on this token\"\n        );\n\n        Bid memory bid = Bid(tokenId, bidPrice, msg.sender, expireTimestamp);\n\n        // if no bids of this token add a entry to both records _tokenIdWithBid and _tokenBids\n        if (!_tokenIdWithBid.contains(tokenId)) {\n            _tokenIdWithBid.add(tokenId);\n            _tokenBids[tokenId] = TokenBid(_emptyBidders);\n        }\n\n        _tokenBids[tokenId].bidders.add(msg.sender);\n        _tokenBids[tokenId].bids[msg.sender] = bid;\n\n        emit TokenBidEntered(tokenId, msg.sender, bidPrice);\n    }\n\n    /**\n     * @dev See {INFTKEYMarketPlaceV1-withdrawBidForToken}.\n     * There must be a bid exists\n     * remove this bid record\n     */\n    function withdrawBidForToken(uint256 tokenId) external override {\n        Bid memory bid = _tokenBids[tokenId].bids[msg.sender];\n        require(bid.bidder == msg.sender, \"This address doesn't have bid on this token\");\n\n        emit TokenBidWithdrawn(tokenId, bid.bidder, bid.bidPrice);\n        _removeBidOfBidder(tokenId, msg.sender);\n    }\n\n    /**\n     * @dev See {INFTKEYMarketPlaceV1-acceptBidForToken}.\n     * Must be owner of this token\n     * Must have approved this contract to transfer token\n     * Must have a valid existing bid that matches the bidder address\n     */\n    function acceptBidForToken(uint256 tokenId, address bidder) external override nonReentrant {\n        require(_isTokenOwner(tokenId, msg.sender), \"Only token owner can accept bid of token\");\n        require(\n            _isTokenApproved(tokenId) || _isAllTokenApproved(msg.sender),\n            \"The token is not approved to transfer by the contract\"\n        );\n\n        Bid memory existingBid = getBidderTokenBid(tokenId, bidder);\n        require(\n            existingBid.bidPrice > 0 && existingBid.bidder == bidder,\n            \"This token doesn't have a matching bid\"\n        );\n\n        uint256 fees = existingBid.bidPrice.mul(_feeFraction).div(_feeBase + _feeFraction);\n        uint256 tokenValue = existingBid.bidPrice.sub(fees);\n\n        SafeERC20.safeTransferFrom(_paymentToken, existingBid.bidder, msg.sender, tokenValue);\n        SafeERC20.safeTransferFrom(_paymentToken, existingBid.bidder, owner(), fees);\n\n        _erc721.safeTransferFrom(msg.sender, existingBid.bidder, tokenId);\n\n        emit TokenBidAccepted(\n            tokenId,\n            msg.sender,\n            existingBid.bidder,\n            existingBid.bidPrice,\n            tokenValue,\n            fees\n        );\n\n        // Remove token listing\n        _delistToken(tokenId);\n        _removeBidOfBidder(tokenId, existingBid.bidder);\n    }\n\n    /**\n     * @dev See {INFTKEYMarketPlaceV1-getInvalidListingCount}.\n     */\n    function getInvalidListingCount() external view override returns (uint256) {\n        uint256 count = 0;\n        for (uint256 i = 0; i < _tokenIdWithListing.length(); i++) {\n            if (!_isListingValid(_tokenListings[_tokenIdWithListing.at(i)])) {\n                count = count.add(1);\n            }\n        }\n        return count;\n    }\n\n    /**\n     * @dev Count how many bid records of a token are invalid now\n     */\n    function _getInvalidBidOfTokenCount(uint256 tokenId) private view returns (uint256) {\n        uint256 count = 0;\n        for (uint256 i = 0; i < _tokenBids[tokenId].bidders.length(); i++) {\n            address bidder = _tokenBids[tokenId].bidders.at(i);\n            Bid memory bid = _tokenBids[tokenId].bids[bidder];\n            if (!_isBidValid(bid)) {\n                count = count.add(1);\n            }\n        }\n        return count;\n    }\n\n    /**\n     * @dev See {INFTKEYMarketPlaceV1-getInvalidBidCount}.\n     */\n    function getInvalidBidCount() external view override returns (uint256) {\n        uint256 count = 0;\n        for (uint256 i = 0; i < _tokenIdWithBid.length(); i++) {\n            count = count.add(_getInvalidBidOfTokenCount(_tokenIdWithBid.at(i)));\n        }\n        return count;\n    }\n\n    /**\n     * @dev See {INFTKEYMarketPlaceV1-cleanAllInvalidListings}.\n     */\n    function cleanAllInvalidListings() external override {\n        for (uint256 i = 0; i < _tokenIdWithListing.length(); i++) {\n            uint256 tokenId = _tokenIdWithListing.at(i);\n            if (!_isListingValid(_tokenListings[tokenId])) {\n                _tempTokenIdStorage.push(tokenId);\n            }\n        }\n        for (uint256 i = 0; i < _tempTokenIdStorage.length; i++) {\n            _delistToken(_tempTokenIdStorage[i]);\n        }\n        delete _tempTokenIdStorage;\n    }\n\n    /**\n     * @dev remove invalid bids of a token\n     * @param tokenId erc721 token Id\n     */\n    function _cleanInvalidBidsOfToken(uint256 tokenId) private {\n        for (uint256 i = 0; i < _tokenBids[tokenId].bidders.length(); i++) {\n            address bidder = _tokenBids[tokenId].bidders.at(i);\n            Bid memory bid = _tokenBids[tokenId].bids[bidder];\n            if (!_isBidValid(bid)) {\n                _tempBidderStorage.push(_tokenBids[tokenId].bidders.at(i));\n            }\n        }\n        for (uint256 i = 0; i < _tempBidderStorage.length; i++) {\n            address bidder = _tempBidderStorage[i];\n            _removeBidOfBidder(tokenId, bidder);\n        }\n        delete _tempBidderStorage;\n    }\n\n    /**\n     * @dev See {INFTKEYMarketPlaceV1-cleanAllInvalidBids}.\n     */\n    function cleanAllInvalidBids() external override {\n        for (uint256 i = 0; i < _tokenIdWithBid.length(); i++) {\n            uint256 tokenId = _tokenIdWithBid.at(i);\n            uint256 invalidCount = _getInvalidBidOfTokenCount(tokenId);\n            if (invalidCount > 0) {\n                _tempTokenIdStorage.push(tokenId);\n            }\n        }\n        for (uint256 i = 0; i < _tempTokenIdStorage.length; i++) {\n            _cleanInvalidBidsOfToken(_tempTokenIdStorage[i]);\n        }\n        delete _tempTokenIdStorage;\n    }\n\n    /**\n     * @dev See {INFTKEYMarketPlaceV1-erc721Name}.\n     */\n    function erc721Name() external view override returns (string memory) {\n        return _erc721Name;\n    }\n\n    /**\n     * @dev See {INFTKEYMarketPlaceV1-isListingAndBidEnabled}.\n     */\n    function isListingAndBidEnabled() external view override returns (bool) {\n        return _isListingAndBidEnabled;\n    }\n\n    /**\n     * @dev Enable to disable Bids and Listing\n     */\n    function changeMarketplaceStatus(bool enabled) external onlyOwner {\n        _isListingAndBidEnabled = enabled;\n    }\n\n    /**\n     * @dev See {INFTKEYMarketPlaceV1-actionTimeOutRangeMin}.\n     */\n    function actionTimeOutRangeMin() external view override returns (uint256) {\n        return _actionTimeOutRangeMin;\n    }\n\n    /**\n     * @dev See {INFTKEYMarketPlaceV1-actionTimeOutRangeMax}.\n     */\n    function actionTimeOutRangeMax() external view override returns (uint256) {\n        return _actionTimeOutRangeMax;\n    }\n\n    /**\n     * @dev Change minimum listing and bid time range\n     */\n    function changeMinActionTimeLimit(uint256 timeInSec) external onlyOwner {\n        _actionTimeOutRangeMin = timeInSec;\n    }\n\n    /**\n     * @dev Change maximum listing and bid time range\n     */\n    function changeMaxActionTimeLimit(uint256 timeInSec) external onlyOwner {\n        _actionTimeOutRangeMax = timeInSec;\n    }\n\n    /**\n     * @dev See {INFTKEYMarketPlaceV1-serviceFee}.\n     */\n    function serviceFee() external view override returns (uint8, uint8) {\n        return (_feeFraction, _feeBase);\n    }\n\n    /**\n     * @dev Change withdrawal fee percentage.\n     * If 1%, then input (1,100)\n     * If 0.5%, then input (5,1000)\n     * @param feeFraction_ Fraction of withdrawal fee based on feeBase_\n     * @param feeBase_ Fraction of withdrawal fee base\n     */\n    function changeSeriveFee(uint8 feeFraction_, uint8 feeBase_) external onlyOwner {\n        require(feeFraction_ <= feeBase_, \"Fee fraction exceeded base.\");\n        uint256 percentage = (feeFraction_ * 1000) / feeBase_;\n        require(percentage <= 25, \"Attempt to set percentage higher than 2.5%.\");\n\n        _feeFraction = feeFraction_;\n        _feeBase = feeBase_;\n    }\n}\n",
  "sourcePath": "/Users/fayexue/projects/nftkey-marketplace/contracts/NFTKEYMarketPlaceV1.sol",
  "compiler": {
    "name": "solc",
    "version": "0.6.12+commit.27d51765.Emscripten.clang"
  },
  "schemaVersion": "3.3.4",
  "updatedAt": "2021-04-02T00:37:11.574Z",
  "networkType": "ethereum",
  "devdoc": {
    "kind": "dev",
    "methods": {
      "acceptBidForToken(uint256,address)": {
        "details": "See {INFTKEYMarketPlaceV1-acceptBidForToken}. Must be owner of this token Must have approved this contract to transfer token Must have a valid existing bid that matches the bidder address"
      },
      "actionTimeOutRangeMax()": {
        "details": "See {INFTKEYMarketPlaceV1-actionTimeOutRangeMax}."
      },
      "actionTimeOutRangeMin()": {
        "details": "See {INFTKEYMarketPlaceV1-actionTimeOutRangeMin}."
      },
      "buyToken(uint256)": {
        "details": "See {INFTKEYMarketPlaceV1-buyToken}. Must have a valid listing msg.sender must not the owner of token msg.value must be at least sell price plus fees"
      },
      "changeMarketplaceStatus(bool)": {
        "details": "Enable to disable Bids and Listing"
      },
      "changeMaxActionTimeLimit(uint256)": {
        "details": "Change maximum listing and bid time range"
      },
      "changeMinActionTimeLimit(uint256)": {
        "details": "Change minimum listing and bid time range"
      },
      "changeSeriveFee(uint8,uint8)": {
        "details": "Change withdrawal fee percentage. If 1%, then input (1,100) If 0.5%, then input (5,1000)",
        "params": {
          "feeBase_": "Fraction of withdrawal fee base",
          "feeFraction_": "Fraction of withdrawal fee based on feeBase_"
        }
      },
      "cleanAllInvalidBids()": {
        "details": "See {INFTKEYMarketPlaceV1-cleanAllInvalidBids}."
      },
      "cleanAllInvalidListings()": {
        "details": "See {INFTKEYMarketPlaceV1-cleanAllInvalidListings}."
      },
      "delistToken(uint256)": {
        "details": "See {INFTKEYMarketPlaceV1-delistToken}. msg.sender must be the seller of the listing record"
      },
      "enterBidForToken(uint256,uint256,uint256)": {
        "details": "See {INFTKEYMarketPlaceV1-enterBidForToken}. People can only enter bid if bid is allowed The timestamp set needs to be in the allowed range bid price > 0 must not be token owner must allow this contract to spend enough payment token"
      },
      "erc721Name()": {
        "details": "See {INFTKEYMarketPlaceV1-erc721Name}."
      },
      "getAllTokenHighestBids()": {
        "details": "See {INFTKEYMarketPlaceV1-getAllTokenHighestBids}."
      },
      "getAllTokenListings()": {
        "details": "See {INFTKEYMarketPlaceV1-getAllTokenListings}."
      },
      "getBidderTokenBid(uint256,address)": {
        "details": "See {INFTKEYMarketPlaceV1-getBidderTokenBid}."
      },
      "getInvalidBidCount()": {
        "details": "See {INFTKEYMarketPlaceV1-getInvalidBidCount}."
      },
      "getInvalidListingCount()": {
        "details": "See {INFTKEYMarketPlaceV1-getInvalidListingCount}."
      },
      "getTokenBids(uint256)": {
        "details": "See {INFTKEYMarketPlaceV1-getTokenBids}."
      },
      "getTokenHighestBid(uint256)": {
        "details": "See {INFTKEYMarketPlaceV1-getTokenHighestBid}."
      },
      "getTokenHighestBids(uint256,uint256)": {
        "details": "See {INFTKEYMarketPlaceV1-getTokenHighestBids}."
      },
      "getTokenListing(uint256)": {
        "details": "See {INFTKEYMarketPlaceV1-getTokenListing}."
      },
      "getTokenListings(uint256,uint256)": {
        "details": "See {INFTKEYMarketPlaceV1-getTokenListings}."
      },
      "isListingAndBidEnabled()": {
        "details": "See {INFTKEYMarketPlaceV1-isListingAndBidEnabled}."
      },
      "listToken(uint256,uint256,uint256)": {
        "details": "See {INFTKEYMarketPlaceV1-listToken}. People can only list if listing is allowed The timestamp set needs to be in the allowed range Only token owner can list token Price must be higher than 0 This contract must be approved to transfer this token"
      },
      "owner()": {
        "details": "Returns the address of the current owner."
      },
      "paymentTokenAddress()": {
        "details": "See {INFTKEYMarketPlaceV1-paymentTokenAddress}."
      },
      "renounceOwnership()": {
        "details": "Leaves the contract without owner. It will not be possible to call `onlyOwner` functions anymore. Can only be called by the current owner. NOTE: Renouncing ownership will leave the contract without an owner, thereby removing any functionality that is only available to the owner."
      },
      "serviceFee()": {
        "details": "See {INFTKEYMarketPlaceV1-serviceFee}."
      },
      "tokenAddress()": {
        "details": "See {INFTKEYMarketPlaceV1-tokenAddress}."
      },
      "transferOwnership(address)": {
        "details": "Transfers ownership of the contract to a new account (`newOwner`). Can only be called by the current owner."
      },
      "withdrawBidForToken(uint256)": {
        "details": "See {INFTKEYMarketPlaceV1-withdrawBidForToken}. There must be a bid exists remove this bid record"
      }
    },
    "title": "NFTKEY MarketPlace contract V1 Note: This marketplace contract is collection based. It serves one ERC721 contract only Payment tokens usually is the chain native coin's wrapped token, e.g. WETH, WBNB",
    "version": 1
  },
  "userdoc": {
    "kind": "user",
    "methods": {},
    "version": 1
  }
}