{
  "contractName": "NFTKEYMarketPlaceV1",
  "abi": [
    {
      "inputs": [
        {
          "internalType": "string",
          "name": "erc721Name_",
          "type": "string"
        },
        {
          "internalType": "address",
          "name": "_erc721Address",
          "type": "address"
        },
        {
          "internalType": "address",
          "name": "_paymentTokenAddress",
          "type": "address"
        }
      ],
      "stateMutability": "nonpayable",
      "type": "constructor"
    },
    {
      "anonymous": false,
      "inputs": [
        {
          "indexed": true,
          "internalType": "address",
          "name": "previousOwner",
          "type": "address"
        },
        {
          "indexed": true,
          "internalType": "address",
          "name": "newOwner",
          "type": "address"
        }
      ],
      "name": "OwnershipTransferred",
      "type": "event"
    },
    {
      "anonymous": false,
      "inputs": [
        {
          "indexed": true,
          "internalType": "uint256",
          "name": "tokenId",
          "type": "uint256"
        },
        {
          "indexed": true,
          "internalType": "address",
          "name": "owner",
          "type": "address"
        },
        {
          "indexed": true,
          "internalType": "address",
          "name": "bidder",
          "type": "address"
        },
        {
          "indexed": false,
          "internalType": "uint256",
          "name": "total",
          "type": "uint256"
        },
        {
          "indexed": false,
          "internalType": "uint256",
          "name": "value",
          "type": "uint256"
        },
        {
          "indexed": false,
          "internalType": "uint256",
          "name": "fees",
          "type": "uint256"
        }
      ],
      "name": "TokenBidAccepted",
      "type": "event"
    },
    {
      "anonymous": false,
      "inputs": [
        {
          "indexed": true,
          "internalType": "uint256",
          "name": "tokenId",
          "type": "uint256"
        },
        {
          "indexed": true,
          "internalType": "address",
          "name": "fromAddress",
          "type": "address"
        },
        {
          "indexed": false,
          "internalType": "uint256",
          "name": "value",
          "type": "uint256"
        }
      ],
      "name": "TokenBidEntered",
      "type": "event"
    },
    {
      "anonymous": false,
      "inputs": [
        {
          "indexed": true,
          "internalType": "uint256",
          "name": "tokenId",
          "type": "uint256"
        },
        {
          "indexed": true,
          "internalType": "address",
          "name": "fromAddress",
          "type": "address"
        },
        {
          "indexed": false,
          "internalType": "uint256",
          "name": "value",
          "type": "uint256"
        }
      ],
      "name": "TokenBidWithdrawn",
      "type": "event"
    },
    {
      "anonymous": false,
      "inputs": [
        {
          "indexed": true,
          "internalType": "uint256",
          "name": "tokenId",
          "type": "uint256"
        },
        {
          "indexed": true,
          "internalType": "address",
          "name": "fromAddress",
          "type": "address"
        },
        {
          "indexed": true,
          "internalType": "address",
          "name": "toAddress",
          "type": "address"
        },
        {
          "indexed": false,
          "internalType": "uint256",
          "name": "total",
          "type": "uint256"
        },
        {
          "indexed": false,
          "internalType": "uint256",
          "name": "value",
          "type": "uint256"
        },
        {
          "indexed": false,
          "internalType": "uint256",
          "name": "fees",
          "type": "uint256"
        }
      ],
      "name": "TokenBought",
      "type": "event"
    },
    {
      "anonymous": false,
      "inputs": [
        {
          "indexed": true,
          "internalType": "uint256",
          "name": "tokenId",
          "type": "uint256"
        },
        {
          "indexed": true,
          "internalType": "address",
          "name": "fromAddress",
          "type": "address"
        }
      ],
      "name": "TokenDelisted",
      "type": "event"
    },
    {
      "anonymous": false,
      "inputs": [
        {
          "indexed": true,
          "internalType": "uint256",
          "name": "tokenId",
          "type": "uint256"
        },
        {
          "indexed": true,
          "internalType": "address",
          "name": "fromAddress",
          "type": "address"
        },
        {
          "indexed": false,
          "internalType": "uint256",
          "name": "minValue",
          "type": "uint256"
        }
      ],
      "name": "TokenListed",
      "type": "event"
    },
    {
      "inputs": [],
      "name": "owner",
      "outputs": [
        {
          "internalType": "address",
          "name": "",
          "type": "address"
        }
      ],
      "stateMutability": "view",
      "type": "function"
    },
    {
      "inputs": [],
      "name": "renounceOwnership",
      "outputs": [],
      "stateMutability": "nonpayable",
      "type": "function"
    },
    {
      "inputs": [
        {
          "internalType": "address",
          "name": "newOwner",
          "type": "address"
        }
      ],
      "name": "transferOwnership",
      "outputs": [],
      "stateMutability": "nonpayable",
      "type": "function"
    },
    {
      "inputs": [],
      "name": "tokenAddress",
      "outputs": [
        {
          "internalType": "address",
          "name": "",
          "type": "address"
        }
      ],
      "stateMutability": "view",
      "type": "function"
    },
    {
      "inputs": [],
      "name": "paymentTokenAddress",
      "outputs": [
        {
          "internalType": "address",
          "name": "",
          "type": "address"
        }
      ],
      "stateMutability": "view",
      "type": "function"
    },
    {
      "inputs": [
        {
          "internalType": "uint256",
          "name": "tokenId",
          "type": "uint256"
        }
      ],
      "name": "getTokenListing",
      "outputs": [
        {
          "components": [
            {
              "internalType": "uint256",
              "name": "tokenId",
              "type": "uint256"
            },
            {
              "internalType": "uint256",
              "name": "listingPrice",
              "type": "uint256"
            },
            {
              "internalType": "address",
              "name": "seller",
              "type": "address"
            },
            {
              "internalType": "uint256",
              "name": "expireTimestamp",
              "type": "uint256"
            }
          ],
          "internalType": "struct INFTKEYMarketPlaceV1.Listing",
          "name": "",
          "type": "tuple"
        }
      ],
      "stateMutability": "view",
      "type": "function"
    },
    {
      "inputs": [],
      "name": "getTokenListings",
      "outputs": [
        {
          "components": [
            {
              "internalType": "uint256",
              "name": "tokenId",
              "type": "uint256"
            },
            {
              "internalType": "uint256",
              "name": "listingPrice",
              "type": "uint256"
            },
            {
              "internalType": "address",
              "name": "seller",
              "type": "address"
            },
            {
              "internalType": "uint256",
              "name": "expireTimestamp",
              "type": "uint256"
            }
          ],
          "internalType": "struct INFTKEYMarketPlaceV1.Listing[]",
          "name": "",
          "type": "tuple[]"
        }
      ],
      "stateMutability": "view",
      "type": "function"
    },
    {
      "inputs": [
        {
          "internalType": "uint256",
          "name": "tokenId",
          "type": "uint256"
        },
        {
          "internalType": "address",
          "name": "bidder",
          "type": "address"
        }
      ],
      "name": "getBidderTokenBid",
      "outputs": [
        {
          "components": [
            {
              "internalType": "uint256",
              "name": "tokenId",
              "type": "uint256"
            },
            {
              "internalType": "uint256",
              "name": "bidPrice",
              "type": "uint256"
            },
            {
              "internalType": "address",
              "name": "bidder",
              "type": "address"
            },
            {
              "internalType": "uint256",
              "name": "expireTimestamp",
              "type": "uint256"
            }
          ],
          "internalType": "struct INFTKEYMarketPlaceV1.Bid",
          "name": "",
          "type": "tuple"
        }
      ],
      "stateMutability": "view",
      "type": "function"
    },
    {
      "inputs": [
        {
          "internalType": "uint256",
          "name": "tokenId",
          "type": "uint256"
        }
      ],
      "name": "getTokenBids",
      "outputs": [
        {
          "components": [
            {
              "internalType": "uint256",
              "name": "tokenId",
              "type": "uint256"
            },
            {
              "internalType": "uint256",
              "name": "bidPrice",
              "type": "uint256"
            },
            {
              "internalType": "address",
              "name": "bidder",
              "type": "address"
            },
            {
              "internalType": "uint256",
              "name": "expireTimestamp",
              "type": "uint256"
            }
          ],
          "internalType": "struct INFTKEYMarketPlaceV1.Bid[]",
          "name": "",
          "type": "tuple[]"
        }
      ],
      "stateMutability": "view",
      "type": "function"
    },
    {
      "inputs": [
        {
          "internalType": "uint256",
          "name": "tokenId",
          "type": "uint256"
        }
      ],
      "name": "getTokenHighestBid",
      "outputs": [
        {
          "components": [
            {
              "internalType": "uint256",
              "name": "tokenId",
              "type": "uint256"
            },
            {
              "internalType": "uint256",
              "name": "bidPrice",
              "type": "uint256"
            },
            {
              "internalType": "address",
              "name": "bidder",
              "type": "address"
            },
            {
              "internalType": "uint256",
              "name": "expireTimestamp",
              "type": "uint256"
            }
          ],
          "internalType": "struct INFTKEYMarketPlaceV1.Bid",
          "name": "",
          "type": "tuple"
        }
      ],
      "stateMutability": "view",
      "type": "function"
    },
    {
      "inputs": [],
      "name": "getAllTokenHighestBids",
      "outputs": [
        {
          "components": [
            {
              "internalType": "uint256",
              "name": "tokenId",
              "type": "uint256"
            },
            {
              "internalType": "uint256",
              "name": "bidPrice",
              "type": "uint256"
            },
            {
              "internalType": "address",
              "name": "bidder",
              "type": "address"
            },
            {
              "internalType": "uint256",
              "name": "expireTimestamp",
              "type": "uint256"
            }
          ],
          "internalType": "struct INFTKEYMarketPlaceV1.Bid[]",
          "name": "",
          "type": "tuple[]"
        }
      ],
      "stateMutability": "view",
      "type": "function"
    },
    {
      "inputs": [
        {
          "internalType": "uint256",
          "name": "tokenId",
          "type": "uint256"
        },
        {
          "internalType": "uint256",
          "name": "value",
          "type": "uint256"
        },
        {
          "internalType": "uint256",
          "name": "expireTimestamp",
          "type": "uint256"
        }
      ],
      "name": "listToken",
      "outputs": [],
      "stateMutability": "nonpayable",
      "type": "function"
    },
    {
      "inputs": [
        {
          "internalType": "uint256",
          "name": "tokenId",
          "type": "uint256"
        }
      ],
      "name": "delistToken",
      "outputs": [],
      "stateMutability": "nonpayable",
      "type": "function"
    },
    {
      "inputs": [
        {
          "internalType": "uint256",
          "name": "tokenId",
          "type": "uint256"
        }
      ],
      "name": "buyToken",
      "outputs": [],
      "stateMutability": "payable",
      "type": "function"
    },
    {
      "inputs": [
        {
          "internalType": "uint256",
          "name": "tokenId",
          "type": "uint256"
        },
        {
          "internalType": "uint256",
          "name": "bidPrice",
          "type": "uint256"
        },
        {
          "internalType": "uint256",
          "name": "expireTimestamp",
          "type": "uint256"
        }
      ],
      "name": "enterBidForToken",
      "outputs": [],
      "stateMutability": "nonpayable",
      "type": "function"
    },
    {
      "inputs": [
        {
          "internalType": "uint256",
          "name": "tokenId",
          "type": "uint256"
        }
      ],
      "name": "withdrawBidForToken",
      "outputs": [],
      "stateMutability": "nonpayable",
      "type": "function"
    },
    {
      "inputs": [
        {
          "internalType": "uint256",
          "name": "tokenId",
          "type": "uint256"
        },
        {
          "internalType": "address",
          "name": "bidder",
          "type": "address"
        }
      ],
      "name": "acceptBidForToken",
      "outputs": [],
      "stateMutability": "nonpayable",
      "type": "function"
    },
    {
      "inputs": [],
      "name": "getInvalidListingCount",
      "outputs": [
        {
          "internalType": "uint256",
          "name": "",
          "type": "uint256"
        }
      ],
      "stateMutability": "view",
      "type": "function"
    },
    {
      "inputs": [],
      "name": "getInvalidBidCount",
      "outputs": [
        {
          "internalType": "uint256",
          "name": "",
          "type": "uint256"
        }
      ],
      "stateMutability": "view",
      "type": "function"
    },
    {
      "inputs": [],
      "name": "cleanAllInvalidListings",
      "outputs": [],
      "stateMutability": "nonpayable",
      "type": "function"
    },
    {
      "inputs": [],
      "name": "cleanAllInvalidBids",
      "outputs": [],
      "stateMutability": "nonpayable",
      "type": "function"
    },
    {
      "inputs": [],
      "name": "erc721Name",
      "outputs": [
        {
          "internalType": "string",
          "name": "",
          "type": "string"
        }
      ],
      "stateMutability": "view",
      "type": "function"
    },
    {
      "inputs": [],
      "name": "isListingAndBidEnabled",
      "outputs": [
        {
          "internalType": "bool",
          "name": "",
          "type": "bool"
        }
      ],
      "stateMutability": "view",
      "type": "function"
    },
    {
      "inputs": [
        {
          "internalType": "bool",
          "name": "enabled",
          "type": "bool"
        }
      ],
      "name": "changeMarketplaceStatus",
      "outputs": [],
      "stateMutability": "nonpayable",
      "type": "function"
    },
    {
      "inputs": [],
      "name": "actionTimeOutRangeMin",
      "outputs": [
        {
          "internalType": "uint256",
          "name": "",
          "type": "uint256"
        }
      ],
      "stateMutability": "view",
      "type": "function"
    },
    {
      "inputs": [],
      "name": "actionTimeOutRangeMax",
      "outputs": [
        {
          "internalType": "uint256",
          "name": "",
          "type": "uint256"
        }
      ],
      "stateMutability": "view",
      "type": "function"
    },
    {
      "inputs": [
        {
          "internalType": "uint256",
          "name": "timeInSec",
          "type": "uint256"
        }
      ],
      "name": "changeMinActionTimeLimit",
      "outputs": [],
      "stateMutability": "nonpayable",
      "type": "function"
    },
    {
      "inputs": [
        {
          "internalType": "uint256",
          "name": "timeInSec",
          "type": "uint256"
        }
      ],
      "name": "changeMaxActionTimeLimit",
      "outputs": [],
      "stateMutability": "nonpayable",
      "type": "function"
    },
    {
      "inputs": [],
      "name": "serviceFee",
      "outputs": [
        {
          "internalType": "uint8",
          "name": "",
          "type": "uint8"
        },
        {
          "internalType": "uint8",
          "name": "",
          "type": "uint8"
        }
      ],
      "stateMutability": "view",
      "type": "function"
    },
    {
      "inputs": [
        {
          "internalType": "uint8",
          "name": "feeFraction_",
          "type": "uint8"
        },
        {
          "internalType": "uint8",
          "name": "feeBase_",
          "type": "uint8"
        }
      ],
      "name": "changeSeriveFee",
      "outputs": [],
      "stateMutability": "nonpayable",
      "type": "function"
    }
  ],
  "bytecode": "0x60c060405260038054610100600160ff199092169190911761ff0019161762ff0000191662640000179055620151806004556301e133806005553480156200004657600080fd5b506040516200420738038062004207833981016040819052620000699162000199565b600062000075620000f9565b600080546001600160a01b0319166001600160a01b0383169081178255604051929350917f8be0079c531659141344cd1fd0a4f28419497f9722a3daafe3b4186f6b6457e0908290a350600180558251620000d8906002906020860190620000fd565b506001600160601b0319606092831b8116608052911b1660a05250620002ce565b3390565b828054600181600116156101000203166002900490600052602060002090601f016020900481019282601f106200014057805160ff191683800117855562000170565b8280016001018555821562000170579182015b828111156200017057825182559160200191906001019062000153565b506200017e92915062000182565b5090565b5b808211156200017e576000815560010162000183565b600080600060608486031215620001ae578283fd5b83516001600160401b0380821115620001c5578485fd5b818601915086601f830112620001d9578485fd5b815181811115620001e8578586fd5b620001fd601f8201601f19166020016200025b565b915080825287602082850101111562000214578586fd5b6200022781602084016020860162000282565b50809450505060208401516200023d81620002b5565b60408501519092506200025081620002b5565b809150509250925092565b6040518181016001600160401b03811182821017156200027a57600080fd5b604052919050565b60005b838110156200029f57818101518382015260200162000285565b83811115620002af576000848401525b50505050565b6001600160a01b0381168114620002cb57600080fd5b50565b60805160601c60a05160601c613ee26200032560003980610b755280610ba552806115ef5280611cea52806122935250806109395280610c1952806114b65280612367528061274052806128375250613ee26000f3fe6080604052600436106101cd5760003560e01c80638abdf5aa116100f7578063b6be53ba11610095578063e724488111610064578063e7244881146104d2578063e7d585a8146104f2578063f0e6dcab14610512578063f2fde38b14610534576101cd565b8063b6be53ba14610450578063bce64a7d14610470578063bed659bc14610490578063d4eb5ded146104b0576101cd565b80639d76ea58116100d15780639d76ea58146103f1578063a3c0b5f014610406578063a6a27f3a14610426578063afb18fe71461043b576101cd565b80638abdf5aa1461038c5780638da5cb5b146103af57806398792eec146103d1576101cd565b8063453dfc501161016f578063715018a61161013e578063715018a61461032057806373885b70146103355780637d7660e01461035757806385f5a92a1461036c576101cd565b8063453dfc50146102a957806354b0de6a146102be5780635eef51ee146102e057806370a3b39014610300576101cd565b806333549d3d116101ab57806333549d3d1461023d578063336c16c61461025f578063383fba251461027f57806340a9791914610294576101cd565b80631e56afe9146101d25780632426fc24146102085780632d296bf11461022a575b600080fd5b3480156101de57600080fd5b506101f26101ed3660046131bb565b610554565b6040516101ff9190613e0f565b60405180910390f35b34801561021457600080fd5b506102286102233660046131bb565b610680565b005b6102286102383660046131bb565b610701565b34801561024957600080fd5b506102526109c0565b6040516101ff9190613e1d565b34801561026b57600080fd5b5061022861027a3660046131eb565b6109c6565b34801561028b57600080fd5b50610228610d16565b3480156102a057600080fd5b50610252610e00565b3480156102b557600080fd5b50610252610e43565b3480156102ca57600080fd5b506102d3610e49565b6040516101ff919061334d565b3480156102ec57600080fd5b506102286102fb366004613245565b610eea565b34801561030c57600080fd5b506101f261031b3660046131eb565b61105e565b34801561032c57600080fd5b506102286110f0565b34801561034157600080fd5b5061034a6111d2565b6040516101ff91906133e8565b34801561036357600080fd5b50610228611283565b34801561037857600080fd5b506102286103873660046131bb565b6112f5565b34801561039857600080fd5b506103a16113fd565b6040516101ff929190613e3c565b3480156103bb57600080fd5b506103c4611415565b6040516101ff91906132d4565b3480156103dd57600080fd5b506101f26103ec3660046131bb565b611431565b3480156103fd57600080fd5b506103c46114b4565b34801561041257600080fd5b506102286104213660046131bb565b6114d8565b34801561043257600080fd5b50610252611550565b34801561044757600080fd5b506103c46115ed565b34801561045c57600080fd5b5061022861046b366004613183565b611611565b34801561047c57600080fd5b5061022861048b36600461321a565b6116b5565b34801561049c57600080fd5b506102286104ab3660046131bb565b611930565b3480156104bc57600080fd5b506104c56119f0565b6040516101ff919061339b565b3480156104de57600080fd5b506102286104ed36600461321a565b611b68565b3480156104fe57600080fd5b506102d361050d3660046131bb565b611f74565b34801561051e57600080fd5b506105276120bc565b6040516101ff91906133dd565b34801561054057600080fd5b5061022861054f36600461314b565b6120c5565b61055c61307e565b61056461307e565b604051806080016040528084815260200160008152602001600073ffffffffffffffffffffffffffffffffffffffff1681526020016000815250905060005b60008481526009602052604090206105ba90612212565b8110156106775760008481526009602052604081206105d9908361221d565b90506105e361307e565b50600085815260096020908152604080832073ffffffffffffffffffffffffffffffffffffffff808616855260029182018452938290208251608081018452815481526001820154948101949094529081015490931690820152600390910154606082015261065181612230565b8015610664575083602001518160200151115b1561066d578093505b50506001016105a3565b5090505b919050565b610688612348565b73ffffffffffffffffffffffffffffffffffffffff166106a6611415565b73ffffffffffffffffffffffffffffffffffffffff16146106fc576040517f08c379a00000000000000000000000000000000000000000000000000000000081526004016106f390613a73565b60405180910390fd5b600455565b6002600154141561073e576040517f08c379a00000000000000000000000000000000000000000000000000000000081526004016106f390613c8a565b600260015561074b61307e565b61075482611431565b604081015190915073ffffffffffffffffffffffffffffffffffffffff166107a8576040517f08c379a00000000000000000000000000000000000000000000000000000000081526004016106f390613a3c565b6107b2823361234c565b156107e9576040517f08c379a00000000000000000000000000000000000000000000000000000000081526004016106f390613550565b600354602082015160009161081a9160ff62010000830481169261081492916101009091041661242c565b90612480565b90508082602001510134101561085c576040517f08c379a00000000000000000000000000000000000000000000000000000000081526004016106f3906136e6565b600061086834836124cc565b905061087883604001518261250e565b610889610883611415565b8361250e565b3373ffffffffffffffffffffffffffffffffffffffff16836040015173ffffffffffffffffffffffffffffffffffffffff16857f1d83c44501b48d5dc85fea9b94506cda160418d62c65b481199bdbec265df1573485876040516108ef93929190613e26565b60405180910390a460408084015190517f42842e0e00000000000000000000000000000000000000000000000000000000815273ffffffffffffffffffffffffffffffffffffffff7f000000000000000000000000000000000000000000000000000000000000000016916342842e0e9161097191903390899060040161331c565b600060405180830381600087803b15801561098b57600080fd5b505af115801561099f573d6000803e3d6000fd5b505050506109ac846125f0565b6109b68433612651565b5050600180555050565b60045490565b60026001541415610a03576040517f08c379a00000000000000000000000000000000000000000000000000000000081526004016106f390613c8a565b6002600155610a12823361234c565b610a48576040517f08c379a00000000000000000000000000000000000000000000000000000000081526004016106f390613d55565b610a5182612713565b80610a605750610a60336127f7565b610a96576040517f08c379a00000000000000000000000000000000000000000000000000000000081526004016106f390613439565b610a9e61307e565b610aa8838361105e565b905060008160200151118015610aed57508173ffffffffffffffffffffffffffffffffffffffff16816040015173ffffffffffffffffffffffffffffffffffffffff16145b610b23576040517f08c379a00000000000000000000000000000000000000000000000000000000081526004016106f390613b05565b6003546020820151600091610b5391610100820460ff90811662010000909304811683011691610814919061242c565b90506000610b6e8284602001516124cc90919063ffffffff16565b9050610ba07f0000000000000000000000000000000000000000000000000000000000000000846040015133846128be565b610bd77f00000000000000000000000000000000000000000000000000000000000000008460400151610bd1611415565b856128be565b60408084015190517f42842e0e00000000000000000000000000000000000000000000000000000000815273ffffffffffffffffffffffffffffffffffffffff7f000000000000000000000000000000000000000000000000000000000000000016916342842e0e91610c509133918a9060040161331c565b600060405180830381600087803b158015610c6a57600080fd5b505af1158015610c7e573d6000803e3d6000fd5b50505050826040015173ffffffffffffffffffffffffffffffffffffffff163373ffffffffffffffffffffffffffffffffffffffff16867f2c907f0c6ace0ad59e44f69f6873314bb2b85cca7eeffb05ca93fa65326bfbb486602001518587604051610cec93929190613e26565b60405180910390a4610cfd856125f0565b610d0b858460400151612651565b505060018055505050565b60005b610d236007612212565b811015610d5257600e610d3760078361221d565b81546001818101845560009384526020909320015501610d19565b5060005b600e54811015610df1576000600e8281548110610d6f57fe5b600091825260208083209091015480835260068252604092839020835160808101855281548152600182015493810193909352600281015473ffffffffffffffffffffffffffffffffffffffff16938301939093526003909201546060820152909150610ddb90612967565b610de857610de8816125f0565b50600101610d56565b50610dfe600e60006130bc565b565b600080805b610e0f600a612212565b811015610e3d57610e33610e2c610e27600a8461221d565b6129a0565b8390612a6f565b9150600101610e05565b50905090565b60055490565b606080610e56600a612212565b67ffffffffffffffff81118015610e6c57600080fd5b50604051908082528060200260200182016040528015610ea657816020015b610e9361307e565b815260200190600190039081610e8b5790505b50905060005b610eb6600a612212565b811015610e3d57610ecb6101ed600a8361221d565b828281518110610ed757fe5b6020908102919091010152600101610eac565b610ef2612348565b73ffffffffffffffffffffffffffffffffffffffff16610f10611415565b73ffffffffffffffffffffffffffffffffffffffff1614610f5d576040517f08c379a00000000000000000000000000000000000000000000000000000000081526004016106f390613a73565b8060ff168260ff161115610f9d576040517f08c379a00000000000000000000000000000000000000000000000000000000081526004016106f390613bf6565b60008160ff168360ff166103e80261ffff1681610fb657fe5b0461ffff1690506019811115610ff8576040517f08c379a00000000000000000000000000000000000000000000000000000000081526004016106f3906138c8565b506003805460ff92831662010000027fffffffffffffffffffffffffffffffffffffffffffffffffffffffffff00ffff94909316610100027fffffffffffffffffffffffffffffffffffffffffffffffffffffffffffff00ff9091161792909216179055565b61106661307e565b61106e61307e565b50600083815260096020908152604080832073ffffffffffffffffffffffffffffffffffffffff80871685526002918201845293829020825160808101845281548152600182015494810194909452908101549093169082015260039091015460608201526110dc81612230565b156110e85790506110ea565b505b92915050565b6110f8612348565b73ffffffffffffffffffffffffffffffffffffffff16611116611415565b73ffffffffffffffffffffffffffffffffffffffff1614611163576040517f08c379a00000000000000000000000000000000000000000000000000000000081526004016106f390613a73565b6000805460405173ffffffffffffffffffffffffffffffffffffffff909116907f8be0079c531659141344cd1fd0a4f28419497f9722a3daafe3b4186f6b6457e0908390a3600080547fffffffffffffffffffffffff0000000000000000000000000000000000000000169055565b60028054604080516020601f7fffffffffffffffffffffffffffffffffffffffffffffffffffffffffffffffff61010060018716150201909416859004938401819004810282018101909252828152606093909290918301828280156112795780601f1061124e57610100808354040283529160200191611279565b820191906000526020600020905b81548152906001019060200180831161125c57829003601f168201915b5050505050905090565b60005b611290600a612212565b8110156112bf57600e6112a4600a8361221d565b81546001818101845560009384526020909320015501611286565b5060005b600e54811015610df1576112ed600e82815481106112dd57fe5b9060005260206000200154612aae565b6001016112c3565b6112fd61307e565b5060008181526009602090815260408083203380855260029182018452938290208251608081018452815481526001820154948101949094529081015473ffffffffffffffffffffffffffffffffffffffff16918301829052600301546060830152909114611398576040517f08c379a00000000000000000000000000000000000000000000000000000000081526004016106f390613b62565b806040015173ffffffffffffffffffffffffffffffffffffffff16827f4afa471ce7ab7fa67258e3afb1adf7e899e0495602eeb26d90d41e1b64dea5a683602001516040516113e79190613e1d565b60405180910390a36113f98233612651565b5050565b60035460ff6101008204811691620100009004169091565b60005473ffffffffffffffffffffffffffffffffffffffff1690565b61143961307e565b61144161307e565b50600082815260066020908152604091829020825160808101845281548152600182015492810192909252600281015473ffffffffffffffffffffffffffffffffffffffff169282019290925260039091015460608201526114a281612967565b156114ae57905061067b565b50919050565b7f000000000000000000000000000000000000000000000000000000000000000090565b6114e0612348565b73ffffffffffffffffffffffffffffffffffffffff166114fe611415565b73ffffffffffffffffffffffffffffffffffffffff161461154b576040517f08c379a00000000000000000000000000000000000000000000000000000000081526004016106f390613a73565b600555565b600080805b61155f6007612212565b811015610e3d576115d36006600061157860078561221d565b81526020808201929092526040908101600020815160808101835281548152600182015493810193909352600281015473ffffffffffffffffffffffffffffffffffffffff1691830191909152600301546060820152612967565b6115e5576115e2826001612a6f565b91505b600101611555565b7f000000000000000000000000000000000000000000000000000000000000000090565b611619612348565b73ffffffffffffffffffffffffffffffffffffffff16611637611415565b73ffffffffffffffffffffffffffffffffffffffff1614611684576040517f08c379a00000000000000000000000000000000000000000000000000000000081526004016106f390613a73565b600380547fffffffffffffffffffffffffffffffffffffffffffffffffffffffffffffff0016911515919091179055565b60035460ff166116f1576040517f08c379a00000000000000000000000000000000000000000000000000000000081526004016106f3906135e4565b600454819061170082426124cc565b1015611738576040517f08c379a00000000000000000000000000000000000000000000000000000000081526004016106f390613db2565b60055461174582426124cc565b111561177d576040517f08c379a00000000000000000000000000000000000000000000000000000000081526004016106f3906137d7565b600083116117b7576040517f08c379a00000000000000000000000000000000000000000000000000000000081526004016106f390613925565b6117c1843361234c565b6117f7576040517f08c379a00000000000000000000000000000000000000000000000000000000081526004016106f390613d1e565b61180084612713565b8061180f575061180f336127f7565b611845576040517f08c379a00000000000000000000000000000000000000000000000000000000081526004016106f390613aa8565b604080516080810182528581526020808201868152338385019081526060840187815260008a815260069094529490922092518355516001830155516002820180547fffffffffffffffffffffffff00000000000000000000000000000000000000001673ffffffffffffffffffffffffffffffffffffffff90921691909117905590516003909101556118da600785612c23565b503373ffffffffffffffffffffffffffffffffffffffff16847f7765a1c07bdce3390c521eaeb86030b188b77cbaba2d76bd7c9c32d906bfbcba856040516119229190613e1d565b60405180910390a350505050565b60008181526006602052604090206002015473ffffffffffffffffffffffffffffffffffffffff163314611990576040517f08c379a00000000000000000000000000000000000000000000000000000000081526004016106f390613cc1565b60008181526006602052604080822060020154905173ffffffffffffffffffffffffffffffffffffffff9091169183917f70a382c18b6e794d86997f6e1f1efca577925cfa85c476a6ff7031f0a3dd6ed09190a36119ed816125f0565b50565b6060806119fd6007612212565b67ffffffffffffffff81118015611a1357600080fd5b50604051908082528060200260200182016040528015611a4d57816020015b611a3a61307e565b815260200190600190039081611a325790505b5090506000805b611a5e6007612212565b811015611b0a57611a6d61307e565b60066000611a7c60078561221d565b81526020808201929092526040908101600020815160808101835281548152600182015493810193909352600281015473ffffffffffffffffffffffffffffffffffffffff16918301919091526003015460608201529050611add81612967565b15611b015780848481518110611aef57fe5b60209081029190910101526001909201915b50600101611a54565b5060608167ffffffffffffffff81118015611b2457600080fd5b50604051908082528060200260200182016040528015611b5e57816020015b611b4b61307e565b815260200190600190039081611b435790505b5092935050505090565b60035460ff16611ba4576040517f08c379a00000000000000000000000000000000000000000000000000000000081526004016106f3906135e4565b6004548190611bb382426124cc565b1015611beb576040517f08c379a00000000000000000000000000000000000000000000000000000000081526004016106f390613db2565b600554611bf882426124cc565b1115611c30576040517f08c379a00000000000000000000000000000000000000000000000000000000081526004016106f3906137d7565b60008311611c6a576040517f08c379a00000000000000000000000000000000000000000000000000000000081526004016106f39061361b565b611c74843361234c565b15611cab576040517f08c379a00000000000000000000000000000000000000000000000000000000081526004016106f39061386b565b6040517fdd62ed3e000000000000000000000000000000000000000000000000000000008152839073ffffffffffffffffffffffffffffffffffffffff7f0000000000000000000000000000000000000000000000000000000000000000169063dd62ed3e90611d2190339030906004016132f5565b60206040518083038186803b158015611d3957600080fd5b505afa158015611d4d573d6000803e3d6000fd5b505050506040513d601f19601f82011682018060405250810190611d7191906131d3565b1015611da9576040517f08c379a00000000000000000000000000000000000000000000000000000000081526004016106f390613982565b611db161307e565b506040805160808101825285815260208101859052339181019190915260608101839052611de0600a86612c2f565b611e9857611def600a86612c23565b5060408051600c805460806020828102850182018652606085018381529495869591860194938593918701928592849284918a0182828015611e5057602002820191906000526020600020905b815481526020019060010190808311611e3c575b505050919092525050509052509052600086815260096020908152604090912082518051805180519394929385938492611e9092849291909101906130da565b505050505050505b6000858152600960205260409020611eb09033612c3b565b506000858152600960209081526040808320338085526002918201845293829020855181559285015160018401558482015190830180547fffffffffffffffffffffffff00000000000000000000000000000000000000001673ffffffffffffffffffffffffffffffffffffffff90921691909117905560608401516003909201919091555186907f0ea16c10401e9d7c547471845914c4a904af6a01b9fa1e195eeecae9f78bcca190611f65908890613e1d565b60405180910390a35050505050565b60008181526009602052604090206060908190611f9090612212565b67ffffffffffffffff81118015611fa657600080fd5b50604051908082528060200260200182016040528015611fe057816020015b611fcd61307e565b815260200190600190039081611fc55790505b50905060005b6000848152600960205260409020611ffd90612212565b81101561067757600084815260096020526040812061201c908361221d565b905061202661307e565b50600085815260096020908152604080832073ffffffffffffffffffffffffffffffffffffffff808616855260029182018452938290208251608081018452815481526001820154948101949094529081015490931690820152600390910154606082015261209481612230565b156120b257808484815181106120a657fe5b60200260200101819052505b5050600101611fe6565b60035460ff1690565b6120cd612348565b73ffffffffffffffffffffffffffffffffffffffff166120eb611415565b73ffffffffffffffffffffffffffffffffffffffff1614612138576040517f08c379a00000000000000000000000000000000000000000000000000000000081526004016106f390613a73565b73ffffffffffffffffffffffffffffffffffffffff8116612185576040517f08c379a00000000000000000000000000000000000000000000000000000000081526004016106f3906134f3565b6000805460405173ffffffffffffffffffffffffffffffffffffffff808516939216917f8be0079c531659141344cd1fd0a4f28419497f9722a3daafe3b4186f6b6457e091a3600080547fffffffffffffffffffffffff00000000000000000000000000000000000000001673ffffffffffffffffffffffffffffffffffffffff92909216919091179055565b60006110ea82612c5d565b60006122298383612c61565b9392505050565b60006122448260000151836040015161234c565b15801561231c5750602082015160408084015190517fdd62ed3e00000000000000000000000000000000000000000000000000000000815273ffffffffffffffffffffffffffffffffffffffff7f0000000000000000000000000000000000000000000000000000000000000000169163dd62ed3e916122c9919030906004016132f5565b60206040518083038186803b1580156122e157600080fd5b505afa1580156122f5573d6000803e3d6000fd5b505050506040513d601f19601f8201168201806040525081019061231991906131d3565b10155b801561232c575060008260200151115b801561233b5750428260600151115b1561067b5750600161067b565b3390565b60008173ffffffffffffffffffffffffffffffffffffffff167f000000000000000000000000000000000000000000000000000000000000000073ffffffffffffffffffffffffffffffffffffffff16636352211e856040518263ffffffff1660e01b81526004016123be9190613e1d565b60206040518083038186803b1580156123d657600080fd5b505afa1580156123ea573d6000803e3d6000fd5b505050506040513d601f19601f8201168201806040525081019061240e9190613167565b73ffffffffffffffffffffffffffffffffffffffff16149392505050565b60008261243b575060006110ea565b8282028284828161244857fe5b0414612229576040517f08c379a00000000000000000000000000000000000000000000000000000000081526004016106f3906139df565b60008082116124bb576040517f08c379a00000000000000000000000000000000000000000000000000000000081526004016106f390613834565b8183816124c457fe5b049392505050565b600082821115612508576040517f08c379a00000000000000000000000000000000000000000000000000000000081526004016106f390613652565b50900390565b80471015612548576040517f08c379a00000000000000000000000000000000000000000000000000000000081526004016106f390613743565b60008273ffffffffffffffffffffffffffffffffffffffff168260405161256e906132d1565b60006040518083038185875af1925050503d80600081146125ab576040519150601f19603f3d011682016040523d82523d6000602084013e6125b0565b606091505b50509050806125eb576040517f08c379a00000000000000000000000000000000000000000000000000000000081526004016106f390613689565b505050565b6125fb600782612c2f565b156119ed576000818152600660205260408120818155600181018290556002810180547fffffffffffffffffffffffff0000000000000000000000000000000000000000169055600301556113f9600782612cc0565b60008281526009602052604090206126699082612ccc565b156113f957600082815260096020818152604080842073ffffffffffffffffffffffffffffffffffffffff86168552600280820184529185208581556001810186905591820180547fffffffffffffffffffffffff0000000000000000000000000000000000000000169055600390910184905592859052526126ec9082612cee565b50600082815260096020526040902061270490612212565b6113f9576125eb600a83612cc0565b6040517f081812fc00000000000000000000000000000000000000000000000000000000815260009030907f000000000000000000000000000000000000000000000000000000000000000073ffffffffffffffffffffffffffffffffffffffff169063081812fc9061278a908690600401613e1d565b60206040518083038186803b1580156127a257600080fd5b505afa1580156127b6573d6000803e3d6000fd5b505050506040513d601f19601f820116820180604052508101906127da9190613167565b73ffffffffffffffffffffffffffffffffffffffff161492915050565b6040517fe985e9c500000000000000000000000000000000000000000000000000000000815260009073ffffffffffffffffffffffffffffffffffffffff7f0000000000000000000000000000000000000000000000000000000000000000169063e985e9c59061286e90859030906004016132f5565b60206040518083038186803b15801561288657600080fd5b505afa15801561289a573d6000803e3d6000fd5b505050506040513d601f19601f820116820180604052508101906110ea919061319f565b612961846323b872dd60e01b8585856040516024016128df9392919061331c565b604080517fffffffffffffffffffffffffffffffffffffffffffffffffffffffffffffffe08184030181529190526020810180517bffffffffffffffffffffffffffffffffffffffffffffffffffffffff167fffffffff0000000000000000000000000000000000000000000000000000000090931692909217909152612d10565b50505050565b600061297b8260000151836040015161234c565b801561231c5750815161298d90612713565b8061231c575061231c82604001516127f7565b600080805b60008481526009602052604090206129bc90612212565b8110156106775760008481526009602052604081206129db908361221d565b90506129e561307e565b50600085815260096020908152604080832073ffffffffffffffffffffffffffffffffffffffff8086168552600291820184529382902082516080810184528154815260018201549481019490945290810154909316908201526003909101546060820152612a5381612230565b612a6557612a62846001612a6f565b93505b50506001016129a5565b600082820183811015612229576040517f08c379a00000000000000000000000000000000000000000000000000000000081526004016106f3906135ad565b60005b6000828152600960205260409020612ac890612212565b811015612b47576000828152600960205260409020600f90612aea908361221d565b815460018082018455600093845260209093200180547fffffffffffffffffffffffff00000000000000000000000000000000000000001673ffffffffffffffffffffffffffffffffffffffff9290921691909117905501612ab1565b5060005b600f54811015612c16576000600f8281548110612b6457fe5b60009182526020909120015473ffffffffffffffffffffffffffffffffffffffff169050612b9061307e565b50600083815260096020908152604080832073ffffffffffffffffffffffffffffffffffffffff8086168552600291820184529382902082516080810184528154815260018201549481019490945290810154909316908201526003909101546060820152612bfe81612230565b612c0c57612c0c8483612651565b5050600101612b4b565b506119ed600f60006130bc565b60006122298383612dc6565b60006122298383612e10565b60006122298373ffffffffffffffffffffffffffffffffffffffff8416612dc6565b5490565b81546000908210612c9e576040517f08c379a00000000000000000000000000000000000000000000000000000000081526004016106f390613496565b826000018281548110612cad57fe5b9060005260206000200154905092915050565b60006122298383612e28565b60006122298373ffffffffffffffffffffffffffffffffffffffff8416612e10565b60006122298373ffffffffffffffffffffffffffffffffffffffff8416612e28565b6060612d72826040518060400160405280602081526020017f5361666545524332303a206c6f772d6c6576656c2063616c6c206661696c65648152508573ffffffffffffffffffffffffffffffffffffffff16612f0c9092919063ffffffff16565b8051909150156125eb5780806020019051810190612d90919061319f565b6125eb576040517f08c379a00000000000000000000000000000000000000000000000000000000081526004016106f390613c2d565b6000612dd28383612e10565b612e08575081546001818101845560008481526020808220909301849055845484825282860190935260409020919091556110ea565b5060006110ea565b60009081526001919091016020526040902054151590565b60008181526001830160205260408120548015612f025783547fffffffffffffffffffffffffffffffffffffffffffffffffffffffffffffffff8083019190810190600090879083908110612e7957fe5b9060005260206000200154905080876000018481548110612e9657fe5b600091825260208083209091019290925582815260018981019092526040902090840190558654879080612ec657fe5b600190038181906000526020600020016000905590558660010160008781526020019081526020016000206000905560019450505050506110ea565b60009150506110ea565b6060612f1b8484600085612f23565b949350505050565b606082471015612f5f576040517f08c379a00000000000000000000000000000000000000000000000000000000081526004016106f39061377a565b612f6885613025565b612f9e576040517f08c379a00000000000000000000000000000000000000000000000000000000081526004016106f390613bbf565b600060608673ffffffffffffffffffffffffffffffffffffffff168587604051612fc891906132b5565b60006040518083038185875af1925050503d8060008114613005576040519150601f19603f3d011682016040523d82523d6000602084013e61300a565b606091505b509150915061301a82828661302b565b979650505050505050565b3b151590565b6060831561303a575081612229565b82511561304a5782518084602001fd5b816040517f08c379a00000000000000000000000000000000000000000000000000000000081526004016106f391906133e8565b60405180608001604052806000815260200160008152602001600073ffffffffffffffffffffffffffffffffffffffff168152602001600081525090565b50805460008255906000526020600020908101906119ed9190613125565b828054828255906000526020600020908101928215613115579160200282015b828111156131155782518255916020019190600101906130fa565b50613121929150613125565b5090565b5b808211156131215760008155600101613126565b803560ff811681146110ea57600080fd5b60006020828403121561315c578081fd5b813561222981613e7c565b600060208284031215613178578081fd5b815161222981613e7c565b600060208284031215613194578081fd5b813561222981613e9e565b6000602082840312156131b0578081fd5b815161222981613e9e565b6000602082840312156131cc578081fd5b5035919050565b6000602082840312156131e4578081fd5b5051919050565b600080604083850312156131fd578081fd5b82359150602083013561320f81613e7c565b809150509250929050565b60008060006060848603121561322e578081fd5b505081359360208301359350604090920135919050565b60008060408385031215613257578182fd5b613261848461313a565b9150613270846020850161313a565b90509250929050565b805182526020810151602083015273ffffffffffffffffffffffffffffffffffffffff6040820151166040830152606081015160608301525050565b600082516132c7818460208701613e50565b9190910192915050565b90565b73ffffffffffffffffffffffffffffffffffffffff91909116815260200190565b73ffffffffffffffffffffffffffffffffffffffff92831681529116602082015260400190565b73ffffffffffffffffffffffffffffffffffffffff9384168152919092166020820152604081019190915260600190565b6020808252825182820181905260009190848201906040850190845b8181101561338f5761337c838551613279565b9284019260809290920191600101613369565b50909695505050505050565b6020808252825182820181905260009190848201906040850190845b8181101561338f576133ca838551613279565b92840192608092909201916001016133b7565b901515815260200190565b6000602082528251806020840152613407816040850160208701613e50565b601f017fffffffffffffffffffffffffffffffffffffffffffffffffffffffffffffffe0169190910160400192915050565b60208082526035908201527f54686520746f6b656e206973206e6f7420617070726f76656420746f2074726160408201527f6e736665722062792074686520636f6e74726163740000000000000000000000606082015260800190565b60208082526022908201527f456e756d657261626c655365743a20696e646578206f7574206f6620626f756e60408201527f6473000000000000000000000000000000000000000000000000000000000000606082015260800190565b60208082526026908201527f4f776e61626c653a206e6577206f776e657220697320746865207a65726f206160408201527f6464726573730000000000000000000000000000000000000000000000000000606082015260800190565b60208082526025908201527f546f6b656e206f776e65722063616e277420627579207468656972206f776e2060408201527f746f6b656e000000000000000000000000000000000000000000000000000000606082015260800190565b6020808252601b908201527f536166654d6174683a206164646974696f6e206f766572666c6f770000000000604082015260600190565b6020808252601f908201527f4c697374696e6720616e642062696420617265206e6f7420656e61626c656400604082015260600190565b6020808252601a908201527f506c656173652062696420666f72206d6f7265207468616e2030000000000000604082015260600190565b6020808252601e908201527f536166654d6174683a207375627472616374696f6e206f766572666c6f770000604082015260600190565b6020808252603a908201527f416464726573733a20756e61626c6520746f2073656e642076616c75652c207260408201527f6563697069656e74206d61792068617665207265766572746564000000000000606082015260800190565b6020808252602c908201527f5468652076616c75652073656e642069732062656c6f772073616c652070726960408201527f636520706c757320666565730000000000000000000000000000000000000000606082015260800190565b6020808252601d908201527f416464726573733a20696e73756666696369656e742062616c616e6365000000604082015260600190565b60208082526026908201527f416464726573733a20696e73756666696369656e742062616c616e636520666f60408201527f722063616c6c0000000000000000000000000000000000000000000000000000606082015260800190565b60208082526025908201527f506c6561736520656e74657220612073686f7274657220706572696f64206f6660408201527f2074696d65000000000000000000000000000000000000000000000000000000606082015260800190565b6020808252601a908201527f536166654d6174683a206469766973696f6e206279207a65726f000000000000604082015260600190565b60208082526022908201527f5468697320546f6b656e2062656c6f6e677320746f207468697320616464726560408201527f7373000000000000000000000000000000000000000000000000000000000000606082015260800190565b6020808252602b908201527f417474656d707420746f207365742070657263656e746167652068696768657260408201527f207468616e20322e35252e000000000000000000000000000000000000000000606082015260800190565b60208082526038908201527f506c65617365206c69737420666f72206d6f7265207468616e2030206f72207560408201527f736520746865207472616e736665722066756e6374696f6e0000000000000000606082015260800190565b60208082526036908201527f4e65656420746f206861766520656e6f75676820746f6b656e20686f6c64696e60408201527f6720746f20626964206f6e207468697320746f6b656e00000000000000000000606082015260800190565b60208082526021908201527f536166654d6174683a206d756c7469706c69636174696f6e206f766572666c6f60408201527f7700000000000000000000000000000000000000000000000000000000000000606082015260800190565b60208082526015908201527f546f6b656e206973206e6f7420666f722073616c650000000000000000000000604082015260600190565b6020808252818101527f4f776e61626c653a2063616c6c6572206973206e6f7420746865206f776e6572604082015260600190565b60208082526036908201527f5468697320746f6b656e206973206e6f7420616c6c6f77656420746f2074726160408201527f6e73666572206279207468697320636f6e747261637400000000000000000000606082015260800190565b60208082526026908201527f5468697320746f6b656e20646f65736e277420686176652061206d617463686960408201527f6e67206269640000000000000000000000000000000000000000000000000000606082015260800190565b6020808252602b908201527f54686973206164647265737320646f65736e2774206861766520626964206f6e60408201527f207468697320746f6b656e000000000000000000000000000000000000000000606082015260800190565b6020808252601d908201527f416464726573733a2063616c6c20746f206e6f6e2d636f6e7472616374000000604082015260600190565b6020808252601b908201527f466565206672616374696f6e20657863656564656420626173652e0000000000604082015260600190565b6020808252602a908201527f5361666545524332303a204552433230206f7065726174696f6e20646964206e60408201527f6f74207375636365656400000000000000000000000000000000000000000000606082015260800190565b6020808252601f908201527f5265656e7472616e637947756172643a207265656e7472616e742063616c6c00604082015260600190565b60208082526022908201527f4f6e6c7920746f6b656e2073656c6c65722063616e2064656c69737420746f6b60408201527f656e000000000000000000000000000000000000000000000000000000000000606082015260800190565b6020808252601f908201527f4f6e6c7920746f6b656e206f776e65722063616e206c69737420746f6b656e00604082015260600190565b60208082526028908201527f4f6e6c7920746f6b656e206f776e65722063616e20616363657074206269642060408201527f6f6620746f6b656e000000000000000000000000000000000000000000000000606082015260800190565b60208082526024908201527f506c6561736520656e7465722061206c6f6e67657220706572696f64206f662060408201527f74696d6500000000000000000000000000000000000000000000000000000000606082015260800190565b608081016110ea8284613279565b90815260200190565b9283526020830191909152604082015260600190565b60ff92831681529116602082015260400190565b60005b83811015613e6b578181015183820152602001613e53565b838111156129615750506000910152565b73ffffffffffffffffffffffffffffffffffffffff811681146119ed57600080fd5b80151581146119ed57600080fdfea26469706673582212204509312d1e9cc5c379955ad414950b76be6cbbc5b60ddfd0302b5455f7f34d5a64736f6c634300060c0033",
  "immutableReferences": {
    "67": [
      {
        "length": 32,
        "start": 2361
      },
      {
        "length": 32,
        "start": 3097
      },
      {
        "length": 32,
        "start": 5302
      },
      {
        "length": 32,
        "start": 9063
      },
      {
        "length": 32,
        "start": 10048
      },
      {
        "length": 32,
        "start": 10295
      }
    ],
    "69": [
      {
        "length": 32,
        "start": 2933
      },
      {
        "length": 32,
        "start": 2981
      },
      {
        "length": 32,
        "start": 5615
      },
      {
        "length": 32,
        "start": 7402
      },
      {
        "length": 32,
        "start": 8851
      }
    ]
  },
  "source": "// SPDX-License-Identifier: AGPL-3.0-or-later\n\npragma solidity =0.6.12;\npragma experimental ABIEncoderV2;\n\nimport \"@openzeppelin/contracts/access/Ownable.sol\";\nimport \"@openzeppelin/contracts/math/SafeMath.sol\";\nimport \"@openzeppelin/contracts/utils/Address.sol\";\nimport \"@openzeppelin/contracts/utils/EnumerableSet.sol\";\nimport \"@openzeppelin/contracts/utils/ReentrancyGuard.sol\";\nimport \"@openzeppelin/contracts/token/ERC721/IERC721.sol\";\nimport \"@openzeppelin/contracts/token/ERC20/SafeERC20.sol\";\nimport \"@openzeppelin/contracts/token/ERC20/IERC20.sol\";\nimport \"./interface/INFTKEYMarketPlaceV1.sol\";\n\n/**\n * @title NFTKEY MarketPlace contract V1\n * Note: This marketplace contract is collection based. It serves one ERC721 contract only\n * Payment tokens usually is the chain native coin's wrapped token, e.g. WETH, WBNB\n */\ncontract NFTKEYMarketPlaceV1 is INFTKEYMarketPlaceV1, Ownable, ReentrancyGuard {\n    using SafeMath for uint256;\n    using Address for address;\n    using EnumerableSet for EnumerableSet.UintSet;\n    using EnumerableSet for EnumerableSet.AddressSet;\n\n    struct TokenBid {\n        EnumerableSet.AddressSet bidders;\n        mapping(address => Bid) bids;\n    }\n\n    constructor(\n        string memory erc721Name_,\n        address _erc721Address,\n        address _paymentTokenAddress\n    ) public {\n        _erc721Name = erc721Name_;\n        _erc721 = IERC721(_erc721Address);\n        _paymentToken = IERC20(_paymentTokenAddress);\n    }\n\n    string private _erc721Name;\n    IERC721 private immutable _erc721;\n    IERC20 private immutable _paymentToken;\n\n    bool private _isListingAndBidEnabled = true;\n    uint8 private _feeFraction = 1;\n    uint8 private _feeBase = 100;\n    uint256 private _actionTimeOutRangeMin = 86400; // 24 hours\n    uint256 private _actionTimeOutRangeMax = 31536000; // One year - This can extend by owner is contract is working smoothly\n\n    mapping(uint256 => Listing) private _tokenListings;\n    EnumerableSet.UintSet private _tokenIdWithListing;\n\n    mapping(uint256 => TokenBid) private _tokenBids;\n    EnumerableSet.UintSet private _tokenIdWithBid;\n\n    EnumerableSet.AddressSet private _emptyBidders; // Help initiate TokenBid struct\n    uint256[] private _tempTokenIdStorage; // Storage to assist cleaning\n    address[] private _tempBidderStorage; // Storage to assist cleaning bids\n\n    /**\n     * @dev only if listing and bid is enabled\n     * This is to help contract migration in case of upgrade or bug\n     */\n    modifier onlyMarketplaceOpen() {\n        require(_isListingAndBidEnabled, \"Listing and bid are not enabled\");\n        _;\n    }\n\n    /**\n     * @dev only if the entered timestamp is within the allowed range\n     * This helps to not list or bid for too short or too long period of time\n     */\n    modifier onlyAllowedExpireTimestamp(uint256 expireTimestamp) {\n        require(\n            expireTimestamp.sub(block.timestamp) >= _actionTimeOutRangeMin,\n            \"Please enter a longer period of time\"\n        );\n        require(\n            expireTimestamp.sub(block.timestamp) <= _actionTimeOutRangeMax,\n            \"Please enter a shorter period of time\"\n        );\n        _;\n    }\n\n    /**\n     * @dev check if the account is the owner of this erc721 token\n     */\n    function _isTokenOwner(uint256 tokenId, address account) private view returns (bool) {\n        return _erc721.ownerOf(tokenId) == account;\n    }\n\n    /**\n     * @dev check if this contract has approved to transfer this erc721 token\n     */\n    function _isTokenApproved(uint256 tokenId) private view returns (bool) {\n        return _erc721.getApproved(tokenId) == address(this);\n    }\n\n    /**\n     * @dev check if this contract has approved to all of this owner's erc721 tokens\n     */\n    function _isAllTokenApproved(address owner) private view returns (bool) {\n        return _erc721.isApprovedForAll(owner, address(this));\n    }\n\n    /**\n     * @dev See {INFTKEYMarketPlaceV1-tokenAddress}.\n     */\n    function tokenAddress() external view override returns (address) {\n        return address(_erc721);\n    }\n\n    /**\n     * @dev See {INFTKEYMarketPlaceV1-paymentTokenAddress}.\n     */\n    function paymentTokenAddress() external view override returns (address) {\n        return address(_paymentToken);\n    }\n\n    /**\n     * @dev Check if a listing is valid or not\n     * The seller must be the owner\n     * The seller must have give this contract allowance\n     * The sell price must be more than 0\n     * The listing mustn't be expired\n     */\n    function _isListingValid(Listing memory listing) private view returns (bool) {\n        if (\n            _isTokenOwner(listing.tokenId, listing.seller) &&\n            (_isTokenApproved(listing.tokenId) || _isAllTokenApproved(listing.seller)) &&\n            listing.listingPrice > 0 &&\n            listing.expireTimestamp > block.timestamp\n        ) {\n            return true;\n        }\n    }\n\n    /**\n     * @dev See {INFTKEYMarketPlaceV1-getTokenListing}.\n     */\n    function getTokenListing(uint256 tokenId) public view override returns (Listing memory) {\n        Listing memory listing = _tokenListings[tokenId];\n        if (_isListingValid(listing)) {\n            return listing;\n        }\n    }\n\n    /**\n     * @dev See {INFTKEYMarketPlaceV1-getTokenListings}.\n     */\n    function getTokenListings() external view override returns (Listing[] memory) {\n        Listing[] memory listings = new Listing[](_tokenIdWithListing.length());\n        uint256 listingCount = 0;\n        for (uint256 i; i < _tokenIdWithListing.length(); i++) {\n            Listing memory listing = _tokenListings[_tokenIdWithListing.at(i)];\n            if (_isListingValid(listing)) {\n                listings[listingCount] = listing;\n                listingCount++;\n            }\n        }\n        Listing[] memory validListings = new Listing[](listingCount);\n        validListings = listings;\n        return validListings;\n    }\n\n    /**\n     * @dev Check if an bid is valid or not\n     * Bidder must not be the owner\n     * Bidder must give the contract allowance same or more than bid price\n     * Bid price must > 0\n     * Bid mustn't been expired\n     */\n    function _isBidValid(Bid memory bid) private view returns (bool) {\n        if (\n            !_isTokenOwner(bid.tokenId, bid.bidder) &&\n            _paymentToken.allowance(bid.bidder, address(this)) >= bid.bidPrice &&\n            bid.bidPrice > 0 &&\n            bid.expireTimestamp > block.timestamp\n        ) {\n            return true;\n        }\n    }\n\n    /**\n     * @dev See {INFTKEYMarketPlaceV1-getBidderTokenBid}.\n     */\n    function getBidderTokenBid(uint256 tokenId, address bidder)\n        public\n        view\n        override\n        returns (Bid memory)\n    {\n        Bid memory bid = _tokenBids[tokenId].bids[bidder];\n        if (_isBidValid(bid)) {\n            return bid;\n        }\n    }\n\n    /**\n     * @dev See {INFTKEYMarketPlaceV1-getTokenBids}.\n     */\n    function getTokenBids(uint256 tokenId) external view override returns (Bid[] memory) {\n        Bid[] memory bids = new Bid[](_tokenBids[tokenId].bidders.length());\n        for (uint256 i; i < _tokenBids[tokenId].bidders.length(); i++) {\n            address bidder = _tokenBids[tokenId].bidders.at(i);\n            Bid memory bid = _tokenBids[tokenId].bids[bidder];\n            if (_isBidValid(bid)) {\n                bids[i] = bid;\n            }\n        }\n        return bids;\n    }\n\n    /**\n     * @dev See {INFTKEYMarketPlaceV1-getTokenHighestBid}.\n     */\n    function getTokenHighestBid(uint256 tokenId) public view override returns (Bid memory) {\n        Bid memory highestBid = Bid(tokenId, 0, address(0), 0);\n        for (uint256 i; i < _tokenBids[tokenId].bidders.length(); i++) {\n            address bidder = _tokenBids[tokenId].bidders.at(i);\n            Bid memory bid = _tokenBids[tokenId].bids[bidder];\n            if (_isBidValid(bid) && bid.bidPrice > highestBid.bidPrice) {\n                highestBid = bid;\n            }\n        }\n        return highestBid;\n    }\n\n    /**\n     * @dev See {INFTKEYMarketPlaceV1-getAllTokenHighestBids}.\n     */\n    function getAllTokenHighestBids() external view override returns (Bid[] memory) {\n        Bid[] memory allHighestBids = new Bid[](_tokenIdWithBid.length());\n        for (uint256 i; i < _tokenIdWithBid.length(); i++) {\n            allHighestBids[i] = getTokenHighestBid(_tokenIdWithBid.at(i));\n        }\n        return allHighestBids;\n    }\n\n    /**\n     * @dev delist a token - remove token id record and remove listing from mapping\n     * @param tokenId erc721 token Id\n     */\n    function _delistToken(uint256 tokenId) private {\n        if (_tokenIdWithListing.contains(tokenId)) {\n            delete _tokenListings[tokenId];\n            _tokenIdWithListing.remove(tokenId);\n        }\n    }\n\n    /**\n     * @dev remove a bid of a bidder\n     * @param tokenId erc721 token Id\n     * @param bidder bidder address\n     */\n    function _removeBidOfBidder(uint256 tokenId, address bidder) private {\n        if (_tokenBids[tokenId].bidders.contains(bidder)) {\n            // Step 1: delete the bid and the address\n            delete _tokenBids[tokenId].bids[bidder];\n            _tokenBids[tokenId].bidders.remove(bidder);\n\n            // Step 2: if no bid left\n            if (_tokenBids[tokenId].bidders.length() == 0) {\n                _tokenIdWithBid.remove(tokenId);\n            }\n        }\n    }\n\n    /**\n     * @dev See {INFTKEYMarketPlaceV1-listToken}.\n     * People can only list if listing is allowed\n     * The timestamp set needs to be in the allowed range\n     * Only token owner can list token\n     * Price must be higher than 0\n     * This contract must be approved to transfer this token\n     */\n    function listToken(\n        uint256 tokenId,\n        uint256 value,\n        uint256 expireTimestamp\n    ) external override onlyMarketplaceOpen onlyAllowedExpireTimestamp(expireTimestamp) {\n        require(value > 0, \"Please list for more than 0 or use the transfer function\");\n        require(_isTokenOwner(tokenId, msg.sender), \"Only token owner can list token\");\n        require(\n            _isTokenApproved(tokenId) || _isAllTokenApproved(msg.sender),\n            \"This token is not allowed to transfer by this contract\"\n        );\n\n        _tokenListings[tokenId] = Listing(tokenId, value, msg.sender, expireTimestamp);\n        _tokenIdWithListing.add(tokenId);\n\n        emit TokenListed(tokenId, msg.sender, value);\n    }\n\n    /**\n     * @dev See {INFTKEYMarketPlaceV1-delistToken}.\n     * msg.sender must be the seller of the listing record\n     */\n    function delistToken(uint256 tokenId) external override {\n        require(_tokenListings[tokenId].seller == msg.sender, \"Only token seller can delist token\");\n        emit TokenDelisted(tokenId, _tokenListings[tokenId].seller);\n        _delistToken(tokenId);\n    }\n\n    /**\n     * @dev See {INFTKEYMarketPlaceV1-buyToken}.\n     * Must have a valid listing\n     * msg.sender must not the owner of token\n     * msg.value must be at least sell price plus fees\n     */\n    function buyToken(uint256 tokenId) external payable override nonReentrant {\n        Listing memory listing = getTokenListing(tokenId); // Get valid listing\n        require(listing.seller != address(0), \"Token is not for sale\"); // Listing not valid\n        require(!_isTokenOwner(tokenId, msg.sender), \"Token owner can't buy their own token\");\n\n        uint256 fees = listing.listingPrice.mul(_feeFraction).div(_feeBase);\n        require(\n            msg.value >= listing.listingPrice + fees,\n            \"The value send is below sale price plus fees\"\n        );\n\n        // Send value to token seller and fees to contract owner\n        uint256 valueWithoutFees = msg.value.sub(fees);\n        Address.sendValue(payable(listing.seller), valueWithoutFees);\n        Address.sendValue(payable(owner()), fees);\n\n        // Send token to buyer\n        emit TokenBought(tokenId, listing.seller, msg.sender, msg.value, valueWithoutFees, fees);\n        _erc721.safeTransferFrom(listing.seller, msg.sender, tokenId);\n\n        // Remove token listing\n        _delistToken(tokenId);\n        _removeBidOfBidder(tokenId, msg.sender);\n    }\n\n    /**\n     * @dev See {INFTKEYMarketPlaceV1-enterBidForToken}.\n     * People can only enter bid if bid is allowed\n     * The timestamp set needs to be in the allowed range\n     * bid price > 0\n     * must not be token owner\n     * must allow this contract to spend enough payment token\n     */\n    function enterBidForToken(\n        uint256 tokenId,\n        uint256 bidPrice,\n        uint256 expireTimestamp\n    ) external override onlyMarketplaceOpen onlyAllowedExpireTimestamp(expireTimestamp) {\n        require(bidPrice > 0, \"Please bid for more than 0\");\n        require(!_isTokenOwner(tokenId, msg.sender), \"This Token belongs to this address\");\n        require(\n            _paymentToken.allowance(msg.sender, address(this)) >= bidPrice,\n            \"Need to have enough token holding to bid on this token\"\n        );\n\n        Bid memory bid = Bid(tokenId, bidPrice, msg.sender, expireTimestamp);\n\n        // if no bids of this token add a entry to both records _tokenIdWithBid and _tokenBids\n        if (!_tokenIdWithBid.contains(tokenId)) {\n            _tokenIdWithBid.add(tokenId);\n            _tokenBids[tokenId] = TokenBid(_emptyBidders);\n        }\n\n        _tokenBids[tokenId].bidders.add(msg.sender);\n        _tokenBids[tokenId].bids[msg.sender] = bid;\n\n        emit TokenBidEntered(tokenId, msg.sender, bidPrice);\n    }\n\n    /**\n     * @dev See {INFTKEYMarketPlaceV1-withdrawBidForToken}.\n     * There must be a bid exists\n     * remove this bid record\n     */\n    function withdrawBidForToken(uint256 tokenId) external override {\n        Bid memory bid = _tokenBids[tokenId].bids[msg.sender];\n        require(bid.bidder == msg.sender, \"This address doesn't have bid on this token\");\n\n        emit TokenBidWithdrawn(tokenId, bid.bidder, bid.bidPrice);\n        _removeBidOfBidder(tokenId, msg.sender);\n    }\n\n    /**\n     * @dev See {INFTKEYMarketPlaceV1-acceptBidForToken}.\n     * Must be owner of this token\n     * Must have approved this contract to transfer token\n     * Must have a valid existing bid that matches the bidder address\n     */\n    function acceptBidForToken(uint256 tokenId, address bidder) external override nonReentrant {\n        require(_isTokenOwner(tokenId, msg.sender), \"Only token owner can accept bid of token\");\n        require(\n            _isTokenApproved(tokenId) || _isAllTokenApproved(msg.sender),\n            \"The token is not approved to transfer by the contract\"\n        );\n\n        Bid memory existingBid = getBidderTokenBid(tokenId, bidder);\n        require(\n            existingBid.bidPrice > 0 && existingBid.bidder == bidder,\n            \"This token doesn't have a matching bid\"\n        );\n\n        uint256 fees = existingBid.bidPrice.mul(_feeFraction).div(_feeBase + _feeFraction);\n        uint256 tokenValue = existingBid.bidPrice.sub(fees);\n\n        SafeERC20.safeTransferFrom(_paymentToken, existingBid.bidder, msg.sender, tokenValue);\n        SafeERC20.safeTransferFrom(_paymentToken, existingBid.bidder, owner(), fees);\n\n        _erc721.safeTransferFrom(msg.sender, existingBid.bidder, tokenId);\n\n        emit TokenBidAccepted(\n            tokenId,\n            msg.sender,\n            existingBid.bidder,\n            existingBid.bidPrice,\n            tokenValue,\n            fees\n        );\n\n        // Remove token listing\n        _delistToken(tokenId);\n        _removeBidOfBidder(tokenId, existingBid.bidder);\n    }\n\n    /**\n     * @dev See {INFTKEYMarketPlaceV1-getInvalidListingCount}.\n     */\n    function getInvalidListingCount() external view override returns (uint256) {\n        uint256 count = 0;\n        for (uint256 i = 0; i < _tokenIdWithListing.length(); i++) {\n            if (!_isListingValid(_tokenListings[_tokenIdWithListing.at(i)])) {\n                count = count.add(1);\n            }\n        }\n        return count;\n    }\n\n    /**\n     * @dev Count how many bid records of a token are invalid now\n     */\n    function _getInvalidBidOfTokenCount(uint256 tokenId) private view returns (uint256) {\n        uint256 count = 0;\n        for (uint256 i = 0; i < _tokenBids[tokenId].bidders.length(); i++) {\n            address bidder = _tokenBids[tokenId].bidders.at(i);\n            Bid memory bid = _tokenBids[tokenId].bids[bidder];\n            if (!_isBidValid(bid)) {\n                count = count.add(1);\n            }\n        }\n        return count;\n    }\n\n    /**\n     * @dev See {INFTKEYMarketPlaceV1-getInvalidBidCount}.\n     */\n    function getInvalidBidCount() external view override returns (uint256) {\n        uint256 count = 0;\n        for (uint256 i = 0; i < _tokenIdWithBid.length(); i++) {\n            count = count.add(_getInvalidBidOfTokenCount(_tokenIdWithBid.at(i)));\n        }\n        return count;\n    }\n\n    /**\n     * @dev See {INFTKEYMarketPlaceV1-cleanAllInvalidListings}.\n     */\n    function cleanAllInvalidListings() external override {\n        for (uint256 i = 0; i < _tokenIdWithListing.length(); i++) {\n            _tempTokenIdStorage.push(_tokenIdWithListing.at(i));\n        }\n        for (uint256 i = 0; i < _tempTokenIdStorage.length; i++) {\n            uint256 tokenId = _tempTokenIdStorage[i];\n            if (!_isListingValid(_tokenListings[tokenId])) {\n                _delistToken(tokenId);\n            }\n        }\n        delete _tempTokenIdStorage;\n    }\n\n    /**\n     * @dev remove invalid bids of a token\n     * @param tokenId erc721 token Id\n     */\n    function _cleanInvalidBidsOfToken(uint256 tokenId) private {\n        for (uint256 i = 0; i < _tokenBids[tokenId].bidders.length(); i++) {\n            _tempBidderStorage.push(_tokenBids[tokenId].bidders.at(i));\n        }\n        for (uint256 i = 0; i < _tempBidderStorage.length; i++) {\n            address bidder = _tempBidderStorage[i];\n            Bid memory bid = _tokenBids[tokenId].bids[bidder];\n            if (!_isBidValid(bid)) {\n                _removeBidOfBidder(tokenId, bidder);\n            }\n        }\n        delete _tempBidderStorage;\n    }\n\n    /**\n     * @dev See {INFTKEYMarketPlaceV1-cleanAllInvalidBids}.\n     */\n    function cleanAllInvalidBids() external override {\n        for (uint256 i = 0; i < _tokenIdWithBid.length(); i++) {\n            _tempTokenIdStorage.push(_tokenIdWithBid.at(i));\n        }\n        for (uint256 i = 0; i < _tempTokenIdStorage.length; i++) {\n            _cleanInvalidBidsOfToken(_tempTokenIdStorage[i]);\n        }\n        delete _tempTokenIdStorage;\n    }\n\n    /**\n     * @dev See {INFTKEYMarketPlaceV1-erc721Name}.\n     */\n    function erc721Name() external view override returns (string memory) {\n        return _erc721Name;\n    }\n\n    /**\n     * @dev See {INFTKEYMarketPlaceV1-isListingAndBidEnabled}.\n     */\n    function isListingAndBidEnabled() external view override returns (bool) {\n        return _isListingAndBidEnabled;\n    }\n\n    /**\n     * @dev Enable to disable Bids and Listing\n     */\n    function changeMarketplaceStatus(bool enabled) external onlyOwner {\n        _isListingAndBidEnabled = enabled;\n    }\n\n    /**\n     * @dev See {INFTKEYMarketPlaceV1-actionTimeOutRangeMin}.\n     */\n    function actionTimeOutRangeMin() external view override returns (uint256) {\n        return _actionTimeOutRangeMin;\n    }\n\n    /**\n     * @dev See {INFTKEYMarketPlaceV1-actionTimeOutRangeMax}.\n     */\n    function actionTimeOutRangeMax() external view override returns (uint256) {\n        return _actionTimeOutRangeMax;\n    }\n\n    /**\n     * @dev Change minimum listing and bid time range\n     */\n    function changeMinActionTimeLimit(uint256 timeInSec) external onlyOwner {\n        _actionTimeOutRangeMin = timeInSec;\n    }\n\n    /**\n     * @dev Change maximum listing and bid time range\n     */\n    function changeMaxActionTimeLimit(uint256 timeInSec) external onlyOwner {\n        _actionTimeOutRangeMax = timeInSec;\n    }\n\n    /**\n     * @dev See {INFTKEYMarketPlaceV1-serviceFee}.\n     */\n    function serviceFee() external view override returns (uint8, uint8) {\n        return (_feeFraction, _feeBase);\n    }\n\n    /**\n     * @dev Change withdrawal fee percentage.\n     * If 1%, then input (1,100)\n     * If 0.5%, then input (5,1000)\n     * @param feeFraction_ Fraction of withdrawal fee based on feeBase_\n     * @param feeBase_ Fraction of withdrawal fee base\n     */\n    function changeSeriveFee(uint8 feeFraction_, uint8 feeBase_) external onlyOwner {\n        require(feeFraction_ <= feeBase_, \"Fee fraction exceeded base.\");\n        uint256 percentage = (feeFraction_ * 1000) / feeBase_;\n        require(percentage <= 25, \"Attempt to set percentage higher than 2.5%.\");\n\n        _feeFraction = feeFraction_;\n        _feeBase = feeBase_;\n    }\n}\n",
  "sourcePath": "/Users/fayexue/projects/nftkey-marketplace/contracts/NFTKEYMarketPlaceV1.sol",
  "compiler": {
    "name": "solc",
    "version": "0.6.12+commit.27d51765.Emscripten.clang"
  },
  "schemaVersion": "3.3.4",
  "updatedAt": "2021-03-29T02:58:46.596Z",
  "devdoc": {
    "kind": "dev",
    "methods": {
      "acceptBidForToken(uint256,address)": {
        "details": "See {INFTKEYMarketPlaceV1-acceptBidForToken}. Must be owner of this token Must have approved this contract to transfer token Must have a valid existing bid that matches the bidder address"
      },
      "actionTimeOutRangeMax()": {
        "details": "See {INFTKEYMarketPlaceV1-actionTimeOutRangeMax}."
      },
      "actionTimeOutRangeMin()": {
        "details": "See {INFTKEYMarketPlaceV1-actionTimeOutRangeMin}."
      },
      "buyToken(uint256)": {
        "details": "See {INFTKEYMarketPlaceV1-buyToken}. Must have a valid listing msg.sender must not the owner of token msg.value must be at least sell price plus fees"
      },
      "changeMarketplaceStatus(bool)": {
        "details": "Enable to disable Bids and Listing"
      },
      "changeMaxActionTimeLimit(uint256)": {
        "details": "Change maximum listing and bid time range"
      },
      "changeMinActionTimeLimit(uint256)": {
        "details": "Change minimum listing and bid time range"
      },
      "changeSeriveFee(uint8,uint8)": {
        "details": "Change withdrawal fee percentage. If 1%, then input (1,100) If 0.5%, then input (5,1000)",
        "params": {
          "feeBase_": "Fraction of withdrawal fee base",
          "feeFraction_": "Fraction of withdrawal fee based on feeBase_"
        }
      },
      "cleanAllInvalidBids()": {
        "details": "See {INFTKEYMarketPlaceV1-cleanAllInvalidBids}."
      },
      "cleanAllInvalidListings()": {
        "details": "See {INFTKEYMarketPlaceV1-cleanAllInvalidListings}."
      },
      "delistToken(uint256)": {
        "details": "See {INFTKEYMarketPlaceV1-delistToken}. msg.sender must be the seller of the listing record"
      },
      "enterBidForToken(uint256,uint256,uint256)": {
        "details": "See {INFTKEYMarketPlaceV1-enterBidForToken}. People can only enter bid if bid is allowed The timestamp set needs to be in the allowed range bid price > 0 must not be token owner must allow this contract to spend enough payment token"
      },
      "erc721Name()": {
        "details": "See {INFTKEYMarketPlaceV1-erc721Name}."
      },
      "getAllTokenHighestBids()": {
        "details": "See {INFTKEYMarketPlaceV1-getAllTokenHighestBids}."
      },
      "getBidderTokenBid(uint256,address)": {
        "details": "See {INFTKEYMarketPlaceV1-getBidderTokenBid}."
      },
      "getInvalidBidCount()": {
        "details": "See {INFTKEYMarketPlaceV1-getInvalidBidCount}."
      },
      "getInvalidListingCount()": {
        "details": "See {INFTKEYMarketPlaceV1-getInvalidListingCount}."
      },
      "getTokenBids(uint256)": {
        "details": "See {INFTKEYMarketPlaceV1-getTokenBids}."
      },
      "getTokenHighestBid(uint256)": {
        "details": "See {INFTKEYMarketPlaceV1-getTokenHighestBid}."
      },
      "getTokenListing(uint256)": {
        "details": "See {INFTKEYMarketPlaceV1-getTokenListing}."
      },
      "getTokenListings()": {
        "details": "See {INFTKEYMarketPlaceV1-getTokenListings}."
      },
      "isListingAndBidEnabled()": {
        "details": "See {INFTKEYMarketPlaceV1-isListingAndBidEnabled}."
      },
      "listToken(uint256,uint256,uint256)": {
        "details": "See {INFTKEYMarketPlaceV1-listToken}. People can only list if listing is allowed The timestamp set needs to be in the allowed range Only token owner can list token Price must be higher than 0 This contract must be approved to transfer this token"
      },
      "owner()": {
        "details": "Returns the address of the current owner."
      },
      "paymentTokenAddress()": {
        "details": "See {INFTKEYMarketPlaceV1-paymentTokenAddress}."
      },
      "renounceOwnership()": {
        "details": "Leaves the contract without owner. It will not be possible to call `onlyOwner` functions anymore. Can only be called by the current owner. NOTE: Renouncing ownership will leave the contract without an owner, thereby removing any functionality that is only available to the owner."
      },
      "serviceFee()": {
        "details": "See {INFTKEYMarketPlaceV1-serviceFee}."
      },
      "tokenAddress()": {
        "details": "See {INFTKEYMarketPlaceV1-tokenAddress}."
      },
      "transferOwnership(address)": {
        "details": "Transfers ownership of the contract to a new account (`newOwner`). Can only be called by the current owner."
      },
      "withdrawBidForToken(uint256)": {
        "details": "See {INFTKEYMarketPlaceV1-withdrawBidForToken}. There must be a bid exists remove this bid record"
      }
    },
    "title": "NFTKEY MarketPlace contract V1 Note: This marketplace contract is collection based. It serves one ERC721 contract only Payment tokens usually is the chain native coin's wrapped token, e.g. WETH, WBNB",
    "version": 1
  },
  "userdoc": {
    "kind": "user",
    "methods": {},
    "version": 1
  }
}