{
  "contractName": "NFTKEYMarketPlaceV1",
  "abi": [
    {
      "inputs": [
        {
          "internalType": "string",
          "name": "erc721Name_",
          "type": "string"
        },
        {
          "internalType": "address",
          "name": "_erc721Address",
          "type": "address"
        },
        {
          "internalType": "address",
          "name": "_paymentTokenAddress",
          "type": "address"
        }
      ],
      "stateMutability": "nonpayable",
      "type": "constructor"
    },
    {
      "anonymous": false,
      "inputs": [
        {
          "indexed": true,
          "internalType": "address",
          "name": "previousOwner",
          "type": "address"
        },
        {
          "indexed": true,
          "internalType": "address",
          "name": "newOwner",
          "type": "address"
        }
      ],
      "name": "OwnershipTransferred",
      "type": "event"
    },
    {
      "anonymous": false,
      "inputs": [
        {
          "indexed": true,
          "internalType": "uint256",
          "name": "tokenId",
          "type": "uint256"
        },
        {
          "indexed": true,
          "internalType": "address",
          "name": "owner",
          "type": "address"
        },
        {
          "indexed": true,
          "internalType": "address",
          "name": "bidder",
          "type": "address"
        },
        {
          "indexed": false,
          "internalType": "uint256",
          "name": "total",
          "type": "uint256"
        },
        {
          "indexed": false,
          "internalType": "uint256",
          "name": "value",
          "type": "uint256"
        },
        {
          "indexed": false,
          "internalType": "uint256",
          "name": "fees",
          "type": "uint256"
        }
      ],
      "name": "TokenBidAccepted",
      "type": "event"
    },
    {
      "anonymous": false,
      "inputs": [
        {
          "indexed": true,
          "internalType": "uint256",
          "name": "tokenId",
          "type": "uint256"
        },
        {
          "indexed": true,
          "internalType": "address",
          "name": "fromAddress",
          "type": "address"
        },
        {
          "indexed": false,
          "internalType": "uint256",
          "name": "value",
          "type": "uint256"
        }
      ],
      "name": "TokenBidEntered",
      "type": "event"
    },
    {
      "anonymous": false,
      "inputs": [
        {
          "indexed": true,
          "internalType": "uint256",
          "name": "tokenId",
          "type": "uint256"
        },
        {
          "indexed": true,
          "internalType": "address",
          "name": "fromAddress",
          "type": "address"
        },
        {
          "indexed": false,
          "internalType": "uint256",
          "name": "value",
          "type": "uint256"
        }
      ],
      "name": "TokenBidWithdrawn",
      "type": "event"
    },
    {
      "anonymous": false,
      "inputs": [
        {
          "indexed": true,
          "internalType": "uint256",
          "name": "tokenId",
          "type": "uint256"
        },
        {
          "indexed": true,
          "internalType": "address",
          "name": "fromAddress",
          "type": "address"
        },
        {
          "indexed": true,
          "internalType": "address",
          "name": "toAddress",
          "type": "address"
        },
        {
          "indexed": false,
          "internalType": "uint256",
          "name": "total",
          "type": "uint256"
        },
        {
          "indexed": false,
          "internalType": "uint256",
          "name": "value",
          "type": "uint256"
        },
        {
          "indexed": false,
          "internalType": "uint256",
          "name": "fees",
          "type": "uint256"
        }
      ],
      "name": "TokenBought",
      "type": "event"
    },
    {
      "anonymous": false,
      "inputs": [
        {
          "indexed": true,
          "internalType": "uint256",
          "name": "tokenId",
          "type": "uint256"
        },
        {
          "indexed": true,
          "internalType": "address",
          "name": "fromAddress",
          "type": "address"
        }
      ],
      "name": "TokenDelisted",
      "type": "event"
    },
    {
      "anonymous": false,
      "inputs": [
        {
          "indexed": true,
          "internalType": "uint256",
          "name": "tokenId",
          "type": "uint256"
        },
        {
          "indexed": true,
          "internalType": "address",
          "name": "fromAddress",
          "type": "address"
        },
        {
          "indexed": false,
          "internalType": "uint256",
          "name": "minValue",
          "type": "uint256"
        }
      ],
      "name": "TokenListed",
      "type": "event"
    },
    {
      "inputs": [],
      "name": "owner",
      "outputs": [
        {
          "internalType": "address",
          "name": "",
          "type": "address"
        }
      ],
      "stateMutability": "view",
      "type": "function"
    },
    {
      "inputs": [],
      "name": "renounceOwnership",
      "outputs": [],
      "stateMutability": "nonpayable",
      "type": "function"
    },
    {
      "inputs": [
        {
          "internalType": "address",
          "name": "newOwner",
          "type": "address"
        }
      ],
      "name": "transferOwnership",
      "outputs": [],
      "stateMutability": "nonpayable",
      "type": "function"
    },
    {
      "inputs": [],
      "name": "tokenAddress",
      "outputs": [
        {
          "internalType": "address",
          "name": "",
          "type": "address"
        }
      ],
      "stateMutability": "view",
      "type": "function"
    },
    {
      "inputs": [],
      "name": "paymentTokenAddress",
      "outputs": [
        {
          "internalType": "address",
          "name": "",
          "type": "address"
        }
      ],
      "stateMutability": "view",
      "type": "function"
    },
    {
      "inputs": [
        {
          "internalType": "uint256",
          "name": "tokenId",
          "type": "uint256"
        }
      ],
      "name": "getTokenListing",
      "outputs": [
        {
          "components": [
            {
              "internalType": "uint256",
              "name": "tokenId",
              "type": "uint256"
            },
            {
              "internalType": "uint256",
              "name": "listingPrice",
              "type": "uint256"
            },
            {
              "internalType": "address",
              "name": "seller",
              "type": "address"
            },
            {
              "internalType": "uint256",
              "name": "expireTimestamp",
              "type": "uint256"
            }
          ],
          "internalType": "struct INFTKEYMarketPlaceV1.Listing",
          "name": "",
          "type": "tuple"
        }
      ],
      "stateMutability": "view",
      "type": "function"
    },
    {
      "inputs": [],
      "name": "getTokenListings",
      "outputs": [
        {
          "components": [
            {
              "internalType": "uint256",
              "name": "tokenId",
              "type": "uint256"
            },
            {
              "internalType": "uint256",
              "name": "listingPrice",
              "type": "uint256"
            },
            {
              "internalType": "address",
              "name": "seller",
              "type": "address"
            },
            {
              "internalType": "uint256",
              "name": "expireTimestamp",
              "type": "uint256"
            }
          ],
          "internalType": "struct INFTKEYMarketPlaceV1.Listing[]",
          "name": "",
          "type": "tuple[]"
        }
      ],
      "stateMutability": "view",
      "type": "function"
    },
    {
      "inputs": [
        {
          "internalType": "uint256",
          "name": "tokenId",
          "type": "uint256"
        },
        {
          "internalType": "address",
          "name": "bidder",
          "type": "address"
        }
      ],
      "name": "getBidderTokenBid",
      "outputs": [
        {
          "components": [
            {
              "internalType": "uint256",
              "name": "tokenId",
              "type": "uint256"
            },
            {
              "internalType": "uint256",
              "name": "bidPrice",
              "type": "uint256"
            },
            {
              "internalType": "address",
              "name": "bidder",
              "type": "address"
            },
            {
              "internalType": "uint256",
              "name": "expireTimestamp",
              "type": "uint256"
            }
          ],
          "internalType": "struct INFTKEYMarketPlaceV1.Bid",
          "name": "",
          "type": "tuple"
        }
      ],
      "stateMutability": "view",
      "type": "function"
    },
    {
      "inputs": [
        {
          "internalType": "uint256",
          "name": "tokenId",
          "type": "uint256"
        }
      ],
      "name": "getTokenBids",
      "outputs": [
        {
          "components": [
            {
              "internalType": "uint256",
              "name": "tokenId",
              "type": "uint256"
            },
            {
              "internalType": "uint256",
              "name": "bidPrice",
              "type": "uint256"
            },
            {
              "internalType": "address",
              "name": "bidder",
              "type": "address"
            },
            {
              "internalType": "uint256",
              "name": "expireTimestamp",
              "type": "uint256"
            }
          ],
          "internalType": "struct INFTKEYMarketPlaceV1.Bid[]",
          "name": "",
          "type": "tuple[]"
        }
      ],
      "stateMutability": "view",
      "type": "function"
    },
    {
      "inputs": [
        {
          "internalType": "uint256",
          "name": "tokenId",
          "type": "uint256"
        }
      ],
      "name": "getTokenHighestBid",
      "outputs": [
        {
          "components": [
            {
              "internalType": "uint256",
              "name": "tokenId",
              "type": "uint256"
            },
            {
              "internalType": "uint256",
              "name": "bidPrice",
              "type": "uint256"
            },
            {
              "internalType": "address",
              "name": "bidder",
              "type": "address"
            },
            {
              "internalType": "uint256",
              "name": "expireTimestamp",
              "type": "uint256"
            }
          ],
          "internalType": "struct INFTKEYMarketPlaceV1.Bid",
          "name": "",
          "type": "tuple"
        }
      ],
      "stateMutability": "view",
      "type": "function"
    },
    {
      "inputs": [],
      "name": "getAllTokenHighestBids",
      "outputs": [
        {
          "components": [
            {
              "internalType": "uint256",
              "name": "tokenId",
              "type": "uint256"
            },
            {
              "internalType": "uint256",
              "name": "bidPrice",
              "type": "uint256"
            },
            {
              "internalType": "address",
              "name": "bidder",
              "type": "address"
            },
            {
              "internalType": "uint256",
              "name": "expireTimestamp",
              "type": "uint256"
            }
          ],
          "internalType": "struct INFTKEYMarketPlaceV1.Bid[]",
          "name": "",
          "type": "tuple[]"
        }
      ],
      "stateMutability": "view",
      "type": "function"
    },
    {
      "inputs": [
        {
          "internalType": "uint256",
          "name": "tokenId",
          "type": "uint256"
        },
        {
          "internalType": "uint256",
          "name": "value",
          "type": "uint256"
        },
        {
          "internalType": "uint256",
          "name": "expireTimestamp",
          "type": "uint256"
        }
      ],
      "name": "listToken",
      "outputs": [],
      "stateMutability": "nonpayable",
      "type": "function"
    },
    {
      "inputs": [
        {
          "internalType": "uint256",
          "name": "tokenId",
          "type": "uint256"
        }
      ],
      "name": "delistToken",
      "outputs": [],
      "stateMutability": "nonpayable",
      "type": "function"
    },
    {
      "inputs": [
        {
          "internalType": "uint256",
          "name": "tokenId",
          "type": "uint256"
        }
      ],
      "name": "buyToken",
      "outputs": [],
      "stateMutability": "payable",
      "type": "function"
    },
    {
      "inputs": [
        {
          "internalType": "uint256",
          "name": "tokenId",
          "type": "uint256"
        },
        {
          "internalType": "uint256",
          "name": "bidPrice",
          "type": "uint256"
        },
        {
          "internalType": "uint256",
          "name": "expireTimestamp",
          "type": "uint256"
        }
      ],
      "name": "enterBidForToken",
      "outputs": [],
      "stateMutability": "nonpayable",
      "type": "function"
    },
    {
      "inputs": [
        {
          "internalType": "uint256",
          "name": "tokenId",
          "type": "uint256"
        }
      ],
      "name": "withdrawBidForToken",
      "outputs": [],
      "stateMutability": "nonpayable",
      "type": "function"
    },
    {
      "inputs": [
        {
          "internalType": "uint256",
          "name": "tokenId",
          "type": "uint256"
        },
        {
          "internalType": "address",
          "name": "bidder",
          "type": "address"
        }
      ],
      "name": "acceptBidForToken",
      "outputs": [],
      "stateMutability": "nonpayable",
      "type": "function"
    },
    {
      "inputs": [],
      "name": "getInvalidListingCount",
      "outputs": [
        {
          "internalType": "uint256",
          "name": "",
          "type": "uint256"
        }
      ],
      "stateMutability": "view",
      "type": "function"
    },
    {
      "inputs": [],
      "name": "getInvalidBidCount",
      "outputs": [
        {
          "internalType": "uint256",
          "name": "",
          "type": "uint256"
        }
      ],
      "stateMutability": "view",
      "type": "function"
    },
    {
      "inputs": [],
      "name": "cleanAllInvalidListings",
      "outputs": [],
      "stateMutability": "nonpayable",
      "type": "function"
    },
    {
      "inputs": [],
      "name": "cleanAllInvalidBids",
      "outputs": [],
      "stateMutability": "nonpayable",
      "type": "function"
    },
    {
      "inputs": [],
      "name": "erc721Name",
      "outputs": [
        {
          "internalType": "string",
          "name": "",
          "type": "string"
        }
      ],
      "stateMutability": "view",
      "type": "function"
    },
    {
      "inputs": [],
      "name": "isListingAndBidEnabled",
      "outputs": [
        {
          "internalType": "bool",
          "name": "",
          "type": "bool"
        }
      ],
      "stateMutability": "view",
      "type": "function"
    },
    {
      "inputs": [
        {
          "internalType": "bool",
          "name": "enabled",
          "type": "bool"
        }
      ],
      "name": "changeMarketplaceStatus",
      "outputs": [],
      "stateMutability": "nonpayable",
      "type": "function"
    },
    {
      "inputs": [],
      "name": "actionTimeOutRangeMin",
      "outputs": [
        {
          "internalType": "uint256",
          "name": "",
          "type": "uint256"
        }
      ],
      "stateMutability": "view",
      "type": "function"
    },
    {
      "inputs": [],
      "name": "actionTimeOutRangeMax",
      "outputs": [
        {
          "internalType": "uint256",
          "name": "",
          "type": "uint256"
        }
      ],
      "stateMutability": "view",
      "type": "function"
    },
    {
      "inputs": [
        {
          "internalType": "uint256",
          "name": "timeInSec",
          "type": "uint256"
        }
      ],
      "name": "changeMinActionTimeLimit",
      "outputs": [],
      "stateMutability": "nonpayable",
      "type": "function"
    },
    {
      "inputs": [
        {
          "internalType": "uint256",
          "name": "timeInSec",
          "type": "uint256"
        }
      ],
      "name": "changeMaxActionTimeLimit",
      "outputs": [],
      "stateMutability": "nonpayable",
      "type": "function"
    },
    {
      "inputs": [],
      "name": "serviceFee",
      "outputs": [
        {
          "internalType": "uint8",
          "name": "",
          "type": "uint8"
        },
        {
          "internalType": "uint8",
          "name": "",
          "type": "uint8"
        }
      ],
      "stateMutability": "view",
      "type": "function"
    },
    {
      "inputs": [
        {
          "internalType": "uint8",
          "name": "feeFraction_",
          "type": "uint8"
        },
        {
          "internalType": "uint8",
          "name": "feeBase_",
          "type": "uint8"
        }
      ],
      "name": "changeSeriveFee",
      "outputs": [],
      "stateMutability": "nonpayable",
      "type": "function"
    }
  ],
  "bytecode": "0x60c060405260038054610100600160ff199092169190911761ff0019161762ff0000191662640000179055620151806004556301e133806005553480156200004657600080fd5b506040516200417738038062004177833981016040819052620000699162000199565b600062000075620000f9565b600080546001600160a01b0319166001600160a01b0383169081178255604051929350917f8be0079c531659141344cd1fd0a4f28419497f9722a3daafe3b4186f6b6457e0908290a350600180558251620000d8906002906020860190620000fd565b506001600160601b0319606092831b8116608052911b1660a05250620002ce565b3390565b828054600181600116156101000203166002900490600052602060002090601f016020900481019282601f106200014057805160ff191683800117855562000170565b8280016001018555821562000170579182015b828111156200017057825182559160200191906001019062000153565b506200017e92915062000182565b5090565b5b808211156200017e576000815560010162000183565b600080600060608486031215620001ae578283fd5b83516001600160401b0380821115620001c5578485fd5b818601915086601f830112620001d9578485fd5b815181811115620001e8578586fd5b620001fd601f8201601f19166020016200025b565b915080825287602082850101111562000214578586fd5b6200022781602084016020860162000282565b50809450505060208401516200023d81620002b5565b60408501519092506200025081620002b5565b809150509250925092565b6040518181016001600160401b03811182821017156200027a57600080fd5b604052919050565b60005b838110156200029f57818101518382015260200162000285565b83811115620002af576000848401525b50505050565b6001600160a01b0381168114620002cb57600080fd5b50565b60805160601c60a05160601c613e526200032560003980610b745280610ba4528061156b5280611c6152806122705250806109395280610c18528061143252806123445280612714528061280b5250613e526000f3fe6080604052600436106101cd5760003560e01c80638abdf5aa116100f7578063b6be53ba11610095578063e724488111610064578063e7244881146104d2578063e7d585a8146104f2578063f0e6dcab14610512578063f2fde38b14610534576101cd565b8063b6be53ba14610450578063bce64a7d14610470578063bed659bc14610490578063d4eb5ded146104b0576101cd565b80639d76ea58116100d15780639d76ea58146103f1578063a3c0b5f014610406578063a6a27f3a14610426578063afb18fe71461043b576101cd565b80638abdf5aa1461038c5780638da5cb5b146103af57806398792eec146103d1576101cd565b8063453dfc501161016f578063715018a61161013e578063715018a61461032057806373885b70146103355780637d7660e01461035757806385f5a92a1461036c576101cd565b8063453dfc50146102a957806354b0de6a146102be5780635eef51ee146102e057806370a3b39014610300576101cd565b806333549d3d116101ab57806333549d3d1461023d578063336c16c61461025f578063383fba251461027f57806340a9791914610294576101cd565b80631e56afe9146101d25780632426fc24146102085780632d296bf11461022a575b600080fd5b3480156101de57600080fd5b506101f26101ed36600461312b565b610554565b6040516101ff9190613d7f565b60405180910390f35b34801561021457600080fd5b5061022861022336600461312b565b610680565b005b61022861023836600461312b565b610701565b34801561024957600080fd5b506102526109bf565b6040516101ff9190613d8d565b34801561026b57600080fd5b5061022861027a36600461315b565b6109c5565b34801561028b57600080fd5b50610228610d10565b3480156102a057600080fd5b50610252610d42565b3480156102b557600080fd5b50610252610d85565b3480156102ca57600080fd5b506102d3610d8b565b6040516101ff91906132bd565b3480156102ec57600080fd5b506102286102fb3660046131b5565b610ea9565b34801561030c57600080fd5b506101f261031b36600461315b565b61101d565b34801561032c57600080fd5b506102286110af565b34801561034157600080fd5b5061034a611191565b6040516101ff9190613358565b34801561036357600080fd5b50610228611242565b34801561037857600080fd5b5061022861038736600461312b565b611271565b34801561039857600080fd5b506103a1611379565b6040516101ff929190613dac565b3480156103bb57600080fd5b506103c4611391565b6040516101ff9190613244565b3480156103dd57600080fd5b506101f26103ec36600461312b565b6113ad565b3480156103fd57600080fd5b506103c4611430565b34801561041257600080fd5b5061022861042136600461312b565b611454565b34801561043257600080fd5b506102526114cc565b34801561044757600080fd5b506103c4611569565b34801561045c57600080fd5b5061022861046b3660046130f3565b61158d565b34801561047c57600080fd5b5061022861048b36600461318a565b611631565b34801561049c57600080fd5b506102286104ab36600461312b565b6118ac565b3480156104bc57600080fd5b506104c5611969565b6040516101ff919061330b565b3480156104de57600080fd5b506102286104ed36600461318a565b611adf565b3480156104fe57600080fd5b506102d361050d36600461312b565b611eeb565b34801561051e57600080fd5b50610527612099565b6040516101ff919061334d565b34801561054057600080fd5b5061022861054f3660046130bb565b6120a2565b61055c61300c565b61056461300c565b604051806080016040528084815260200160008152602001600073ffffffffffffffffffffffffffffffffffffffff1681526020016000815250905060005b60008481526009602052604090206105ba906121ef565b8110156106775760008481526009602052604081206105d990836121fa565b90506105e361300c565b50600085815260096020908152604080832073ffffffffffffffffffffffffffffffffffffffff80861685526002918201845293829020825160808101845281548152600182015494810194909452908101549093169082015260039091015460608201526106518161220d565b8015610664575083602001518160200151115b1561066d578093505b50506001016105a3565b5090505b919050565b610688612325565b73ffffffffffffffffffffffffffffffffffffffff166106a6611391565b73ffffffffffffffffffffffffffffffffffffffff16146106fc576040517f08c379a00000000000000000000000000000000000000000000000000000000081526004016106f390613a40565b60405180910390fd5b600455565b6002600154141561073e576040517f08c379a00000000000000000000000000000000000000000000000000000000081526004016106f390613bfa565b600260015561074b61300c565b610754826113ad565b604081015190915073ffffffffffffffffffffffffffffffffffffffff166107a8576040517f08c379a00000000000000000000000000000000000000000000000000000000081526004016106f390613a09565b6107b28233612329565b156107e9576040517f08c379a00000000000000000000000000000000000000000000000000000000081526004016106f39061351d565b600354602082015160009161081a9160ff620100008304811692610814929161010090910416612409565b9061245d565b90508082602001510134101561085c576040517f08c379a00000000000000000000000000000000000000000000000000000000081526004016106f3906136b3565b600061086834836124a9565b90506108788360400151826124eb565b610889610883611391565b836124eb565b3373ffffffffffffffffffffffffffffffffffffffff16836040015173ffffffffffffffffffffffffffffffffffffffff16857f1d83c44501b48d5dc85fea9b94506cda160418d62c65b481199bdbec265df1573485876040516108ef93929190613d96565b60405180910390a460408084015190517f42842e0e00000000000000000000000000000000000000000000000000000000815273ffffffffffffffffffffffffffffffffffffffff7f000000000000000000000000000000000000000000000000000000000000000016916342842e0e9161097191903390899060040161328c565b600060405180830381600087803b15801561098b57600080fd5b505af115801561099f573d6000803e3d6000fd5b505050506109ac846125cd565b6109b58461261e565b5050600180555050565b60045490565b60026001541415610a02576040517f08c379a00000000000000000000000000000000000000000000000000000000081526004016106f390613bfa565b6002600155610a118233612329565b610a47576040517f08c379a00000000000000000000000000000000000000000000000000000000081526004016106f390613cc5565b610a50826126e7565b80610a5f5750610a5f336127cb565b610a95576040517f08c379a00000000000000000000000000000000000000000000000000000000081526004016106f3906133a9565b610a9d61300c565b610aa7838361101d565b905060008160200151118015610aec57508173ffffffffffffffffffffffffffffffffffffffff16816040015173ffffffffffffffffffffffffffffffffffffffff16145b610b22576040517f08c379a00000000000000000000000000000000000000000000000000000000081526004016106f390613463565b6003546020820151600091610b5291610100820460ff908116620100009093048116830116916108149190612409565b90506000610b6d8284602001516124a990919063ffffffff16565b9050610b9f7f000000000000000000000000000000000000000000000000000000000000000084604001513384612892565b610bd67f00000000000000000000000000000000000000000000000000000000000000008460400151610bd0611391565b85612892565b60408084015190517f42842e0e00000000000000000000000000000000000000000000000000000000815273ffffffffffffffffffffffffffffffffffffffff7f000000000000000000000000000000000000000000000000000000000000000016916342842e0e91610c4f9133918a9060040161328c565b600060405180830381600087803b158015610c6957600080fd5b505af1158015610c7d573d6000803e3d6000fd5b50505050826040015173ffffffffffffffffffffffffffffffffffffffff163373ffffffffffffffffffffffffffffffffffffffff16867f2c907f0c6ace0ad59e44f69f6873314bb2b85cca7eeffb05ca93fa65326bfbb486602001518587604051610ceb93929190613d96565b60405180910390a4610cfc8561293b565b610d058561261e565b505060018055505050565b60005b610d1d60076121ef565b811015610d3f57610d37610d326007836121fa565b61293b565b600101610d13565b50565b600080805b610d51600a6121ef565b811015610d7f57610d75610d6e610d69600a846121fa565b6129a8565b8390612a77565b9150600101610d47565b50905090565b60055490565b606080610d98600a6121ef565b67ffffffffffffffff81118015610dae57600080fd5b50604051908082528060200260200182016040528015610de857816020015b610dd561300c565b815260200190600190039081610dcd5790505b5090506000805b610df9600a6121ef565b811015610e4b57610e0861300c565b610e166101ed600a846121fa565b602081015190915015610e425780848481518110610e3057fe5b60209081029190910101526001909201915b50600101610def565b5060608167ffffffffffffffff81118015610e6557600080fd5b50604051908082528060200260200182016040528015610e9f57816020015b610e8c61300c565b815260200190600190039081610e845790505b5092935050505090565b610eb1612325565b73ffffffffffffffffffffffffffffffffffffffff16610ecf611391565b73ffffffffffffffffffffffffffffffffffffffff1614610f1c576040517f08c379a00000000000000000000000000000000000000000000000000000000081526004016106f390613a40565b8060ff168260ff161115610f5c576040517f08c379a00000000000000000000000000000000000000000000000000000000081526004016106f390613b66565b60008160ff168360ff166103e80261ffff1681610f7557fe5b0461ffff1690506019811115610fb7576040517f08c379a00000000000000000000000000000000000000000000000000000000081526004016106f390613895565b506003805460ff92831662010000027fffffffffffffffffffffffffffffffffffffffffffffffffffffffffff00ffff94909316610100027fffffffffffffffffffffffffffffffffffffffffffffffffffffffffffff00ff9091161792909216179055565b61102561300c565b61102d61300c565b50600083815260096020908152604080832073ffffffffffffffffffffffffffffffffffffffff808716855260029182018452938290208251608081018452815481526001820154948101949094529081015490931690820152600390910154606082015261109b8161220d565b156110a75790506110a9565b505b92915050565b6110b7612325565b73ffffffffffffffffffffffffffffffffffffffff166110d5611391565b73ffffffffffffffffffffffffffffffffffffffff1614611122576040517f08c379a00000000000000000000000000000000000000000000000000000000081526004016106f390613a40565b6000805460405173ffffffffffffffffffffffffffffffffffffffff909116907f8be0079c531659141344cd1fd0a4f28419497f9722a3daafe3b4186f6b6457e0908390a3600080547fffffffffffffffffffffffff0000000000000000000000000000000000000000169055565b60028054604080516020601f7fffffffffffffffffffffffffffffffffffffffffffffffffffffffffffffffff61010060018716150201909416859004938401819004810282018101909252828152606093909290918301828280156112385780601f1061120d57610100808354040283529160200191611238565b820191906000526020600020905b81548152906001019060200180831161121b57829003601f168201915b5050505050905090565b60005b61124f600a6121ef565b811015610d3f57611269611264600a836121fa565b61261e565b600101611245565b61127961300c565b5060008181526009602090815260408083203380855260029182018452938290208251608081018452815481526001820154948101949094529081015473ffffffffffffffffffffffffffffffffffffffff16918301829052600301546060830152909114611314576040517f08c379a00000000000000000000000000000000000000000000000000000000081526004016106f390613ad2565b806040015173ffffffffffffffffffffffffffffffffffffffff16827f4afa471ce7ab7fa67258e3afb1adf7e899e0495602eeb26d90d41e1b64dea5a683602001516040516113639190613d8d565b60405180910390a36113758233612ab6565b5050565b60035460ff6101008204811691620100009004169091565b60005473ffffffffffffffffffffffffffffffffffffffff1690565b6113b561300c565b6113bd61300c565b50600082815260066020908152604091829020825160808101845281548152600182015492810192909252600281015473ffffffffffffffffffffffffffffffffffffffff1692820192909252600390910154606082015261141e81612b78565b1561142a57905061067b565b50919050565b7f000000000000000000000000000000000000000000000000000000000000000090565b61145c612325565b73ffffffffffffffffffffffffffffffffffffffff1661147a611391565b73ffffffffffffffffffffffffffffffffffffffff16146114c7576040517f08c379a00000000000000000000000000000000000000000000000000000000081526004016106f390613a40565b600555565b600080805b6114db60076121ef565b811015610d7f5761154f600660006114f46007856121fa565b81526020808201929092526040908101600020815160808101835281548152600182015493810193909352600281015473ffffffffffffffffffffffffffffffffffffffff1691830191909152600301546060820152612b78565b6115615761155e826001612a77565b91505b6001016114d1565b7f000000000000000000000000000000000000000000000000000000000000000090565b611595612325565b73ffffffffffffffffffffffffffffffffffffffff166115b3611391565b73ffffffffffffffffffffffffffffffffffffffff1614611600576040517f08c379a00000000000000000000000000000000000000000000000000000000081526004016106f390613a40565b600380547fffffffffffffffffffffffffffffffffffffffffffffffffffffffffffffff0016911515919091179055565b60035460ff1661166d576040517f08c379a00000000000000000000000000000000000000000000000000000000081526004016106f3906135b1565b600454819061167c82426124a9565b10156116b4576040517f08c379a00000000000000000000000000000000000000000000000000000000081526004016106f390613d22565b6005546116c182426124a9565b11156116f9576040517f08c379a00000000000000000000000000000000000000000000000000000000081526004016106f3906137a4565b60008311611733576040517f08c379a00000000000000000000000000000000000000000000000000000000081526004016106f3906138f2565b61173d8433612329565b611773576040517f08c379a00000000000000000000000000000000000000000000000000000000081526004016106f390613c8e565b61177c846126e7565b8061178b575061178b336127cb565b6117c1576040517f08c379a00000000000000000000000000000000000000000000000000000000081526004016106f390613a75565b604080516080810182528581526020808201868152338385019081526060840187815260008a815260069094529490922092518355516001830155516002820180547fffffffffffffffffffffffff00000000000000000000000000000000000000001673ffffffffffffffffffffffffffffffffffffffff9092169190911790559051600390910155611856600785612bb1565b503373ffffffffffffffffffffffffffffffffffffffff16847f7765a1c07bdce3390c521eaeb86030b188b77cbaba2d76bd7c9c32d906bfbcba8560405161189e9190613d8d565b60405180910390a350505050565b60008181526006602052604090206002015473ffffffffffffffffffffffffffffffffffffffff16331461190c576040517f08c379a00000000000000000000000000000000000000000000000000000000081526004016106f390613c31565b60008181526006602052604080822060020154905173ffffffffffffffffffffffffffffffffffffffff9091169183917f70a382c18b6e794d86997f6e1f1efca577925cfa85c476a6ff7031f0a3dd6ed09190a3610d3f816125cd565b60608061197660076121ef565b67ffffffffffffffff8111801561198c57600080fd5b506040519080825280602002602001820160405280156119c657816020015b6119b361300c565b8152602001906001900390816119ab5790505b5090506000805b6119d760076121ef565b811015611a83576119e661300c565b600660006119f56007856121fa565b81526020808201929092526040908101600020815160808101835281548152600182015493810193909352600281015473ffffffffffffffffffffffffffffffffffffffff16918301919091526003015460608201529050611a5681612b78565b15611a7a5780848481518110611a6857fe5b60209081029190910101526001909201915b506001016119cd565b5060608167ffffffffffffffff81118015611a9d57600080fd5b50604051908082528060200260200182016040528015610e9f57816020015b611ac461300c565b815260200190600190039081611abc57509395945050505050565b60035460ff16611b1b576040517f08c379a00000000000000000000000000000000000000000000000000000000081526004016106f3906135b1565b6004548190611b2a82426124a9565b1015611b62576040517f08c379a00000000000000000000000000000000000000000000000000000000081526004016106f390613d22565b600554611b6f82426124a9565b1115611ba7576040517f08c379a00000000000000000000000000000000000000000000000000000000081526004016106f3906137a4565b60008311611be1576040517f08c379a00000000000000000000000000000000000000000000000000000000081526004016106f3906135e8565b611beb8433612329565b15611c22576040517f08c379a00000000000000000000000000000000000000000000000000000000081526004016106f390613838565b6040517fdd62ed3e000000000000000000000000000000000000000000000000000000008152839073ffffffffffffffffffffffffffffffffffffffff7f0000000000000000000000000000000000000000000000000000000000000000169063dd62ed3e90611c989033903090600401613265565b60206040518083038186803b158015611cb057600080fd5b505afa158015611cc4573d6000803e3d6000fd5b505050506040513d601f19601f82011682018060405250810190611ce89190613143565b1015611d20576040517f08c379a00000000000000000000000000000000000000000000000000000000081526004016106f39061394f565b611d2861300c565b506040805160808101825285815260208101859052339181019190915260608101839052611d57600a86612bbd565b611e0f57611d66600a86612bb1565b5060408051600c805460806020828102850182018652606085018381529495869591860194938593918701928592849284918a0182828015611dc757602002820191906000526020600020905b815481526020019060010190808311611db3575b505050919092525050509052509052600086815260096020908152604090912082518051805180519394929385938492611e07928492919091019061304a565b505050505050505b6000858152600960205260409020611e279033612bc9565b506000858152600960209081526040808320338085526002918201845293829020855181559285015160018401558482015190830180547fffffffffffffffffffffffff00000000000000000000000000000000000000001673ffffffffffffffffffffffffffffffffffffffff90921691909117905560608401516003909201919091555186907f0ea16c10401e9d7c547471845914c4a904af6a01b9fa1e195eeecae9f78bcca190611edc908890613d8d565b60405180910390a35050505050565b60008181526009602052604090206060908190611f07906121ef565b67ffffffffffffffff81118015611f1d57600080fd5b50604051908082528060200260200182016040528015611f5757816020015b611f4461300c565b815260200190600190039081611f3c5790505b5090506000805b6000858152600960205260409020611f75906121ef565b81101561203a576000858152600960205260408120611f9490836121fa565b9050611f9e61300c565b50600086815260096020908152604080832073ffffffffffffffffffffffffffffffffffffffff808616855260029182018452938290208251608081018452815481526001820154948101949094529081015490931690820152600390910154606082015261200c8161220d565b15612030578085858151811061201e57fe5b60209081029190910101526001909301925b5050600101611f5e565b5060608167ffffffffffffffff8111801561205457600080fd5b5060405190808252806020026020018201604052801561208e57816020015b61207b61300c565b8152602001906001900390816120735790505b509295945050505050565b60035460ff1690565b6120aa612325565b73ffffffffffffffffffffffffffffffffffffffff166120c8611391565b73ffffffffffffffffffffffffffffffffffffffff1614612115576040517f08c379a00000000000000000000000000000000000000000000000000000000081526004016106f390613a40565b73ffffffffffffffffffffffffffffffffffffffff8116612162576040517f08c379a00000000000000000000000000000000000000000000000000000000081526004016106f3906134c0565b6000805460405173ffffffffffffffffffffffffffffffffffffffff808516939216917f8be0079c531659141344cd1fd0a4f28419497f9722a3daafe3b4186f6b6457e091a3600080547fffffffffffffffffffffffff00000000000000000000000000000000000000001673ffffffffffffffffffffffffffffffffffffffff92909216919091179055565b60006110a982612beb565b60006122068383612bef565b9392505050565b600061222182600001518360400151612329565b1580156122f95750602082015160408084015190517fdd62ed3e00000000000000000000000000000000000000000000000000000000815273ffffffffffffffffffffffffffffffffffffffff7f0000000000000000000000000000000000000000000000000000000000000000169163dd62ed3e916122a691903090600401613265565b60206040518083038186803b1580156122be57600080fd5b505afa1580156122d2573d6000803e3d6000fd5b505050506040513d601f19601f820116820180604052508101906122f69190613143565b10155b8015612309575060008260200151115b80156123185750428260600151115b1561067b5750600161067b565b3390565b60008173ffffffffffffffffffffffffffffffffffffffff167f000000000000000000000000000000000000000000000000000000000000000073ffffffffffffffffffffffffffffffffffffffff16636352211e856040518263ffffffff1660e01b815260040161239b9190613d8d565b60206040518083038186803b1580156123b357600080fd5b505afa1580156123c7573d6000803e3d6000fd5b505050506040513d601f19601f820116820180604052508101906123eb91906130d7565b73ffffffffffffffffffffffffffffffffffffffff16149392505050565b600082612418575060006110a9565b8282028284828161242557fe5b0414612206576040517f08c379a00000000000000000000000000000000000000000000000000000000081526004016106f3906139ac565b6000808211612498576040517f08c379a00000000000000000000000000000000000000000000000000000000081526004016106f390613801565b8183816124a157fe5b049392505050565b6000828211156124e5576040517f08c379a00000000000000000000000000000000000000000000000000000000081526004016106f39061361f565b50900390565b80471015612525576040517f08c379a00000000000000000000000000000000000000000000000000000000081526004016106f390613710565b60008273ffffffffffffffffffffffffffffffffffffffff168260405161254b90613241565b60006040518083038185875af1925050503d8060008114612588576040519150601f19603f3d011682016040523d82523d6000602084013e61258d565b606091505b50509050806125c8576040517f08c379a00000000000000000000000000000000000000000000000000000000081526004016106f390613656565b505050565b6000818152600660205260408120818155600181018290556002810180547fffffffffffffffffffffffff000000000000000000000000000000000000000016905560030155611375600782612c4e565b60005b6000828152600960205260409020612638906121ef565b81101561137557600082815260096020526040812061265790836121fa565b905061266161300c565b50600083815260096020908152604080832073ffffffffffffffffffffffffffffffffffffffff80861685526002918201845293829020825160808101845281548152600182015494810194909452908101549093169082015260039091015460608201526126cf8161220d565b6126dd576126dd8483612ab6565b5050600101612621565b6040517f081812fc00000000000000000000000000000000000000000000000000000000815260009030907f000000000000000000000000000000000000000000000000000000000000000073ffffffffffffffffffffffffffffffffffffffff169063081812fc9061275e908690600401613d8d565b60206040518083038186803b15801561277657600080fd5b505afa15801561278a573d6000803e3d6000fd5b505050506040513d601f19601f820116820180604052508101906127ae91906130d7565b73ffffffffffffffffffffffffffffffffffffffff161492915050565b6040517fe985e9c500000000000000000000000000000000000000000000000000000000815260009073ffffffffffffffffffffffffffffffffffffffff7f0000000000000000000000000000000000000000000000000000000000000000169063e985e9c5906128429085903090600401613265565b60206040518083038186803b15801561285a57600080fd5b505afa15801561286e573d6000803e3d6000fd5b505050506040513d601f19601f820116820180604052508101906110a9919061310f565b612935846323b872dd60e01b8585856040516024016128b39392919061328c565b604080517fffffffffffffffffffffffffffffffffffffffffffffffffffffffffffffffe08184030181529190526020810180517bffffffffffffffffffffffffffffffffffffffffffffffffffffffff167fffffffff0000000000000000000000000000000000000000000000000000000090931692909217909152612c5a565b50505050565b600081815260066020908152604091829020825160808101845281548152600182015492810192909252600281015473ffffffffffffffffffffffffffffffffffffffff1692820192909252600390910154606082015261299b90612b78565b610d3f57610d3f816125cd565b600080805b60008481526009602052604090206129c4906121ef565b8110156106775760008481526009602052604081206129e390836121fa565b90506129ed61300c565b50600085815260096020908152604080832073ffffffffffffffffffffffffffffffffffffffff8086168552600291820184529382902082516080810184528154815260018201549481019490945290810154909316908201526003909101546060820152612a5b8161220d565b612a6d57612a6a846001612a77565b93505b50506001016129ad565b600082820183811015612206576040517f08c379a00000000000000000000000000000000000000000000000000000000081526004016106f39061357a565b6000828152600960205260409020612ace9082612d10565b1561137557600082815260096020818152604080842073ffffffffffffffffffffffffffffffffffffffff86168552600280820184529185208581556001810186905591820180547fffffffffffffffffffffffff000000000000000000000000000000000000000016905560039091018490559285905252612b519082612d32565b506000828152600960205260409020612b69906121ef565b611375576125c8600a83612c4e565b6000612b8c82600001518360400151612329565b80156122f957508151612b9e906126e7565b806122f957506122f982604001516127cb565b60006122068383612d54565b60006122068383612d9e565b60006122068373ffffffffffffffffffffffffffffffffffffffff8416612d54565b5490565b81546000908210612c2c576040517f08c379a00000000000000000000000000000000000000000000000000000000081526004016106f390613406565b826000018281548110612c3b57fe5b9060005260206000200154905092915050565b60006122068383612db6565b6060612cbc826040518060400160405280602081526020017f5361666545524332303a206c6f772d6c6576656c2063616c6c206661696c65648152508573ffffffffffffffffffffffffffffffffffffffff16612e9a9092919063ffffffff16565b8051909150156125c85780806020019051810190612cda919061310f565b6125c8576040517f08c379a00000000000000000000000000000000000000000000000000000000081526004016106f390613b9d565b60006122068373ffffffffffffffffffffffffffffffffffffffff8416612d9e565b60006122068373ffffffffffffffffffffffffffffffffffffffff8416612db6565b6000612d608383612d9e565b612d96575081546001818101845560008481526020808220909301849055845484825282860190935260409020919091556110a9565b5060006110a9565b60009081526001919091016020526040902054151590565b60008181526001830160205260408120548015612e905783547fffffffffffffffffffffffffffffffffffffffffffffffffffffffffffffffff8083019190810190600090879083908110612e0757fe5b9060005260206000200154905080876000018481548110612e2457fe5b600091825260208083209091019290925582815260018981019092526040902090840190558654879080612e5457fe5b600190038181906000526020600020016000905590558660010160008781526020019081526020016000206000905560019450505050506110a9565b60009150506110a9565b6060612ea98484600085612eb1565b949350505050565b606082471015612eed576040517f08c379a00000000000000000000000000000000000000000000000000000000081526004016106f390613747565b612ef685612fb3565b612f2c576040517f08c379a00000000000000000000000000000000000000000000000000000000081526004016106f390613b2f565b600060608673ffffffffffffffffffffffffffffffffffffffff168587604051612f569190613225565b60006040518083038185875af1925050503d8060008114612f93576040519150601f19603f3d011682016040523d82523d6000602084013e612f98565b606091505b5091509150612fa8828286612fb9565b979650505050505050565b3b151590565b60608315612fc8575081612206565b825115612fd85782518084602001fd5b816040517f08c379a00000000000000000000000000000000000000000000000000000000081526004016106f39190613358565b60405180608001604052806000815260200160008152602001600073ffffffffffffffffffffffffffffffffffffffff168152602001600081525090565b828054828255906000526020600020908101928215613085579160200282015b8281111561308557825182559160200191906001019061306a565b50613091929150613095565b5090565b5b808211156130915760008155600101613096565b803560ff811681146110a957600080fd5b6000602082840312156130cc578081fd5b813561220681613dec565b6000602082840312156130e8578081fd5b815161220681613dec565b600060208284031215613104578081fd5b813561220681613e0e565b600060208284031215613120578081fd5b815161220681613e0e565b60006020828403121561313c578081fd5b5035919050565b600060208284031215613154578081fd5b5051919050565b6000806040838503121561316d578081fd5b82359150602083013561317f81613dec565b809150509250929050565b60008060006060848603121561319e578081fd5b505081359360208301359350604090920135919050565b600080604083850312156131c7578182fd5b6131d184846130aa565b91506131e084602085016130aa565b90509250929050565b805182526020810151602083015273ffffffffffffffffffffffffffffffffffffffff6040820151166040830152606081015160608301525050565b60008251613237818460208701613dc0565b9190910192915050565b90565b73ffffffffffffffffffffffffffffffffffffffff91909116815260200190565b73ffffffffffffffffffffffffffffffffffffffff92831681529116602082015260400190565b73ffffffffffffffffffffffffffffffffffffffff9384168152919092166020820152604081019190915260600190565b6020808252825182820181905260009190848201906040850190845b818110156132ff576132ec8385516131e9565b92840192608092909201916001016132d9565b50909695505050505050565b6020808252825182820181905260009190848201906040850190845b818110156132ff5761333a8385516131e9565b9284019260809290920191600101613327565b901515815260200190565b6000602082528251806020840152613377816040850160208701613dc0565b601f017fffffffffffffffffffffffffffffffffffffffffffffffffffffffffffffffe0169190910160400192915050565b60208082526035908201527f54686520746f6b656e206973206e6f7420617070726f76656420746f2074726160408201527f6e736665722062792074686520636f6e74726163740000000000000000000000606082015260800190565b60208082526022908201527f456e756d657261626c655365743a20696e646578206f7574206f6620626f756e60408201527f6473000000000000000000000000000000000000000000000000000000000000606082015260800190565b60208082526024908201527f546869732042696f20646f65736e277420686176652061206d61746368696e6760408201527f2062696400000000000000000000000000000000000000000000000000000000606082015260800190565b60208082526026908201527f4f776e61626c653a206e6577206f776e657220697320746865207a65726f206160408201527f6464726573730000000000000000000000000000000000000000000000000000606082015260800190565b60208082526025908201527f546f6b656e206f776e65722063616e277420627579207468656972206f776e2060408201527f746f6b656e000000000000000000000000000000000000000000000000000000606082015260800190565b6020808252601b908201527f536166654d6174683a206164646974696f6e206f766572666c6f770000000000604082015260600190565b6020808252601f908201527f4c697374696e6720616e642062696420617265206e6f7420656e61626c656400604082015260600190565b6020808252601a908201527f506c656173652062696420666f72206d6f7265207468616e2030000000000000604082015260600190565b6020808252601e908201527f536166654d6174683a207375627472616374696f6e206f766572666c6f770000604082015260600190565b6020808252603a908201527f416464726573733a20756e61626c6520746f2073656e642076616c75652c207260408201527f6563697069656e74206d61792068617665207265766572746564000000000000606082015260800190565b6020808252602c908201527f5468652076616c75652073656e642069732062656c6f772073616c652070726960408201527f636520706c757320666565730000000000000000000000000000000000000000606082015260800190565b6020808252601d908201527f416464726573733a20696e73756666696369656e742062616c616e6365000000604082015260600190565b60208082526026908201527f416464726573733a20696e73756666696369656e742062616c616e636520666f60408201527f722063616c6c0000000000000000000000000000000000000000000000000000606082015260800190565b60208082526025908201527f506c6561736520656e74657220612073686f7274657220706572696f64206f6660408201527f2074696d65000000000000000000000000000000000000000000000000000000606082015260800190565b6020808252601a908201527f536166654d6174683a206469766973696f6e206279207a65726f000000000000604082015260600190565b60208082526022908201527f5468697320546f6b656e2062656c6f6e677320746f207468697320616464726560408201527f7373000000000000000000000000000000000000000000000000000000000000606082015260800190565b6020808252602b908201527f417474656d707420746f207365742070657263656e746167652068696768657260408201527f207468616e20322e35252e000000000000000000000000000000000000000000606082015260800190565b60208082526038908201527f506c65617365206c69737420666f72206d6f7265207468616e2030206f72207560408201527f736520746865207472616e736665722066756e6374696f6e0000000000000000606082015260800190565b60208082526036908201527f4e65656420746f206861766520656e6f75676820746f6b656e20686f6c64696e60408201527f6720746f20626964206f6e207468697320746f6b656e00000000000000000000606082015260800190565b60208082526021908201527f536166654d6174683a206d756c7469706c69636174696f6e206f766572666c6f60408201527f7700000000000000000000000000000000000000000000000000000000000000606082015260800190565b60208082526015908201527f546f6b656e206973206e6f7420666f722073616c650000000000000000000000604082015260600190565b6020808252818101527f4f776e61626c653a2063616c6c6572206973206e6f7420746865206f776e6572604082015260600190565b60208082526036908201527f5468697320746f6b656e206973206e6f7420616c6c6f77656420746f2074726160408201527f6e73666572206279207468697320636f6e747261637400000000000000000000606082015260800190565b6020808252602b908201527f54686973206164647265737320646f65736e2774206861766520626964206f6e60408201527f207468697320746f6b656e000000000000000000000000000000000000000000606082015260800190565b6020808252601d908201527f416464726573733a2063616c6c20746f206e6f6e2d636f6e7472616374000000604082015260600190565b6020808252601b908201527f466565206672616374696f6e20657863656564656420626173652e0000000000604082015260600190565b6020808252602a908201527f5361666545524332303a204552433230206f7065726174696f6e20646964206e60408201527f6f74207375636365656400000000000000000000000000000000000000000000606082015260800190565b6020808252601f908201527f5265656e7472616e637947756172643a207265656e7472616e742063616c6c00604082015260600190565b60208082526022908201527f4f6e6c7920746f6b656e2073656c6c65722063616e2064656c69737420746f6b60408201527f656e000000000000000000000000000000000000000000000000000000000000606082015260800190565b6020808252601f908201527f4f6e6c7920746f6b656e206f776e65722063616e206c69737420746f6b656e00604082015260600190565b60208082526028908201527f4f6e6c7920746f6b656e206f776e65722063616e20616363657074206269642060408201527f6f6620746f6b656e000000000000000000000000000000000000000000000000606082015260800190565b60208082526024908201527f506c6561736520656e7465722061206c6f6e67657220706572696f64206f662060408201527f74696d6500000000000000000000000000000000000000000000000000000000606082015260800190565b608081016110a982846131e9565b90815260200190565b9283526020830191909152604082015260600190565b60ff92831681529116602082015260400190565b60005b83811015613ddb578181015183820152602001613dc3565b838111156129355750506000910152565b73ffffffffffffffffffffffffffffffffffffffff81168114610d3f57600080fd5b8015158114610d3f57600080fdfea264697066735822122078c7afc4e0da5832d1a8a3db839ac0433146d9f6ef302716f3083ad6aeda850164736f6c634300060c0033",
  "immutableReferences": {
    "67": [
      {
        "length": 32,
        "start": 2361
      },
      {
        "length": 32,
        "start": 3096
      },
      {
        "length": 32,
        "start": 5170
      },
      {
        "length": 32,
        "start": 9028
      },
      {
        "length": 32,
        "start": 10004
      },
      {
        "length": 32,
        "start": 10251
      }
    ],
    "69": [
      {
        "length": 32,
        "start": 2932
      },
      {
        "length": 32,
        "start": 2980
      },
      {
        "length": 32,
        "start": 5483
      },
      {
        "length": 32,
        "start": 7265
      },
      {
        "length": 32,
        "start": 8816
      }
    ]
  },
  "source": "// SPDX-License-Identifier: AGPL-3.0-or-later\n\npragma solidity =0.6.12;\npragma experimental ABIEncoderV2;\n\nimport \"@openzeppelin/contracts/access/Ownable.sol\";\nimport \"@openzeppelin/contracts/math/SafeMath.sol\";\nimport \"@openzeppelin/contracts/utils/Address.sol\";\nimport \"@openzeppelin/contracts/utils/EnumerableSet.sol\";\nimport \"@openzeppelin/contracts/utils/ReentrancyGuard.sol\";\nimport \"@openzeppelin/contracts/token/ERC721/IERC721.sol\";\nimport \"@openzeppelin/contracts/token/ERC20/SafeERC20.sol\";\nimport \"@openzeppelin/contracts/token/ERC20/IERC20.sol\";\nimport \"./interface/INFTKEYMarketPlaceV1.sol\";\n\n/**\n * @title NFTKEY MarketPlace contract V1\n * Note: This marketplace contract is collection based. It serves one ERC721 contract only\n * Payment tokens usually is the chain native coin's wrapped token, e.g. WETH, WBNB\n */\ncontract NFTKEYMarketPlaceV1 is INFTKEYMarketPlaceV1, Ownable, ReentrancyGuard {\n    using SafeMath for uint256;\n    using Address for address;\n    using EnumerableSet for EnumerableSet.UintSet;\n    using EnumerableSet for EnumerableSet.AddressSet;\n\n    struct TokenBid {\n        EnumerableSet.AddressSet bidders;\n        mapping(address => Bid) bids;\n    }\n\n    constructor(\n        string memory erc721Name_,\n        address _erc721Address,\n        address _paymentTokenAddress\n    ) public {\n        _erc721Name = erc721Name_;\n        _erc721 = IERC721(_erc721Address);\n        _paymentToken = IERC20(_paymentTokenAddress);\n    }\n\n    string private _erc721Name;\n    IERC721 private immutable _erc721;\n    IERC20 private immutable _paymentToken;\n\n    bool private _isListingAndBidEnabled = true;\n    uint8 private _feeFraction = 1;\n    uint8 private _feeBase = 100;\n    uint256 private _actionTimeOutRangeMin = 86400; // 24 hours\n    uint256 private _actionTimeOutRangeMax = 31536000; // One year - This can extend by owner is contract is working smoothly\n\n    mapping(uint256 => Listing) private _tokenListings;\n    EnumerableSet.UintSet private _tokenIdWithListing;\n\n    mapping(uint256 => TokenBid) private _tokenBids;\n    EnumerableSet.UintSet private _tokenIdWithBid;\n\n    EnumerableSet.AddressSet private _emptyBidders; // Help initiate TokenBid struct\n\n    /**\n     * @dev only if listing and bid is enabled\n     * This is to help contract migration in case of upgrade or bug\n     */\n    modifier onlyMarketplaceOpen() {\n        require(_isListingAndBidEnabled, \"Listing and bid are not enabled\");\n        _;\n    }\n\n    /**\n     * @dev only if the entered timestamp is within the allowed range\n     * This helps to not list or bid for too short or too long period of time\n     */\n    modifier onlyAllowedExpireTimestamp(uint256 expireTimestamp) {\n        require(\n            expireTimestamp.sub(block.timestamp) >= _actionTimeOutRangeMin,\n            \"Please enter a longer period of time\"\n        );\n        require(\n            expireTimestamp.sub(block.timestamp) <= _actionTimeOutRangeMax,\n            \"Please enter a shorter period of time\"\n        );\n        _;\n    }\n\n    /**\n     * @dev check if the account is the owner of this erc721 token\n     */\n    function _isTokenOwner(uint256 tokenId, address account) private view returns (bool) {\n        return _erc721.ownerOf(tokenId) == account;\n    }\n\n    /**\n     * @dev check if this contract has approved to transfer this erc721 token\n     */\n    function _isTokenApproved(uint256 tokenId) private view returns (bool) {\n        return _erc721.getApproved(tokenId) == address(this);\n    }\n\n    /**\n     * @dev check if this contract has approved to all of this owner's erc721 tokens\n     */\n    function _isAllTokenApproved(address owner) private view returns (bool) {\n        return _erc721.isApprovedForAll(owner, address(this));\n    }\n\n    /**\n     * @dev See {INFTKEYMarketPlaceV1-tokenAddress}.\n     */\n    function tokenAddress() external view override returns (address) {\n        return address(_erc721);\n    }\n\n    /**\n     * @dev See {INFTKEYMarketPlaceV1-paymentTokenAddress}.\n     */\n    function paymentTokenAddress() external view override returns (address) {\n        return address(_paymentToken);\n    }\n\n    /**\n     * @dev Check if a listing is valid or not\n     * The seller must be the owner\n     * The seller must have give this contract allowance\n     * The sell price must be more than 0\n     * The listing mustn't be expired\n     */\n    function _isListingValid(Listing memory listing) private view returns (bool) {\n        if (\n            _isTokenOwner(listing.tokenId, listing.seller) &&\n            (_isTokenApproved(listing.tokenId) || _isAllTokenApproved(listing.seller)) &&\n            listing.listingPrice > 0 &&\n            listing.expireTimestamp > block.timestamp\n        ) {\n            return true;\n        }\n    }\n\n    /**\n     * @dev See {INFTKEYMarketPlaceV1-getTokenListing}.\n     */\n    function getTokenListing(uint256 tokenId) public view override returns (Listing memory) {\n        Listing memory listing = _tokenListings[tokenId];\n        if (_isListingValid(listing)) {\n            return listing;\n        }\n    }\n\n    /**\n     * @dev See {INFTKEYMarketPlaceV1-getTokenListings}.\n     */\n    function getTokenListings() external view override returns (Listing[] memory) {\n        Listing[] memory listings = new Listing[](_tokenIdWithListing.length());\n        uint256 listingCount = 0;\n        for (uint256 i; i < _tokenIdWithListing.length(); i++) {\n            Listing memory listing = _tokenListings[_tokenIdWithListing.at(i)];\n            if (_isListingValid(listing)) {\n                listings[listingCount] = listing;\n                listingCount++;\n            }\n        }\n        Listing[] memory validListings = new Listing[](listingCount);\n        validListings = listings;\n        return validListings;\n    }\n\n    /**\n     * @dev Check if an bid is valid or not\n     * Bidder must not be the owner\n     * Bidder must give the contract allowance same or more than bid price\n     * Bid price must > 0\n     * Bid mustn't been expired\n     */\n    function _isBidValid(Bid memory bid) private view returns (bool) {\n        if (\n            !_isTokenOwner(bid.tokenId, bid.bidder) &&\n            _paymentToken.allowance(bid.bidder, address(this)) >= bid.bidPrice &&\n            bid.bidPrice > 0 &&\n            bid.expireTimestamp > block.timestamp\n        ) {\n            return true;\n        }\n    }\n\n    /**\n     * @dev See {INFTKEYMarketPlaceV1-getBidderTokenBid}.\n     */\n    function getBidderTokenBid(uint256 tokenId, address bidder)\n        public\n        view\n        override\n        returns (Bid memory)\n    {\n        Bid memory bid = _tokenBids[tokenId].bids[bidder];\n        if (_isBidValid(bid)) {\n            return bid;\n        }\n    }\n\n    /**\n     * @dev See {INFTKEYMarketPlaceV1-getTokenBids}.\n     */\n    function getTokenBids(uint256 tokenId) external view override returns (Bid[] memory) {\n        Bid[] memory bids = new Bid[](_tokenBids[tokenId].bidders.length());\n        uint256 bidsCount = 0;\n        for (uint256 i; i < _tokenBids[tokenId].bidders.length(); i++) {\n            address bidder = _tokenBids[tokenId].bidders.at(i);\n            Bid memory bid = _tokenBids[tokenId].bids[bidder];\n            if (_isBidValid(bid)) {\n                bids[bidsCount] = bid;\n                bidsCount++;\n            }\n        }\n\n        Bid[] memory validBids = new Bid[](bidsCount);\n        validBids = bids;\n        return validBids;\n    }\n\n    /**\n     * @dev See {INFTKEYMarketPlaceV1-getTokenHighestBid}.\n     */\n    function getTokenHighestBid(uint256 tokenId) public view override returns (Bid memory) {\n        Bid memory highestBid = Bid(tokenId, 0, address(0), 0);\n        for (uint256 i; i < _tokenBids[tokenId].bidders.length(); i++) {\n            address bidder = _tokenBids[tokenId].bidders.at(i);\n            Bid memory bid = _tokenBids[tokenId].bids[bidder];\n            if (_isBidValid(bid) && bid.bidPrice > highestBid.bidPrice) {\n                highestBid = bid;\n            }\n        }\n        return highestBid;\n    }\n\n    /**\n     * @dev See {INFTKEYMarketPlaceV1-getAllTokenHighestBids}.\n     */\n    function getAllTokenHighestBids() external view override returns (Bid[] memory) {\n        Bid[] memory allHighestBids = new Bid[](_tokenIdWithBid.length());\n        uint256 bidsCount = 0;\n        for (uint256 i; i < _tokenIdWithBid.length(); i++) {\n            Bid memory highestBid = getTokenHighestBid(_tokenIdWithBid.at(i));\n            if (highestBid.bidPrice > 0) {\n                allHighestBids[bidsCount] = highestBid;\n                bidsCount++;\n            }\n        }\n        Bid[] memory allValidHighestBids = new Bid[](bidsCount);\n        allValidHighestBids = allHighestBids;\n        return allValidHighestBids;\n    }\n\n    /**\n     * @dev delist a token - remove token id record and remove listing from mapping\n     * @param tokenId erc721 token Id\n     */\n    function _delistToken(uint256 tokenId) private {\n        delete _tokenListings[tokenId];\n        _tokenIdWithListing.remove(tokenId);\n    }\n\n    /**\n     * @dev remove invalid listing of a token\n     * @param tokenId erc721 token Id\n     */\n    function _cleanInvalidListingOfToken(uint256 tokenId) private {\n        if (!_isListingValid(_tokenListings[tokenId])) {\n            _delistToken(tokenId);\n        }\n    }\n\n    /**\n     * @dev remove a bid of a bidder\n     * @param tokenId erc721 token Id\n     * @param bidder bidder address\n     */\n    function _removeBidOfBidder(uint256 tokenId, address bidder) private {\n        if (_tokenBids[tokenId].bidders.contains(bidder)) {\n            // Step 1: delete the bid and the address\n            delete _tokenBids[tokenId].bids[bidder];\n            _tokenBids[tokenId].bidders.remove(bidder);\n\n            // Step 2: if no bid left\n            if (_tokenBids[tokenId].bidders.length() == 0) {\n                _tokenIdWithBid.remove(tokenId);\n            }\n        }\n    }\n\n    /**\n     * @dev remove invalid bids of a token\n     * @param tokenId erc721 token Id\n     */\n    function _cleanInvalidBidsOfToken(uint256 tokenId) private {\n        for (uint256 i = 0; i < _tokenBids[tokenId].bidders.length(); i++) {\n            address bidder = _tokenBids[tokenId].bidders.at(i);\n            Bid memory bid = _tokenBids[tokenId].bids[bidder];\n            if (!_isBidValid(bid)) {\n                _removeBidOfBidder(tokenId, bidder);\n            }\n        }\n    }\n\n    /**\n     * @dev See {INFTKEYMarketPlaceV1-listToken}.\n     * People can only list if listing is allowed\n     * The timestamp set needs to be in the allowed range\n     * Only token owner can list token\n     * Price must be higher than 0\n     * This contract must be approved to transfer this token\n     */\n    function listToken(\n        uint256 tokenId,\n        uint256 value,\n        uint256 expireTimestamp\n    ) external override onlyMarketplaceOpen onlyAllowedExpireTimestamp(expireTimestamp) {\n        require(value > 0, \"Please list for more than 0 or use the transfer function\");\n        require(_isTokenOwner(tokenId, msg.sender), \"Only token owner can list token\");\n        require(\n            _isTokenApproved(tokenId) || _isAllTokenApproved(msg.sender),\n            \"This token is not allowed to transfer by this contract\"\n        );\n\n        _tokenListings[tokenId] = Listing(tokenId, value, msg.sender, expireTimestamp);\n        _tokenIdWithListing.add(tokenId);\n\n        emit TokenListed(tokenId, msg.sender, value);\n    }\n\n    /**\n     * @dev See {INFTKEYMarketPlaceV1-delistToken}.\n     * msg.sender must be the seller of the listing record\n     */\n    function delistToken(uint256 tokenId) external override {\n        require(_tokenListings[tokenId].seller == msg.sender, \"Only token seller can delist token\");\n        emit TokenDelisted(tokenId, _tokenListings[tokenId].seller);\n        _delistToken(tokenId);\n    }\n\n    /**\n     * @dev See {INFTKEYMarketPlaceV1-buyToken}.\n     * Must have a valid listing\n     * msg.sender must not the owner of token\n     * msg.value must be at least sell price plus fees\n     */\n    function buyToken(uint256 tokenId) external payable override nonReentrant {\n        Listing memory listing = getTokenListing(tokenId); // Get valid listing\n        require(listing.seller != address(0), \"Token is not for sale\"); // Listing not valid\n        require(!_isTokenOwner(tokenId, msg.sender), \"Token owner can't buy their own token\");\n\n        uint256 fees = listing.listingPrice.mul(_feeFraction).div(_feeBase);\n        require(\n            msg.value >= listing.listingPrice + fees,\n            \"The value send is below sale price plus fees\"\n        );\n\n        // Send value to token seller and fees to contract owner\n        uint256 valueWithoutFees = msg.value.sub(fees);\n        Address.sendValue(payable(listing.seller), valueWithoutFees);\n        Address.sendValue(payable(owner()), fees);\n\n        // Send token to buyer\n        emit TokenBought(tokenId, listing.seller, msg.sender, msg.value, valueWithoutFees, fees);\n        _erc721.safeTransferFrom(listing.seller, msg.sender, tokenId);\n\n        // Remove token listing\n        _delistToken(tokenId);\n        _cleanInvalidBidsOfToken(tokenId);\n    }\n\n    /**\n     * @dev See {INFTKEYMarketPlaceV1-enterBidForToken}.\n     * People can only enter bid if bid is allowed\n     * The timestamp set needs to be in the allowed range\n     * bid price > 0\n     * must not be token owner\n     * must allow this contract to spend enough payment token\n     */\n    function enterBidForToken(\n        uint256 tokenId,\n        uint256 bidPrice,\n        uint256 expireTimestamp\n    ) external override onlyMarketplaceOpen onlyAllowedExpireTimestamp(expireTimestamp) {\n        require(bidPrice > 0, \"Please bid for more than 0\");\n        require(!_isTokenOwner(tokenId, msg.sender), \"This Token belongs to this address\");\n        require(\n            _paymentToken.allowance(msg.sender, address(this)) >= bidPrice,\n            \"Need to have enough token holding to bid on this token\"\n        );\n\n        Bid memory bid = Bid(tokenId, bidPrice, msg.sender, expireTimestamp);\n\n        // if no bids of this token add a entry to both records _tokenIdWithBid and _tokenBids\n        if (!_tokenIdWithBid.contains(tokenId)) {\n            _tokenIdWithBid.add(tokenId);\n            _tokenBids[tokenId] = TokenBid(_emptyBidders);\n        }\n\n        _tokenBids[tokenId].bidders.add(msg.sender);\n        _tokenBids[tokenId].bids[msg.sender] = bid;\n\n        emit TokenBidEntered(tokenId, msg.sender, bidPrice);\n    }\n\n    /**\n     * @dev See {INFTKEYMarketPlaceV1-withdrawBidForToken}.\n     * There must be a bid exists\n     * remove this bid record\n     */\n    function withdrawBidForToken(uint256 tokenId) external override {\n        Bid memory bid = _tokenBids[tokenId].bids[msg.sender];\n        require(bid.bidder == msg.sender, \"This address doesn't have bid on this token\");\n\n        emit TokenBidWithdrawn(tokenId, bid.bidder, bid.bidPrice);\n        _removeBidOfBidder(tokenId, msg.sender);\n    }\n\n    /**\n     * @dev See {INFTKEYMarketPlaceV1-acceptBidForToken}.\n     * Must be owner of this token\n     * Must have approved this contract to transfer token\n     * Must have a valid existing bid that matches the bidder address\n     */\n    function acceptBidForToken(uint256 tokenId, address bidder) external override nonReentrant {\n        require(_isTokenOwner(tokenId, msg.sender), \"Only token owner can accept bid of token\");\n        require(\n            _isTokenApproved(tokenId) || _isAllTokenApproved(msg.sender),\n            \"The token is not approved to transfer by the contract\"\n        );\n\n        Bid memory existingBid = getBidderTokenBid(tokenId, bidder);\n        require(\n            existingBid.bidPrice > 0 && existingBid.bidder == bidder,\n            \"This Bio doesn't have a matching bid\"\n        );\n\n        uint256 fees = existingBid.bidPrice.mul(_feeFraction).div(_feeBase + _feeFraction);\n        uint256 tokenValue = existingBid.bidPrice.sub(fees);\n\n        SafeERC20.safeTransferFrom(_paymentToken, existingBid.bidder, msg.sender, tokenValue);\n        SafeERC20.safeTransferFrom(_paymentToken, existingBid.bidder, owner(), fees);\n\n        _erc721.safeTransferFrom(msg.sender, existingBid.bidder, tokenId);\n\n        emit TokenBidAccepted(\n            tokenId,\n            msg.sender,\n            existingBid.bidder,\n            existingBid.bidPrice,\n            tokenValue,\n            fees\n        );\n\n        _cleanInvalidListingOfToken(tokenId);\n        _cleanInvalidBidsOfToken(tokenId);\n    }\n\n    /**\n     * @dev See {INFTKEYMarketPlaceV1-getInvalidListingCount}.\n     */\n    function getInvalidListingCount() external view override returns (uint256) {\n        uint256 count = 0;\n        for (uint256 i = 0; i < _tokenIdWithListing.length(); i++) {\n            if (!_isListingValid(_tokenListings[_tokenIdWithListing.at(i)])) {\n                count = count.add(1);\n            }\n        }\n        return count;\n    }\n\n    /**\n     * @dev Count how many bid records of a token are invalid now\n     */\n    function _getInvalidBidOfTokenCount(uint256 tokenId) private view returns (uint256) {\n        uint256 count = 0;\n        for (uint256 i = 0; i < _tokenBids[tokenId].bidders.length(); i++) {\n            address bidder = _tokenBids[tokenId].bidders.at(i);\n            Bid memory bid = _tokenBids[tokenId].bids[bidder];\n            if (!_isBidValid(bid)) {\n                count = count.add(1);\n            }\n        }\n        return count;\n    }\n\n    /**\n     * @dev See {INFTKEYMarketPlaceV1-getInvalidBidCount}.\n     */\n    function getInvalidBidCount() external view override returns (uint256) {\n        uint256 count = 0;\n        for (uint256 i = 0; i < _tokenIdWithBid.length(); i++) {\n            count = count.add(_getInvalidBidOfTokenCount(_tokenIdWithBid.at(i)));\n        }\n        return count;\n    }\n\n    /**\n     * @dev See {INFTKEYMarketPlaceV1-cleanAllInvalidListings}.\n     */\n    function cleanAllInvalidListings() external override {\n        for (uint256 i = 0; i < _tokenIdWithListing.length(); i++) {\n            _cleanInvalidListingOfToken(_tokenIdWithListing.at(i));\n        }\n    }\n\n    /**\n     * @dev See {INFTKEYMarketPlaceV1-cleanAllInvalidBids}.\n     */\n    function cleanAllInvalidBids() external override {\n        for (uint256 i = 0; i < _tokenIdWithBid.length(); i++) {\n            _cleanInvalidBidsOfToken(_tokenIdWithBid.at(i));\n        }\n    }\n\n    /**\n     * @dev See {INFTKEYMarketPlaceV1-erc721Name}.\n     */\n    function erc721Name() external view override returns (string memory) {\n        return _erc721Name;\n    }\n\n    /**\n     * @dev See {INFTKEYMarketPlaceV1-isListingAndBidEnabled}.\n     */\n    function isListingAndBidEnabled() external view override returns (bool) {\n        return _isListingAndBidEnabled;\n    }\n\n    /**\n     * @dev Enable to disable Bids and Listing\n     */\n    function changeMarketplaceStatus(bool enabled) external onlyOwner {\n        _isListingAndBidEnabled = enabled;\n    }\n\n    /**\n     * @dev See {INFTKEYMarketPlaceV1-actionTimeOutRangeMin}.\n     */\n    function actionTimeOutRangeMin() external view override returns (uint256) {\n        return _actionTimeOutRangeMin;\n    }\n\n    /**\n     * @dev See {INFTKEYMarketPlaceV1-actionTimeOutRangeMax}.\n     */\n    function actionTimeOutRangeMax() external view override returns (uint256) {\n        return _actionTimeOutRangeMax;\n    }\n\n    /**\n     * @dev Change minimum listing and bid time range\n     */\n    function changeMinActionTimeLimit(uint256 timeInSec) external onlyOwner {\n        _actionTimeOutRangeMin = timeInSec;\n    }\n\n    /**\n     * @dev Change maximum listing and bid time range\n     */\n    function changeMaxActionTimeLimit(uint256 timeInSec) external onlyOwner {\n        _actionTimeOutRangeMax = timeInSec;\n    }\n\n    /**\n     * @dev See {INFTKEYMarketPlaceV1-serviceFee}.\n     */\n    function serviceFee() external view override returns (uint8, uint8) {\n        return (_feeFraction, _feeBase);\n    }\n\n    /**\n     * @dev Change withdrawal fee percentage.\n     * If 1%, then input (1,100)\n     * If 0.5%, then input (5,1000)\n     * @param feeFraction_ Fraction of withdrawal fee based on feeBase_\n     * @param feeBase_ Fraction of withdrawal fee base\n     */\n    function changeSeriveFee(uint8 feeFraction_, uint8 feeBase_) external onlyOwner {\n        require(feeFraction_ <= feeBase_, \"Fee fraction exceeded base.\");\n        uint256 percentage = (feeFraction_ * 1000) / feeBase_;\n        require(percentage <= 25, \"Attempt to set percentage higher than 2.5%.\");\n\n        _feeFraction = feeFraction_;\n        _feeBase = feeBase_;\n    }\n}\n",
  "sourcePath": "/Users/fayexue/projects/nftkey-marketplace/contracts/NFTKEYMarketPlaceV1.sol",
  "compiler": {
    "name": "solc",
    "version": "0.6.12+commit.27d51765.Emscripten.clang"
  },
  "schemaVersion": "3.3.4",
  "updatedAt": "2021-03-28T12:36:26.022Z",
  "devdoc": {
    "kind": "dev",
    "methods": {
      "acceptBidForToken(uint256,address)": {
        "details": "See {INFTKEYMarketPlaceV1-acceptBidForToken}. Must be owner of this token Must have approved this contract to transfer token Must have a valid existing bid that matches the bidder address"
      },
      "actionTimeOutRangeMax()": {
        "details": "See {INFTKEYMarketPlaceV1-actionTimeOutRangeMax}."
      },
      "actionTimeOutRangeMin()": {
        "details": "See {INFTKEYMarketPlaceV1-actionTimeOutRangeMin}."
      },
      "buyToken(uint256)": {
        "details": "See {INFTKEYMarketPlaceV1-buyToken}. Must have a valid listing msg.sender must not the owner of token msg.value must be at least sell price plus fees"
      },
      "changeMarketplaceStatus(bool)": {
        "details": "Enable to disable Bids and Listing"
      },
      "changeMaxActionTimeLimit(uint256)": {
        "details": "Change maximum listing and bid time range"
      },
      "changeMinActionTimeLimit(uint256)": {
        "details": "Change minimum listing and bid time range"
      },
      "changeSeriveFee(uint8,uint8)": {
        "details": "Change withdrawal fee percentage. If 1%, then input (1,100) If 0.5%, then input (5,1000)",
        "params": {
          "feeBase_": "Fraction of withdrawal fee base",
          "feeFraction_": "Fraction of withdrawal fee based on feeBase_"
        }
      },
      "cleanAllInvalidBids()": {
        "details": "See {INFTKEYMarketPlaceV1-cleanAllInvalidBids}."
      },
      "cleanAllInvalidListings()": {
        "details": "See {INFTKEYMarketPlaceV1-cleanAllInvalidListings}."
      },
      "delistToken(uint256)": {
        "details": "See {INFTKEYMarketPlaceV1-delistToken}. msg.sender must be the seller of the listing record"
      },
      "enterBidForToken(uint256,uint256,uint256)": {
        "details": "See {INFTKEYMarketPlaceV1-enterBidForToken}. People can only enter bid if bid is allowed The timestamp set needs to be in the allowed range bid price > 0 must not be token owner must allow this contract to spend enough payment token"
      },
      "erc721Name()": {
        "details": "See {INFTKEYMarketPlaceV1-erc721Name}."
      },
      "getAllTokenHighestBids()": {
        "details": "See {INFTKEYMarketPlaceV1-getAllTokenHighestBids}."
      },
      "getBidderTokenBid(uint256,address)": {
        "details": "See {INFTKEYMarketPlaceV1-getBidderTokenBid}."
      },
      "getInvalidBidCount()": {
        "details": "See {INFTKEYMarketPlaceV1-getInvalidBidCount}."
      },
      "getInvalidListingCount()": {
        "details": "See {INFTKEYMarketPlaceV1-getInvalidListingCount}."
      },
      "getTokenBids(uint256)": {
        "details": "See {INFTKEYMarketPlaceV1-getTokenBids}."
      },
      "getTokenHighestBid(uint256)": {
        "details": "See {INFTKEYMarketPlaceV1-getTokenHighestBid}."
      },
      "getTokenListing(uint256)": {
        "details": "See {INFTKEYMarketPlaceV1-getTokenListing}."
      },
      "getTokenListings()": {
        "details": "See {INFTKEYMarketPlaceV1-getTokenListings}."
      },
      "isListingAndBidEnabled()": {
        "details": "See {INFTKEYMarketPlaceV1-isListingAndBidEnabled}."
      },
      "listToken(uint256,uint256,uint256)": {
        "details": "See {INFTKEYMarketPlaceV1-listToken}. People can only list if listing is allowed The timestamp set needs to be in the allowed range Only token owner can list token Price must be higher than 0 This contract must be approved to transfer this token"
      },
      "owner()": {
        "details": "Returns the address of the current owner."
      },
      "paymentTokenAddress()": {
        "details": "See {INFTKEYMarketPlaceV1-paymentTokenAddress}."
      },
      "renounceOwnership()": {
        "details": "Leaves the contract without owner. It will not be possible to call `onlyOwner` functions anymore. Can only be called by the current owner. NOTE: Renouncing ownership will leave the contract without an owner, thereby removing any functionality that is only available to the owner."
      },
      "serviceFee()": {
        "details": "See {INFTKEYMarketPlaceV1-serviceFee}."
      },
      "tokenAddress()": {
        "details": "See {INFTKEYMarketPlaceV1-tokenAddress}."
      },
      "transferOwnership(address)": {
        "details": "Transfers ownership of the contract to a new account (`newOwner`). Can only be called by the current owner."
      },
      "withdrawBidForToken(uint256)": {
        "details": "See {INFTKEYMarketPlaceV1-withdrawBidForToken}. There must be a bid exists remove this bid record"
      }
    },
    "title": "NFTKEY MarketPlace contract V1 Note: This marketplace contract is collection based. It serves one ERC721 contract only Payment tokens usually is the chain native coin's wrapped token, e.g. WETH, WBNB",
    "version": 1
  },
  "userdoc": {
    "kind": "user",
    "methods": {},
    "version": 1
  }
}