{
  "contractName": "TestERC721",
  "abi": [
    {
      "inputs": [],
      "stateMutability": "nonpayable",
      "type": "constructor"
    },
    {
      "anonymous": false,
      "inputs": [
        {
          "indexed": true,
          "internalType": "address",
          "name": "owner",
          "type": "address"
        },
        {
          "indexed": true,
          "internalType": "address",
          "name": "approved",
          "type": "address"
        },
        {
          "indexed": true,
          "internalType": "uint256",
          "name": "tokenId",
          "type": "uint256"
        }
      ],
      "name": "Approval",
      "type": "event"
    },
    {
      "anonymous": false,
      "inputs": [
        {
          "indexed": true,
          "internalType": "address",
          "name": "owner",
          "type": "address"
        },
        {
          "indexed": true,
          "internalType": "address",
          "name": "operator",
          "type": "address"
        },
        {
          "indexed": false,
          "internalType": "bool",
          "name": "approved",
          "type": "bool"
        }
      ],
      "name": "ApprovalForAll",
      "type": "event"
    },
    {
      "anonymous": false,
      "inputs": [
        {
          "indexed": true,
          "internalType": "address",
          "name": "from",
          "type": "address"
        },
        {
          "indexed": true,
          "internalType": "address",
          "name": "to",
          "type": "address"
        },
        {
          "indexed": true,
          "internalType": "uint256",
          "name": "tokenId",
          "type": "uint256"
        }
      ],
      "name": "Transfer",
      "type": "event"
    },
    {
      "inputs": [
        {
          "internalType": "address",
          "name": "to",
          "type": "address"
        },
        {
          "internalType": "uint256",
          "name": "tokenId",
          "type": "uint256"
        }
      ],
      "name": "approve",
      "outputs": [],
      "stateMutability": "nonpayable",
      "type": "function"
    },
    {
      "inputs": [
        {
          "internalType": "address",
          "name": "owner",
          "type": "address"
        }
      ],
      "name": "balanceOf",
      "outputs": [
        {
          "internalType": "uint256",
          "name": "",
          "type": "uint256"
        }
      ],
      "stateMutability": "view",
      "type": "function",
      "constant": true
    },
    {
      "inputs": [],
      "name": "baseURI",
      "outputs": [
        {
          "internalType": "string",
          "name": "",
          "type": "string"
        }
      ],
      "stateMutability": "view",
      "type": "function",
      "constant": true
    },
    {
      "inputs": [
        {
          "internalType": "uint256",
          "name": "tokenId",
          "type": "uint256"
        }
      ],
      "name": "getApproved",
      "outputs": [
        {
          "internalType": "address",
          "name": "",
          "type": "address"
        }
      ],
      "stateMutability": "view",
      "type": "function",
      "constant": true
    },
    {
      "inputs": [
        {
          "internalType": "address",
          "name": "owner",
          "type": "address"
        },
        {
          "internalType": "address",
          "name": "operator",
          "type": "address"
        }
      ],
      "name": "isApprovedForAll",
      "outputs": [
        {
          "internalType": "bool",
          "name": "",
          "type": "bool"
        }
      ],
      "stateMutability": "view",
      "type": "function",
      "constant": true
    },
    {
      "inputs": [],
      "name": "name",
      "outputs": [
        {
          "internalType": "string",
          "name": "",
          "type": "string"
        }
      ],
      "stateMutability": "view",
      "type": "function",
      "constant": true
    },
    {
      "inputs": [
        {
          "internalType": "uint256",
          "name": "tokenId",
          "type": "uint256"
        }
      ],
      "name": "ownerOf",
      "outputs": [
        {
          "internalType": "address",
          "name": "",
          "type": "address"
        }
      ],
      "stateMutability": "view",
      "type": "function",
      "constant": true
    },
    {
      "inputs": [
        {
          "internalType": "address",
          "name": "from",
          "type": "address"
        },
        {
          "internalType": "address",
          "name": "to",
          "type": "address"
        },
        {
          "internalType": "uint256",
          "name": "tokenId",
          "type": "uint256"
        }
      ],
      "name": "safeTransferFrom",
      "outputs": [],
      "stateMutability": "nonpayable",
      "type": "function"
    },
    {
      "inputs": [
        {
          "internalType": "address",
          "name": "from",
          "type": "address"
        },
        {
          "internalType": "address",
          "name": "to",
          "type": "address"
        },
        {
          "internalType": "uint256",
          "name": "tokenId",
          "type": "uint256"
        },
        {
          "internalType": "bytes",
          "name": "_data",
          "type": "bytes"
        }
      ],
      "name": "safeTransferFrom",
      "outputs": [],
      "stateMutability": "nonpayable",
      "type": "function"
    },
    {
      "inputs": [
        {
          "internalType": "address",
          "name": "operator",
          "type": "address"
        },
        {
          "internalType": "bool",
          "name": "approved",
          "type": "bool"
        }
      ],
      "name": "setApprovalForAll",
      "outputs": [],
      "stateMutability": "nonpayable",
      "type": "function"
    },
    {
      "inputs": [
        {
          "internalType": "bytes4",
          "name": "interfaceId",
          "type": "bytes4"
        }
      ],
      "name": "supportsInterface",
      "outputs": [
        {
          "internalType": "bool",
          "name": "",
          "type": "bool"
        }
      ],
      "stateMutability": "view",
      "type": "function",
      "constant": true
    },
    {
      "inputs": [],
      "name": "symbol",
      "outputs": [
        {
          "internalType": "string",
          "name": "",
          "type": "string"
        }
      ],
      "stateMutability": "view",
      "type": "function",
      "constant": true
    },
    {
      "inputs": [
        {
          "internalType": "uint256",
          "name": "index",
          "type": "uint256"
        }
      ],
      "name": "tokenByIndex",
      "outputs": [
        {
          "internalType": "uint256",
          "name": "",
          "type": "uint256"
        }
      ],
      "stateMutability": "view",
      "type": "function",
      "constant": true
    },
    {
      "inputs": [
        {
          "internalType": "address",
          "name": "owner",
          "type": "address"
        },
        {
          "internalType": "uint256",
          "name": "index",
          "type": "uint256"
        }
      ],
      "name": "tokenOfOwnerByIndex",
      "outputs": [
        {
          "internalType": "uint256",
          "name": "",
          "type": "uint256"
        }
      ],
      "stateMutability": "view",
      "type": "function",
      "constant": true
    },
    {
      "inputs": [
        {
          "internalType": "uint256",
          "name": "tokenId",
          "type": "uint256"
        }
      ],
      "name": "tokenURI",
      "outputs": [
        {
          "internalType": "string",
          "name": "",
          "type": "string"
        }
      ],
      "stateMutability": "view",
      "type": "function",
      "constant": true
    },
    {
      "inputs": [],
      "name": "totalSupply",
      "outputs": [
        {
          "internalType": "uint256",
          "name": "",
          "type": "uint256"
        }
      ],
      "stateMutability": "view",
      "type": "function",
      "constant": true
    },
    {
      "inputs": [
        {
          "internalType": "address",
          "name": "from",
          "type": "address"
        },
        {
          "internalType": "address",
          "name": "to",
          "type": "address"
        },
        {
          "internalType": "uint256",
          "name": "tokenId",
          "type": "uint256"
        }
      ],
      "name": "transferFrom",
      "outputs": [],
      "stateMutability": "nonpayable",
      "type": "function"
    },
    {
      "inputs": [],
      "name": "mint",
      "outputs": [],
      "stateMutability": "nonpayable",
      "type": "function"
    }
  ],
  "bytecode": "0x60806040523480156200001157600080fd5b50604080518082018252600b81526a546573742045524337323160a81b602080830191909152825180840190935260048352635437323160e01b9083015290620000626301ffc9a760e01b620000cc565b81516200007790600690602085019062000151565b5080516200008d90600790602084019062000151565b50620000a06380ac58cd60e01b620000cc565b620000b2635b5e139f60e01b620000cc565b620000c463780e9d6360e01b620000cc565b5050620001ed565b6001600160e01b031980821614156200012c576040805162461bcd60e51b815260206004820152601c60248201527f4552433136353a20696e76616c696420696e7465726661636520696400000000604482015290519081900360640190fd5b6001600160e01b0319166000908152602081905260409020805460ff19166001179055565b828054600181600116156101000203166002900490600052602060002090601f016020900481019282601f106200019457805160ff1916838001178555620001c4565b82800160010185558215620001c4579182015b82811115620001c4578251825591602001919060010190620001a7565b50620001d2929150620001d6565b5090565b5b80821115620001d25760008155600101620001d7565b61224f80620001fd6000396000f3fe608060405234801561001057600080fd5b50600436106101365760003560e01c80634f6ccce7116100b257806395d89b4111610081578063b88d4fde11610066578063b88d4fde14610425578063c87b56dd146104f8578063e985e9c51461051557610136565b806395d89b41146103e2578063a22cb465146103ea57610136565b80634f6ccce71461036d5780636352211e1461038a5780636c0360eb146103a757806370a08231146103af57610136565b80631249c58b1161010957806323b872dd116100ee57806323b872dd146102ae5780632f745c59146102f157806342842e0e1461032a57610136565b80631249c58b1461028c57806318160ddd1461029457610136565b806301ffc9a71461013b57806306fdde031461018e578063081812fc1461020b578063095ea7b314610251575b600080fd5b61017a6004803603602081101561015157600080fd5b50357fffffffff0000000000000000000000000000000000000000000000000000000016610550565b604080519115158252519081900360200190f35b61019661058b565b6040805160208082528351818301528351919283929083019185019080838360005b838110156101d05781810151838201526020016101b8565b50505050905090810190601f1680156101fd5780820380516001836020036101000a031916815260200191505b509250505060405180910390f35b6102286004803603602081101561022157600080fd5b503561063f565b6040805173ffffffffffffffffffffffffffffffffffffffff9092168252519081900360200190f35b61028a6004803603604081101561026757600080fd5b5073ffffffffffffffffffffffffffffffffffffffff81351690602001356106c8565b005b61028a61080b565b61029c61081e565b60408051918252519081900360200190f35b61028a600480360360608110156102c457600080fd5b5073ffffffffffffffffffffffffffffffffffffffff81358116916020810135909116906040013561082f565b61029c6004803603604081101561030757600080fd5b5073ffffffffffffffffffffffffffffffffffffffff81351690602001356108a0565b61028a6004803603606081101561034057600080fd5b5073ffffffffffffffffffffffffffffffffffffffff8135811691602081013590911690604001356108d8565b61029c6004803603602081101561038357600080fd5b50356108f3565b610228600480360360208110156103a057600080fd5b5035610909565b610196610931565b61029c600480360360208110156103c557600080fd5b503573ffffffffffffffffffffffffffffffffffffffff166109b0565b610196610a4c565b61028a6004803603604081101561040057600080fd5b5073ffffffffffffffffffffffffffffffffffffffff81351690602001351515610acb565b61028a6004803603608081101561043b57600080fd5b73ffffffffffffffffffffffffffffffffffffffff82358116926020810135909116916040820135919081019060808101606082013564010000000081111561048357600080fd5b82018360208201111561049557600080fd5b803590602001918460018302840111640100000000831117156104b757600080fd5b91908080601f016020809104026020016040519081016040528093929190818152602001838380828437600092019190915250929550610c3c945050505050565b6101966004803603602081101561050e57600080fd5b5035610cb4565b61017a6004803603604081101561052b57600080fd5b5073ffffffffffffffffffffffffffffffffffffffff81358116916020013516611023565b7fffffffff00000000000000000000000000000000000000000000000000000000811660009081526020819052604090205460ff165b919050565b60068054604080516020601f60027fffffffffffffffffffffffffffffffffffffffffffffffffffffffffffffffff6101006001881615020190951694909404938401819004810282018101909252828152606093909290918301828280156106355780601f1061060a57610100808354040283529160200191610635565b820191906000526020600020905b81548152906001019060200180831161061857829003601f168201915b5050505050905090565b600061064a8261105e565b61069f576040517f08c379a000000000000000000000000000000000000000000000000000000000815260040180806020018281038252602c815260200180612144602c913960400191505060405180910390fd5b5060009081526004602052604090205473ffffffffffffffffffffffffffffffffffffffff1690565b60006106d382610909565b90508073ffffffffffffffffffffffffffffffffffffffff168373ffffffffffffffffffffffffffffffffffffffff16141561075a576040517f08c379a00000000000000000000000000000000000000000000000000000000081526004018080602001828103825260218152602001806121c86021913960400191505060405180910390fd5b8073ffffffffffffffffffffffffffffffffffffffff1661077961106b565b73ffffffffffffffffffffffffffffffffffffffff1614806107a757506107a7816107a261106b565b611023565b6107fc576040517f08c379a00000000000000000000000000000000000000000000000000000000081526004018080602001828103825260388152602001806120976038913960400191505060405180910390fd5b610806838361106f565b505050565b61081c3361081761081e565b61110f565b565b600061082a600261112d565b905090565b61084061083a61106b565b82611138565b610895576040517f08c379a00000000000000000000000000000000000000000000000000000000081526004018080602001828103825260318152602001806121e96031913960400191505060405180910390fd5b61080683838361122a565b73ffffffffffffffffffffffffffffffffffffffff821660009081526001602052604081206108cf9083611405565b90505b92915050565b61080683838360405180602001604052806000815250610c3c565b600080610901600284611411565b509392505050565b60006108d2826040518060600160405280602981526020016120f9602991396002919061142d565b60098054604080516020601f60027fffffffffffffffffffffffffffffffffffffffffffffffffffffffffffffffff6101006001881615020190951694909404938401819004810282018101909252828152606093909290918301828280156106355780601f1061060a57610100808354040283529160200191610635565b600073ffffffffffffffffffffffffffffffffffffffff8216610a1e576040517f08c379a000000000000000000000000000000000000000000000000000000000815260040180806020018281038252602a8152602001806120cf602a913960400191505060405180910390fd5b73ffffffffffffffffffffffffffffffffffffffff821660009081526001602052604090206108d29061112d565b60078054604080516020601f60027fffffffffffffffffffffffffffffffffffffffffffffffffffffffffffffffff6101006001881615020190951694909404938401819004810282018101909252828152606093909290918301828280156106355780601f1061060a57610100808354040283529160200191610635565b610ad361106b565b73ffffffffffffffffffffffffffffffffffffffff168273ffffffffffffffffffffffffffffffffffffffff161415610b6d57604080517f08c379a000000000000000000000000000000000000000000000000000000000815260206004820152601960248201527f4552433732313a20617070726f766520746f2063616c6c657200000000000000604482015290519081900360640190fd5b8060056000610b7a61106b565b73ffffffffffffffffffffffffffffffffffffffff90811682526020808301939093526040918201600090812091871680825291909352912080547fffffffffffffffffffffffffffffffffffffffffffffffffffffffffffffff001692151592909217909155610be961106b565b73ffffffffffffffffffffffffffffffffffffffff167f17307eab39ab6107e8899845ad3d59bd9653f200f220920489ca2b5937696c318360405180821515815260200191505060405180910390a35050565b610c4d610c4761106b565b83611138565b610ca2576040517f08c379a00000000000000000000000000000000000000000000000000000000081526004018080602001828103825260318152602001806121e96031913960400191505060405180910390fd5b610cae84848484611444565b50505050565b6060610cbf8261105e565b610d14576040517f08c379a000000000000000000000000000000000000000000000000000000000815260040180806020018281038252602f815260200180612199602f913960400191505060405180910390fd5b60008281526008602090815260409182902080548351601f60027fffffffffffffffffffffffffffffffffffffffffffffffffffffffffffffffff610100600186161502019093169290920491820184900484028101840190945280845260609392830182828015610dc75780601f10610d9c57610100808354040283529160200191610dc7565b820191906000526020600020905b815481529060010190602001808311610daa57829003601f168201915b505050505090506060610dd8610931565b9050805160001415610dec57509050610586565b815115610f075780826040516020018083805190602001908083835b60208310610e4557805182527fffffffffffffffffffffffffffffffffffffffffffffffffffffffffffffffe09092019160209182019101610e08565b51815160209384036101000a7fffffffffffffffffffffffffffffffffffffffffffffffffffffffffffffffff018019909216911617905285519190930192850191508083835b60208310610ec957805182527fffffffffffffffffffffffffffffffffffffffffffffffffffffffffffffffe09092019160209182019101610e8c565b6001836020036101000a0380198251168184511680821785525050505050509050019250505060405160208183030381529060405292505050610586565b80610f11856114b0565b6040516020018083805190602001908083835b60208310610f6157805182527fffffffffffffffffffffffffffffffffffffffffffffffffffffffffffffffe09092019160209182019101610f24565b51815160209384036101000a7fffffffffffffffffffffffffffffffffffffffffffffffffffffffffffffffff018019909216911617905285519190930192850191508083835b60208310610fe557805182527fffffffffffffffffffffffffffffffffffffffffffffffffffffffffffffffe09092019160209182019101610fa8565b6001836020036101000a0380198251168184511680821785525050505050509050019250505060405160208183030381529060405292505050919050565b73ffffffffffffffffffffffffffffffffffffffff918216600090815260056020908152604080832093909416825291909152205460ff1690565b60006108d26002836115dd565b3390565b600081815260046020526040902080547fffffffffffffffffffffffff00000000000000000000000000000000000000001673ffffffffffffffffffffffffffffffffffffffff841690811790915581906110c982610909565b73ffffffffffffffffffffffffffffffffffffffff167f8c5be1e5ebec7d5bd14f71427d1e84f3dd0314c0f7b2291e5b200ac8c7c3b92560405160405180910390a45050565b6111298282604051806020016040528060008152506115e9565b5050565b60006108d282611655565b60006111438261105e565b611198576040517f08c379a000000000000000000000000000000000000000000000000000000000815260040180806020018281038252602c81526020018061206b602c913960400191505060405180910390fd5b60006111a383610909565b90508073ffffffffffffffffffffffffffffffffffffffff168473ffffffffffffffffffffffffffffffffffffffff16148061121257508373ffffffffffffffffffffffffffffffffffffffff166111fa8461063f565b73ffffffffffffffffffffffffffffffffffffffff16145b8061122257506112228185611023565b949350505050565b8273ffffffffffffffffffffffffffffffffffffffff1661124a82610909565b73ffffffffffffffffffffffffffffffffffffffff16146112b6576040517f08c379a00000000000000000000000000000000000000000000000000000000081526004018080602001828103825260298152602001806121706029913960400191505060405180910390fd5b73ffffffffffffffffffffffffffffffffffffffff8216611322576040517f08c379a00000000000000000000000000000000000000000000000000000000081526004018080602001828103825260248152602001806120476024913960400191505060405180910390fd5b61132d838383610806565b61133860008261106f565b73ffffffffffffffffffffffffffffffffffffffff831660009081526001602052604090206113679082611659565b5073ffffffffffffffffffffffffffffffffffffffff821660009081526001602052604090206113979082611665565b506113a460028284611671565b50808273ffffffffffffffffffffffffffffffffffffffff168473ffffffffffffffffffffffffffffffffffffffff167fddf252ad1be2c89b69c2b068fc378daa952ba7f163c4a11628f55a4df523b3ef60405160405180910390a4505050565b60006108cf8383611694565b60008080806114208686611712565b9097909650945050505050565b600061143a8484846117a7565b90505b9392505050565b61144f84848461122a565b61145b8484848461188b565b610cae576040517f08c379a00000000000000000000000000000000000000000000000000000000081526004018080602001828103825260328152602001806120156032913960400191505060405180910390fd5b6060816114f1575060408051808201909152600181527f30000000000000000000000000000000000000000000000000000000000000006020820152610586565b8160005b811561150957600101600a820491506114f5565b60608167ffffffffffffffff8111801561152257600080fd5b506040519080825280601f01601f19166020018201604052801561154d576020820181803683370190505b5085935090507fffffffffffffffffffffffffffffffffffffffffffffffffffffffffffffffff82015b83156115d457600a840660300160f81b8282806001900393508151811061159a57fe5b60200101907effffffffffffffffffffffffffffffffffffffffffffffffffffffffffffff1916908160001a905350600a84049350611577565b50949350505050565b60006108cf8383611a9b565b6115f38383611ab3565b611600600084848461188b565b610806576040517f08c379a00000000000000000000000000000000000000000000000000000000081526004018080602001828103825260328152602001806120156032913960400191505060405180910390fd5b5490565b60006108cf8383611c3c565b60006108cf8383611d20565b600061143a848473ffffffffffffffffffffffffffffffffffffffff8516611d6a565b815460009082106116f0576040517f08c379a0000000000000000000000000000000000000000000000000000000008152600401808060200182810382526022815260200180611ff36022913960400191505060405180910390fd5b8260000182815481106116ff57fe5b9060005260206000200154905092915050565b815460009081908310611770576040517f08c379a00000000000000000000000000000000000000000000000000000000081526004018080602001828103825260228152602001806121226022913960400191505060405180910390fd5b600084600001848154811061178157fe5b906000526020600020906002020190508060000154816001015492509250509250929050565b6000828152600184016020526040812054828161185c576040517f08c379a00000000000000000000000000000000000000000000000000000000081526004018080602001828103825283818151815260200191508051906020019080838360005b83811015611821578181015183820152602001611809565b50505050905090810190601f16801561184e5780820380516001836020036101000a031916815260200191505b509250505060405180910390fd5b5084600001600182038154811061186f57fe5b9060005260206000209060020201600101549150509392505050565b60006118ac8473ffffffffffffffffffffffffffffffffffffffff16611e01565b6118b857506001611222565b6060611a307f150b7a02000000000000000000000000000000000000000000000000000000006118e661106b565b888787604051602401808573ffffffffffffffffffffffffffffffffffffffff1681526020018473ffffffffffffffffffffffffffffffffffffffff16815260200183815260200180602001828103825283818151815260200191508051906020019080838360005b8381101561196757818101518382015260200161194f565b50505050905090810190601f1680156119945780820380516001836020036101000a031916815260200191505b5095505050505050604051602081830303815290604052907bffffffffffffffffffffffffffffffffffffffffffffffffffffffff19166020820180517bffffffffffffffffffffffffffffffffffffffffffffffffffffffff83818316178352505050506040518060600160405280603281526020016120156032913973ffffffffffffffffffffffffffffffffffffffff88169190611e07565b90506000818060200190516020811015611a4957600080fd5b50517fffffffff00000000000000000000000000000000000000000000000000000000167f150b7a02000000000000000000000000000000000000000000000000000000001492505050949350505050565b60009081526001919091016020526040902054151590565b73ffffffffffffffffffffffffffffffffffffffff8216611b3557604080517f08c379a000000000000000000000000000000000000000000000000000000000815260206004820181905260248201527f4552433732313a206d696e7420746f20746865207a65726f2061646472657373604482015290519081900360640190fd5b611b3e8161105e565b15611baa57604080517f08c379a000000000000000000000000000000000000000000000000000000000815260206004820152601c60248201527f4552433732313a20746f6b656e20616c7265616479206d696e74656400000000604482015290519081900360640190fd5b611bb660008383610806565b73ffffffffffffffffffffffffffffffffffffffff82166000908152600160205260409020611be59082611665565b50611bf260028284611671565b50604051819073ffffffffffffffffffffffffffffffffffffffff8416906000907fddf252ad1be2c89b69c2b068fc378daa952ba7f163c4a11628f55a4df523b3ef908290a45050565b60008181526001830160205260408120548015611d165783547fffffffffffffffffffffffffffffffffffffffffffffffffffffffffffffffff8083019190810190600090879083908110611c8d57fe5b9060005260206000200154905080876000018481548110611caa57fe5b600091825260208083209091019290925582815260018981019092526040902090840190558654879080611cda57fe5b600190038181906000526020600020016000905590558660010160008781526020019081526020016000206000905560019450505050506108d2565b60009150506108d2565b6000611d2c8383611a9b565b611d62575081546001818101845560008481526020808220909301849055845484825282860190935260409020919091556108d2565b5060006108d2565b600082815260018401602052604081205480611dcf57505060408051808201825283815260208082018481528654600181810189556000898152848120955160029093029095019182559151908201558654868452818801909252929091205561143d565b82856000016001830381548110611de257fe5b906000526020600020906002020160010181905550600091505061143d565b3b151590565b606061143a848460008585611e1b85611e01565b611e8657604080517f08c379a000000000000000000000000000000000000000000000000000000000815260206004820152601d60248201527f416464726573733a2063616c6c20746f206e6f6e2d636f6e7472616374000000604482015290519081900360640190fd5b600060608673ffffffffffffffffffffffffffffffffffffffff1685876040518082805190602001908083835b60208310611ef057805182527fffffffffffffffffffffffffffffffffffffffffffffffffffffffffffffffe09092019160209182019101611eb3565b6001836020036101000a03801982511681845116808217855250505050505090500191505060006040518083038185875af1925050503d8060008114611f52576040519150601f19603f3d011682016040523d82523d6000602084013e611f57565b606091505b5091509150611f67828286611f72565b979650505050505050565b60608315611f8157508161143d565b825115611f915782518084602001fd5b6040517f08c379a000000000000000000000000000000000000000000000000000000000815260206004820181815284516024840152845185939192839260440191908501908083836000831561182157818101518382015260200161180956fe456e756d657261626c655365743a20696e646578206f7574206f6620626f756e64734552433732313a207472616e7366657220746f206e6f6e20455243373231526563656976657220696d706c656d656e7465724552433732313a207472616e7366657220746f20746865207a65726f20616464726573734552433732313a206f70657261746f7220717565727920666f72206e6f6e6578697374656e7420746f6b656e4552433732313a20617070726f76652063616c6c6572206973206e6f74206f776e6572206e6f7220617070726f76656420666f7220616c6c4552433732313a2062616c616e636520717565727920666f7220746865207a65726f20616464726573734552433732313a206f776e657220717565727920666f72206e6f6e6578697374656e7420746f6b656e456e756d657261626c654d61703a20696e646578206f7574206f6620626f756e64734552433732313a20617070726f76656420717565727920666f72206e6f6e6578697374656e7420746f6b656e4552433732313a207472616e73666572206f6620746f6b656e2074686174206973206e6f74206f776e4552433732314d657461646174613a2055524920717565727920666f72206e6f6e6578697374656e7420746f6b656e4552433732313a20617070726f76616c20746f2063757272656e74206f776e65724552433732313a207472616e736665722063616c6c6572206973206e6f74206f776e6572206e6f7220617070726f766564a264697066735822122082018ae375fc16a1346289548e67dedbaed52eaf4f1e965aa136e221fc99377964736f6c634300060c0033",
  "immutableReferences": {},
  "source": "// SPDX-License-Identifier: AGPL-3.0-or-later\n\npragma solidity =0.6.12;\n\nimport \"@openzeppelin/contracts/token/ERC721/ERC721.sol\";\n\ncontract TestERC721 is ERC721 {\n    constructor() public ERC721(\"Test ERC721\", \"T721\") {}\n\n    function mint() external {\n        _safeMint(msg.sender, totalSupply());\n    }\n}\n",
  "sourcePath": "/Users/fayexue/projects/nftkey-marketplace/contracts/TestERC721.sol",
  "compiler": {
    "name": "solc",
    "version": "0.6.12+commit.27d51765.Emscripten.clang"
  },
  "schemaVersion": "3.3.4",
  "updatedAt": "2021-05-10T06:29:34.403Z",
  "networkType": "ethereum",
  "devdoc": {
    "kind": "dev",
    "methods": {
      "approve(address,uint256)": {
        "details": "See {IERC721-approve}."
      },
      "balanceOf(address)": {
        "details": "See {IERC721-balanceOf}."
      },
      "baseURI()": {
        "details": "Returns the base URI set via {_setBaseURI}. This will be automatically added as a prefix in {tokenURI} to each token's URI, or to the token ID if no specific URI is set for that token ID."
      },
      "getApproved(uint256)": {
        "details": "See {IERC721-getApproved}."
      },
      "isApprovedForAll(address,address)": {
        "details": "See {IERC721-isApprovedForAll}."
      },
      "name()": {
        "details": "See {IERC721Metadata-name}."
      },
      "ownerOf(uint256)": {
        "details": "See {IERC721-ownerOf}."
      },
      "safeTransferFrom(address,address,uint256)": {
        "details": "See {IERC721-safeTransferFrom}."
      },
      "safeTransferFrom(address,address,uint256,bytes)": {
        "details": "See {IERC721-safeTransferFrom}."
      },
      "setApprovalForAll(address,bool)": {
        "details": "See {IERC721-setApprovalForAll}."
      },
      "supportsInterface(bytes4)": {
        "details": "See {IERC165-supportsInterface}. Time complexity O(1), guaranteed to always use less than 30 000 gas."
      },
      "symbol()": {
        "details": "See {IERC721Metadata-symbol}."
      },
      "tokenByIndex(uint256)": {
        "details": "See {IERC721Enumerable-tokenByIndex}."
      },
      "tokenOfOwnerByIndex(address,uint256)": {
        "details": "See {IERC721Enumerable-tokenOfOwnerByIndex}."
      },
      "tokenURI(uint256)": {
        "details": "See {IERC721Metadata-tokenURI}."
      },
      "totalSupply()": {
        "details": "See {IERC721Enumerable-totalSupply}."
      },
      "transferFrom(address,address,uint256)": {
        "details": "See {IERC721-transferFrom}."
      }
    },
    "version": 1
  },
  "userdoc": {
    "kind": "user",
    "methods": {},
    "version": 1
  }
}